{
  "_format": "hh-sol-artifact-1",
  "contractName": "Migrations",
  "sourceName": "contracts/Migrations.sol",
  "abi": [
    {
      "inputs": [],
      "stateMutability": "nonpayable",
      "type": "constructor"
    },
    {
      "inputs": [
        {
          "internalType": "bytes32",
          "name": "c__0x41be1f94",
          "type": "bytes32"
        }
      ],
      "name": "c_0x41be1f94",
      "outputs": [],
      "stateMutability": "pure",
      "type": "function"
    },
    {
      "inputs": [],
      "name": "last_completed_migration",
      "outputs": [
        {
          "internalType": "uint256",
          "name": "",
          "type": "uint256"
        }
      ],
      "stateMutability": "view",
      "type": "function"
    },
    {
      "inputs": [],
      "name": "owner",
      "outputs": [
        {
          "internalType": "address",
          "name": "",
          "type": "address"
        }
      ],
      "stateMutability": "view",
      "type": "function"
    },
    {
      "inputs": [
        {
          "internalType": "uint256",
          "name": "completed",
          "type": "uint256"
        }
      ],
      "name": "setCompleted",
      "outputs": [],
      "stateMutability": "nonpayable",
      "type": "function"
    },
    {
      "inputs": [
        {
          "internalType": "address",
          "name": "new_address",
          "type": "address"
        }
      ],
      "name": "upgrade",
      "outputs": [],
      "stateMutability": "nonpayable",
      "type": "function"
    }
  ],
  "bytecode": "0x608060405234801561001057600080fd5b506100437f6cd21193f7731a13efe255e292a34c65bf6d94ba64af1135ffc82efcf23dff7460001b6100ec60201b60201c565b6100757fdaf9399af884e04e4c24d2c06a1879af59dc9f0c16320e3c8547b4cd41df452160001b6100ec60201b60201c565b6100a77f239cbf1fc8edbf56c06c1c8052867b04628a3cb769f7269fc653961607555cfd60001b6100ec60201b60201c565b336000806101000a81548173ffffffffffffffffffffffffffffffffffffffff021916908373ffffffffffffffffffffffffffffffffffffffff1602179055506100ef565b50565b6105fd806100fe6000396000f3fe608060405234801561001057600080fd5b50600436106100575760003560e01c80630900f0101461005c57806331316c44146100a0578063445df0ac146100ce5780638da5cb5b146100ec578063fdacd57614610120575b600080fd5b61009e6004803603602081101561007257600080fd5b81019080803573ffffffffffffffffffffffffffffffffffffffff16906020019092919050505061014e565b005b6100cc600480360360208110156100b657600080fd5b81019080803590602001909291905050506103d6565b005b6100d66103d9565b6040518082815260200191505060405180910390f35b6100f46103df565b604051808273ffffffffffffffffffffffffffffffffffffffff16815260200191505060405180910390f35b61014c6004803603602081101561013657600080fd5b8101908080359060200190929190505050610403565b005b61017a7f8d8c5a8abcc4c18d42e6b61a63e3e4f903efe2d8303ce113d4689d5f9f956ff260001b6103d6565b6101a67f6095813d45157fb93f60fa2fc6d8c21d4b5f634a8b0818427d221ef7c46eaaec60001b6103d6565b6101d27fe759a05a6ef53de217b500c11b0893bc66e9bd195004ffa75f227cfd3144a8a560001b6103d6565b60008054906101000a900473ffffffffffffffffffffffffffffffffffffffff1673ffffffffffffffffffffffffffffffffffffffff163373ffffffffffffffffffffffffffffffffffffffff1614156103a6576102527ff09cf920db63c3e34349197d9905cd1c437bc9b58289eaa0546b00aca27e3d6560001b6103d6565b61027e7fd03b0a45ecfc45b44113585104e42c04fd2da63b9a246ee22e4845748823ce0460001b6103d6565b6102aa7f106eb58ca72c0a852a6383b45746b0f1b2ef1f16d2dc8d623f19ff790c704d1d60001b6103d6565b6102d67f721fc64bded79531bca035a0f051afbbda12acf29f3e3a937f967180c4b313d160001b6103d6565b60008190506103077f0fcfbe7526b99537d977acfe120ec1a08c5f0d1415ce57d69629d6b32deea3ef60001b6103d6565b6103337f0188bbc9910cb061b0def08fcd47295e1f1b2a0f2e1f2d2249e8c0728cb37e7360001b6103d6565b8073ffffffffffffffffffffffffffffffffffffffff1663fdacd5766001546040518263ffffffff1660e01b815260040180828152602001915050600060405180830381600087803b15801561038857600080fd5b505af115801561039c573d6000803e3d6000fd5b50505050506103d3565b6103d27fe87c8cf169fc4bbd5153859434fd72b486c644bef73fc8292a43df1eb04458dc60001b6103d6565b5b50565b50565b60015481565b60008054906101000a900473ffffffffffffffffffffffffffffffffffffffff1681565b61042f7f8d8c5a8abcc4c18d42e6b61a63e3e4f903efe2d8303ce113d4689d5f9f956ff260001b6103d6565b61045b7f6095813d45157fb93f60fa2fc6d8c21d4b5f634a8b0818427d221ef7c46eaaec60001b6103d6565b6104877fe759a05a6ef53de217b500c11b0893bc66e9bd195004ffa75f227cfd3144a8a560001b6103d6565b60008054906101000a900473ffffffffffffffffffffffffffffffffffffffff1673ffffffffffffffffffffffffffffffffffffffff163373ffffffffffffffffffffffffffffffffffffffff161415610597576105077ff09cf920db63c3e34349197d9905cd1c437bc9b58289eaa0546b00aca27e3d6560001b6103d6565b6105337f18e18a37361962ac3ade3b05759aa0a843f60874a0d54aae8f95826caf9fe80160001b6103d6565b61055f7f6c357e42ae327acdb94dbe6c49f4b45175fcdc6e4879ba1f2690ac6c8f718be260001b6103d6565b61058b7faadf726c65760ad7ae922dc5e8a14a31ad9f5f4573d6885d37f3d587786ce87060001b6103d6565b806001819055506105c4565b6105c37fe87c8cf169fc4bbd5153859434fd72b486c644bef73fc8292a43df1eb04458dc60001b6103d6565b5b5056fea2646970667358221220c0e974e1166a115fb515f821c2e9858498e1a8115e535080560bcf894a89a00f64736f6c634300060c0033",
  "linkReferences": {},
  "deployedLinkReferences": {}
}