{
  "_format": "hh-sol-artifact-1",
  "contractName": "MonoswapToken",
  "sourceName": "contracts/MonoswapToken.sol",
  "abi": [
    {
      "anonymous": false,
      "inputs": [
        {
          "indexed": true,
          "internalType": "address",
          "name": "account",
          "type": "address"
        },
        {
          "indexed": true,
          "internalType": "address",
          "name": "operator",
          "type": "address"
        },
        {
          "indexed": false,
          "internalType": "bool",
          "name": "approved",
          "type": "bool"
        }
      ],
      "name": "ApprovalForAll",
      "type": "event"
    },
    {
      "anonymous": false,
      "inputs": [
        {
          "indexed": true,
          "internalType": "address",
          "name": "previousOwner",
          "type": "address"
        },
        {
          "indexed": true,
          "internalType": "address",
          "name": "newOwner",
          "type": "address"
        }
      ],
      "name": "OwnershipTransferred",
      "type": "event"
    },
    {
      "anonymous": false,
      "inputs": [
        {
          "indexed": true,
          "internalType": "address",
          "name": "operator",
          "type": "address"
        },
        {
          "indexed": true,
          "internalType": "address",
          "name": "from",
          "type": "address"
        },
        {
          "indexed": true,
          "internalType": "address",
          "name": "to",
          "type": "address"
        },
        {
          "indexed": false,
          "internalType": "uint256[]",
          "name": "ids",
          "type": "uint256[]"
        },
        {
          "indexed": false,
          "internalType": "uint256[]",
          "name": "values",
          "type": "uint256[]"
        }
      ],
      "name": "TransferBatch",
      "type": "event"
    },
    {
      "anonymous": false,
      "inputs": [
        {
          "indexed": true,
          "internalType": "address",
          "name": "operator",
          "type": "address"
        },
        {
          "indexed": true,
          "internalType": "address",
          "name": "from",
          "type": "address"
        },
        {
          "indexed": true,
          "internalType": "address",
          "name": "to",
          "type": "address"
        },
        {
          "indexed": false,
          "internalType": "uint256",
          "name": "id",
          "type": "uint256"
        },
        {
          "indexed": false,
          "internalType": "uint256",
          "name": "value",
          "type": "uint256"
        }
      ],
      "name": "TransferSingle",
      "type": "event"
    },
    {
      "anonymous": false,
      "inputs": [
        {
          "indexed": false,
          "internalType": "string",
          "name": "value",
          "type": "string"
        },
        {
          "indexed": true,
          "internalType": "uint256",
          "name": "id",
          "type": "uint256"
        }
      ],
      "name": "URI",
      "type": "event"
    },
    {
      "inputs": [
        {
          "internalType": "address",
          "name": "account",
          "type": "address"
        },
        {
          "internalType": "uint256",
          "name": "id",
          "type": "uint256"
        }
      ],
      "name": "balanceOf",
      "outputs": [
        {
          "internalType": "uint256",
          "name": "",
          "type": "uint256"
        }
      ],
      "stateMutability": "view",
      "type": "function"
    },
    {
      "inputs": [
        {
          "internalType": "address[]",
          "name": "accounts",
          "type": "address[]"
        },
        {
          "internalType": "uint256[]",
          "name": "ids",
          "type": "uint256[]"
        }
      ],
      "name": "balanceOfBatch",
      "outputs": [
        {
          "internalType": "uint256[]",
          "name": "",
          "type": "uint256[]"
        }
      ],
      "stateMutability": "view",
      "type": "function"
    },
    {
      "inputs": [
        {
          "internalType": "address",
          "name": "account",
          "type": "address"
        },
        {
          "internalType": "uint256",
          "name": "id",
          "type": "uint256"
        },
        {
          "internalType": "uint256",
          "name": "amount",
          "type": "uint256"
        }
      ],
      "name": "burn",
      "outputs": [],
      "stateMutability": "nonpayable",
      "type": "function"
    },
    {
      "inputs": [
        {
          "internalType": "address",
          "name": "account",
          "type": "address"
        },
        {
          "internalType": "address",
          "name": "operator",
          "type": "address"
        }
      ],
      "name": "isApprovedForAll",
      "outputs": [
        {
          "internalType": "bool",
          "name": "",
          "type": "bool"
        }
      ],
      "stateMutability": "view",
      "type": "function"
    },
    {
      "inputs": [
        {
          "internalType": "address",
          "name": "account",
          "type": "address"
        },
        {
          "internalType": "uint256",
          "name": "id",
          "type": "uint256"
        },
        {
          "internalType": "uint256",
          "name": "amount",
          "type": "uint256"
        }
      ],
      "name": "mint",
      "outputs": [],
      "stateMutability": "nonpayable",
      "type": "function"
    },
    {
      "inputs": [],
      "name": "owner",
      "outputs": [
        {
          "internalType": "address",
          "name": "",
          "type": "address"
        }
      ],
      "stateMutability": "view",
      "type": "function"
    },
    {
      "inputs": [],
      "name": "renounceOwnership",
      "outputs": [],
      "stateMutability": "nonpayable",
      "type": "function"
    },
    {
      "inputs": [
        {
          "internalType": "address",
          "name": "from",
          "type": "address"
        },
        {
          "internalType": "address",
          "name": "to",
          "type": "address"
        },
        {
          "internalType": "uint256[]",
          "name": "ids",
          "type": "uint256[]"
        },
        {
          "internalType": "uint256[]",
          "name": "amounts",
          "type": "uint256[]"
        },
        {
          "internalType": "bytes",
          "name": "data",
          "type": "bytes"
        }
      ],
      "name": "safeBatchTransferFrom",
      "outputs": [],
      "stateMutability": "nonpayable",
      "type": "function"
    },
    {
      "inputs": [
        {
          "internalType": "address",
          "name": "from",
          "type": "address"
        },
        {
          "internalType": "address",
          "name": "to",
          "type": "address"
        },
        {
          "internalType": "uint256",
          "name": "id",
          "type": "uint256"
        },
        {
          "internalType": "uint256",
          "name": "amount",
          "type": "uint256"
        },
        {
          "internalType": "bytes",
          "name": "data",
          "type": "bytes"
        }
      ],
      "name": "safeTransferFrom",
      "outputs": [],
      "stateMutability": "nonpayable",
      "type": "function"
    },
    {
      "inputs": [
        {
          "internalType": "address",
          "name": "operator",
          "type": "address"
        },
        {
          "internalType": "bool",
          "name": "approved",
          "type": "bool"
        }
      ],
      "name": "setApprovalForAll",
      "outputs": [],
      "stateMutability": "nonpayable",
      "type": "function"
    },
    {
      "inputs": [
        {
          "internalType": "bytes4",
          "name": "interfaceId",
          "type": "bytes4"
        }
      ],
      "name": "supportsInterface",
      "outputs": [
        {
          "internalType": "bool",
          "name": "",
          "type": "bool"
        }
      ],
      "stateMutability": "view",
      "type": "function"
    },
    {
      "inputs": [
        {
          "internalType": "address",
          "name": "newOwner",
          "type": "address"
        }
      ],
      "name": "transferOwnership",
      "outputs": [],
      "stateMutability": "nonpayable",
      "type": "function"
    },
    {
      "inputs": [
        {
          "internalType": "uint256",
          "name": "",
          "type": "uint256"
        }
      ],
      "name": "uri",
      "outputs": [
        {
          "internalType": "string",
          "name": "",
          "type": "string"
        }
      ],
      "stateMutability": "view",
      "type": "function"
    }
  ],
  "bytecode": "0x60806040523480156200001157600080fd5b506040805180820190915260038152627b317d60e81b60208201526200003e6301ffc9a760e01b620000ce565b620000498162000153565b6200005b636cdb3d1360e11b620000ce565b6200006d6303a24d0760e21b620000ce565b5060006200007a6200016c565b600480546001600160a01b0319166001600160a01b038316908117909155604051919250906000907f8be0079c531659141344cd1fd0a4f28419497f9722a3daafe3b4186f6b6457e0908290a3506200021c565b6001600160e01b031980821614156200012e576040805162461bcd60e51b815260206004820152601c60248201527f4552433136353a20696e76616c696420696e7465726661636520696400000000604482015290519081900360640190fd5b6001600160e01b0319166000908152602081905260409020805460ff19166001179055565b80516200016890600390602084019062000170565b5050565b3390565b828054600181600116156101000203166002900490600052602060002090601f016020900481019282620001a85760008555620001f3565b82601f10620001c357805160ff1916838001178555620001f3565b82800160010185558215620001f3579182015b82811115620001f3578251825591602001919060010190620001d6565b506200020192915062000205565b5090565b5b8082111562000201576000815560010162000206565b611c07806200022c6000396000f3fe608060405234801561001057600080fd5b50600436106100ae5760003560e01c8062fdd58e146100b357806301ffc9a7146100f15780630e89341c1461012c578063156e29f6146101be5780632eb2c2d6146101f25780634e1273f4146103b3578063715018a6146105265780638da5cb5b1461052e578063a22cb46514610552578063e985e9c514610580578063f242432a146105ae578063f2fde38b14610677578063f5298aca1461069d575b600080fd5b6100df600480360360408110156100c957600080fd5b506001600160a01b0381351690602001356106cf565b60408051918252519081900360200190f35b6101186004803603602081101561010757600080fd5b50356001600160e01b03191661073e565b604080519115158252519081900360200190f35b6101496004803603602081101561014257600080fd5b503561075d565b6040805160208082528351818301528351919283929083019185019080838360005b8381101561018357818101518382015260200161016b565b50505050905090810190601f1680156101b05780820380516001836020036101000a031916815260200191505b509250505060405180910390f35b6101f0600480360360608110156101d457600080fd5b506001600160a01b0381351690602081013590604001356107f5565b005b6101f0600480360360a081101561020857600080fd5b6001600160a01b038235811692602081013590911691810190606081016040820135600160201b81111561023b57600080fd5b82018360208201111561024d57600080fd5b803590602001918460208302840111600160201b8311171561026e57600080fd5b9190808060200260200160405190810160405280939291908181526020018383602002808284376000920191909152509295949360208101935035915050600160201b8111156102bd57600080fd5b8201836020820111156102cf57600080fd5b803590602001918460208302840111600160201b831117156102f057600080fd5b9190808060200260200160405190810160405280939291908181526020018383602002808284376000920191909152509295949360208101935035915050600160201b81111561033f57600080fd5b82018360208201111561035157600080fd5b803590602001918460018302840111600160201b8311171561037257600080fd5b91908080601f016020809104026020016040519081016040528093929190818152602001838380828437600092019190915250929550610877945050505050565b6104d6600480360360408110156103c957600080fd5b810190602081018135600160201b8111156103e357600080fd5b8201836020820111156103f557600080fd5b803590602001918460208302840111600160201b8311171561041657600080fd5b9190808060200260200160405190810160405280939291908181526020018383602002808284376000920191909152509295949360208101935035915050600160201b81111561046557600080fd5b82018360208201111561047757600080fd5b803590602001918460208302840111600160201b8311171561049857600080fd5b919080806020026020016040519081016040528093929190818152602001838360200280828437600092019190915250929550610b75945050505050565b60408051602080825283518183015283519192839290830191858101910280838360005b838110156105125781810151838201526020016104fa565b505050509050019250505060405180910390f35b6101f0610c60565b610536610d0c565b604080516001600160a01b039092168252519081900360200190f35b6101f06004803603604081101561056857600080fd5b506001600160a01b0381351690602001351515610d1c565b6101186004803603604081101561059657600080fd5b506001600160a01b0381358116916020013516610e0b565b6101f0600480360360a08110156105c457600080fd5b6001600160a01b03823581169260208101359091169160408201359160608101359181019060a081016080820135600160201b81111561060357600080fd5b82018360208201111561061557600080fd5b803590602001918460018302840111600160201b8311171561063657600080fd5b91908080601f016020809104026020016040519081016040528093929190818152602001838380828437600092019190915250929550610e39945050505050565b6101f06004803603602081101561068d57600080fd5b50356001600160a01b0316610ff2565b6101f0600480360360608110156106b357600080fd5b506001600160a01b0381351690602081013590604001356110f5565b60006001600160a01b0383166107165760405162461bcd60e51b815260040180806020018281038252602b8152602001806119d5602b913960400191505060405180910390fd5b5060009081526001602090815260408083206001600160a01b03949094168352929052205490565b6001600160e01b03191660009081526020819052604090205460ff1690565b60038054604080516020601f60026000196101006001881615020190951694909404938401819004810282018101909252828152606093909290918301828280156107e95780601f106107be576101008083540402835291602001916107e9565b820191906000526020600020905b8154815290600101906020018083116107cc57829003601f168201915b50505050509050919050565b6107fd611162565b6001600160a01b031661080e610d0c565b6001600160a01b031614610857576040805162461bcd60e51b81526020600482018190526024820152600080516020611b17833981519152604482015290519081900360640190fd5b61087283838360405180602001604052806000815250611166565b505050565b81518351146108b75760405162461bcd60e51b8152600401808060200182810382526028815260200180611b896028913960400191505060405180910390fd5b6001600160a01b0384166108fc5760405162461bcd60e51b8152600401808060200182810382526025815260200180611a736025913960400191505060405180910390fd5b610904611162565b6001600160a01b0316856001600160a01b0316148061092f575061092f8561092a611162565b610e0b565b61096a5760405162461bcd60e51b8152600401808060200182810382526032815260200180611a986032913960400191505060405180910390fd5b6000610974611162565b9050610984818787878787610b6d565b60005b8451811015610a8557600085828151811061099e57fe5b6020026020010151905060008583815181106109b657fe5b60200260200101519050610a23816040518060600160405280602a8152602001611aed602a91396001600086815260200190815260200160002060008d6001600160a01b03166001600160a01b031681526020019081526020016000205461125c9092919063ffffffff16565b60008381526001602090815260408083206001600160a01b038e811685529252808320939093558a1681522054610a5a90826112f3565b60009283526001602081815260408086206001600160a01b038d168752909152909320555001610987565b50846001600160a01b0316866001600160a01b0316826001600160a01b03167f4a39dc06d4c0dbc64b70af90fd698a233a518aa5d07e595d983b8c0526c8f7fb8787604051808060200180602001838103835285818151815260200191508051906020019060200280838360005b83811015610b0b578181015183820152602001610af3565b50505050905001838103825284818151815260200191508051906020019060200280838360005b83811015610b4a578181015183820152602001610b32565b5050505090500194505050505060405180910390a4610b6d818787878787611352565b505050505050565b60608151835114610bb75760405162461bcd60e51b8152600401808060200182810382526029815260200180611b606029913960400191505060405180910390fd5b600083516001600160401b0381118015610bd057600080fd5b50604051908082528060200260200182016040528015610bfa578160200160208202803683370190505b50905060005b8451811015610c5857610c39858281518110610c1857fe5b6020026020010151858381518110610c2c57fe5b60200260200101516106cf565b828281518110610c4557fe5b6020908102919091010152600101610c00565b509392505050565b610c68611162565b6001600160a01b0316610c79610d0c565b6001600160a01b031614610cc2576040805162461bcd60e51b81526020600482018190526024820152600080516020611b17833981519152604482015290519081900360640190fd5b6004546040516000916001600160a01b0316907f8be0079c531659141344cd1fd0a4f28419497f9722a3daafe3b4186f6b6457e0908390a3600480546001600160a01b0319169055565b6004546001600160a01b03165b90565b816001600160a01b0316610d2e611162565b6001600160a01b03161415610d745760405162461bcd60e51b8152600401808060200182810382526029815260200180611b376029913960400191505060405180910390fd5b8060026000610d81611162565b6001600160a01b03908116825260208083019390935260409182016000908120918716808252919093529120805460ff191692151592909217909155610dc5611162565b6001600160a01b03167f17307eab39ab6107e8899845ad3d59bd9653f200f220920489ca2b5937696c318360405180821515815260200191505060405180910390a35050565b6001600160a01b03918216600090815260026020908152604080832093909416825291909152205460ff1690565b6001600160a01b038416610e7e5760405162461bcd60e51b8152600401808060200182810382526025815260200180611a736025913960400191505060405180910390fd5b610e86611162565b6001600160a01b0316856001600160a01b03161480610eac5750610eac8561092a611162565b610ee75760405162461bcd60e51b8152600401808060200182810382526029815260200180611a4a6029913960400191505060405180910390fd5b6000610ef1611162565b9050610f11818787610f02886115d1565b610f0b886115d1565b87610b6d565b610f58836040518060600160405280602a8152602001611aed602a913960008781526001602090815260408083206001600160a01b038d168452909152902054919061125c565b60008581526001602090815260408083206001600160a01b038b81168552925280832093909355871681522054610f8f90846112f3565b60008581526001602090815260408083206001600160a01b03808b168086529184529382902094909455805188815291820187905280518a8416938616926000805160206119b583398151915292908290030190a4610b6d818787878787611616565b610ffa611162565b6001600160a01b031661100b610d0c565b6001600160a01b031614611054576040805162461bcd60e51b81526020600482018190526024820152600080516020611b17833981519152604482015290519081900360640190fd5b6001600160a01b0381166110995760405162461bcd60e51b8152600401808060200182810382526026815260200180611a006026913960400191505060405180910390fd5b6004546040516001600160a01b038084169216907f8be0079c531659141344cd1fd0a4f28419497f9722a3daafe3b4186f6b6457e090600090a3600480546001600160a01b0319166001600160a01b0392909216919091179055565b6110fd611162565b6001600160a01b031661110e610d0c565b6001600160a01b031614611157576040805162461bcd60e51b81526020600482018190526024820152600080516020611b17833981519152604482015290519081900360640190fd5b610872838383611787565b3390565b6001600160a01b0384166111ab5760405162461bcd60e51b8152600401808060200182810382526021815260200180611bb16021913960400191505060405180910390fd5b60006111b5611162565b90506111c781600087610f02886115d1565b60008481526001602090815260408083206001600160a01b03891684529091529020546111f490846112f3565b60008581526001602090815260408083206001600160a01b03808b16808652918452828520959095558151898152928301889052815190948616926000805160206119b583398151915292908290030190a461125581600087878787611616565b5050505050565b600081848411156112eb5760405162461bcd60e51b81526004018080602001828103825283818151815260200191508051906020019080838360005b838110156112b0578181015183820152602001611298565b50505050905090810190601f1680156112dd5780820380516001836020036101000a031916815260200191505b509250505060405180910390fd5b505050900390565b60008282018381101561134b576040805162461bcd60e51b815260206004820152601b60248201527a536166654d6174683a206164646974696f6e206f766572666c6f7760281b604482015290519081900360640190fd5b9392505050565b611364846001600160a01b03166118a8565b15610b6d57836001600160a01b031663bc197c8187878686866040518663ffffffff1660e01b815260040180866001600160a01b03168152602001856001600160a01b03168152602001806020018060200180602001848103845287818151815260200191508051906020019060200280838360005b838110156113f25781810151838201526020016113da565b50505050905001848103835286818151815260200191508051906020019060200280838360005b83811015611431578181015183820152602001611419565b50505050905001848103825285818151815260200191508051906020019080838360005b8381101561146d578181015183820152602001611455565b50505050905090810190601f16801561149a5780820380516001836020036101000a031916815260200191505b5098505050505050505050602060405180830381600087803b1580156114bf57600080fd5b505af19250505080156114e457506040513d60208110156114df57600080fd5b505160015b611579576114f06118b4565b806114fb5750611542565b60405162461bcd60e51b81526020600482018181528351602484015283518493919283926044019190850190808383600083156112b0578181015183820152602001611298565b60405162461bcd60e51b81526004018080602001828103825260348152602001806119596034913960400191505060405180910390fd5b6001600160e01b0319811663bc197c8160e01b146115c85760405162461bcd60e51b815260040180806020018281038252602881526020018061198d6028913960400191505060405180910390fd5b50505050505050565b6040805160018082528183019092526060916000919060208083019080368337019050509050828160008151811061160557fe5b602090810291909101015292915050565b611628846001600160a01b03166118a8565b15610b6d57836001600160a01b031663f23a6e6187878686866040518663ffffffff1660e01b815260040180866001600160a01b03168152602001856001600160a01b0316815260200184815260200183815260200180602001828103825283818151815260200191508051906020019080838360005b838110156116b757818101518382015260200161169f565b50505050905090810190601f1680156116e45780820380516001836020036101000a031916815260200191505b509650505050505050602060405180830381600087803b15801561170757600080fd5b505af192505050801561172c57506040513d602081101561172757600080fd5b505160015b611738576114f06118b4565b6001600160e01b0319811663f23a6e6160e01b146115c85760405162461bcd60e51b815260040180806020018281038252602881526020018061198d6028913960400191505060405180910390fd5b6001600160a01b0383166117cc5760405162461bcd60e51b8152600401808060200182810382526023815260200180611aca6023913960400191505060405180910390fd5b60006117d6611162565b9050611806818560006117e8876115d1565b6117f1876115d1565b60405180602001604052806000815250610b6d565b61184d82604051806060016040528060248152602001611a266024913960008681526001602090815260408083206001600160a01b038b168452909152902054919061125c565b60008481526001602090815260408083206001600160a01b03808a16808652918452828520959095558151888152928301879052815193949093908616926000805160206119b583398151915292908290030190a450505050565b3b151590565b60e01c90565b600060443d10156118c457610d19565b600481823e6308c379a06118d882516118ae565b146118e257610d19565b6040513d600319016004823e80513d6001600160401b0381602484011181841117156119115750505050610d19565b8284019250825191508082111561192b5750505050610d19565b503d8301602082840101111561194357505050610d19565b601f01601f191681016020016040529150509056fe455243313135353a207472616e7366657220746f206e6f6e2045524331313535526563656976657220696d706c656d656e746572455243313135353a204552433131353552656365697665722072656a656374656420746f6b656e73c3d58168c5ae7397731d063d5bbf3d657854427343f4c083240f7aacaa2d0f62455243313135353a2062616c616e636520717565727920666f7220746865207a65726f20616464726573734f776e61626c653a206e6577206f776e657220697320746865207a65726f2061646472657373455243313135353a206275726e20616d6f756e7420657863656564732062616c616e6365455243313135353a2063616c6c6572206973206e6f74206f776e6572206e6f7220617070726f766564455243313135353a207472616e7366657220746f20746865207a65726f2061646472657373455243313135353a207472616e736665722063616c6c6572206973206e6f74206f776e6572206e6f7220617070726f766564455243313135353a206275726e2066726f6d20746865207a65726f2061646472657373455243313135353a20696e73756666696369656e742062616c616e636520666f72207472616e736665724f776e61626c653a2063616c6c6572206973206e6f7420746865206f776e6572455243313135353a2073657474696e6720617070726f76616c2073746174757320666f722073656c66455243313135353a206163636f756e747320616e6420696473206c656e677468206d69736d61746368455243313135353a2069647320616e6420616d6f756e7473206c656e677468206d69736d61746368455243313135353a206d696e7420746f20746865207a65726f2061646472657373a264697066735822122001d26df46952507ad5926219e984daae914667df468244edacb2ef9d5abf8e1564736f6c63430007060033",
  "linkReferences": {},
  "deployedLinkReferences": {}
}