{
  "_format": "hh-sol-artifact-1",
  "contractName": "Monoswap",
  "sourceName": "contracts/Monoswap.sol",
  "abi": [
    {
      "anonymous": false,
      "inputs": [
        {
          "indexed": true,
          "internalType": "address",
          "name": "provider",
          "type": "address"
        },
        {
          "indexed": true,
          "internalType": "uint256",
          "name": "pid",
          "type": "uint256"
        },
        {
          "indexed": true,
          "internalType": "address",
          "name": "token",
          "type": "address"
        },
        {
          "indexed": false,
          "internalType": "uint256",
          "name": "liquidityAmount",
          "type": "uint256"
        },
        {
          "indexed": false,
          "internalType": "uint256",
          "name": "vusdAmount",
          "type": "uint256"
        },
        {
          "indexed": false,
          "internalType": "uint256",
          "name": "tokenAmount",
          "type": "uint256"
        }
      ],
      "name": "AddLiquidity",
      "type": "event"
    },
    {
      "anonymous": false,
      "inputs": [
        {
          "indexed": true,
          "internalType": "address",
          "name": "previousOwner",
          "type": "address"
        },
        {
          "indexed": true,
          "internalType": "address",
          "name": "newOwner",
          "type": "address"
        }
      ],
      "name": "OwnershipTransferred",
      "type": "event"
    },
    {
      "anonymous": false,
      "inputs": [
        {
          "indexed": true,
          "internalType": "address",
          "name": "provider",
          "type": "address"
        },
        {
          "indexed": true,
          "internalType": "uint256",
          "name": "pid",
          "type": "uint256"
        },
        {
          "indexed": true,
          "internalType": "address",
          "name": "token",
          "type": "address"
        },
        {
          "indexed": false,
          "internalType": "uint256",
          "name": "liquidityAmount",
          "type": "uint256"
        },
        {
          "indexed": false,
          "internalType": "uint256",
          "name": "vusdAmount",
          "type": "uint256"
        },
        {
          "indexed": false,
          "internalType": "uint256",
          "name": "tokenAmount",
          "type": "uint256"
        }
      ],
      "name": "RemoveLiquidity",
      "type": "event"
    },
    {
      "anonymous": false,
      "inputs": [
        {
          "indexed": true,
          "internalType": "address",
          "name": "user",
          "type": "address"
        },
        {
          "indexed": true,
          "internalType": "address",
          "name": "tokenIn",
          "type": "address"
        },
        {
          "indexed": true,
          "internalType": "address",
          "name": "tokenOut",
          "type": "address"
        },
        {
          "indexed": false,
          "internalType": "uint256",
          "name": "amountIn",
          "type": "uint256"
        },
        {
          "indexed": false,
          "internalType": "uint256",
          "name": "amountOut",
          "type": "uint256"
        }
      ],
      "name": "Swap",
      "type": "event"
    },
    {
      "inputs": [
        {
          "internalType": "address",
          "name": "_token",
          "type": "address"
        },
        {
          "internalType": "uint256",
          "name": "liquidity",
          "type": "uint256"
        },
        {
          "internalType": "address",
          "name": "to",
          "type": "address"
        }
      ],
      "name": "_removeLiquidity",
      "outputs": [
        {
          "internalType": "uint256",
          "name": "poolValue",
          "type": "uint256"
        },
        {
          "internalType": "uint256",
          "name": "liquidityIn",
          "type": "uint256"
        },
        {
          "internalType": "uint256",
          "name": "vusdOut",
          "type": "uint256"
        },
        {
          "internalType": "uint256",
          "name": "tokenOut",
          "type": "uint256"
        }
      ],
      "stateMutability": "view",
      "type": "function"
    },
    {
      "inputs": [
        {
          "internalType": "address",
          "name": "_token",
          "type": "address"
        },
        {
          "internalType": "uint256",
          "name": "_amount",
          "type": "uint256"
        },
        {
          "internalType": "address",
          "name": "to",
          "type": "address"
        }
      ],
      "name": "addLiquidity",
      "outputs": [
        {
          "internalType": "uint256",
          "name": "liquidity",
          "type": "uint256"
        }
      ],
      "stateMutability": "nonpayable",
      "type": "function"
    },
    {
      "inputs": [
        {
          "internalType": "address",
          "name": "_token",
          "type": "address"
        },
        {
          "internalType": "uint256",
          "name": "vusdAmount",
          "type": "uint256"
        },
        {
          "internalType": "uint256",
          "name": "tokenAmount",
          "type": "uint256"
        },
        {
          "internalType": "address",
          "name": "to",
          "type": "address"
        }
      ],
      "name": "addLiquidityPair",
      "outputs": [
        {
          "internalType": "uint256",
          "name": "liquidity",
          "type": "uint256"
        }
      ],
      "stateMutability": "nonpayable",
      "type": "function"
    },
    {
      "inputs": [
        {
          "internalType": "address",
          "name": "_token",
          "type": "address"
        },
        {
          "internalType": "uint112",
          "name": "_price",
          "type": "uint112"
        }
      ],
      "name": "addOfficialToken",
      "outputs": [
        {
          "internalType": "uint256",
          "name": "_pid",
          "type": "uint256"
        }
      ],
      "stateMutability": "nonpayable",
      "type": "function"
    },
    {
      "inputs": [
        {
          "internalType": "address",
          "name": "account",
          "type": "address"
        },
        {
          "internalType": "uint256",
          "name": "id",
          "type": "uint256"
        }
      ],
      "name": "balanceOf",
      "outputs": [
        {
          "internalType": "uint256",
          "name": "",
          "type": "uint256"
        }
      ],
      "stateMutability": "view",
      "type": "function"
    },
    {
      "inputs": [
        {
          "internalType": "address",
          "name": "tokenIn",
          "type": "address"
        },
        {
          "internalType": "address",
          "name": "tokenOut",
          "type": "address"
        },
        {
          "internalType": "uint256",
          "name": "amountOut",
          "type": "uint256"
        }
      ],
      "name": "getAmountIn",
      "outputs": [
        {
          "internalType": "uint256",
          "name": "tokenInPrice",
          "type": "uint256"
        },
        {
          "internalType": "uint256",
          "name": "tokenOutPrice",
          "type": "uint256"
        },
        {
          "internalType": "uint256",
          "name": "amountIn",
          "type": "uint256"
        },
        {
          "internalType": "uint256",
          "name": "tradeVusdValue",
          "type": "uint256"
        }
      ],
      "stateMutability": "view",
      "type": "function"
    },
    {
      "inputs": [
        {
          "internalType": "address",
          "name": "tokenIn",
          "type": "address"
        },
        {
          "internalType": "address",
          "name": "tokenOut",
          "type": "address"
        },
        {
          "internalType": "uint256",
          "name": "amountIn",
          "type": "uint256"
        }
      ],
      "name": "getAmountOut",
      "outputs": [
        {
          "internalType": "uint256",
          "name": "tokenInPrice",
          "type": "uint256"
        },
        {
          "internalType": "uint256",
          "name": "tokenOutPrice",
          "type": "uint256"
        },
        {
          "internalType": "uint256",
          "name": "amountOut",
          "type": "uint256"
        },
        {
          "internalType": "uint256",
          "name": "tradeVusdValue",
          "type": "uint256"
        }
      ],
      "stateMutability": "view",
      "type": "function"
    },
    {
      "inputs": [
        {
          "internalType": "address",
          "name": "_token",
          "type": "address"
        }
      ],
      "name": "getPool",
      "outputs": [
        {
          "internalType": "uint256",
          "name": "poolValue",
          "type": "uint256"
        },
        {
          "internalType": "uint256",
          "name": "tokenBalanceVusdValue",
          "type": "uint256"
        },
        {
          "internalType": "uint256",
          "name": "vusdCredit",
          "type": "uint256"
        },
        {
          "internalType": "uint256",
          "name": "vusdDebt",
          "type": "uint256"
        }
      ],
      "stateMutability": "view",
      "type": "function"
    },
    {
      "inputs": [
        {
          "internalType": "contract MonoXPool",
          "name": "_monoXPool",
          "type": "address"
        },
        {
          "internalType": "contract IvUSD",
          "name": "_vusd",
          "type": "address"
        }
      ],
      "name": "initialize",
      "outputs": [],
      "stateMutability": "nonpayable",
      "type": "function"
    },
    {
      "inputs": [
        {
          "internalType": "address",
          "name": "_token",
          "type": "address"
        },
        {
          "internalType": "uint112",
          "name": "_price",
          "type": "uint112"
        },
        {
          "internalType": "uint256",
          "name": "vusdAmount",
          "type": "uint256"
        },
        {
          "internalType": "uint256",
          "name": "tokenAmount",
          "type": "uint256"
        },
        {
          "internalType": "address",
          "name": "to",
          "type": "address"
        }
      ],
      "name": "listNewToken",
      "outputs": [
        {
          "internalType": "uint256",
          "name": "_pid",
          "type": "uint256"
        },
        {
          "internalType": "uint256",
          "name": "liquidity",
          "type": "uint256"
        }
      ],
      "stateMutability": "nonpayable",
      "type": "function"
    },
    {
      "inputs": [],
      "name": "monoXPool",
      "outputs": [
        {
          "internalType": "contract MonoXPool",
          "name": "",
          "type": "address"
        }
      ],
      "stateMutability": "view",
      "type": "function"
    },
    {
      "inputs": [],
      "name": "owner",
      "outputs": [
        {
          "internalType": "address",
          "name": "",
          "type": "address"
        }
      ],
      "stateMutability": "view",
      "type": "function"
    },
    {
      "inputs": [],
      "name": "poolSize",
      "outputs": [
        {
          "internalType": "uint256",
          "name": "",
          "type": "uint256"
        }
      ],
      "stateMutability": "view",
      "type": "function"
    },
    {
      "inputs": [
        {
          "internalType": "address",
          "name": "",
          "type": "address"
        }
      ],
      "name": "pools",
      "outputs": [
        {
          "internalType": "uint256",
          "name": "pid",
          "type": "uint256"
        },
        {
          "internalType": "uint256",
          "name": "lastPoolValue",
          "type": "uint256"
        },
        {
          "internalType": "address",
          "name": "token",
          "type": "address"
        },
        {
          "internalType": "enum Monoswap.PoolStatus",
          "name": "status",
          "type": "uint8"
        },
        {
          "internalType": "uint112",
          "name": "vusdDebt",
          "type": "uint112"
        },
        {
          "internalType": "uint112",
          "name": "vusdCredit",
          "type": "uint112"
        },
        {
          "internalType": "uint112",
          "name": "tokenBalance",
          "type": "uint112"
        },
        {
          "internalType": "uint112",
          "name": "price",
          "type": "uint112"
        }
      ],
      "stateMutability": "view",
      "type": "function"
    },
    {
      "inputs": [
        {
          "internalType": "address",
          "name": "_token",
          "type": "address"
        },
        {
          "internalType": "uint256",
          "name": "liquidity",
          "type": "uint256"
        },
        {
          "internalType": "address",
          "name": "to",
          "type": "address"
        },
        {
          "internalType": "uint256",
          "name": "minVusdOut",
          "type": "uint256"
        },
        {
          "internalType": "uint256",
          "name": "minTokenOut",
          "type": "uint256"
        }
      ],
      "name": "removeLiquidity",
      "outputs": [
        {
          "internalType": "uint256",
          "name": "vusdOut",
          "type": "uint256"
        },
        {
          "internalType": "uint256",
          "name": "tokenOut",
          "type": "uint256"
        }
      ],
      "stateMutability": "nonpayable",
      "type": "function"
    },
    {
      "inputs": [],
      "name": "renounceOwnership",
      "outputs": [],
      "stateMutability": "nonpayable",
      "type": "function"
    },
    {
      "inputs": [
        {
          "internalType": "uint16",
          "name": "_devFee",
          "type": "uint16"
        }
      ],
      "name": "setDevFee",
      "outputs": [],
      "stateMutability": "nonpayable",
      "type": "function"
    },
    {
      "inputs": [
        {
          "internalType": "address",
          "name": "_feeTo",
          "type": "address"
        }
      ],
      "name": "setFeeTo",
      "outputs": [],
      "stateMutability": "nonpayable",
      "type": "function"
    },
    {
      "inputs": [
        {
          "internalType": "uint16",
          "name": "_fees",
          "type": "uint16"
        }
      ],
      "name": "setFees",
      "outputs": [],
      "stateMutability": "nonpayable",
      "type": "function"
    },
    {
      "inputs": [
        {
          "internalType": "address",
          "name": "tokenIn",
          "type": "address"
        },
        {
          "internalType": "address",
          "name": "tokenOut",
          "type": "address"
        },
        {
          "internalType": "uint256",
          "name": "amountIn",
          "type": "uint256"
        },
        {
          "internalType": "uint256",
          "name": "amountOutMin",
          "type": "uint256"
        },
        {
          "internalType": "address",
          "name": "to",
          "type": "address"
        },
        {
          "internalType": "uint256",
          "name": "deadline",
          "type": "uint256"
        }
      ],
      "name": "swapExactTokenForToken",
      "outputs": [
        {
          "internalType": "uint256",
          "name": "amountOut",
          "type": "uint256"
        }
      ],
      "stateMutability": "nonpayable",
      "type": "function"
    },
    {
      "inputs": [
        {
          "internalType": "address",
          "name": "tokenIn",
          "type": "address"
        },
        {
          "internalType": "address",
          "name": "tokenOut",
          "type": "address"
        },
        {
          "internalType": "address",
          "name": "to",
          "type": "address"
        },
        {
          "internalType": "uint256",
          "name": "amountIn",
          "type": "uint256"
        }
      ],
      "name": "swapIn",
      "outputs": [
        {
          "internalType": "uint256",
          "name": "amountOut",
          "type": "uint256"
        }
      ],
      "stateMutability": "nonpayable",
      "type": "function"
    },
    {
      "inputs": [
        {
          "internalType": "address",
          "name": "tokenIn",
          "type": "address"
        },
        {
          "internalType": "address",
          "name": "tokenOut",
          "type": "address"
        },
        {
          "internalType": "address",
          "name": "to",
          "type": "address"
        },
        {
          "internalType": "uint256",
          "name": "amountOut",
          "type": "uint256"
        }
      ],
      "name": "swapOut",
      "outputs": [
        {
          "internalType": "uint256",
          "name": "amountIn",
          "type": "uint256"
        }
      ],
      "stateMutability": "nonpayable",
      "type": "function"
    },
    {
      "inputs": [
        {
          "internalType": "address",
          "name": "tokenIn",
          "type": "address"
        },
        {
          "internalType": "address",
          "name": "tokenOut",
          "type": "address"
        },
        {
          "internalType": "uint256",
          "name": "amountInMax",
          "type": "uint256"
        },
        {
          "internalType": "uint256",
          "name": "amountOut",
          "type": "uint256"
        },
        {
          "internalType": "address",
          "name": "to",
          "type": "address"
        },
        {
          "internalType": "uint256",
          "name": "deadline",
          "type": "uint256"
        }
      ],
      "name": "swapTokenForExactToken",
      "outputs": [
        {
          "internalType": "uint256",
          "name": "amountIn",
          "type": "uint256"
        }
      ],
      "stateMutability": "nonpayable",
      "type": "function"
    },
    {
      "inputs": [
        {
          "internalType": "address",
          "name": "",
          "type": "address"
        }
      ],
      "name": "tokenPoolStatus",
      "outputs": [
        {
          "internalType": "uint8",
          "name": "",
          "type": "uint8"
        }
      ],
      "stateMutability": "view",
      "type": "function"
    },
    {
      "inputs": [
        {
          "internalType": "uint256",
          "name": "",
          "type": "uint256"
        }
      ],
      "name": "totalSupply",
      "outputs": [
        {
          "internalType": "uint256",
          "name": "",
          "type": "uint256"
        }
      ],
      "stateMutability": "view",
      "type": "function"
    },
    {
      "inputs": [
        {
          "internalType": "address",
          "name": "newOwner",
          "type": "address"
        }
      ],
      "name": "transferOwnership",
      "outputs": [],
      "stateMutability": "nonpayable",
      "type": "function"
    },
    {
      "inputs": [
        {
          "internalType": "address",
          "name": "_token",
          "type": "address"
        },
        {
          "internalType": "enum Monoswap.PoolStatus",
          "name": "_status",
          "type": "uint8"
        }
      ],
      "name": "updatePoolStatus",
      "outputs": [],
      "stateMutability": "nonpayable",
      "type": "function"
    }
  ],
  "bytecode": "0x608060405234801561001057600080fd5b50613d4f806100206000396000f3fe608060405234801561001057600080fd5b50600436106101475760003560e01c8062c240871461014c578062fdd58e146101a5578063138d03cd146101e35780631a9fe17e1461022b5780631b879378146102675780633f3d69e31461029d578063485cc955146102ce5780634aa06652146102fc5780634ec18db91461035857806353b609b514610360578063556ca709146103965780635dd44a6d146103d0578063715018a6146104185780638411b1e2146104205780638da5cb5b14610444578063a4063dbc1461044c578063b2421178146104f1578063bbe4f6db14610527578063bd85b0391461054d578063c22b53be1461056a578063c48caa70146105a6578063ca1123c2146105db578063d56468ac146105fc578063e18cb4fe14610647578063e4df1c4314610668578063f2fde38b146106a4578063f46901ed146106ca575b600080fd5b61018c600480360360a081101561016257600080fd5b506001600160a01b03813581169160208101359160408201351690606081013590608001356106f0565b6040805192835260208301919091528051918290030190f35b6101d1600480360360408110156101bb57600080fd5b506001600160a01b0381351690602001356109d4565b60408051918252519081900360200190f35b6101d1600480360360c08110156101f957600080fd5b506001600160a01b03813581169160208101358216916040820135916060810135916080820135169060a00135610a5f565b6102516004803603602081101561024157600080fd5b50356001600160a01b0316610b19565b6040805160ff9092168252519081900360200190f35b6101d16004803603606081101561027d57600080fd5b506001600160a01b03813581169160208101359160409091013516610b2e565b6102cc600480360360408110156102b357600080fd5b5080356001600160a01b0316906020013560ff16610b45565b005b6102cc600480360360408110156102e457600080fd5b506001600160a01b0381358116916020013516610bed565b6103326004803603606081101561031257600080fd5b506001600160a01b03813581169160208101359091169060400135610cf7565b604080519485526020850193909352838301919091526060830152519081900360800190f35b6101d161102d565b6103326004803603606081101561037657600080fd5b506001600160a01b03813581169160208101359091169060400135611033565b6101d1600480360360808110156103ac57600080fd5b506001600160a01b0381358116916020810135916040820135916060013516611351565b6101d1600480360360c08110156103e657600080fd5b506001600160a01b03813581169160208101358216916040820135916060810135916080820135169060a00135611605565b6102cc61169e565b610428611738565b604080516001600160a01b039092168252519081900360200190f35b610428611747565b6104726004803603602081101561046257600080fd5b50356001600160a01b0316611756565b60405180898152602001888152602001876001600160a01b0316815260200186600281111561049d57fe5b8152602001856001600160701b03168152602001846001600160701b03168152602001836001600160701b03168152602001826001600160701b031681526020019850505050505050505060405180910390f35b6103326004803603606081101561050757600080fd5b506001600160a01b038135811691602081013591604090910135166117b8565b6103326004803603602081101561053d57600080fd5b50356001600160a01b0316611b4a565b6101d16004803603602081101561056357600080fd5b5035611c5f565b6101d16004803603608081101561058057600080fd5b506001600160a01b03813581169160208101358216916040820135169060600135611c71565b6101d1600480360360408110156105bc57600080fd5b5080356001600160a01b031690602001356001600160701b0316612136565b6102cc600480360360208110156105f157600080fd5b503561ffff166121ad565b61018c600480360360a081101561061257600080fd5b506001600160a01b0381358116916001600160701b03602082013516916040820135916060810135916080909101351661227c565b6102cc6004803603602081101561065d57600080fd5b503561ffff166122a5565b6101d16004803603608081101561067e57600080fd5b506001600160a01b03813581169160208101358216916040820135169060600135612376565b6102cc600480360360208110156106ba57600080fd5b50356001600160a01b03166127c8565b6102cc600480360360208110156106e057600080fd5b50356001600160a01b03166128b9565b6001600160a01b0385166000908152606a6020526040812054819060ff16600114610750576040805162461bcd60e51b81526020600482015260196024820152600080516020613bac833981519152604482015290519081900360640190fd5b6001600160a01b038781166000908152606860209081526040808320815161010081018352815481526001820154938101939093526002808201549586169284019290925292939192916060840191600160a01b90910460ff16908111156107b457fe5b60028111156107bf57fe5b815260038201546001600160701b038082166020840152600160701b9182900481166040840152600490930154808416606084015204909116608090910152905060008061080e8a8a8a6117b8565b8651602088015192995090975092945090925061082c91908461293d565b86851015610881576040805162461bcd60e51b815260206004820181905260248201527f4d6f6e6f737761703a204c6573732076555344207468616e2064657369726564604482015290519081900360640190fd5b858410156108c05760405162461bcd60e51b8152600401808060200182810382526028815260200180613cf26028913960400191505060405180910390fd5b841561093457606554604080516340c10f1960e01b81526001600160a01b038b8116600483015260248201899052915191909216916340c10f1991604480830192600092919082900301818387803b15801561091b57600080fd5b505af115801561092f573d6000803e3d6000fd5b505050505b6109486001600160a01b038b168986612a1b565b61095788846000015183612a6d565b6109638a600087612b0e565b50505050896001600160a01b03168360000151896001600160a01b03167fab577bf53edf8e035c53859461bfaac55e75b9380a594cc487ae89665d7788f284898960405180848152602001838152602001828152602001935050505060405180910390a45050509550959350505050565b606d5460408051627eeac760e11b81526001600160a01b038581166004830152602482018590529151600093929092169162fdd58e91604480820192602092909190829003018186803b158015610a2a57600080fd5b505afa158015610a3e573d6000803e3d6000fd5b505050506040513d6020811015610a5457600080fd5b505190505b92915050565b60008142811015610aab576040805162461bcd60e51b8152602060048201526011602482015270135bdb9bdcddd85c0e8811561412549151607a1b604482015290519081900360640190fd5b610ab788888688611c71565b915085821115610b0e576040805162461bcd60e51b815260206004820181905260248201527f4d6f6e6f737761703a204558434553534956455f494e5055545f414d4f554e54604482015290519081900360640190fd5b509695505050505050565b606a6020526000908152604090205460ff1681565b6000610b3d8460008585611351565b949350505050565b610b4d612d5b565b6001600160a01b0316610b5e611747565b6001600160a01b031614610ba7576040805162461bcd60e51b81526020600482018190526024820152600080516020613c65833981519152604482015290519081900360640190fd5b6001600160a01b038216600090815260686020526040902060028082018054849260ff60a01b1990911690600160a01b908490811115610be357fe5b0217905550505050565b600054610100900460ff1680610c065750610c06612d5f565b80610c14575060005460ff16155b610c4f5760405162461bcd60e51b815260040180806020018281038252602e815260200180613bec602e913960400191505060405180910390fd5b600054610100900460ff16158015610c7a576000805460ff1961ff0019909116610100171660011790555b610c82612d70565b606d80546001600160a01b03199081166001600160a01b0386811691909117909255606580549091169184169190911790556066805461ffff60a01b1916604b60a21b1761ffff60b01b1916601960b11b1790556000606b556001606c558015610cf2576000805461ff00191690555b505050565b60008060008060008511610d3c5760405162461bcd60e51b8152600401808060200182810382526023815260200180613ca56023913960400191505060405180910390fd5b606654600090620186a090610d64908890600160a01b900461ffff16830362ffffff16612e22565b81610d6b57fe5b60655491900491506001600160a01b03908116908916811415610d9b57819250670de0b6b3a76400009550610eba565b6001600160a01b0389166000908152606a602052604090205460ff16600114610df9576040805162461bcd60e51b81526020600482015260196024820152600080516020613bac833981519152604482015290519081900360640190fd5b6001600160a01b03891660009081526068602052604081206002810154600490910154600160a01b90910460ff1691600160701b82046001600160701b03908116921690836002811115610e4957fe5b1415610e8a576040805162461bcd60e51b81526020600482015260176024820152600080516020613bcc833981519152604482015290519081900360640190fd5b610e978282876000612e7b565b9850670de0b6b3a7640000610eac8a87612e22565b81610eb357fe5b0495505050505b806001600160a01b0316886001600160a01b03161415610ee757829350670de0b6b3a76400009450611022565b6001600160a01b0388166000908152606a602052604090205460ff16600114610f45576040805162461bcd60e51b81526020600482015260196024820152600080516020613bac833981519152604482015290519081900360640190fd5b6001600160a01b03881660009081526068602052604081206002810154600490910154600160a01b90910460ff1691600160701b82046001600160701b03908116921690836002811115610f9557fe5b1415610fd6576040805162461bcd60e51b81526020600482015260176024820152600080516020613bcc833981519152604482015290519081900360640190fd5b6000610ff483610fee89670de0b6b3a7640000612e22565b90612ed3565b90506110038383836001612e7b565b985061101b89610fee89670de0b6b3a7640000612e22565b9750505050505b505093509350935093565b606b5481565b600080600080600085116110785760405162461bcd60e51b8152600401808060200182810382526023815260200180613ca56023913960400191505060405180910390fd5b606654600090620186a0906110a0908890600160a01b900461ffff16830162ffffff16612e22565b816110a757fe5b60655491900491506001600160a01b039081169088168114156110d757819250670de0b6b3a764000094506111f6565b6001600160a01b0388166000908152606a602052604090205460ff16600114611135576040805162461bcd60e51b81526020600482015260196024820152600080516020613bac833981519152604482015290519081900360640190fd5b6001600160a01b03881660009081526068602052604081206002810154600490910154600160a01b90910460ff1691600160701b82046001600160701b0390811692169083600281111561118557fe5b14156111c6576040805162461bcd60e51b81526020600482015260176024820152600080516020613bcc833981519152604482015290519081900360640190fd5b6111d38282876001612e7b565b9750670de0b6b3a76400006111e88987612e22565b816111ef57fe5b0495505050505b806001600160a01b0316896001600160a01b0316141561122357829350670de0b6b3a76400009550611022565b6001600160a01b0389166000908152606a602052604090205460ff16600114611281576040805162461bcd60e51b81526020600482015260196024820152600080516020613bac833981519152604482015290519081900360640190fd5b6001600160a01b03891660009081526068602052604081206002810154600490910154600160a01b90910460ff1691600160701b82046001600160701b039081169216908360028111156112d157fe5b1415611312576040805162461bcd60e51b81526020600482015260176024820152600080516020613bcc833981519152604482015290519081900360640190fd5b600061132a83610fee89670de0b6b3a7640000612e22565b90506113398383836000612e7b565b995061101b8a610fee89670de0b6b3a7640000612e22565b600080831161139e576040805162461bcd60e51b8152602060048201526014602482015273135bdb9bdcddd85c0e8810985908105b5bdd5b9d60621b604482015290519081900360640190fd5b6001600160a01b0385166000908152606a602052604090205460ff16600114611402576040805162461bcd60e51b8152602060048201526011602482015270135bdb9bdcddd85c0e88139bc81c1bdbdb607a1b604482015290519081900360640190fd5b600061140d86611b4a565b5050506001600160a01b03878116600090815260686020908152604080832081516101008101835281548152600182015493810193909352600280820154958616928401929092529495509193909290916060840191600160a01b900460ff169081111561147757fe5b600281111561148257fe5b815260038201546001600160701b03808216602080850191909152600160701b9283900482166040850152600490940154808216606085015291909104166080909101528151908201519192506114d9918461293d565b80516000908152606760205260409020546114ff6001600160a01b038916333089612f37565b861561151d5760655461151d906001600160a01b031633308a612f37565b600061155b670de0b6b3a764000061154b8560e001516001600160701b03168a612e2290919063ffffffff16565b8161155257fe5b8a919004612f91565b9050816115755761156e816103e8612fe9565b9450611586565b61158384610fee8484612e22565b94505b61159586846000015187613046565b6115a189896000612b0e565b5050845160408051898152602081018d90528082018c905290516001600160a01b03808f169550929350918a16917f166ddb815a41f60899d37e5c34db8f6cd53a5c65da870fcc7315af673878562a9181900360600190a450505050949350505050565b60008142811015611651576040805162461bcd60e51b8152602060048201526011602482015270135bdb9bdcddd85c0e8811561412549151607a1b604482015290519081900360640190fd5b61165d88888689612376565b915084821015610b0e5760405162461bcd60e51b8152600401808060200182810382526024815260200180613b626024913960400191505060405180910390fd5b6116a6612d5b565b6001600160a01b03166116b7611747565b6001600160a01b031614611700576040805162461bcd60e51b81526020600482018190526024820152600080516020613c65833981519152604482015290519081900360640190fd5b6033546040516000916001600160a01b031690600080516020613c85833981519152908390a3603380546001600160a01b0319169055565b606d546001600160a01b031681565b6033546001600160a01b031690565b60686020526000908152604090208054600182015460028301546003840154600490940154929391926001600160a01b03821692600160a01b90920460ff16916001600160701b0380821692600160701b928390048216928282169291041688565b6000806000806000861161180a576040805162461bcd60e51b8152602060048201526014602482015273135bdb9bdcddd85c0e8810985908105b5bdd5b9d60621b604482015290519081900360640190fd5b6001600160a01b0387811660009081526068602090815260408083208151610100810183528154815260018201549381019390935260028082015495861692840192909252929384938493849390926060840191600160a01b90910460ff169081111561187357fe5b600281111561187e57fe5b815260038201546001600160701b038082166020840152600160701b918290048116604084015260049093015480841660608401520490911660809091015290506118c88b611b4a565b809550819650829750839b5050505050600060676000836000015181526020019081526020016000205490508a606d60009054906101000a90046001600160a01b03166001600160a01b031662fdd58e8c85600001516040518363ffffffff1660e01b815260040180836001600160a01b031681526020018281526020019250505060206040518083038186803b15801561196257600080fd5b505afa158015611976573d6000803e3d6000fd5b505050506040513d602081101561198c57600080fd5b505111611a1957606d54825160408051627eeac760e11b81526001600160a01b038e8116600483015260248201939093529051919092169162fdd58e916044808301926020929190829003018186803b1580156119e857600080fd5b505afa1580156119fc573d6000803e3d6000fd5b505050506040513d6020811015611a1257600080fd5b5051611a1b565b8a5b975060008c6001600160a01b03166370a08231306040518263ffffffff1660e01b815260040180826001600160a01b0316815260200191505060206040518083038186803b158015611a6c57600080fd5b505afa158015611a80573d6000803e3d6000fd5b505050506040513d6020811015611a9657600080fd5b505160c08401519091506001600160701b0316811015611ae457670de0b6b3a7640000611ad98460e001516001600160701b031683612e2290919063ffffffff16565b81611ae057fe5b0495505b8315611b1b5760e0830151611b18906001600160701b0316610fee670de0b6b3a7640000611b128a89612fe9565b90612e22565b90505b611b2982610fee8b88612e22565b9750611b3982610fee8b84612e22565b965050505050505093509350935093565b6001600160a01b0381811660009081526068602090815260408083208151610100810183528154815260018201549381019390935260028082015495861692840192909252929384938493849384939192916060840191600160a01b90910460ff1690811115611bb657fe5b6002811115611bc157fe5b815260038201546001600160701b038082166020840152600160701b9182900481166040840152600490930154808416606084015204821660809182015260a08301519083015160c084015160e085015192841697509083169550929350670de0b6b3a764000092611c37929182169116612e22565b81611c3e57fe5b049350611c5582611c4f8686612f91565b90612fe9565b9450509193509193565b60676020526000908152604090205481565b6001600160a01b038416600090815260696020526040812054859060ff166001811415611cdd576040805162461bcd60e51b8152602060048201526015602482015274135bdb9bdcddd85c0e881413d3d3081313d0d2d151605a1b604482015290519081900360640190fd5b60ff8116611d09576001600160a01b0382166000908152606960205260409020805460ff191660011790555b6065546001600160a01b031660008080611d248b8b8a611033565b6001600160a01b038f16600090815260696020526040902054919a5092955090935090915060ff1660021415611d6e57611d696001600160a01b038c1633308a612f37565b611edc565b60008b6001600160a01b03166370a08231306040518263ffffffff1660e01b815260040180826001600160a01b0316815260200191505060206040518083038186803b158015611dbd57600080fd5b505afa158015611dd1573d6000803e3d6000fd5b505050506040513d6020811015611de757600080fd5b50519050611e006001600160a01b038d1633308b612f37565b60008c6001600160a01b03166370a08231306040518263ffffffff1660e01b815260040180826001600160a01b0316815260200191505060206040518083038186803b158015611e4f57600080fd5b505afa158015611e63573d6000803e3d6000fd5b505050506040513d6020811015611e7957600080fd5b50519050611e878183612fe9565b891015611ed9576040805162461bcd60e51b815260206004820152601b60248201527a4d6f6e6f737761703a204e6f7420456e6f75676820546f6b656e7360281b604482015290519081900360640190fd5b50505b60665460009062030d4090611efd908a90600160a01b900461ffff16612e22565b81611f0457fe5b0490506000670de0b6b3a7640000611f1c8684612e22565b81611f2357fe5b049050856001600160a01b03168d6001600160a01b03161415611fc15760408051632770a7eb60e21b8152306004820152602481018b905290516001600160a01b03881691639dc29fac91604480830192600092919082900301818387803b158015611f8e57600080fd5b505af1158015611fa2573d6000803e3d6000fd5b50505050611fba600282612e2290919063ffffffff16565b9050611fd7565b611fd78d866000611fd28786612f91565b6130ca565b856001600160a01b03168c6001600160a01b0316141561207357856001600160a01b03166340c10f198c8c6040518363ffffffff1660e01b815260040180836001600160a01b0316815260200182815260200192505050600060405180830381600087803b15801561204857600080fd5b505af115801561205c573d6000803e3d6000fd5b5050505061206c8d8260006131f9565b505061209d565b6120876001600160a01b038d168c8c612a1b565b61209d8c856120968685612f91565b60006130ca565b8b6001600160a01b03168d6001600160a01b03168c6001600160a01b03167fcd3829a3813dc3cdd188fd3d01dcf3268c16be2fdd2dd21d0665418816e460628c8e604051808381526020018281526020019250505060405180910390a4505050505060ff82161515905061212c576001600160a01b0382166000908152606960205260409020805460ff191690555b5050949350505050565b6000612140612d5b565b6001600160a01b0316612151611747565b6001600160a01b03161461219a576040805162461bcd60e51b81526020600482018190526024820152600080516020613c65833981519152604482015290519081900360640190fd5b6121a68383600261343b565b9392505050565b6121b5612d5b565b6001600160a01b03166121c6611747565b6001600160a01b03161461220f576040805162461bcd60e51b81526020600482018190526024820152600080516020613c65833981519152604482015290519081900360640190fd5b6103e88161ffff161061225a576040805162461bcd60e51b815260206004820152600e60248201526d6665657320746f6f206c6172676560901b604482015290519081900360640190fd5b6066805461ffff909216600160a01b0261ffff60a01b19909216919091179055565b60008061228b8787600161343b565b915061229987868686611351565b90509550959350505050565b6122ad612d5b565b6001600160a01b03166122be611747565b6001600160a01b031614612307576040805162461bcd60e51b81526020600482018190526024820152600080516020613c65833981519152604482015290519081900360640190fd5b6103e88161ffff1610612354576040805162461bcd60e51b815260206004820152601060248201526f64657646656520746f6f206c6172676560801b604482015290519081900360640190fd5b6066805461ffff909216600160b01b0261ffff60b01b19909216919091179055565b6001600160a01b038416600090815260696020526040812054859060ff1660018114156123e2576040805162461bcd60e51b8152602060048201526015602482015274135bdb9bdcddd85c0e881413d3d3081313d0d2d151605a1b604482015290519081900360640190fd5b60ff811661240e576001600160a01b0382166000908152606960205260409020805460ff191660011790555b6065546001600160a01b0388811660009081526069602052604090205491169060ff16600214156124535761244e6001600160a01b038916333088612f37565b612571565b6000886001600160a01b03166370a08231306040518263ffffffff1660e01b815260040180826001600160a01b0316815260200191505060206040518083038186803b1580156124a257600080fd5b505afa1580156124b6573d6000803e3d6000fd5b505050506040513d60208110156124cc57600080fd5b505190506124e56001600160a01b038a16333089612f37565b6000896001600160a01b03166370a08231306040518263ffffffff1660e01b815260040180826001600160a01b0316815260200191505060206040518083038186803b15801561253457600080fd5b505afa158015612548573d6000803e3d6000fd5b505050506040513d602081101561255e57600080fd5b5051905061256c8183612fe9565b965050505b60665460009062030d4090612592908890600160a01b900461ffff16612e22565b8161259957fe5b04905060008060006125ac8c8c8b610cf7565b909a50919450925090506000670de0b6b3a76400006125cb8587612e22565b816125d257fe5b049050856001600160a01b03168d6001600160a01b031614156126705760408051632770a7eb60e21b8152306004820152602481018c905290516001600160a01b03881691639dc29fac91604480830192600092919082900301818387803b15801561263d57600080fd5b505af1158015612651573d6000803e3d6000fd5b50505050612669600282612e2290919063ffffffff16565b9050612681565b6126818d856000611fd28686612f91565b856001600160a01b03168c6001600160a01b0316141561270f57856001600160a01b03166340c10f198c8b6040518363ffffffff1660e01b815260040180836001600160a01b0316815260200182815260200192505050600060405180830381600087803b1580156126f257600080fd5b505af1158015612706573d6000803e3d6000fd5b50505050612732565b6127236001600160a01b038d168c8b612a1b565b6127328c846120968585612f91565b8b6001600160a01b03168d6001600160a01b03168c6001600160a01b03167fcd3829a3813dc3cdd188fd3d01dcf3268c16be2fdd2dd21d0665418816e460628d8d604051808381526020018281526020019250505060405180910390a4505050505060ff82161515905061212c57506001600160a01b03166000908152606960205260409020805460ff19169055949350505050565b6127d0612d5b565b6001600160a01b03166127e1611747565b6001600160a01b03161461282a576040805162461bcd60e51b81526020600482018190526024820152600080516020613c65833981519152604482015290519081900360640190fd5b6001600160a01b03811661286f5760405162461bcd60e51b8152600401808060200182810382526026815260200180613b866026913960400191505060405180910390fd5b6033546040516001600160a01b03808416921690600080516020613c8583398151915290600090a3603380546001600160a01b0319166001600160a01b0392909216919091179055565b6128c1612d5b565b6001600160a01b03166128d2611747565b6001600160a01b03161461291b576040805162461bcd60e51b81526020600482018190526024820152600080516020613c65833981519152604482015290519081900360640190fd5b606680546001600160a01b0319166001600160a01b0392909216919091179055565b600083815260676020526040902054828211801561295b5750600083115b15612a155760665483830390600090620186a0906129909084870390610fee90600160b01b900461ffff16611b128888612e22565b8161299757fe5b606d5460665460408051630ab714fb60e11b81526001600160a01b039283166004820152602481018c905294909304604485018190529251929450169163156e29f691606480830192600092919082900301818387803b1580156129fa57600080fd5b505af1158015612a0e573d6000803e3d6000fd5b5050505050505b50505050565b604080516001600160a01b038416602482015260448082018490528251808303909101815260649091019091526020810180516001600160e01b031663a9059cbb60e01b179052610cf29084906136cc565b600082815260676020526040902054612a869082612fe9565b60008381526067602052604080822092909255606d548251637a94c56560e11b81526001600160a01b03878116600483015260248201879052604482018690529351939091169263f5298aca9260648084019391929182900301818387803b158015612af157600080fd5b505af1158015612b05573d6000803e3d6000fd5b50505050505050565b6001600160a01b038316600090815260696020526040812054819081908190879060ff166001811415612b80576040805162461bcd60e51b8152602060048201526015602482015274135bdb9bdcddd85c0e881413d3d3081313d0d2d151605a1b604482015290519081900360640190fd5b60ff8116612bac576001600160a01b0382166000908152606960205260409020805460ff191660011790555b6001600160a01b038916600090815260686020526040902060040154600160701b90046001600160701b0316612be38a8a8a6131f9565b604080516370a0823160e01b815230600482015290519297509095506000916001600160a01b038d16916370a08231916024808301926020929190829003018186803b158015612c3257600080fd5b505afa158015612c46573d6000803e3d6000fd5b505050506040513d6020811015612c5c57600080fd5b50519050670de0b6b3a7640000612c738383612e22565b81612c7a57fe5b0496506001600160701b03811115612cc4576040805162461bcd60e51b81526020600482015260086024820152674f564552464c4f5760c01b604482015290519081900360640190fd5b6001600160a01b038b16600090815260686020526040902060040180546001600160701b0319166001600160701b038316179055612d0685611c4f8989612f91565b6001600160a01b038c1660009081526068602052604090206001018190559750505060ff8116611022576001600160a01b0382166000908152606960205260409020805460ff19169055505093509350935093565b3390565b6000612d6a3061377d565b15905090565b600054610100900460ff1680612d895750612d89612d5f565b80612d97575060005460ff16155b612dd25760405162461bcd60e51b815260040180806020018281038252602e815260200180613bec602e913960400191505060405180910390fd5b600054610100900460ff16158015612dfd576000805460ff1961ff0019909116610100171660011790555b612e05613783565b612e0d613823565b8015612e1f576000805461ff00191690555b50565b600082612e3157506000610a59565b82820282848281612e3e57fe5b04146121a65760405162461bcd60e51b8152600401808060200182810382526021815260200180613c1a6021913960400191505060405180910390fd5b600080826001811115612e8a57fe5b1415612eb357612e9a8484612f91565b612ea48686612e22565b81612eab57fe5b049050610b3d565b612eca612ec08585612fe9565b610fee8787612e22565b95945050505050565b6000808211612f26576040805162461bcd60e51b815260206004820152601a602482015279536166654d6174683a206469766973696f6e206279207a65726f60301b604482015290519081900360640190fd5b818381612f2f57fe5b049392505050565b604080516001600160a01b0380861660248301528416604482015260648082018490528251808303909101815260849091019091526020810180516001600160e01b03166323b872dd60e01b179052612a159085906136cc565b6000828201838110156121a6576040805162461bcd60e51b815260206004820152601b60248201527a536166654d6174683a206164646974696f6e206f766572666c6f7760281b604482015290519081900360640190fd5b600082821115613040576040805162461bcd60e51b815260206004820152601e60248201527f536166654d6174683a207375627472616374696f6e206f766572666c6f770000604482015290519081900360640190fd5b50900390565b60008281526067602052604090205461305f9082612f91565b60008381526067602052604080822092909255606d548251630ab714fb60e11b81526001600160a01b03878116600483015260248201879052604482018690529351939091169263156e29f69260648084019391929182900301818387803b158015612af157600080fd5b6000846001600160a01b03166370a08231306040518263ffffffff1660e01b815260040180826001600160a01b0316815260200191505060206040518083038186803b15801561311957600080fd5b505afa15801561312d573d6000803e3d6000fd5b505050506040513d602081101561314357600080fd5b505190506001600160701b03841180159061316557506001600160701b038111155b6131a1576040805162461bcd60e51b81526020600482015260086024820152674f564552464c4f5760c01b604482015290519081900360640190fd5b6001600160a01b038516600090815260686020526040902060040180546001600160701b03868116600160701b02600160701b600160e01b03199185166001600160701b03199093169290921716179055612b058584845b60008082841115613211579190920391600091613219565b600093909203915b6001600160a01b038516600090815260686020526040902060038101546002909101546001600160701b03600160701b8304811692169060ff600160a01b90910416851561331d5761326c83838861390a565b90955093506001600160701b03851180159061328f57506001600160701b038411155b6132cb576040805162461bcd60e51b81526020600482015260086024820152674f564552464c4f5760c01b604482015290519081900360640190fd5b6001600160a01b038816600090815260686020526040902060030180546001600160701b038681166001600160701b0319918916600160701b02600160701b600160e01b031990931692909217161790555b86156133df5761332e83838961394e565b90955093506001600160701b03851180159061335157506001600160701b038411155b61338d576040805162461bcd60e51b81526020600482015260086024820152674f564552464c4f5760c01b604482015290519081900360640190fd5b6001600160a01b038816600090815260686020526040902060030180546001600160701b038681166001600160701b0319918916600160701b02600160701b600160e01b031990931692909217161790555b60018160028111156133ed57fe5b14156134305783156134305760405162461bcd60e51b815260040180806020018281038252602a815260200180613c3b602a913960400191505060405180910390fd5b505050935093915050565b6000606c54600114613487576040805162461bcd60e51b815260206004820152601060248201526f135bdb9bdcddd85c0e881313d0d2d15160821b604482015290519081900360640190fd5b6000606c8190556001600160a01b0385168152606a602052604090205460ff16156134f2576040805162461bcd60e51b81526020600482015260166024820152754d6f6e6f737761703a20546f6b656e2045786973747360501b604482015290519081900360640190fd5b6065546001600160a01b0385811691161415613555576040805162461bcd60e51b815260206004820152601f60248201527f4d6f6e6f737761703a207655534420706f6f6c206e6f7420616c6c6f77656400604482015290519081900360640190fd5b606b54905060405180610100016040528082815260200160008152602001856001600160a01b0316815260200183600281111561358e57fe5b815260006020808301829052604080840183905260608085018490526001600160701b0389166080909501949094526001600160a01b038981168452606883529281902085518155918501516001830155840151600280830180546001600160a01b031916929094169190911780845593850151919391929160ff60a01b191690600160a01b90849081111561362057fe5b0217905550608082015160038201805460a08501516001600160701b03908116600160701b908102600160701b600160e01b03199583166001600160701b03199485161786161790935560c08601516004909501805460e0909701518216909302941694169390931716179055613698816001612f91565b606b556001600160a01b039093166000908152606a60205260409020805460ff19166001908117909155606c555090919050565b6000613721826040518060400160405280602081526020017f5361666545524332303a206c6f772d6c6576656c2063616c6c206661696c6564815250856001600160a01b03166139989092919063ffffffff16565b805190915015610cf25780806020019051602081101561374057600080fd5b5051610cf25760405162461bcd60e51b815260040180806020018281038252602a815260200180613cc8602a913960400191505060405180910390fd5b3b151590565b600054610100900460ff168061379c575061379c612d5f565b806137aa575060005460ff16155b6137e55760405162461bcd60e51b815260040180806020018281038252602e815260200180613bec602e913960400191505060405180910390fd5b600054610100900460ff16158015612e0d576000805460ff1961ff0019909116610100171660011790558015612e1f576000805461ff001916905550565b600054610100900460ff168061383c575061383c612d5f565b8061384a575060005460ff16155b6138855760405162461bcd60e51b815260040180806020018281038252602e815260200180613bec602e913960400191505060405180910390fd5b600054610100900460ff161580156138b0576000805460ff1961ff0019909116610100171660011790555b60006138ba612d5b565b603380546001600160a01b0319166001600160a01b03831690811790915560405191925090600090600080516020613c85833981519152908290a3508015612e1f576000805461ff001916905550565b60008084156139355784831115613928575060009050838203613930565b505080830360005b613946565b600091506139438484612f91565b90505b935093915050565b600080831561398257838311156139755750600061396e85858503612f91565b9150613930565b5060009050818303613946565b61398c8584612f91565b95600095509350505050565b6060610b3d8484600085856139ac8561377d565b6139fd576040805162461bcd60e51b815260206004820152601d60248201527f416464726573733a2063616c6c20746f206e6f6e2d636f6e7472616374000000604482015290519081900360640190fd5b600080866001600160a01b031685876040518082805190602001908083835b60208310613a3b5780518252601f199092019160209182019101613a1c565b6001836020036101000a03801982511681845116808217855250505050505090500191505060006040518083038185875af1925050503d8060008114613a9d576040519150601f19603f3d011682016040523d82523d6000602084013e613aa2565b606091505b5091509150613ab2828286613abd565b979650505050505050565b60608315613acc5750816121a6565b825115613adc5782518084602001fd5b8160405162461bcd60e51b81526004018080602001828103825283818151815260200191508051906020019080838360005b83811015613b26578181015183820152602001613b0e565b50505050905090810190601f168015613b535780820380516001836020036101000a031916815260200191505b509250505060405180910390fdfe4d6f6e6f737761703a20494e53554646494349454e545f4f55545055545f414d4f554e544f776e61626c653a206e6577206f776e657220697320746865207a65726f20616464726573734d6f6e6f737761703a20546f6b656e204e6f7420466f756e64000000000000004d6f6e6f737761703a20506f6f6c20556e6c6973746564000000000000000000496e697469616c697a61626c653a20636f6e747261637420697320616c726561647920696e697469616c697a6564536166654d6174683a206d756c7469706c69636174696f6e206f766572666c6f774d6f6e6f737761703a20756e6f6666696369616c20706f6f6c2063616e6e6f74206265617220646562744f776e61626c653a2063616c6c6572206973206e6f7420746865206f776e65728be0079c531659141344cd1fd0a4f28419497f9722a3daafe3b4186f6b6457e04d6f6e6f737761703a20494e53554646494349454e545f494e5055545f414d4f554e545361666545524332303a204552433230206f7065726174696f6e20646964206e6f7420737563636565644d6f6e6f737761703a204c65737320746f6b656e20616d6f756e74207468616e2064657369726564a264697066735822122036e667bed94ec8c70f159948e9435b2185534251679ab87c361a6966748f42eb64736f6c63430007060033",
  "linkReferences": {},
  "deployedLinkReferences": {}
}