{
  "_format": "hh-sol-artifact-1",
  "contractName": "Monoswap",
  "sourceName": "contracts/Monoswap.sol",
  "abi": [
    {
      "inputs": [
        {
          "internalType": "contract IvUSD",
          "name": "_vusd",
          "type": "address"
        }
      ],
      "stateMutability": "nonpayable",
      "type": "constructor"
    },
    {
      "anonymous": false,
      "inputs": [
        {
          "indexed": true,
          "internalType": "address",
          "name": "provider",
          "type": "address"
        },
        {
          "indexed": true,
          "internalType": "uint256",
          "name": "pid",
          "type": "uint256"
        },
        {
          "indexed": true,
          "internalType": "address",
          "name": "token",
          "type": "address"
        },
        {
          "indexed": false,
          "internalType": "uint256",
          "name": "liquidityAmount",
          "type": "uint256"
        },
        {
          "indexed": false,
          "internalType": "uint256",
          "name": "vusdAmount",
          "type": "uint256"
        },
        {
          "indexed": false,
          "internalType": "uint256",
          "name": "tokenAmount",
          "type": "uint256"
        }
      ],
      "name": "AddLiquidity",
      "type": "event"
    },
    {
      "anonymous": false,
      "inputs": [
        {
          "indexed": true,
          "internalType": "address",
          "name": "account",
          "type": "address"
        },
        {
          "indexed": true,
          "internalType": "address",
          "name": "operator",
          "type": "address"
        },
        {
          "indexed": false,
          "internalType": "bool",
          "name": "approved",
          "type": "bool"
        }
      ],
      "name": "ApprovalForAll",
      "type": "event"
    },
    {
      "anonymous": false,
      "inputs": [
        {
          "indexed": true,
          "internalType": "address",
          "name": "previousOwner",
          "type": "address"
        },
        {
          "indexed": true,
          "internalType": "address",
          "name": "newOwner",
          "type": "address"
        }
      ],
      "name": "OwnershipTransferred",
      "type": "event"
    },
    {
      "anonymous": false,
      "inputs": [
        {
          "indexed": true,
          "internalType": "address",
          "name": "provider",
          "type": "address"
        },
        {
          "indexed": true,
          "internalType": "uint256",
          "name": "pid",
          "type": "uint256"
        },
        {
          "indexed": true,
          "internalType": "address",
          "name": "token",
          "type": "address"
        },
        {
          "indexed": false,
          "internalType": "uint256",
          "name": "liquidityAmount",
          "type": "uint256"
        },
        {
          "indexed": false,
          "internalType": "uint256",
          "name": "vusdAmount",
          "type": "uint256"
        },
        {
          "indexed": false,
          "internalType": "uint256",
          "name": "tokenAmount",
          "type": "uint256"
        }
      ],
      "name": "RemoveLiquidity",
      "type": "event"
    },
    {
      "anonymous": false,
      "inputs": [
        {
          "indexed": true,
          "internalType": "address",
          "name": "user",
          "type": "address"
        },
        {
          "indexed": true,
          "internalType": "address",
          "name": "tokenIn",
          "type": "address"
        },
        {
          "indexed": true,
          "internalType": "address",
          "name": "tokenOut",
          "type": "address"
        },
        {
          "indexed": false,
          "internalType": "uint256",
          "name": "amountIn",
          "type": "uint256"
        },
        {
          "indexed": false,
          "internalType": "uint256",
          "name": "amountOut",
          "type": "uint256"
        }
      ],
      "name": "Swap",
      "type": "event"
    },
    {
      "anonymous": false,
      "inputs": [
        {
          "indexed": true,
          "internalType": "address",
          "name": "operator",
          "type": "address"
        },
        {
          "indexed": true,
          "internalType": "address",
          "name": "from",
          "type": "address"
        },
        {
          "indexed": true,
          "internalType": "address",
          "name": "to",
          "type": "address"
        },
        {
          "indexed": false,
          "internalType": "uint256[]",
          "name": "ids",
          "type": "uint256[]"
        },
        {
          "indexed": false,
          "internalType": "uint256[]",
          "name": "values",
          "type": "uint256[]"
        }
      ],
      "name": "TransferBatch",
      "type": "event"
    },
    {
      "anonymous": false,
      "inputs": [
        {
          "indexed": true,
          "internalType": "address",
          "name": "operator",
          "type": "address"
        },
        {
          "indexed": true,
          "internalType": "address",
          "name": "from",
          "type": "address"
        },
        {
          "indexed": true,
          "internalType": "address",
          "name": "to",
          "type": "address"
        },
        {
          "indexed": false,
          "internalType": "uint256",
          "name": "id",
          "type": "uint256"
        },
        {
          "indexed": false,
          "internalType": "uint256",
          "name": "value",
          "type": "uint256"
        }
      ],
      "name": "TransferSingle",
      "type": "event"
    },
    {
      "anonymous": false,
      "inputs": [
        {
          "indexed": false,
          "internalType": "string",
          "name": "value",
          "type": "string"
        },
        {
          "indexed": true,
          "internalType": "uint256",
          "name": "id",
          "type": "uint256"
        }
      ],
      "name": "URI",
      "type": "event"
    },
    {
      "inputs": [
        {
          "internalType": "address",
          "name": "_token",
          "type": "address"
        },
        {
          "internalType": "uint256",
          "name": "liquidity",
          "type": "uint256"
        },
        {
          "internalType": "address",
          "name": "to",
          "type": "address"
        }
      ],
      "name": "_removeLiquidity",
      "outputs": [
        {
          "internalType": "uint256",
          "name": "poolValue",
          "type": "uint256"
        },
        {
          "internalType": "uint256",
          "name": "liquidityIn",
          "type": "uint256"
        },
        {
          "internalType": "uint256",
          "name": "vusdOut",
          "type": "uint256"
        },
        {
          "internalType": "uint256",
          "name": "tokenOut",
          "type": "uint256"
        }
      ],
      "stateMutability": "view",
      "type": "function"
    },
    {
      "inputs": [
        {
          "internalType": "address",
          "name": "_token",
          "type": "address"
        },
        {
          "internalType": "uint256",
          "name": "_amount",
          "type": "uint256"
        },
        {
          "internalType": "address",
          "name": "to",
          "type": "address"
        }
      ],
      "name": "addLiquidity",
      "outputs": [
        {
          "internalType": "uint256",
          "name": "liquidity",
          "type": "uint256"
        }
      ],
      "stateMutability": "nonpayable",
      "type": "function"
    },
    {
      "inputs": [
        {
          "internalType": "address",
          "name": "_token",
          "type": "address"
        },
        {
          "internalType": "uint256",
          "name": "vusdAmount",
          "type": "uint256"
        },
        {
          "internalType": "uint256",
          "name": "tokenAmount",
          "type": "uint256"
        },
        {
          "internalType": "address",
          "name": "to",
          "type": "address"
        }
      ],
      "name": "addLiquidityPair",
      "outputs": [
        {
          "internalType": "uint256",
          "name": "liquidity",
          "type": "uint256"
        }
      ],
      "stateMutability": "nonpayable",
      "type": "function"
    },
    {
      "inputs": [
        {
          "internalType": "address",
          "name": "_token",
          "type": "address"
        },
        {
          "internalType": "uint112",
          "name": "_price",
          "type": "uint112"
        }
      ],
      "name": "addOfficialToken",
      "outputs": [
        {
          "internalType": "uint256",
          "name": "_pid",
          "type": "uint256"
        }
      ],
      "stateMutability": "nonpayable",
      "type": "function"
    },
    {
      "inputs": [
        {
          "internalType": "address",
          "name": "account",
          "type": "address"
        },
        {
          "internalType": "uint256",
          "name": "id",
          "type": "uint256"
        }
      ],
      "name": "balanceOf",
      "outputs": [
        {
          "internalType": "uint256",
          "name": "",
          "type": "uint256"
        }
      ],
      "stateMutability": "view",
      "type": "function"
    },
    {
      "inputs": [
        {
          "internalType": "address[]",
          "name": "accounts",
          "type": "address[]"
        },
        {
          "internalType": "uint256[]",
          "name": "ids",
          "type": "uint256[]"
        }
      ],
      "name": "balanceOfBatch",
      "outputs": [
        {
          "internalType": "uint256[]",
          "name": "",
          "type": "uint256[]"
        }
      ],
      "stateMutability": "view",
      "type": "function"
    },
    {
      "inputs": [
        {
          "internalType": "bytes32",
          "name": "c__0x43263abe",
          "type": "bytes32"
        }
      ],
      "name": "c_0x43263abe",
      "outputs": [],
      "stateMutability": "pure",
      "type": "function"
    },
    {
      "inputs": [
        {
          "internalType": "address",
          "name": "tokenIn",
          "type": "address"
        },
        {
          "internalType": "address",
          "name": "tokenOut",
          "type": "address"
        },
        {
          "internalType": "uint256",
          "name": "amountOut",
          "type": "uint256"
        }
      ],
      "name": "getAmountIn",
      "outputs": [
        {
          "internalType": "uint256",
          "name": "tokenInPrice",
          "type": "uint256"
        },
        {
          "internalType": "uint256",
          "name": "tokenOutPrice",
          "type": "uint256"
        },
        {
          "internalType": "uint256",
          "name": "amountIn",
          "type": "uint256"
        },
        {
          "internalType": "uint256",
          "name": "tradeVusdValue",
          "type": "uint256"
        }
      ],
      "stateMutability": "view",
      "type": "function"
    },
    {
      "inputs": [
        {
          "internalType": "address",
          "name": "tokenIn",
          "type": "address"
        },
        {
          "internalType": "address",
          "name": "tokenOut",
          "type": "address"
        },
        {
          "internalType": "uint256",
          "name": "amountIn",
          "type": "uint256"
        }
      ],
      "name": "getAmountOut",
      "outputs": [
        {
          "internalType": "uint256",
          "name": "tokenInPrice",
          "type": "uint256"
        },
        {
          "internalType": "uint256",
          "name": "tokenOutPrice",
          "type": "uint256"
        },
        {
          "internalType": "uint256",
          "name": "amountOut",
          "type": "uint256"
        },
        {
          "internalType": "uint256",
          "name": "tradeVusdValue",
          "type": "uint256"
        }
      ],
      "stateMutability": "view",
      "type": "function"
    },
    {
      "inputs": [
        {
          "internalType": "address",
          "name": "_token",
          "type": "address"
        }
      ],
      "name": "getPool",
      "outputs": [
        {
          "internalType": "uint256",
          "name": "poolValue",
          "type": "uint256"
        },
        {
          "internalType": "uint256",
          "name": "tokenBalanceVusdValue",
          "type": "uint256"
        },
        {
          "internalType": "uint256",
          "name": "vusdCredit",
          "type": "uint256"
        },
        {
          "internalType": "uint256",
          "name": "vusdDebt",
          "type": "uint256"
        }
      ],
      "stateMutability": "view",
      "type": "function"
    },
    {
      "inputs": [
        {
          "internalType": "address",
          "name": "account",
          "type": "address"
        },
        {
          "internalType": "address",
          "name": "operator",
          "type": "address"
        }
      ],
      "name": "isApprovedForAll",
      "outputs": [
        {
          "internalType": "bool",
          "name": "",
          "type": "bool"
        }
      ],
      "stateMutability": "view",
      "type": "function"
    },
    {
      "inputs": [
        {
          "internalType": "address",
          "name": "_token",
          "type": "address"
        },
        {
          "internalType": "uint112",
          "name": "_price",
          "type": "uint112"
        },
        {
          "internalType": "uint256",
          "name": "vusdAmount",
          "type": "uint256"
        },
        {
          "internalType": "uint256",
          "name": "tokenAmount",
          "type": "uint256"
        },
        {
          "internalType": "address",
          "name": "to",
          "type": "address"
        }
      ],
      "name": "listNewToken",
      "outputs": [
        {
          "internalType": "uint256",
          "name": "_pid",
          "type": "uint256"
        },
        {
          "internalType": "uint256",
          "name": "liquidity",
          "type": "uint256"
        }
      ],
      "stateMutability": "nonpayable",
      "type": "function"
    },
    {
      "inputs": [],
      "name": "owner",
      "outputs": [
        {
          "internalType": "address",
          "name": "",
          "type": "address"
        }
      ],
      "stateMutability": "view",
      "type": "function"
    },
    {
      "inputs": [],
      "name": "poolSize",
      "outputs": [
        {
          "internalType": "uint256",
          "name": "",
          "type": "uint256"
        }
      ],
      "stateMutability": "view",
      "type": "function"
    },
    {
      "inputs": [
        {
          "internalType": "address",
          "name": "",
          "type": "address"
        }
      ],
      "name": "pools",
      "outputs": [
        {
          "internalType": "uint256",
          "name": "pid",
          "type": "uint256"
        },
        {
          "internalType": "uint256",
          "name": "lastPoolValue",
          "type": "uint256"
        },
        {
          "internalType": "address",
          "name": "token",
          "type": "address"
        },
        {
          "internalType": "enum Monoswap.PoolStatus",
          "name": "status",
          "type": "uint8"
        },
        {
          "internalType": "uint112",
          "name": "vusdDebt",
          "type": "uint112"
        },
        {
          "internalType": "uint112",
          "name": "vusdCredit",
          "type": "uint112"
        },
        {
          "internalType": "uint112",
          "name": "tokenBalance",
          "type": "uint112"
        },
        {
          "internalType": "uint112",
          "name": "price",
          "type": "uint112"
        }
      ],
      "stateMutability": "view",
      "type": "function"
    },
    {
      "inputs": [
        {
          "internalType": "address",
          "name": "_token",
          "type": "address"
        },
        {
          "internalType": "uint256",
          "name": "liquidity",
          "type": "uint256"
        },
        {
          "internalType": "address",
          "name": "to",
          "type": "address"
        },
        {
          "internalType": "uint256",
          "name": "minVusdOut",
          "type": "uint256"
        },
        {
          "internalType": "uint256",
          "name": "minTokenOut",
          "type": "uint256"
        }
      ],
      "name": "removeLiquidity",
      "outputs": [
        {
          "internalType": "uint256",
          "name": "vusdOut",
          "type": "uint256"
        },
        {
          "internalType": "uint256",
          "name": "tokenOut",
          "type": "uint256"
        }
      ],
      "stateMutability": "nonpayable",
      "type": "function"
    },
    {
      "inputs": [],
      "name": "renounceOwnership",
      "outputs": [],
      "stateMutability": "nonpayable",
      "type": "function"
    },
    {
      "inputs": [
        {
          "internalType": "address",
          "name": "from",
          "type": "address"
        },
        {
          "internalType": "address",
          "name": "to",
          "type": "address"
        },
        {
          "internalType": "uint256[]",
          "name": "ids",
          "type": "uint256[]"
        },
        {
          "internalType": "uint256[]",
          "name": "amounts",
          "type": "uint256[]"
        },
        {
          "internalType": "bytes",
          "name": "data",
          "type": "bytes"
        }
      ],
      "name": "safeBatchTransferFrom",
      "outputs": [],
      "stateMutability": "nonpayable",
      "type": "function"
    },
    {
      "inputs": [
        {
          "internalType": "address",
          "name": "from",
          "type": "address"
        },
        {
          "internalType": "address",
          "name": "to",
          "type": "address"
        },
        {
          "internalType": "uint256",
          "name": "id",
          "type": "uint256"
        },
        {
          "internalType": "uint256",
          "name": "amount",
          "type": "uint256"
        },
        {
          "internalType": "bytes",
          "name": "data",
          "type": "bytes"
        }
      ],
      "name": "safeTransferFrom",
      "outputs": [],
      "stateMutability": "nonpayable",
      "type": "function"
    },
    {
      "inputs": [
        {
          "internalType": "address",
          "name": "operator",
          "type": "address"
        },
        {
          "internalType": "bool",
          "name": "approved",
          "type": "bool"
        }
      ],
      "name": "setApprovalForAll",
      "outputs": [],
      "stateMutability": "nonpayable",
      "type": "function"
    },
    {
      "inputs": [
        {
          "internalType": "uint16",
          "name": "_devFee",
          "type": "uint16"
        }
      ],
      "name": "setDevFee",
      "outputs": [],
      "stateMutability": "nonpayable",
      "type": "function"
    },
    {
      "inputs": [
        {
          "internalType": "address",
          "name": "_feeTo",
          "type": "address"
        }
      ],
      "name": "setFeeTo",
      "outputs": [],
      "stateMutability": "nonpayable",
      "type": "function"
    },
    {
      "inputs": [
        {
          "internalType": "uint16",
          "name": "_fees",
          "type": "uint16"
        }
      ],
      "name": "setFees",
      "outputs": [],
      "stateMutability": "nonpayable",
      "type": "function"
    },
    {
      "inputs": [
        {
          "internalType": "bytes4",
          "name": "interfaceId",
          "type": "bytes4"
        }
      ],
      "name": "supportsInterface",
      "outputs": [
        {
          "internalType": "bool",
          "name": "",
          "type": "bool"
        }
      ],
      "stateMutability": "view",
      "type": "function"
    },
    {
      "inputs": [
        {
          "internalType": "address",
          "name": "tokenIn",
          "type": "address"
        },
        {
          "internalType": "address",
          "name": "tokenOut",
          "type": "address"
        },
        {
          "internalType": "uint256",
          "name": "amountIn",
          "type": "uint256"
        },
        {
          "internalType": "uint256",
          "name": "amountOutMin",
          "type": "uint256"
        },
        {
          "internalType": "address",
          "name": "to",
          "type": "address"
        },
        {
          "internalType": "uint256",
          "name": "deadline",
          "type": "uint256"
        }
      ],
      "name": "swapExactTokenForToken",
      "outputs": [
        {
          "internalType": "uint256",
          "name": "amountOut",
          "type": "uint256"
        }
      ],
      "stateMutability": "nonpayable",
      "type": "function"
    },
    {
      "inputs": [
        {
          "internalType": "address",
          "name": "tokenIn",
          "type": "address"
        },
        {
          "internalType": "address",
          "name": "tokenOut",
          "type": "address"
        },
        {
          "internalType": "address",
          "name": "to",
          "type": "address"
        },
        {
          "internalType": "uint256",
          "name": "amountIn",
          "type": "uint256"
        }
      ],
      "name": "swapIn",
      "outputs": [
        {
          "internalType": "uint256",
          "name": "amountOut",
          "type": "uint256"
        }
      ],
      "stateMutability": "nonpayable",
      "type": "function"
    },
    {
      "inputs": [
        {
          "internalType": "address",
          "name": "tokenIn",
          "type": "address"
        },
        {
          "internalType": "address",
          "name": "tokenOut",
          "type": "address"
        },
        {
          "internalType": "address",
          "name": "to",
          "type": "address"
        },
        {
          "internalType": "uint256",
          "name": "amountOut",
          "type": "uint256"
        }
      ],
      "name": "swapOut",
      "outputs": [
        {
          "internalType": "uint256",
          "name": "amountIn",
          "type": "uint256"
        }
      ],
      "stateMutability": "nonpayable",
      "type": "function"
    },
    {
      "inputs": [
        {
          "internalType": "address",
          "name": "tokenIn",
          "type": "address"
        },
        {
          "internalType": "address",
          "name": "tokenOut",
          "type": "address"
        },
        {
          "internalType": "uint256",
          "name": "amountInMax",
          "type": "uint256"
        },
        {
          "internalType": "uint256",
          "name": "amountOut",
          "type": "uint256"
        },
        {
          "internalType": "address",
          "name": "to",
          "type": "address"
        },
        {
          "internalType": "uint256",
          "name": "deadline",
          "type": "uint256"
        }
      ],
      "name": "swapTokenForExactToken",
      "outputs": [
        {
          "internalType": "uint256",
          "name": "amountIn",
          "type": "uint256"
        }
      ],
      "stateMutability": "nonpayable",
      "type": "function"
    },
    {
      "inputs": [
        {
          "internalType": "address",
          "name": "",
          "type": "address"
        }
      ],
      "name": "tokenPoolStatus",
      "outputs": [
        {
          "internalType": "uint8",
          "name": "",
          "type": "uint8"
        }
      ],
      "stateMutability": "view",
      "type": "function"
    },
    {
      "inputs": [
        {
          "internalType": "uint256",
          "name": "",
          "type": "uint256"
        }
      ],
      "name": "totalSupply",
      "outputs": [
        {
          "internalType": "uint256",
          "name": "",
          "type": "uint256"
        }
      ],
      "stateMutability": "view",
      "type": "function"
    },
    {
      "inputs": [
        {
          "internalType": "address",
          "name": "newOwner",
          "type": "address"
        }
      ],
      "name": "transferOwnership",
      "outputs": [],
      "stateMutability": "nonpayable",
      "type": "function"
    },
    {
      "inputs": [
        {
          "internalType": "uint256",
          "name": "",
          "type": "uint256"
        }
      ],
      "name": "uri",
      "outputs": [
        {
          "internalType": "string",
          "name": "",
          "type": "string"
        }
      ],
      "stateMutability": "view",
      "type": "function"
    }
  ],
  "bytecode": "0x608060405261012c600660146101000a81548161ffff021916908361ffff1602179055506032600660166101000a81548161ffff021916908361ffff1602179055506103e86008556000600c556001600d553480156200005e57600080fd5b506040516200fe2f3803806200fe2f833981810160405260208110156200008457600080fd5b81019080805190602001909291905050506040518060400160405280600381526020017f7b317d0000000000000000000000000000000000000000000000000000000000815250620000e36301ffc9a760e01b620002ba60201b60201c565b620000f481620003c360201b60201c565b6200010c63d9b67a2660e01b620002ba60201b60201c565b62000124630e89341c60e01b620002ba60201b60201c565b50600062000137620003df60201b60201c565b905080600460006101000a81548173ffffffffffffffffffffffffffffffffffffffff021916908373ffffffffffffffffffffffffffffffffffffffff1602179055508073ffffffffffffffffffffffffffffffffffffffff16600073ffffffffffffffffffffffffffffffffffffffff167f8be0079c531659141344cd1fd0a4f28419497f9722a3daafe3b4186f6b6457e060405160405180910390a3506200020a7f72b61c25812811296a60de2a4ed43a76bd888ed3be8dc1584f6ccab640467a7460001b620003e760201b60201c565b6200023e7fd2a5dc6c888e9b179ed277004fa89748b696f6301e60c06dbcc09ae5f850707960001b620003e760201b60201c565b620002727f2d4d3964b2b27412db0b0fb89871815794652aee064922b8597749fa4af31d3760001b620003e760201b60201c565b80600560006101000a81548173ffffffffffffffffffffffffffffffffffffffff021916908373ffffffffffffffffffffffffffffffffffffffff1602179055505062000490565b63ffffffff60e01b817bffffffffffffffffffffffffffffffffffffffffffffffffffffffff1916141562000357576040517f08c379a000000000000000000000000000000000000000000000000000000000815260040180806020018281038252601c8152602001807f4552433136353a20696e76616c696420696e746572666163652069640000000081525060200191505060405180910390fd5b6001600080837bffffffffffffffffffffffffffffffffffffffffffffffffffffffff19167bffffffffffffffffffffffffffffffffffffffffffffffffffffffff1916815260200190815260200160002060006101000a81548160ff02191690831515021790555050565b8060039080519060200190620003db929190620003ea565b5050565b600033905090565b50565b828054600181600116156101000203166002900490600052602060002090601f016020900481019282601f106200042d57805160ff19168380011785556200045e565b828001600101855582156200045e579182015b828111156200045d57825182559160200191906001019062000440565b5b5090506200046d919062000471565b5090565b5b808211156200048c57600081600090555060010162000472565b5090565b61f98f80620004a06000396000f3fe608060405234801561001057600080fd5b506004361061017e5760003560e01c8062c2408714610183578062fdd58e1461022057806301ffc9a7146102825780630e89341c146102e5578063138d03cd1461038c57806318b0f6ab146104425780631a9fe17e146104705780631b879378146104cb5780632eb2c2d61461054d5780634aa06652146107705780634e1273f4146108075780634ec18db9146109a857806353b609b5146109c6578063556ca70914610a5d5780635dd44a6d14610ae9578063715018a614610b9f5780638da5cb5b14610ba9578063a22cb46514610bdd578063a4063dbc14610c2d578063b242117814610d17578063bbe4f6db14610dae578063bd85b03914610e1b578063c22b53be14610e5d578063c48caa7014610eff578063ca1123c214610f71578063d56468ac14610fa3578063e18cb4fe14611050578063e4df1c4314611082578063e985e9c514611124578063f242432a1461119e578063f2fde38b146112ad578063f46901ed146112f1575b600080fd5b610203600480360360a081101561019957600080fd5b81019080803573ffffffffffffffffffffffffffffffffffffffff16906020019092919080359060200190929190803573ffffffffffffffffffffffffffffffffffffffff1690602001909291908035906020019092919080359060200190929190505050611335565b604051808381526020018281526020019250505060405180910390f35b61026c6004803603604081101561023657600080fd5b81019080803573ffffffffffffffffffffffffffffffffffffffff16906020019092919080359060200190929190505050611ee1565b6040518082815260200191505060405180910390f35b6102cd6004803603602081101561029857600080fd5b8101908080357bffffffffffffffffffffffffffffffffffffffffffffffffffffffff19169060200190929190505050611fc1565b60405180821515815260200191505060405180910390f35b610311600480360360208110156102fb57600080fd5b8101908080359060200190929190505050612028565b6040518080602001828103825283818151815260200191508051906020019080838360005b83811015610351578082015181840152602081019050610336565b50505050905090810190601f16801561037e5780820380516001836020036101000a031916815260200191505b509250505060405180910390f35b61042c600480360360c08110156103a257600080fd5b81019080803573ffffffffffffffffffffffffffffffffffffffff169060200190929190803573ffffffffffffffffffffffffffffffffffffffff1690602001909291908035906020019092919080359060200190929190803573ffffffffffffffffffffffffffffffffffffffff169060200190929190803590602001909291905050506120cc565b6040518082815260200191505060405180910390f35b61046e6004803603602081101561045857600080fd5b8101908080359060200190929190505050612410565b005b6104b26004803603602081101561048657600080fd5b81019080803573ffffffffffffffffffffffffffffffffffffffff169060200190929190505050612413565b604051808260ff16815260200191505060405180910390f35b610537600480360360608110156104e157600080fd5b81019080803573ffffffffffffffffffffffffffffffffffffffff16906020019092919080359060200190929190803573ffffffffffffffffffffffffffffffffffffffff169060200190929190505050612433565b6040518082815260200191505060405180910390f35b61076e600480360360a081101561056357600080fd5b81019080803573ffffffffffffffffffffffffffffffffffffffff169060200190929190803573ffffffffffffffffffffffffffffffffffffffff169060200190929190803590602001906401000000008111156105c057600080fd5b8201836020820111156105d257600080fd5b803590602001918460208302840111640100000000831117156105f457600080fd5b919080806020026020016040519081016040528093929190818152602001838360200280828437600081840152601f19601f8201169050808301925050505050505091929192908035906020019064010000000081111561065457600080fd5b82018360208201111561066657600080fd5b8035906020019184602083028401116401000000008311171561068857600080fd5b919080806020026020016040519081016040528093929190818152602001838360200280828437600081840152601f19601f820116905080830192505050505050509192919290803590602001906401000000008111156106e857600080fd5b8201836020820111156106fa57600080fd5b8035906020019184600183028401116401000000008311171561071c57600080fd5b91908080601f016020809104026020016040519081016040528093929190818152602001838380828437600081840152601f19601f8201169050808301925050505050505091929192905050506124cf565b005b6107dc6004803603606081101561078657600080fd5b81019080803573ffffffffffffffffffffffffffffffffffffffff169060200190929190803573ffffffffffffffffffffffffffffffffffffffff1690602001909291908035906020019092919050505061295a565b6040518085815260200184815260200183815260200182815260200194505050505060405180910390f35b6109516004803603604081101561081d57600080fd5b810190808035906020019064010000000081111561083a57600080fd5b82018360208201111561084c57600080fd5b8035906020019184602083028401116401000000008311171561086e57600080fd5b919080806020026020016040519081016040528093929190818152602001838360200280828437600081840152601f19601f820116905080830192505050505050509192919290803590602001906401000000008111156108ce57600080fd5b8201836020820111156108e057600080fd5b8035906020019184602083028401116401000000008311171561090257600080fd5b919080806020026020016040519081016040528093929190818152602001838360200280828437600081840152601f19601f820116905080830192505050505050509192919290505050613b4b565b6040518080602001828103825283818151815260200191508051906020019060200280838360005b83811015610994578082015181840152602081019050610979565b505050509050019250505060405180910390f35b6109b0613c5d565b6040518082815260200191505060405180910390f35b610a32600480360360608110156109dc57600080fd5b81019080803573ffffffffffffffffffffffffffffffffffffffff169060200190929190803573ffffffffffffffffffffffffffffffffffffffff16906020019092919080359060200190929190505050613c63565b6040518085815260200184815260200183815260200182815260200194505050505060405180910390f35b610ad360048036036080811015610a7357600080fd5b81019080803573ffffffffffffffffffffffffffffffffffffffff1690602001909291908035906020019092919080359060200190929190803573ffffffffffffffffffffffffffffffffffffffff169060200190929190505050614e54565b6040518082815260200191505060405180910390f35b610b89600480360360c0811015610aff57600080fd5b81019080803573ffffffffffffffffffffffffffffffffffffffff169060200190929190803573ffffffffffffffffffffffffffffffffffffffff1690602001909291908035906020019092919080359060200190929190803573ffffffffffffffffffffffffffffffffffffffff16906020019092919080359060200190929190505050615aa3565b6040518082815260200191505060405180910390f35b610ba7615dca565b005b610bb1615f3a565b604051808273ffffffffffffffffffffffffffffffffffffffff16815260200191505060405180910390f35b610c2b60048036036040811015610bf357600080fd5b81019080803573ffffffffffffffffffffffffffffffffffffffff169060200190929190803515159060200190929190505050615f64565b005b610c6f60048036036020811015610c4357600080fd5b81019080803573ffffffffffffffffffffffffffffffffffffffff1690602001909291905050506160fd565b604051808981526020018881526020018773ffffffffffffffffffffffffffffffffffffffff168152602001866002811115610ca757fe5b8152602001856dffffffffffffffffffffffffffff168152602001846dffffffffffffffffffffffffffff168152602001836dffffffffffffffffffffffffffff168152602001826dffffffffffffffffffffffffffff1681526020019850505050505050505060405180910390f35b610d8360048036036060811015610d2d57600080fd5b81019080803573ffffffffffffffffffffffffffffffffffffffff16906020019092919080359060200190929190803573ffffffffffffffffffffffffffffffffffffffff1690602001909291905050506161da565b6040518085815260200184815260200183815260200182815260200194505050505060405180910390f35b610df060048036036020811015610dc457600080fd5b81019080803573ffffffffffffffffffffffffffffffffffffffff169060200190929190505050616cd7565b6040518085815260200184815260200183815260200182815260200194505050505060405180910390f35b610e4760048036036020811015610e3157600080fd5b8101908080359060200190929190505050617168565b6040518082815260200191505060405180910390f35b610ee960048036036080811015610e7357600080fd5b81019080803573ffffffffffffffffffffffffffffffffffffffff169060200190929190803573ffffffffffffffffffffffffffffffffffffffff169060200190929190803573ffffffffffffffffffffffffffffffffffffffff16906020019092919080359060200190929190505050617180565b6040518082815260200191505060405180910390f35b610f5b60048036036040811015610f1557600080fd5b81019080803573ffffffffffffffffffffffffffffffffffffffff16906020019092919080356dffffffffffffffffffffffffffff1690602001909291905050506186a4565b6040518082815260200191505060405180910390f35b610fa160048036036020811015610f8757600080fd5b81019080803561ffff1690602001909291905050506187ed565b005b611033600480360360a0811015610fb957600080fd5b81019080803573ffffffffffffffffffffffffffffffffffffffff16906020019092919080356dffffffffffffffffffffffffffff1690602001909291908035906020019092919080359060200190929190803573ffffffffffffffffffffffffffffffffffffffff169060200190929190505050618a6b565b604051808381526020018281526020019250505060405180910390f35b6110806004803603602081101561106657600080fd5b81019080803561ffff169060200190929190505050618b6f565b005b61110e6004803603608081101561109857600080fd5b81019080803573ffffffffffffffffffffffffffffffffffffffff169060200190929190803573ffffffffffffffffffffffffffffffffffffffff169060200190929190803573ffffffffffffffffffffffffffffffffffffffff16906020019092919080359060200190929190505050618ded565b6040518082815260200191505060405180910390f35b6111866004803603604081101561113a57600080fd5b81019080803573ffffffffffffffffffffffffffffffffffffffff169060200190929190803573ffffffffffffffffffffffffffffffffffffffff16906020019092919050505061a1e0565b60405180821515815260200191505060405180910390f35b6112ab600480360360a08110156111b457600080fd5b81019080803573ffffffffffffffffffffffffffffffffffffffff169060200190929190803573ffffffffffffffffffffffffffffffffffffffff16906020019092919080359060200190929190803590602001909291908035906020019064010000000081111561122557600080fd5b82018360208201111561123757600080fd5b8035906020019184600183028401116401000000008311171561125957600080fd5b91908080601f016020809104026020016040519081016040528093929190818152602001838380828437600081840152601f19601f82011690508083019250505050505050919291929050505061a274565b005b6112ef600480360360208110156112c357600080fd5b81019080803573ffffffffffffffffffffffffffffffffffffffff16906020019092919050505061a5e9565b005b6113336004803603602081101561130757600080fd5b81019080803573ffffffffffffffffffffffffffffffffffffffff16906020019092919050505061a7de565b005b6000806113647fb85b3a327d1ac2705df428cde82d72ef1fb2302e5097edcac24a7670abd9172460001b612410565b6113907f95965451f6474b5d4e364a21b953ebc9660829e3c679dcaf74fe40f2715e8e5360001b612410565b6113bc7fbf9738e9146614cb725770100524aeaf24c2104454fd030e8fa72a5b6b82e40e60001b612410565b6113e87f53434e8b533eacb27073d9e855ff437abbf3315f1a1ccf9ae2afce71bb822be060001b612410565b6001600b60008973ffffffffffffffffffffffffffffffffffffffff1673ffffffffffffffffffffffffffffffffffffffff16815260200190815260200160002060009054906101000a900460ff1660ff16146114ad576040517f08c379a00000000000000000000000000000000000000000000000000000000081526004018080602001828103825260198152602001807f4d6f6e6f737761703a20546f6b656e204e6f7420466f756e640000000000000081525060200191505060405180910390fd5b6114d97f4b61f1823d66b916356db5925b61f3cb1df1dd5ad0c13e4280b23bd299fc7ab560001b612410565b6115057f1885cc3a7d1db8885709a88f6ddfc9c6dd53a2feb7e463374d143487f681cc3d60001b612410565b6115317ff539661b92601cb906478f23b74811dbaba765b172a6f4e751fa3162284f0e7060001b612410565b61153961f49c565b600960008973ffffffffffffffffffffffffffffffffffffffff1673ffffffffffffffffffffffffffffffffffffffff1681526020019081526020016000206040518061010001604052908160008201548152602001600182015481526020016002820160009054906101000a900473ffffffffffffffffffffffffffffffffffffffff1673ffffffffffffffffffffffffffffffffffffffff1673ffffffffffffffffffffffffffffffffffffffff1681526020016002820160149054906101000a900460ff16600281111561160c57fe5b600281111561161757fe5b81526020016003820160009054906101000a90046dffffffffffffffffffffffffffff166dffffffffffffffffffffffffffff166dffffffffffffffffffffffffffff16815260200160038201600e9054906101000a90046dffffffffffffffffffffffffffff166dffffffffffffffffffffffffffff166dffffffffffffffffffffffffffff1681526020016004820160009054906101000a90046dffffffffffffffffffffffffffff166dffffffffffffffffffffffffffff166dffffffffffffffffffffffffffff16815260200160048201600e9054906101000a90046dffffffffffffffffffffffffffff166dffffffffffffffffffffffffffff166dffffffffffffffffffffffffffff168152505090506117597f52d73e6b100dca7fbfe6d5c56da935eae8edaa623e462da3babdfc492c4e3f3060001b612410565b6117857ffc25d68a136e10b7cefe0f9ec53a2e182780a5be31dfe4be518a92fcb23555e260001b612410565b60006117b37f57e683e26c473572e2dc02c368b42c5e283a13b61e99c799b4f7879c237b815860001b612410565b6117df7fbdd51642e214e6254afebfa7ebb2803a0ec2570d8de43f4438288ccfb09fd3d160001b612410565b600061180d7fb68c4db9e6050e981d97be3ef389ca35d9e9b0309e384ca65b55c3873f9ca85460001b612410565b6118397f244fbc3f5d0b7a84aa63da83a2c98d667e7d440e5c28ff25f8ad80b82d43d34360001b612410565b6118448a8a8a6161da565b809750819850829450839550505050506118807f71c88f7bf3362522677093af3053a94576b6b28833e4fa0c425a30fbcff0161960001b612410565b6118ac7f3d3ada2ff00e3915bbcc4d482657fa32740dcbd8337746a509ec3724f540fa1a60001b612410565b6118bf836000015184602001518461a955565b6118eb7f1b42b5f67be409a03abf5cb9c456c24ea29e7766a21f25162ec7f31a5eaa7e8d60001b612410565b6119177f39939b6878da963283dd8cb1258488c16509a3f34ef374eca6954082aec73f6160001b612410565b6119437fca2f1509ce1a297a64e45bc950882e159943836300bd8ba0780e7a4bf116ed1f60001b612410565b868510156119b9576040517f08c379a00000000000000000000000000000000000000000000000000000000081526004018080602001828103825260208152602001807f4d6f6e6f737761703a204c6573732076555344207468616e206465736972656481525060200191505060405180910390fd5b6119e57fbbdbda645cefb4538b4cea14f7888729b04361e03bd7e70c02f8793b0bba2f1760001b612410565b611a117f0f39aab79aba3b8523a8840e860d4f64f8a14e5094dcde6838bad2bdcd043daa60001b612410565b611a3d7fb7886e32127d6ce2ed0843582e95cf0c8a44e152f1414c911ce4178465ff327a60001b612410565b611a697f29878a762adee455b523bb66ee7cb11b3bc9be925b02eed27436071b78c89a7860001b612410565b85841015611ac2576040517f08c379a000000000000000000000000000000000000000000000000000000000815260040180806020018281038252602881526020018061f9326028913960400191505060405180910390fd5b611aee7f1f666c07346667615e706cf771b29daa79ada37b218fc413f3ac9158adf07d7b60001b612410565b611b1a7f335da0f92baf98905ea953d19322797518cf1d65d2af1b056ecc433014d1d4dd60001b612410565b611b467faeff93fd483e4619d065d2d460ef732113f9a9a5de839fd46327ee70e6a2aa7c60001b612410565b6000851115611c8357611b7b7fb615dff74d777324876a1a26effe9b60ee1e10e0808aa76f5a074c3d964a4aac60001b612410565b611ba77fee4fde922172e0181da55afa1d944a068ef5f0f7118ac58f7bd1dfc2d03236e460001b612410565b611bd37ff987ebc9e3773e4cfe2fc3072680e872c533836de96be55c969fd62b8bdab83460001b612410565b600560009054906101000a900473ffffffffffffffffffffffffffffffffffffffff1673ffffffffffffffffffffffffffffffffffffffff166340c10f1989876040518363ffffffff1660e01b8152600401808373ffffffffffffffffffffffffffffffffffffffff16815260200182815260200192505050600060405180830381600087803b158015611c6657600080fd5b505af1158015611c7a573d6000803e3d6000fd5b50505050611cb0565b611caf7f0f398eab24afc3568dae15880066cc1e856175c4e17562c1896a38679ea06a9360001b612410565b5b611cdc7f6ce25dfcc565121227f25485c356a084ba761761ab93dcf9b92cfe06f634cfd660001b612410565b611d087f44374db9eee26886b0fcedcbf40125adebd439e87acf6dc3b2274db586a54fd560001b612410565b611d3388858c73ffffffffffffffffffffffffffffffffffffffff1661ac5c9092919063ffffffff16565b611d5f7f5510dc93b9bedbaff8c504cb4d74556aea00317a1f30369c1ae8b8a415f136c660001b612410565b611d8b7fc4e4908e6adfa17c6168fe7c3cfae22498a0d2a5daf69b36f99754923ce629bd60001b612410565b611d9a8884600001518361acfe565b611dc67fe7df1adca32bc7329f1903339a34b98c65858dda13d6c847b6609ac071354fb660001b612410565b611df27f949097c191edb9eb01ee4c3bf70cf2919bc6c348a95eb678d3ac2ba6f2c548ca60001b612410565b611dfe8a60008761ae27565b50505050611e2e7fdebf752d744bbb597c371c3f72f4d5fd027e31d69df609c65fd664239c81d85b60001b612410565b611e5a7f5d56891a84240f60f4e4728caa766e4e064317e5dbf1e5313800d776e644c9da60001b612410565b8973ffffffffffffffffffffffffffffffffffffffff1683600001518973ffffffffffffffffffffffffffffffffffffffff167fab577bf53edf8e035c53859461bfaac55e75b9380a594cc487ae89665d7788f284898960405180848152602001838152602001828152602001935050505060405180910390a45050509550959350505050565b60008073ffffffffffffffffffffffffffffffffffffffff168373ffffffffffffffffffffffffffffffffffffffff161415611f68576040517f08c379a000000000000000000000000000000000000000000000000000000000815260040180806020018281038252602b81526020018061f697602b913960400191505060405180910390fd5b6001600083815260200190815260200160002060008473ffffffffffffffffffffffffffffffffffffffff1673ffffffffffffffffffffffffffffffffffffffff16815260200190815260200160002054905092915050565b6000806000837bffffffffffffffffffffffffffffffffffffffffffffffffffffffff19167bffffffffffffffffffffffffffffffffffffffffffffffffffffffff1916815260200190815260200160002060009054906101000a900460ff169050919050565b606060038054600181600116156101000203166002900480601f0160208091040260200160405190810160405280929190818152602001828054600181600116156101000203166002900480156120c05780601f10612095576101008083540402835291602001916120c0565b820191906000526020600020905b8154815290600101906020018083116120a357829003601f168201915b50505050509050919050565b6000816120fb7fa2487e353f941fc9461b13945c4a6555f8061804797618354b945b4f5ca1ebe560001b612410565b6121277f0e174ede586b3674a3a6d9c8954d5b44a0b197dbd2244fd112e4ced7c0c16b9160001b612410565b6121537fb6448cd92870cb4775ee8fc4879985cdd096271ac48a07a44fc3dcb58b95c9bd60001b612410565b61217f7f065f720f4b4f631b423388037737229c78acefce93bc149e41475217a0eb634e60001b612410565b428110156121f5576040517f08c379a00000000000000000000000000000000000000000000000000000000081526004018080602001828103825260118152602001807f4d6f6e6f737761703a204558504952454400000000000000000000000000000081525060200191505060405180910390fd5b6122217fe46c342d8ad1b1b65e8d183bc6b7235e26e60d59a7c1275e9bc7f20d6c33e7b960001b612410565b61224d7f6b61155cd34fcf568259a0953a4fefc3e112972efaf9570b430b4f7dd45e81f560001b612410565b6122797f964516d18c42d28be3e9b26e6f8064de41f6f049df05ef8db1b04fda638d294260001b612410565b6122a57f047866dddc7b9d9ffd295d9416b861164acd5fb693762a99f300ce5f2b9da67060001b612410565b6122d17f4683cc69649bb44b54b2cf50b6efbb648484ec50b2d34cbb818b27154883a95560001b612410565b6122dd88888688617180565b915061230b7f7fe9eec0ccfd9c2b9946c17f3dd3f85971289b92251ebedeb433e6adf89568c760001b612410565b6123377f6eec2d5305805e9f9220fe9441b3c723e6eaccde6303ea22c376061941c6559a60001b612410565b6123637fc75bae6bfa8b0f11a304d9cdc38ad9ab2117d0fbe78ca36eeb9735ce4f7017b360001b612410565b858211156123d9576040517f08c379a00000000000000000000000000000000000000000000000000000000081526004018080602001828103825260208152602001807f4d6f6e6f737761703a204558434553534956455f494e5055545f414d4f554e5481525060200191505060405180910390fd5b6124057f37cbdcdd01ff7239519915e7c9f2ef69ef3b60271c2e4be40c0b990d9b61de6960001b612410565b509695505050505050565b50565b600b6020528060005260406000206000915054906101000a900460ff1681565b60006124617f3ceea89ff2863af5fb9bcabe234697f9a7f2193f9863341c6f2eba0e6e6ed3b060001b612410565b61248d7f2d349100169a7845cc4a67b2e2b74a5ab7f581efe3ba147fde9ec79b0c9e142b60001b612410565b6124b97fefd89f4bc3b3e65e489ce74cdffe37c945dd9abe2ee53cbbc3b8a8f1f9cff10460001b612410565b6124c68460008585614e54565b90509392505050565b8151835114612529576040517f08c379a000000000000000000000000000000000000000000000000000000000815260040180806020018281038252602881526020018061f8e96028913960400191505060405180910390fd5b600073ffffffffffffffffffffffffffffffffffffffff168473ffffffffffffffffffffffffffffffffffffffff1614156125af576040517f08c379a000000000000000000000000000000000000000000000000000000000815260040180806020018281038252602581526020018061f75b6025913960400191505060405180910390fd5b6125b761b969565b73ffffffffffffffffffffffffffffffffffffffff168573ffffffffffffffffffffffffffffffffffffffff1614806125fd57506125fc856125f761b969565b61a1e0565b5b612652576040517f08c379a000000000000000000000000000000000000000000000000000000000815260040180806020018281038252603281526020018061f7806032913960400191505060405180910390fd5b600061265c61b969565b905061266c81878787878761b971565b60005b845181101561283d57600085828151811061268657fe5b60200260200101519050600085838151811061269e57fe5b60200260200101519050612725816040518060600160405280602a815260200161f7d5602a91396001600086815260200190815260200160002060008d73ffffffffffffffffffffffffffffffffffffffff1673ffffffffffffffffffffffffffffffffffffffff1681526020019081526020016000205461b9799092919063ffffffff16565b6001600084815260200190815260200160002060008b73ffffffffffffffffffffffffffffffffffffffff1673ffffffffffffffffffffffffffffffffffffffff168152602001908152602001600020819055506127dc816001600085815260200190815260200160002060008b73ffffffffffffffffffffffffffffffffffffffff1673ffffffffffffffffffffffffffffffffffffffff1681526020019081526020016000205461ba3390919063ffffffff16565b6001600084815260200190815260200160002060008a73ffffffffffffffffffffffffffffffffffffffff1673ffffffffffffffffffffffffffffffffffffffff16815260200190815260200160002081905550505080600101905061266f565b508473ffffffffffffffffffffffffffffffffffffffff168673ffffffffffffffffffffffffffffffffffffffff168273ffffffffffffffffffffffffffffffffffffffff167f4a39dc06d4c0dbc64b70af90fd698a233a518aa5d07e595d983b8c0526c8f7fb8787604051808060200180602001838103835285818151815260200191508051906020019060200280838360005b838110156128ed5780820151818401526020810190506128d2565b50505050905001838103825284818151815260200191508051906020019060200280838360005b8381101561292f578082015181840152602081019050612914565b5050505090500194505050505060405180910390a461295281878787878761babb565b505050505050565b60008060008061298c7f8f3e29f85ba325d85d210e887fee04564d8d6e61803c35847b86534f223b9df160001b612410565b6129b87f7379fe79ba7ea4b4ce786c3af0065e542083449c3fca37a1b9fc96f7ab11cb7660001b612410565b6129e47f189f023a7c7888bc10760a7262264ae97774de986708a765e6603a943b3b835a60001b612410565b612a107fdb515d2697c8219d294a58c5ca441c1f0d2724684f7a208bc17c5982fb17d2d360001b612410565b60008511612a69576040517f08c379a000000000000000000000000000000000000000000000000000000000815260040180806020018281038252602381526020018061f84a6023913960400191505060405180910390fd5b612a957f7ab034901bf0f5cbf50557c3fad5066aa2d70ac88e27bf7950ffc2ee3c560d2660001b612410565b612ac17fec022565f650c4f92f5cdcd1c9cb9138acc51539af877e6e5e76917ac4abb65a60001b612410565b612aed7f92bdb17d489400660a75e1f9437b8e9d3e534fcc5ee4a8113649525f16da5dfd60001b612410565b6000620186a0612b24600660149054906101000a900461ffff1661ffff16620186a00362ffffff168861be4a90919063ffffffff16565b81612b2b57fe5b049050612b5a7f7ac74235115b9fb70917f444902bb1da39fe42545a6857411ab4d48f5b013e6b60001b612410565b612b867f4b758dd2f8106e2a72741ebea22468d99850c5322dc2121f2ab0a7e15517a8bc60001b612410565b6000600560009054906101000a900473ffffffffffffffffffffffffffffffffffffffff169050612bd97f60944313859e09e5e129b37e0bf87b6ea3cb3303c635906be4c1db952a2d0e5760001b612410565b612c057f9f40f833d2774889d9756aa01fed04017c6cc53282fea390943628ea08021e9360001b612410565b8073ffffffffffffffffffffffffffffffffffffffff168973ffffffffffffffffffffffffffffffffffffffff161415612d2857612c657f7f3e94d5f118fc388123658cf4b5e5a771576fd12766d8bae08382d1e77763c360001b612410565b612c917feaa1e54572321a4d7fb2a1d378a253c09a3f250a5f04dc0975f2e5c8a52c6d2660001b612410565b612cbd7f047d72256f65a2177570eb103ba7d2033171852811118221b210cc04a7509de460001b612410565b819250612cec7f9aca2ecd8f70dd3d31f4b083fea89015bb89d0ed82eadc29c9a3cd41334ea2f160001b612410565b612d187fe2be3ed443920b8f41a4387f0634464a7c3b0f6dd26e1c9c505cba63f13507b560001b612410565b670de0b6b3a7640000955061332d565b612d547f377dadd67bfdd81c7725289978d85d8cb0be3b5714e50677ab86215af1b81d0260001b612410565b612d807f7b5b117ef5452a1fd6a51b535aa6d6598ffbf750fd6f4f9c850442878e2358e860001b612410565b612dac7f108cee9597c9784abc8b0a62c153daa6d263fac25274cd132508ac7a4589507f60001b612410565b612dd87fc9319cc78f532b1596623087beb84af22f2cc8ad0175a6db30150c11e2b88e7060001b612410565b6001600b60008b73ffffffffffffffffffffffffffffffffffffffff1673ffffffffffffffffffffffffffffffffffffffff16815260200190815260200160002060009054906101000a900460ff1660ff1614612e9d576040517f08c379a00000000000000000000000000000000000000000000000000000000081526004018080602001828103825260198152602001807f4d6f6e6f737761703a20546f6b656e204e6f7420466f756e640000000000000081525060200191505060405180910390fd5b612ec97ffe98150390a48f699068126960196d39d29f3aa62140e7636cbddea05858384d60001b612410565b612ef57fcd1395b2e4ea54431f66d902289386a42a88af42a8ae844fa8e7f9a3048cf3ce60001b612410565b612f217f4231ecd8ac3e36fe661d4350e96ad1219de04b5168e61f003280e8f4fc74843960001b612410565b6000600960008b73ffffffffffffffffffffffffffffffffffffffff1673ffffffffffffffffffffffffffffffffffffffff16815260200190815260200160002060020160149054906101000a900460ff169050612fa17f241103d9560b07edb61b0b265e63a45c90365e3236f67dde41e56c27ff66e91760001b612410565b612fcd7f73a34b2423ce11c31e3a3ef0d3cd755a81e72167a9cc12ce7d7162ada1740c7360001b612410565b6000600960008c73ffffffffffffffffffffffffffffffffffffffff1673ffffffffffffffffffffffffffffffffffffffff168152602001908152602001600020600401600e9054906101000a90046dffffffffffffffffffffffffffff166dffffffffffffffffffffffffffff16905061306a7f7a866499b8a7eca66e648bcf3bc7be1817043cb6033567590f74d773782f0c9a60001b612410565b6130967f85824d175d1c61eb969e45bc077f48ba4b4cfdc2c82cb874ecb05595bfdf4f4d60001b612410565b6000600960008d73ffffffffffffffffffffffffffffffffffffffff1673ffffffffffffffffffffffffffffffffffffffff16815260200190815260200160002060040160009054906101000a90046dffffffffffffffffffffffffffff166dffffffffffffffffffffffffffff1690506131337f68b9ecbdbd553aa4f86a172c444cec87c2015f5d8ac4b771bc651fa1f45547f660001b612410565b61315f7fe4f324c01c76b03ba4d54e092c5041cc46143201b254bfb01d9964113fbeb12a60001b612410565b61318b7f65a6a87688ad26258c5f37faa2fe597b4ae27b68e240f35d393eada1399007bc60001b612410565b6000600281111561319857fe5b8360028111156131a457fe5b1415613218576040517f08c379a00000000000000000000000000000000000000000000000000000000081526004018080602001828103825260178152602001807f4d6f6e6f737761703a20506f6f6c20556e6c697374656400000000000000000081525060200191505060405180910390fd5b6132447f8924a30466c88c231bb76086e6cddb95bd8d991ae4ad6f5ea36ffe631dc5723d60001b612410565b6132707f6bd603ca45773db651a47ded5be5ce4b63c583668c0e672c6d3fbe723b4067e260001b612410565b61329c7f0c39969f439e9a77e2be1d0dbfe5fea945072802b37846c7b4c69e2ce57a475360001b612410565b6132a9828287600061bed0565b98506132d77f60bf0a21003d5faaa79ba0e084082054715ec17ee6589b25f8090fa291f0f21c60001b612410565b6133037f7260cdecbea25af5709270a9b016536a7b63149fa170b288c07b2ebab243857f60001b612410565b670de0b6b3a764000061331f868b61be4a90919063ffffffff16565b8161332657fe5b0495505050505b6133597f3aa7b35b03ef075652662db2df13bb398814f9766820f94ad66acb070349d1ac60001b612410565b6133857f25463540314900269a1998282b09cf3a301770c329e137672f0bb1f0a1b2d0eb60001b612410565b8073ffffffffffffffffffffffffffffffffffffffff168873ffffffffffffffffffffffffffffffffffffffff1614156134a8576133e57fe7f49c9fc9b7a0a8c16a5892ed7d8612b10d74c9c234fbc3a5e59587f2d0805d60001b612410565b6134117f71366ded207f7a4a3315cbcbe6e147247ee5ffabaa008afc6d82559290df671860001b612410565b61343d7f32e7073f3b66059920fc80a5e6ddd9d6d48e855795f0a3ebd01064899c6b825260001b612410565b82935061346c7f9602564fc4663a2fe86531cec6873ceb3d4f0b1f166941089463e36fbd852f6760001b612410565b6134987fbd464a58a50bd4453d5af8b4104361e0800e57e69bbe7b080b3fadd9216b474f60001b612410565b670de0b6b3a76400009450613b40565b6134d47fc9f50bc642045b203e0a4a53963e5b14991f9bc14159caf982e31a584d434eb860001b612410565b6135007fc7dbe7acd57b11e29bd76a8cd77c724774821b677bb5fa89e006415b7b5fc0aa60001b612410565b61352c7f26dbf4128ca6022664221a204a2ac8cbbfc1d79b95d645efac86e46e62c9d95d60001b612410565b6135587f461da02b18b256590b0dd67d55af70430d39ed26e1d4f08153d40b2ae10e615660001b612410565b6001600b60008a73ffffffffffffffffffffffffffffffffffffffff1673ffffffffffffffffffffffffffffffffffffffff16815260200190815260200160002060009054906101000a900460ff1660ff161461361d576040517f08c379a00000000000000000000000000000000000000000000000000000000081526004018080602001828103825260198152602001807f4d6f6e6f737761703a20546f6b656e204e6f7420466f756e640000000000000081525060200191505060405180910390fd5b6136497f37f011797adfcad94f7028dd947481cf57db7123b844f429163cda7ec5764bfd60001b612410565b6136757f3b12410ba0e484f3934568c45d076b8e71b85557ac6d6d724c9ecd78e7136bf960001b612410565b6136a17f757564d7c66b4a430dd19f331ad8453dcdcc4095a1145bb1cfae57babe7a9d3360001b612410565b6000600960008a73ffffffffffffffffffffffffffffffffffffffff1673ffffffffffffffffffffffffffffffffffffffff16815260200190815260200160002060020160149054906101000a900460ff1690506137217fedfaa5668dcc76ccf10d68e092dfa6b00a2f5082bacb9bafe08eb671cc1f41f360001b612410565b61374d7f0a84616f975d0661959dd2288f98816fefb67f9e1cdad56e69ddf7c6aa32a48560001b612410565b6000600960008b73ffffffffffffffffffffffffffffffffffffffff1673ffffffffffffffffffffffffffffffffffffffff168152602001908152602001600020600401600e9054906101000a90046dffffffffffffffffffffffffffff166dffffffffffffffffffffffffffff1690506137ea7f7c16c492a4d9b0f6cf642baa4a47002360935f910f90b274ef238769e083f2af60001b612410565b6138167f0b8c67cfcb8ae993571255d20cf08ba970cbf4e95d95dc9e55debbe188dea5b460001b612410565b6000600960008c73ffffffffffffffffffffffffffffffffffffffff1673ffffffffffffffffffffffffffffffffffffffff16815260200190815260200160002060040160009054906101000a90046dffffffffffffffffffffffffffff166dffffffffffffffffffffffffffff1690506138b37fa7856bfc979c43ff250dd9621751558fd17755db84b84c9c5b9aa000be60068f60001b612410565b6138df7f9423ff4c972070b9b0ce5941b33499b3ad5ceb664095fd3159f3d6f03220f55060001b612410565b61390b7f6427c04d9de5ee34b3e46fef6f20c17816edf1dfeaed98fd0fbe3b0ff826961e60001b612410565b6000600281111561391857fe5b83600281111561392457fe5b1415613998576040517f08c379a00000000000000000000000000000000000000000000000000000000081526004018080602001828103825260178152602001807f4d6f6e6f737761703a20506f6f6c20556e6c697374656400000000000000000081525060200191505060405180910390fd5b6139c47fb314a1328be620ff693a8cc26da9a7b0235e6f12547d341136cb2bf4e4a49fe960001b612410565b6139f07f1f92e0eedcf595e393e4c5352e9c857287b671b5252673f22e0ded8f955aa50960001b612410565b613a1c7f05c26f99169da5569f8c8d637a64658f271aeb3082e36bb586de4fc35f79cf5260001b612410565b6000613a4b83613a3d670de0b6b3a76400008a61be4a90919063ffffffff16565b61c0f490919063ffffffff16565b9050613a797fea4b2ec44698ad5ddf46a0fb8f9cd1aebd81750d0c0b9aaf041722f56c6f58dd60001b612410565b613aa57fe2b02ba9a0bb70d64e2f667352ccbd03d52d19a59282d9e8b778fe86100405a660001b612410565b613ab2838383600161bed0565b9850613ae07f570b2de4ae991081fc034e1f92c2e2e1087c111dc40935ebb83028c62ee44c6460001b612410565b613b0c7fa898ad789b5ca94399c38af2cc0875c2394ae42948bc4dacf06efcd7c9dd296360001b612410565b613b3989613b2b670de0b6b3a76400008a61be4a90919063ffffffff16565b61c0f490919063ffffffff16565b9750505050505b505093509350935093565b60608151835114613ba7576040517f08c379a000000000000000000000000000000000000000000000000000000000815260040180806020018281038252602981526020018061f8c06029913960400191505060405180910390fd5b6060835167ffffffffffffffff81118015613bc157600080fd5b50604051908082528060200260200182016040528015613bf05781602001602082028036833780820191505090505b50905060005b8451811015613c5257613c2f858281518110613c0e57fe5b6020026020010151858381518110613c2257fe5b6020026020010151611ee1565b828281518110613c3b57fe5b602002602001018181525050806001019050613bf6565b508091505092915050565b600c5481565b600080600080613c957f214c416a374a524321d7c6aa2802911615971a72d652fa24e9f9748e0e2837f460001b612410565b613cc17ffc90fa4601c83ad9ccf029af20d7a2fc844419184fff12d0ca7d1828fa19e93760001b612410565b613ced7f40e47ec66f8b56b45fe6dbb132b9104f13051057019d03ac012bca6dba27ebc060001b612410565b613d197ff511a733ff3b6348d6473a0be4a81aa50b7a8ce03a7af33de5372b46fdd93fa260001b612410565b60008511613d72576040517f08c379a000000000000000000000000000000000000000000000000000000000815260040180806020018281038252602381526020018061f84a6023913960400191505060405180910390fd5b613d9e7f3d78687dbd168854ea4a2a3210fca0a1462d56e3c5809f62a241f0751c71bbaa60001b612410565b613dca7f53d9d379cba5b8ac7b55e1938c19a65f08e14cc54b65d0f154394153eff0581360001b612410565b613df67f24bc2c7e811eaab30a1c968debd81039b5c8c0cca72c1d5eac7f02f0b522ad5e60001b612410565b6000620186a0613e2d600660149054906101000a900461ffff1661ffff16620186a00162ffffff168861be4a90919063ffffffff16565b81613e3457fe5b049050613e637f4d85e539e9a3ea07d4a6912fc2e5fe092545ee2a9fa150506225581528491b1f60001b612410565b613e8f7f086d39819024a7412b9079ea5a91978a22022bc3882aee5e91803794bb6fb8e660001b612410565b6000600560009054906101000a900473ffffffffffffffffffffffffffffffffffffffff169050613ee27f4b5bef96b5a83f3d8cc1396f8ef9d859a07f050ec09bea331a7f84ebff61490f60001b612410565b613f0e7f4873d217da5bd3547c71b616933abb5093e431fff4ccfb687768ce8106fed3ef60001b612410565b8073ffffffffffffffffffffffffffffffffffffffff168873ffffffffffffffffffffffffffffffffffffffff16141561403157613f6e7f709263d0c5cb19933f4d67d25770c1dc2df8abeacc777ce40a322a1da76da97660001b612410565b613f9a7fcb75df5f9f8a921cb4d267cdee202999331aadba8f393812bcc55b1fb0cbc2bc60001b612410565b613fc67f294a2d47ea9707844933592ba2ab0e200fc4bd3f9e163e35ac7579f040ea6c4560001b612410565b819250613ff57f04ef9cb9f86cf29ffc22cb6286fe697bbe2f391182aa8aa8f01ca004e1cdfbbd60001b612410565b6140217f50118bf52433fa0f121ee68fe4f5873d67f7db51507e826566caeddc3745f0cd60001b612410565b670de0b6b3a76400009450614636565b61405d7fe2c0b6b4ab80ada3a9ea0386936b6b74ea93364af35dcd1bffe0e7181888b0d560001b612410565b6140897fd6783cb53385c215bcb980444e83bf3fab07b160ad1ff4ffe62f7694075c14b060001b612410565b6140b57faa333472461cfa8fce6754415d3c0c23922f522fc213d6b8242c46f6ba68286060001b612410565b6140e17f9eb01e3b6d33f34822d0b1d2ce1234332265c8a9fb1ef30654fecbcdabacccfe60001b612410565b6001600b60008a73ffffffffffffffffffffffffffffffffffffffff1673ffffffffffffffffffffffffffffffffffffffff16815260200190815260200160002060009054906101000a900460ff1660ff16146141a6576040517f08c379a00000000000000000000000000000000000000000000000000000000081526004018080602001828103825260198152602001807f4d6f6e6f737761703a20546f6b656e204e6f7420466f756e640000000000000081525060200191505060405180910390fd5b6141d27ff3db8cd157c77af5a3860c1809f32c2d0a3a90b5ce42feecd28857834fb8ed2c60001b612410565b6141fe7f167c7f5ca3180f68c36782048325bb9762db82e7d42c1cdda81ddb090aeead7160001b612410565b61422a7ffcc69dbe5583dbba5593383fa7297b4c9ea0a927a38f666c150c94cea970a36860001b612410565b6000600960008a73ffffffffffffffffffffffffffffffffffffffff1673ffffffffffffffffffffffffffffffffffffffff16815260200190815260200160002060020160149054906101000a900460ff1690506142aa7fa1b6e6cf1e5b5ece400f8753ce2d34a7761830ad7eeda0ac0b1a13d338630c8260001b612410565b6142d67f9d20466d9792882a32418d9ac5bc9e457017d5f66af34b29a6765105b9df457860001b612410565b6000600960008b73ffffffffffffffffffffffffffffffffffffffff1673ffffffffffffffffffffffffffffffffffffffff168152602001908152602001600020600401600e9054906101000a90046dffffffffffffffffffffffffffff166dffffffffffffffffffffffffffff1690506143737f6f543434b32aa1b49d73b14198a5b9206f1d8ce7593d8b2a4b0747352dd4be8360001b612410565b61439f7f4ff317989339486e368fbec6799a0623a5fdc1a27343c031f54aa6eef461ad4160001b612410565b6000600960008c73ffffffffffffffffffffffffffffffffffffffff1673ffffffffffffffffffffffffffffffffffffffff16815260200190815260200160002060040160009054906101000a90046dffffffffffffffffffffffffffff166dffffffffffffffffffffffffffff16905061443c7ff0005e3b908a30e132eddfbf0eabab71868b6231473b74578d47ddffa24f747d60001b612410565b6144687f2856f138acabb794a5ca268c234cc95fe146c46aa1ab958c86e7ab9dd8dfa29160001b612410565b6144947fafe48a93f2a81fe44ca499975caecc3bbcbbbaf8745ab8b57375d55d734c50f560001b612410565b600060028111156144a157fe5b8360028111156144ad57fe5b1415614521576040517f08c379a00000000000000000000000000000000000000000000000000000000081526004018080602001828103825260178152602001807f4d6f6e6f737761703a20506f6f6c20556e6c697374656400000000000000000081525060200191505060405180910390fd5b61454d7f18242b35cab1644abc2f49727aa03de821bad9695bb1e6b5358c3fc1ebcb341860001b612410565b6145797f56f001b69a543148f0fc7b5f842f9f71f26e1974493320f48cee26f43c5d467760001b612410565b6145a57ff150d60ca55f5f8bf8f260dff7ec8e1e46f2263bae680097d3d8aa59b5f6545560001b612410565b6145b2828287600161bed0565b97506145e07f9c668cb47e65648b82f36bed2988399f6b163f75d1e88eb3dabfd74c523c4df860001b612410565b61460c7f84b49f3f4eb73537d9ac1fc8a0cf7b4a291edb7042f1767fb201f59b346bc8b860001b612410565b670de0b6b3a7640000614628868a61be4a90919063ffffffff16565b8161462f57fe5b0495505050505b6146627f4cae61cc8b8307a5509fa1ceb3683997cf613c002a479ee9ea5a443b242c717e60001b612410565b61468e7fa1b84ce25cfbfc0ed617486af54b42d162bae8e25354235fee4ecf081ddf9e7960001b612410565b8073ffffffffffffffffffffffffffffffffffffffff168973ffffffffffffffffffffffffffffffffffffffff1614156147b1576146ee7f7368fad3831c410c1a32ea32c037feb123de45adf01c580dc6da76797edee6e060001b612410565b61471a7fd634ef37a4a599b6ce200524a9b8851f3547dfb82a15ee3f43443c1668c4965560001b612410565b6147467f9b7af2b1b89a5aaff8fffc9c7b2e21d1496000806bcf71a458eeda036021668860001b612410565b8293506147757f4e0d29396534412ef30e05177c615b39f05da05e1bfcb6216d890a313e2bf4ec60001b612410565b6147a17f5e8bd521d1a9b8bc0964f5a31d61c13313a0df5ca8336086f6a27f31eb77508360001b612410565b670de0b6b3a76400009550614e49565b6147dd7f703789a9d27633ae152b77710e6ac3d81e2c348e59ba562d5162f270a7a8b2a660001b612410565b6148097f3ff4ffea5de395b4c9bcadc1af6715f5f807896f1cdc13bf0dbff6042907905060001b612410565b6148357f86352eeeae57a45f54250654565590b12e4949cdb439a15a104c93212e41f0be60001b612410565b6148617f22e4d189339e0a600cceec9d5a46a5e07ce2bcea4e08c650a01c98d38c1447e060001b612410565b6001600b60008b73ffffffffffffffffffffffffffffffffffffffff1673ffffffffffffffffffffffffffffffffffffffff16815260200190815260200160002060009054906101000a900460ff1660ff1614614926576040517f08c379a00000000000000000000000000000000000000000000000000000000081526004018080602001828103825260198152602001807f4d6f6e6f737761703a20546f6b656e204e6f7420466f756e640000000000000081525060200191505060405180910390fd5b6149527fb8dbf1c840b930e830ce229ea1f4c687e44a7fd3c0b99ab49cd229be933be7db60001b612410565b61497e7f9901659f4dd7e3d376b93781a20e71d2015fa3d18e1ca7d07f30336a8b2a518760001b612410565b6149aa7f3d368638ffdf66eb4349259f3e981d0b1b36ecccabfc9a45d57f762ef2535e8160001b612410565b6000600960008b73ffffffffffffffffffffffffffffffffffffffff1673ffffffffffffffffffffffffffffffffffffffff16815260200190815260200160002060020160149054906101000a900460ff169050614a2a7fb3460d81669ed28ffefdf705d7b1f9aa5381906a14f701db2c26f5e0bbb1f2c260001b612410565b614a567fc04b0158923d7471c0c0cbbbfab41b9f43dceaeb87902dde8b3306d2d99f014660001b612410565b6000600960008c73ffffffffffffffffffffffffffffffffffffffff1673ffffffffffffffffffffffffffffffffffffffff168152602001908152602001600020600401600e9054906101000a90046dffffffffffffffffffffffffffff166dffffffffffffffffffffffffffff169050614af37fd7a16863ca43aa242774cc9764558fbfd3b9e2f3cec2d027663a4603fa0d58cd60001b612410565b614b1f7fc0fec4f081b3c06c79f163d5a108fe28bd71f9f618f04c0e6514a4acd0bf45d060001b612410565b6000600960008d73ffffffffffffffffffffffffffffffffffffffff1673ffffffffffffffffffffffffffffffffffffffff16815260200190815260200160002060040160009054906101000a90046dffffffffffffffffffffffffffff166dffffffffffffffffffffffffffff169050614bbc7f27e61abb66f5caa9725180af35b331650b68b3ae347a81154761760d620d47b260001b612410565b614be87f29d1c93ba2fceac17bd66399e2eab0252ee9fd19cc390195197cdcf600734b6260001b612410565b614c147fb1708bf218c54b5e5f7ff71c786fe27edb5802196e2dae84606402fd75865bff60001b612410565b60006002811115614c2157fe5b836002811115614c2d57fe5b1415614ca1576040517f08c379a00000000000000000000000000000000000000000000000000000000081526004018080602001828103825260178152602001807f4d6f6e6f737761703a20506f6f6c20556e6c697374656400000000000000000081525060200191505060405180910390fd5b614ccd7f13bd1627425916412c3d7c9426ae755786531d7a7bf79df314e6d1bc0066b9de60001b612410565b614cf97f0facdcbac7382ae97336a738fea381614f52b6dfd0346aca373314f7606e508960001b612410565b614d257fb1fb2333fbd05db6e6f80d5aab6407f19adb8307616ba1aa2909e7c2c703272660001b612410565b6000614d5483614d46670de0b6b3a76400008a61be4a90919063ffffffff16565b61c0f490919063ffffffff16565b9050614d827f323c69b8e001a33e406fcf8876bbabec9f123f251a769c075dd31b2308a8396e60001b612410565b614dae7f6ed26fda17d36ee233039054d9d6d4613f821b6e212422371cb7e9d05132b87d60001b612410565b614dbb838383600061bed0565b9950614de97f9e7ce792e1625760a72adb82af87f5f0934c45800ab44985a209fd1944cda74460001b612410565b614e157f71408b0a2762e2e2f25da1581d0e7c9fe67126dbdc9e7ec6df1228aebdd94dd460001b612410565b614e428a614e34670de0b6b3a76400008a61be4a90919063ffffffff16565b61c0f490919063ffffffff16565b9750505050505b505093509350935093565b6000614e827f489092ec56ec7d7ce1188a052b28923e4f4073d16ae7452e11aed1a7e6909ccf60001b612410565b614eae7fc69c13679ed94944060efaad5c0d06f86f33e2a15e2d554b3f330d6875ee51e660001b612410565b614eda7fe80bd6d0afb3d71ca8eb3012ce4396c864399b5f08d6351021b1675b5dfad24160001b612410565b614f067f9f496dad33d9a6ebedefab286aa88227da306e034651758193b5ca75d1050aa060001b612410565b60008311614f7c576040517f08c379a00000000000000000000000000000000000000000000000000000000081526004018080602001828103825260148152602001807f4d6f6e6f737761703a2042616420416d6f756e7400000000000000000000000081525060200191505060405180910390fd5b614fa87f5ac0b60242055fefd9e141d097d5ee5ddb354838c8c86a8e35d71a9e20b6d33560001b612410565b614fd47fdab3e500a06cd90a68e96b4ab1e42308e90dfb3cb63e3625a8d52f07c497380560001b612410565b6150007ffbb13c52b4fcdb4be4fa46d14c28660bc850112fdab89226950ffec91625ca6260001b612410565b61502c7f806e54eef39f1de5bfa63869a69f826049fed934999629e1e2ecf6e5f12bf5f960001b612410565b6001600b60008773ffffffffffffffffffffffffffffffffffffffff1673ffffffffffffffffffffffffffffffffffffffff16815260200190815260200160002060009054906101000a900460ff1660ff16146150f1576040517f08c379a00000000000000000000000000000000000000000000000000000000081526004018080602001828103825260118152602001807f4d6f6e6f737761703a204e6f20706f6f6c00000000000000000000000000000081525060200191505060405180910390fd5b61511d7f7dd50b8a90eefcb10b78137d5193f270a62e1ad50788b4a158ae2186e8b1e77860001b612410565b6151497f67652d59a7897e49264dbf71259e9ea5d5c709f3c7aa25903f3a5a352b09d95260001b612410565b6151757fe0300157c80406a6ec59746060da9d9499ee823aa101c7b2539fee5f27605bef60001b612410565b600061518086616cd7565b50505090506151b17fd8d1b3902dcb3cf86fde258a067cc76fa798c9af7156207fc68368869b90412160001b612410565b6151dd7fcc40a052e02319db7285e1bb88f4c5c13044d5d93ff8cbead72f17be7e4148d360001b612410565b6151e561f49c565b600960008873ffffffffffffffffffffffffffffffffffffffff1673ffffffffffffffffffffffffffffffffffffffff1681526020019081526020016000206040518061010001604052908160008201548152602001600182015481526020016002820160009054906101000a900473ffffffffffffffffffffffffffffffffffffffff1673ffffffffffffffffffffffffffffffffffffffff1673ffffffffffffffffffffffffffffffffffffffff1681526020016002820160149054906101000a900460ff1660028111156152b857fe5b60028111156152c357fe5b81526020016003820160009054906101000a90046dffffffffffffffffffffffffffff166dffffffffffffffffffffffffffff166dffffffffffffffffffffffffffff16815260200160038201600e9054906101000a90046dffffffffffffffffffffffffffff166dffffffffffffffffffffffffffff166dffffffffffffffffffffffffffff1681526020016004820160009054906101000a90046dffffffffffffffffffffffffffff166dffffffffffffffffffffffffffff166dffffffffffffffffffffffffffff16815260200160048201600e9054906101000a90046dffffffffffffffffffffffffffff166dffffffffffffffffffffffffffff166dffffffffffffffffffffffffffff168152505090506154057f0ba530cb56214a7d93cba7a2283f7913e9173216e83f72bea69ffc2a060c82e260001b612410565b6154317fa9f986dd1911cf957037d243c535c0c7c51319542cd0f22ea4e14726133caab460001b612410565b615444816000015182602001518461a955565b6154707fb60b32c79ae9e9609f90c3eb7832cdb3741545295a54fb666a598b62bc8bc1ec60001b612410565b61549c7fb8e4fb1e43e4a43bce08f533457c6c15953f7cb5917f78a9a0ad86521a08281560001b612410565b600060076000836000015181526020019081526020016000205490506154e47f387cba55b488e080bef5e4daacee3bfa0269ad254f0bce9d8f669bc59b4f6e3660001b612410565b6155107fc621c4cbdc82f90a5fc583d1aabec67adc071d134ab7f3b19071aede2b0fc69760001b612410565b61553d3330888b73ffffffffffffffffffffffffffffffffffffffff1661c17d909392919063ffffffff16565b6155697f3f331ec273f91113ca7647fd8bd693b83bf18c560acc54dbd6907491789c07ad60001b612410565b6155957f6368a8db5312db649f25d098af8e7236a924331357df30a746a426e4b5cd22ea60001b612410565b6000871115615676576155ca7f5686dfb3752e8a4602973f5846a193ec5a4aa6edd1bb861e2697d9775da8039860001b612410565b6155f67f951b8c154e3b6bf187993b73acb9e052d87bbd73803aef17d853f06abee3998960001b612410565b6156227f44c2b6648d8d61e8784bd983afd60cbd4086c01fe130c38cf16d74889e608c5b60001b612410565b615671333089600560009054906101000a900473ffffffffffffffffffffffffffffffffffffffff1673ffffffffffffffffffffffffffffffffffffffff1661c17d909392919063ffffffff16565b6156a3565b6156a27f1eddc3562ee14b0b4606150d6aed828fb0393c0495c852a3c79c9b7831db184860001b612410565b5b6156cf7ffdb15f3bdf37afb5910b2c00d7250d0d27121b888dc024477221a2212e471b3c60001b612410565b6156fb7f8b6f4e87c373dbadad12f15c2f3e703cc2b583a03472f326fcd2cecb045745ae60001b612410565b6000615747670de0b6b3a76400006157308560e001516dffffffffffffffffffffffffffff168a61be4a90919063ffffffff16565b8161573757fe5b048961ba3390919063ffffffff16565b90506157757fec3eca16c21122f879ae627707d8ed05c3fe2653374ab740899633b75b3c409d60001b612410565b6157a17f960197bd4ec7c305f3da8ff06d9be6991de0f1f948f6575cf2409febf9a2f24460001b612410565b600082141561584a576157d67fe2e468bb80a94f0cad33f097e93cf5074ee34a7b4d79113f97b17125fa81661860001b612410565b6158027f0753dbea1b852377f904d27ad13d83da7c00126db8484feee288f1e829b1225460001b612410565b61582e7fc26ae6c477375be3306c205e34114b88a16efd191834ee24ff97cd8af3f178fc60001b612410565b6158436008548261c23e90919063ffffffff16565b94506158f6565b6158767f88038aff1b729fd1fd0f1e1f6fb55c1c9746df5e983eceff56eb5a77262387bf60001b612410565b6158a27fa6fa2edd391afd7b7914e4290d679deddc0e0f729022454e684c24b8a95b095460001b612410565b6158ce7f5d9481ff10b47d5c5419bae8b1cf00310e5d4e4f38c4f4b49861ceb34e9d567560001b612410565b6158f3846158e5838561be4a90919063ffffffff16565b61c0f490919063ffffffff16565b94505b6159227f55d583ff67d9090aaeef2d9fa7d7871fcd7d6e6d467976682b313b3174f00ce560001b612410565b61594e7ff065b32a1b8d9703739254dffb709956071144485e6c1908366e89c447347e6060001b612410565b61595d8684600001518761c2c1565b6159897f64ddb9965e1d3617c88f1cd6556a56aa102118a0b9b38f46e2bc9b8e115cda6560001b612410565b6159b57fa3688e4947c64569ba8b8864c09b62d3f08dfefd7a1760bdae9372c56fc5f37460001b612410565b6159c18989600061ae27565b505050506159f17f98e1d3a8127827b3b2cfcc4ff2ba041cd19106d6fd25bcd6ed945e42a424ec1260001b612410565b615a1d7f40b5bccd44b91b72cbf7f0dc283ae7c525f75cc186683679455143895fbe18f260001b612410565b8873ffffffffffffffffffffffffffffffffffffffff1683600001518773ffffffffffffffffffffffffffffffffffffffff167f166ddb815a41f60899d37e5c34db8f6cd53a5c65da870fcc7315af673878562a888c8c60405180848152602001838152602001828152602001935050505060405180910390a450505050949350505050565b600081615ad27fa2487e353f941fc9461b13945c4a6555f8061804797618354b945b4f5ca1ebe560001b612410565b615afe7f0e174ede586b3674a3a6d9c8954d5b44a0b197dbd2244fd112e4ced7c0c16b9160001b612410565b615b2a7fb6448cd92870cb4775ee8fc4879985cdd096271ac48a07a44fc3dcb58b95c9bd60001b612410565b615b567f065f720f4b4f631b423388037737229c78acefce93bc149e41475217a0eb634e60001b612410565b42811015615bcc576040517f08c379a00000000000000000000000000000000000000000000000000000000081526004018080602001828103825260118152602001807f4d6f6e6f737761703a204558504952454400000000000000000000000000000081525060200191505060405180910390fd5b615bf87fe46c342d8ad1b1b65e8d183bc6b7235e26e60d59a7c1275e9bc7f20d6c33e7b960001b612410565b615c247f6b61155cd34fcf568259a0953a4fefc3e112972efaf9570b430b4f7dd45e81f560001b612410565b615c507fda0e865f1d91c56b7c4771ffd1b22f946877de6c7ecd36a56417462d373331ae60001b612410565b615c7c7f8fb28d13fcdec76cbb77e429898ffebd9a2d84fd0fd0080e5633c3dc79a3626160001b612410565b615ca87f204afe8121eeac4b0c2fcc7c6ea658da0010e03bd554f8f98da3783199ace89f60001b612410565b615cb488888689618ded565b9150615ce27f0416c21bd018eab875c023255b2551e1484c20ad8caef4e67132830d2eb1823160001b612410565b615d0e7f894815b3d7136504930f454d85a216ab48656c719c85b22cf11d487bd5516fc560001b612410565b615d3a7f313740f97aa8c9204faec9a0bba4606b533b7b1b68d2df352e3c45dfbe510e5360001b612410565b84821015615d93576040517f08c379a000000000000000000000000000000000000000000000000000000000815260040180806020018281038252602481526020018061f6736024913960400191505060405180910390fd5b615dbf7f7e43566295dbf61ebefb9fd161c9111d81dbb5c3b01c13c8cf00e08dfd85763f60001b612410565b509695505050505050565b615dd261b969565b73ffffffffffffffffffffffffffffffffffffffff16615df0615f3a565b73ffffffffffffffffffffffffffffffffffffffff1614615e79576040517f08c379a00000000000000000000000000000000000000000000000000000000081526004018080602001828103825260208152602001807f4f776e61626c653a2063616c6c6572206973206e6f7420746865206f776e657281525060200191505060405180910390fd5b600073ffffffffffffffffffffffffffffffffffffffff16600460009054906101000a900473ffffffffffffffffffffffffffffffffffffffff1673ffffffffffffffffffffffffffffffffffffffff167f8be0079c531659141344cd1fd0a4f28419497f9722a3daafe3b4186f6b6457e060405160405180910390a36000600460006101000a81548173ffffffffffffffffffffffffffffffffffffffff021916908373ffffffffffffffffffffffffffffffffffffffff160217905550565b6000600460009054906101000a900473ffffffffffffffffffffffffffffffffffffffff16905090565b8173ffffffffffffffffffffffffffffffffffffffff16615f8361b969565b73ffffffffffffffffffffffffffffffffffffffff161415615ff0576040517f08c379a000000000000000000000000000000000000000000000000000000000815260040180806020018281038252602981526020018061f86d6029913960400191505060405180910390fd5b8060026000615ffd61b969565b73ffffffffffffffffffffffffffffffffffffffff1673ffffffffffffffffffffffffffffffffffffffff16815260200190815260200160002060008473ffffffffffffffffffffffffffffffffffffffff1673ffffffffffffffffffffffffffffffffffffffff16815260200190815260200160002060006101000a81548160ff0219169083151502179055508173ffffffffffffffffffffffffffffffffffffffff166160aa61b969565b73ffffffffffffffffffffffffffffffffffffffff167f17307eab39ab6107e8899845ad3d59bd9653f200f220920489ca2b5937696c318360405180821515815260200191505060405180910390a35050565b60096020528060005260406000206000915090508060000154908060010154908060020160009054906101000a900473ffffffffffffffffffffffffffffffffffffffff16908060020160149054906101000a900460ff16908060030160009054906101000a90046dffffffffffffffffffffffffffff169080600301600e9054906101000a90046dffffffffffffffffffffffffffff16908060040160009054906101000a90046dffffffffffffffffffffffffffff169080600401600e9054906101000a90046dffffffffffffffffffffffffffff16905088565b60008060008061620c7f8429fc563d54a9b530568afe6a4824ff8c1a6729162b634514274b4ae7ef07bb60001b612410565b6162387fcb63c775eaa2b56d99bf697e7681088000bbbceca851370a25a40ae627f78e0560001b612410565b6162647f57763a641ff0d60852ce46f36e8afe93c39f4dc71237c76e94bdfb26a123032a60001b612410565b6162907fb6ebc8338dda594da3844f410203bd752455be235a4f6346614c5560ac8736da60001b612410565b60008611616306576040517f08c379a00000000000000000000000000000000000000000000000000000000081526004018080602001828103825260148152602001807f4d6f6e6f737761703a2042616420416d6f756e7400000000000000000000000081525060200191505060405180910390fd5b6163327f044332f5e803bb7e329c71155ad6a6375a3d517a7e38bd0fe3451e66b9a16fa060001b612410565b61635e7f3fcd3fc62698b15e3e9964b5d4996ec437bb9db27118968d81f981a4cad27a2860001b612410565b61638a7f63df3e8af4feed6cc53204f182c07f701dbfff349375040362a9c11c24e009c360001b612410565b60006163b87f50d04438dc8787bb2e564cf3722069c604b47080bca537a1bda54b4fe72ce81360001b612410565b6163e47f0d3180963a44e70fe74295c5745c87198d3fe3475a913d3a7298eb96160d8b1a60001b612410565b60006164127f9f67253239a97aa13feaa57dc94c92fe90594f9abca3d76610791c651f71e12560001b612410565b61643e7f2e54fe7b0d43e3e3b2e3f4155da506f5ce8885b0bb6e94353cc9172d793aa76460001b612410565b600061646c7f79cf3401707d9677f2f4fb037a0bb83d1c93e6dec41fbb3adc61dc054a2cd91260001b612410565b6164987f02d248105599df2259f5daccfd39afaa00c013812bedd78de757b28f7eb458ac60001b612410565b6164a061f49c565b600960008c73ffffffffffffffffffffffffffffffffffffffff1673ffffffffffffffffffffffffffffffffffffffff1681526020019081526020016000206040518061010001604052908160008201548152602001600182015481526020016002820160009054906101000a900473ffffffffffffffffffffffffffffffffffffffff1673ffffffffffffffffffffffffffffffffffffffff1673ffffffffffffffffffffffffffffffffffffffff1681526020016002820160149054906101000a900460ff16600281111561657357fe5b600281111561657e57fe5b81526020016003820160009054906101000a90046dffffffffffffffffffffffffffff166dffffffffffffffffffffffffffff166dffffffffffffffffffffffffffff16815260200160038201600e9054906101000a90046dffffffffffffffffffffffffffff166dffffffffffffffffffffffffffff166dffffffffffffffffffffffffffff1681526020016004820160009054906101000a90046dffffffffffffffffffffffffffff166dffffffffffffffffffffffffffff166dffffffffffffffffffffffffffff16815260200160048201600e9054906101000a90046dffffffffffffffffffffffffffff166dffffffffffffffffffffffffffff166dffffffffffffffffffffffffffff168152505090506166c07ffab857c28a0e4ef60a3e5224b30b4209bcb688660266fff98a99cfc08c52cca960001b612410565b6166ec7fc0723ad9cc07b029fe7a2de6a457b21111cb65b2465fb56667fa5d40ca3119d460001b612410565b6166f58b616cd7565b809550819650829750839b50505050506167317f80e76c589925ab483ba5955a2597ea110ecde3a5a39ff5b0261717191693cfe760001b612410565b61675d7f390442f403de42c47032a29f87f9dfe110f3bb1871c130ff71d78b4442f4497860001b612410565b600060076000836000015181526020019081526020016000205490506167a57f27c22512df82cb578abe979696ed898ed3c2481d7555ac499d3f05cf6cf09a6760001b612410565b6167d17f1bdc61818d05e44e56ba153e39413c2505271945e6921d6dbce90ae1ac2a48a760001b612410565b8a6167e08b8460000151611ee1565b116167f8576167f38a8360000151611ee1565b6167fa565b8a5b97506168287fe472a5dfddb55ebe6fdbd531b7dfe9750eb5cb84a09f4e974dacc84610360d7d60001b612410565b6168547ff0b5b241adf6008d51278e7c72df805121731a7255daeedcaaa7fcc12a0bd34160001b612410565b60008c73ffffffffffffffffffffffffffffffffffffffff166370a08231306040518263ffffffff1660e01b8152600401808273ffffffffffffffffffffffffffffffffffffffff16815260200191505060206040518083038186803b1580156168bd57600080fd5b505afa1580156168d1573d6000803e3d6000fd5b505050506040513d60208110156168e757600080fd5b810190808051906020019092919050505090506169267f251742993446ceadb5a3fd7c38fe629d1358c4c23f43b35026520b366409bffb60001b612410565b6169527fb3ca49dd6b0272a8a381d6de18112169f96d20da1ac8d956cd1e1e532911611060001b612410565b8260c001516dffffffffffffffffffffffffffff16811015616a315761699a7f6e4074a32411305be3a256e2511629f7c8d219a554ab9829fd324d47942d305660001b612410565b6169c67f377aa20e5d232cb77b67aa5755081a017d49f9764a8be45a42bb77af39c461bc60001b612410565b6169f27fad45bc209bd736ba99c3722d93d2f55ce1e0c7da75d675462282f27f5dba35d160001b612410565b670de0b6b3a7640000616a228460e001516dffffffffffffffffffffffffffff168361be4a90919063ffffffff16565b81616a2957fe5b049550616a5e565b616a5d7f8706a167137e2720f273fe39236218dbdee0cbc78049468cc736463a56a158fc60001b612410565b5b616a8a7f891372e2ebe473906dde764fb5dad6d5cc005a65cd90e035d9d12920324af97860001b612410565b616ab67f53fb5c927aaee9c09e5de26d00eee5d4dabb1f78937c2709d921eaa61807a40360001b612410565b6000841115616b9d57616aeb7fa4033c85e56f2da091a32dd160f2db157bcf5a7beeb9cb1d169d49878cfe4b4f60001b612410565b616b177fbcc48e1febbd9af946d1d35d5e24e1bf29b9b19a613aa1ac91db5a7e756dbba860001b612410565b616b437f3d7dc58a65873e673c7a6ffbd66a749a638e421f39fb516a4beb9dff3b4fb5cc60001b612410565b616b968360e001516dffffffffffffffffffffffffffff16616b88670de0b6b3a7640000616b7a888b61c23e90919063ffffffff16565b61be4a90919063ffffffff16565b61c0f490919063ffffffff16565b9050616bca565b616bc97f45ba78c33e00d405470ca64d5ba81dac80ee935001a706c10d15ba7c308f4afb60001b612410565b5b616bf67f53fca4401b8ba5ae71b07c076aef012c47224defaeeb331ffcc9eec462a6a90960001b612410565b616c227f0d16fc486d5ee99e26d21d45f82ec3bf954fca690cd383b0bfaba8b9e9a2fbc360001b612410565b616c4782616c39878c61be4a90919063ffffffff16565b61c0f490919063ffffffff16565b9750616c757f1d7561507f051b5b81c8ee4f85fbc5208eee089b5504c5f9aee9612916f40f7960001b612410565b616ca17f5da06b56e2ab33ebb113a6cb2d7f6c8a4e6ee5a5e684e0e1093377440c7b3b7460001b612410565b616cc682616cb8838c61be4a90919063ffffffff16565b61c0f490919063ffffffff16565b965050505050505093509350935093565b600080600080616d097fee6af8efe6828bc3432526d4a046eea1bf06fc91bb0bb5393af73b01942a026160001b612410565b616d357f832209d04dca402f38dcd9be0d925faf0d38ece91580fc826af5632146eaeea960001b612410565b616d617f68e394d6c16fce13509e9e9911e60beff98d23309a8a2a7d84699e244c3b686360001b612410565b616d6961f49c565b600960008773ffffffffffffffffffffffffffffffffffffffff1673ffffffffffffffffffffffffffffffffffffffff1681526020019081526020016000206040518061010001604052908160008201548152602001600182015481526020016002820160009054906101000a900473ffffffffffffffffffffffffffffffffffffffff1673ffffffffffffffffffffffffffffffffffffffff1673ffffffffffffffffffffffffffffffffffffffff1681526020016002820160149054906101000a900460ff166002811115616e3c57fe5b6002811115616e4757fe5b81526020016003820160009054906101000a90046dffffffffffffffffffffffffffff166dffffffffffffffffffffffffffff166dffffffffffffffffffffffffffff16815260200160038201600e9054906101000a90046dffffffffffffffffffffffffffff166dffffffffffffffffffffffffffff166dffffffffffffffffffffffffffff1681526020016004820160009054906101000a90046dffffffffffffffffffffffffffff166dffffffffffffffffffffffffffff166dffffffffffffffffffffffffffff16815260200160048201600e9054906101000a90046dffffffffffffffffffffffffffff166dffffffffffffffffffffffffffff166dffffffffffffffffffffffffffff16815250509050616f897f2d5c4b5a8dade234bd47f864b0fe7e83cb4a05a29ef0b19d32cfec167023ede560001b612410565b616fb57f0fd34f8a09301c851b7ffa3d4a86ec325bce974b9e4b038576504a660899f58b60001b612410565b8060a001516dffffffffffffffffffffffffffff169250616ff87f93db5247f24819fe89e638272a3cbb1a220533ea0cbfae4fb8cc79b8c8aff7ac60001b612410565b6170247f09542d87c2df143a1699f3369361165353d1cf96cae5abf74dee08316651b24c60001b612410565b80608001516dffffffffffffffffffffffffffff1691506170677f871dfe3e93be65e8409c2fb63b132191fe5de137f0a06a722f4492d372824ec460001b612410565b6170937f4fd8af96ab5b2a0b856b2ff8088f8f6db3ff0e6b291ea890f97869f843fbebe860001b612410565b670de0b6b3a76400006170d78260c001516dffffffffffffffffffffffffffff168360e001516dffffffffffffffffffffffffffff1661be4a90919063ffffffff16565b816170de57fe5b04935061710d7f3df1d868b72150742e2944f7749f5fd73a5b0dcaf8c81d1ec225b40dbaa5d2d860001b612410565b6171397f4861ec0996c41c33c13adc537673982b3bd353a748def59a788bc8dc1632ea4560001b612410565b61715e82617150858761ba3390919063ffffffff16565b61c23e90919063ffffffff16565b9450509193509193565b60076020528060005260406000206000915090505481565b6000846171af7f413a3062dbf67f759e47149f7039d949d31dc89913dd5273967299e53c5ff19e60001b612410565b6171db7f16b4945650ee1559c77ab30eb320450f4fefba6c0f06f13d8a120ac3ace5b3ed60001b612410565b6172077f50fb7dac316c263cae64d347e55e9dc663def1e1cb5ec7643a98edadbd64772360001b612410565b6000600a60008373ffffffffffffffffffffffffffffffffffffffff1673ffffffffffffffffffffffffffffffffffffffff16815260200190815260200160002060009054906101000a900460ff1690506172847fdb2dbf800e456fededc2503ee2df651b820dea9089516d20441b3941c2810bc860001b612410565b6172b07fe80818a8605b750a05feeb1eeb6a674246aa10bd5ac5ffa9815d05122b41fb2960001b612410565b6172dc7f2b5f0ec5cd9fe659f313a9818e9576e3d00e81e43691667ce60d1bbf5fafec8b60001b612410565b60018160ff161415617356576040517f08c379a00000000000000000000000000000000000000000000000000000000081526004018080602001828103825260158152602001807f4d6f6e6f737761703a20504f4f4c204c4f434b4544000000000000000000000081525060200191505060405180910390fd5b6173827f318e5aaf809e90d513e095ad335db2a2ba876ab071413b42822f5d6ea500984360001b612410565b6173ae7fd3deff698bc8d5cda15f9e5e58eeef0c64060b4127f01e56c2d711a85f82f77f60001b612410565b6173da7f80e6b30c9f399f60b84e867398f1d1bb718bb2d9d7ecd94db10d48fcf8aebc3560001b612410565b60008160ff1614156174c8576174127f18920d793ffc87562056a94b5b5720e433549f77ea0412cb2c6b8dbc1fdef71e60001b612410565b61743e7f780b01d2654abf7f91aaeda0dac73511284f7ef5d8e65722a6676b10d904fae160001b612410565b61746a7ff36425ba271916bcc0cf147c9261de0a33e329efe001f857e56c2ad738a77d1c60001b612410565b6001600a60008473ffffffffffffffffffffffffffffffffffffffff1673ffffffffffffffffffffffffffffffffffffffff16815260200190815260200160002060006101000a81548160ff021916908360ff1602179055506174f5565b6174f47f854e5c4e5e1c2780ce39d47178908053e2c74589475b5e3987e00660dd8c1e9b60001b612410565b5b6175217f7e36253486ab92d96130fe35912429222a8141d9a32f6d9d3abb445d0934c5e460001b612410565b61754d7f75fa78d2b90a59ded7668d2b76f70e2b856670eb6450936e8545988249c1995260001b612410565b6175797fa618a81a342d38fb20bf0daac5884b2d95460bb745aa54ec8fb65bb5a3a4b78e60001b612410565b6175a57f5d3afe82cc445c9849bfac1972d1fbd4e0bf4cf672604caaf832c3bb42c4ec0460001b612410565b6000600560009054906101000a900473ffffffffffffffffffffffffffffffffffffffff1690506175f87f17df2d73e064c70db3609c2cb57e1705c10f12e5b9f7d9693b4d9cb0c089f5e460001b612410565b6176247f88b5fed15237159bea70bf49ff065165a6d55f98de617eb4aa953eadfc55026360001b612410565b60006176527f347d5a7502a2d9635380d3f639d9a35054feb5cedfce29cfff9397f338a05e6f60001b612410565b61767e7f689cbb95e0e50c8e3444e9bf91d11119040f68247f4b5ef6307198cded87e34560001b612410565b60006176ac7f042ac9bd530be8722e74d1ea70ef38ca6780b50ca4a45c9b5ec792983e813cee60001b612410565b6176d87ff1cbd2abb38448bf2c02246a9cf89b7375cb708a1693c03996e28ded7ac3cae660001b612410565b60006177067f197b3019b3e3b59746bec6a07c7abec5568b0b720388ee82a13fa4e6e8d7ca2d60001b612410565b6177327f90b2381d214cfbae90157e7ee3476bf7388e0f213326dfb4aa86d755cfaa35ef60001b612410565b61773d8b8b8a613c63565b809450819a50829550839650505050506177797f9ac6c17106bb56ab0266c5cda00bc479e48fa08b7cf0a1b0b263c5841522aff460001b612410565b6177a57f3277b1913101cdf90307a5ba8ffe19166c2b80c7d19deb6ba70fcf9292cbb2a760001b612410565b6002600a60008d73ffffffffffffffffffffffffffffffffffffffff1673ffffffffffffffffffffffffffffffffffffffff16815260200190815260200160002060009054906101000a900460ff1660ff1614156178b3576178297f98d61b7cb1ea7aeaf030d153557837b127af6717b954a68214fc2945c3850fe860001b612410565b6178557f22c988986008f90f2810ebabaaf91e561323010699ca3191df44138683cb49ca60001b612410565b6178817f72ee2e2e3632b45bf5e151cb9f9389e00408459c9c1d2d36c2390ab1ef86924960001b612410565b6178ae3330898e73ffffffffffffffffffffffffffffffffffffffff1661c17d909392919063ffffffff16565b617c9b565b6178df7fe15c5f9d8b44f6e7a1e0a021c4f42efbffff6c5f702bb3fd38fc90552a42817c60001b612410565b61790b7f974c5e33af9cd730c9bd008108325c00793f9cf433dd23d14b67d13cf30935eb60001b612410565b6179377fbb9f2ae3bc1b848f0f17f2dc585033f189592ca693bc3ce68bb51a00aea2232c60001b612410565b60008b73ffffffffffffffffffffffffffffffffffffffff166370a08231306040518263ffffffff1660e01b8152600401808273ffffffffffffffffffffffffffffffffffffffff16815260200191505060206040518083038186803b1580156179a057600080fd5b505afa1580156179b4573d6000803e3d6000fd5b505050506040513d60208110156179ca57600080fd5b81019080805190602001909291905050509050617a097f9b56d666e3acdac072e03f7f1f7a6d9924d9d8950b48fbdac52eec126b568b5660001b612410565b617a357f734daf11ee72210779a683ec22cee79fad3eacfb35aa7f2bc4ee92221a68660160001b612410565b617a6233308a8f73ffffffffffffffffffffffffffffffffffffffff1661c17d909392919063ffffffff16565b617a8e7f03332453d5d8ccb9bfc14e0f85757803e559cd1493390401e37dca038f9a589260001b612410565b617aba7fb60dcd2bc7c3a8151103421f2715b0fc8e527d5c90f74e83dddb097acaa24ce860001b612410565b60008c73ffffffffffffffffffffffffffffffffffffffff166370a08231306040518263ffffffff1660e01b8152600401808273ffffffffffffffffffffffffffffffffffffffff16815260200191505060206040518083038186803b158015617b2357600080fd5b505afa158015617b37573d6000803e3d6000fd5b505050506040513d6020811015617b4d57600080fd5b81019080805190602001909291905050509050617b8c7ff91052d2a3a7ad8c607762d63bc25a2d4441b56e6e09e89cfcee80d965784c0e60001b612410565b617bb87f3191f716f60938e2e57b964dfd9ac8cf039ad8ddec91a62c64107ceca123620560001b612410565b617be47f3333a2d239cf6928f4f43786487a2f63da2d728a28265e40c58e91ccbf26bae360001b612410565b617bf7828261c23e90919063ffffffff16565b891015617c6c576040517f08c379a000000000000000000000000000000000000000000000000000000000815260040180806020018281038252601b8152602001807f4d6f6e6f737761703a204e6f7420456e6f75676820546f6b656e73000000000081525060200191505060405180910390fd5b617c987f4cc2ec687609835e15113e34c7a4682d02082675de271986f4e52be9910ca47a60001b612410565b50505b617cc77fee0708a554d985cea32161a97a376acd7bb45571cbc37522dda696733138260c60001b612410565b617cf37fd0a2410f3f446c57359a5844ff94423f26c40ae0e9e9e5d7c9fd188dcf76e6af60001b612410565b600062030d40617d20600660149054906101000a900461ffff1661ffff168a61be4a90919063ffffffff16565b81617d2757fe5b049050617d567fba70047ce1d934e66c98c839ed964624b9cf1de03f15ed85b2741d8b003cb01e60001b612410565b617d827fe073e34f76a5efd198145976f2db9a9cf489bea84c848e26f0de2ea966b3a51a60001b612410565b6000670de0b6b3a7640000617da0838761be4a90919063ffffffff16565b81617da757fe5b049050617dd67fdd25b541c8660d8e77ece256ef542e439862ab978c01a07ec8bba57f39d8a3b960001b612410565b617e027f43936e0df51bffd29d120dd004bafe23086eaf72fdac39c81e468ab3fa7428b260001b612410565b8573ffffffffffffffffffffffffffffffffffffffff168d73ffffffffffffffffffffffffffffffffffffffff161415617fb657617e627f89a503e6fefaf021a24042f1c8db8a05b15ffb911c644eb8aff5b99eb209b29360001b612410565b617e8e7f1ab91ce82740d6bc6cce49ac9106c4cd6535121845b7011fbfbb515130a313a360001b612410565b617eba7f91abfd585dc7db347a1025b4755d619bf6ce70d779f1e1aea0b98d93dd92dd8960001b612410565b8573ffffffffffffffffffffffffffffffffffffffff16639dc29fac308b6040518363ffffffff1660e01b8152600401808373ffffffffffffffffffffffffffffffffffffffff16815260200182815260200192505050600060405180830381600087803b158015617f2b57600080fd5b505af1158015617f3f573d6000803e3d6000fd5b50505050617f6f7f528e8bcf939932ccbf574f478fdbe77049691184c264b36f87821b96a57c663a60001b612410565b617f9b7fc4e3949ed24a5e756f3b9a73dab3dc5da87fef918c4154e2c78eecc0baf59a2560001b612410565b617faf60028261be4a90919063ffffffff16565b905061805a565b617fe27f1588485b24c377357acc43147cf9060914d0bd89ba6cc62c44b0b5d9cc66d0a760001b612410565b61800e7fa3d8a6eeebe424a31f207afe46d7fa948d22959d56531868c3eb635daaad932160001b612410565b61803a7f01b6a07e65f555ca9583f2d6839392442442860aa082fecd4b220b8989b93f1360001b612410565b6180598d866000618054858861ba3390919063ffffffff16565b61c3fa565b5b6180867f85913f8bd6e7ef37781eaa62479415ea3eb20230a14f5604024d3f781fd3afdb60001b612410565b6180b27f705df2e79c9376bd537d7fd4a273da37873ee98c1d4bfc1f896b04737f3ed40560001b612410565b8573ffffffffffffffffffffffffffffffffffffffff168c73ffffffffffffffffffffffffffffffffffffffff16141561825e576181127fad954b28c351673389b4d6d516d74b9f4fe8afaaa88430ccc45e72e5485e9ea960001b612410565b61813e7f57da1b709a32fe28c7830dd3a9fde905e6c8a0a1ea5da7a9f297c9816f317e1c60001b612410565b61816a7f0eda29135d0254be4a0773b7dfd49d7fbc8054931b6b9cc3da8c24abef0c191460001b612410565b8573ffffffffffffffffffffffffffffffffffffffff166340c10f198c8c6040518363ffffffff1660e01b8152600401808373ffffffffffffffffffffffffffffffffffffffff16815260200182815260200192505050600060405180830381600087803b1580156181db57600080fd5b505af11580156181ef573d6000803e3d6000fd5b5050505061821f7fdbf8d1d364fac1632ebda6c15d03691dee1e8bf05dba496036bdaad51c6f2ada60001b612410565b61824b7fb3f43c792ae5a48d3088eb9fab1530827cde9b3543c5bcef105d001597004c6460001b612410565b6182578d82600061c8bc565b5050618385565b61828a7ff05a3128cc247e0bf853fa40cfc7b3db10c377259e919ecee43a8e3b4e3fb27460001b612410565b6182b67f9661db5e9d747e702f54e933e7a6e620fb411e5e9dc038b12096cf5872587d1a60001b612410565b6182e27f758777f7f5d92be3e27a374b2679a7c13e727ebaf0a4f9a18c457372acc2cf2f60001b612410565b61830d8b8b8e73ffffffffffffffffffffffffffffffffffffffff1661ac5c9092919063ffffffff16565b6183397f384f2fc41abbfc625f1f61640f653b14d83876fd1db38d51b18f84d84b7e8c7960001b612410565b6183657f1628c1f636b7c9892c8516be402eea995c09fe8c6f5613bd10e4aeef66aa5a9960001b612410565b6183848c8561837d848761ba3390919063ffffffff16565b600061c3fa565b5b6183b17f13657533223968746d2b9980092e34b80224433ff3e9ad3722cf6d4e25f3b00960001b612410565b6183dd7fc4d3d689f48b6cd40e0b4a12beaa68b41a0cd8157174d56ac566767557f0bc9960001b612410565b8b73ffffffffffffffffffffffffffffffffffffffff168d73ffffffffffffffffffffffffffffffffffffffff168c73ffffffffffffffffffffffffffffffffffffffff167fcd3829a3813dc3cdd188fd3d01dcf3268c16be2fdd2dd21d0665418816e460628c8e604051808381526020018281526020019250505060405180910390a461848d7f6c1495bd0a3562f1548d0ce2553baf44da1dc1ee211dc454272d1d5ff63a7f0260001b612410565b600094506184bd7f1688335a37c5a9488b30a262a41fed0fa9320f4f3e89a2f4366af96021f555b060001b612410565b600093506184ed7fda165c67398973008f32e7add94d00321a4af8e75880390e07d4e12df68082d960001b612410565b6000925061851d7f1eb5dc96beedd01bbe98f496db039605e23c520c1dd24d7f709da61b8fe0895160001b612410565b600090505050505050506185537f3b983644b3ea86f67dc78576bf73deb3dee13dfc04151ba57c31f94abdccabb660001b612410565b61857f7f213bdce09ea30d7b353e09d9f01b833eebec2eae94222f6c7f33cdace17415a460001b612410565b60008160ff16141561866d576185b77f1164c5749f8283bf5c4cf0b2d86f498466e5816fac79cc7ddd827a406cc609ed60001b612410565b6185e37fae83cd9879fe1ee5be49812eacc8f816b59b05f2dd2aca608dfeed4217041d6260001b612410565b61860f7f24e852ab235e8f010a6adc9c2e3bf45db7241653c4d26274a8d38397958f4f7560001b612410565b6000600a60008473ffffffffffffffffffffffffffffffffffffffff1673ffffffffffffffffffffffffffffffffffffffff16815260200190815260200160002060006101000a81548160ff021916908360ff16021790555061869a565b6186997f7e3871300b502a79324f6370bd982f64f0d4ec85aade83e924c5f8547d88558460001b612410565b5b5050949350505050565b60006186ae61b969565b73ffffffffffffffffffffffffffffffffffffffff166186cc615f3a565b73ffffffffffffffffffffffffffffffffffffffff1614618755576040517f08c379a00000000000000000000000000000000000000000000000000000000081526004018080602001828103825260208152602001807f4f776e61626c653a2063616c6c6572206973206e6f7420746865206f776e657281525060200191505060405180910390fd5b6187817fd10f7d964374554777ff2f35932e72f1ce669f92d19ccf08a8e088574e85e2ac60001b612410565b6187ad7f3fbd88b8ca081d0419902750edb2d777dc2db7f2f70e957e413727c8d239145f60001b612410565b6187d97f0816a48a8691e39dc8a5e308a160e4cde603fd0a53de1b1e220bbbd9570ae34b60001b612410565b6187e58383600261d7fb565b905092915050565b6187f561b969565b73ffffffffffffffffffffffffffffffffffffffff16618813615f3a565b73ffffffffffffffffffffffffffffffffffffffff161461889c576040517f08c379a00000000000000000000000000000000000000000000000000000000081526004018080602001828103825260208152602001807f4f776e61626c653a2063616c6c6572206973206e6f7420746865206f776e657281525060200191505060405180910390fd5b6188c87fb70e6696ebde7e7a3ff0fc3006501edb05c57120024fd01259c1668f600c398660001b612410565b6188f47f33428962f42a0d250ccba681aa61cacb46d7e1cbb45b167466a705e965ec51b960001b612410565b6189207f0afbff2dd0d786c8a5a02963754880d677ee3c177284dc12036b0d77fdcd786b60001b612410565b61894c7f4db0b5bdb2a7f8b9c091aa3b6524df821c006a39a7de4e7a10679d1b6c41ac9560001b612410565b6103e88161ffff16106189c7576040517f08c379a000000000000000000000000000000000000000000000000000000000815260040180806020018281038252600e8152602001807f6665657320746f6f206c6172676500000000000000000000000000000000000081525060200191505060405180910390fd5b6189f37fd800cd15a534bd8005949e0a4c504779a8d23c91bb6825b0dbc1c0ffa3e1f04d60001b612410565b618a1f7fd6ca9f6508af91bab3ff3d299803e63dae5bdce68d8a6d105e689f2af5cb7b1060001b612410565b618a4b7f7a98a8cfea94263308cf19241af0bde71730e0ff5c9a421f28705af65aa9f12160001b612410565b80600660146101000a81548161ffff021916908361ffff16021790555050565b600080618a9a7fffabc809de3e38dd6c076c19a436e0498bf3c082b0e6858d0ac63f4235addfa160001b612410565b618ac67f6b91aa9f299544d607133826f01c8b8813ffbe51c48f541e27a61111d350767460001b612410565b618af27f5641f17eb79f1457d0210ed9b9729ab97973b95189934664e70c336b9cd16b3960001b612410565b618afe8787600161d7fb565b9150618b2b7edcb4be14d9644cf299cb28e3383d9ce9fd9387bef4836c0672c6964636d93060001b612410565b618b577f5efdcacef0a1222a9f975ce1106d4c9af1292581f767a100fe8c537256afd6d660001b612410565b618b6387868686614e54565b90509550959350505050565b618b7761b969565b73ffffffffffffffffffffffffffffffffffffffff16618b95615f3a565b73ffffffffffffffffffffffffffffffffffffffff1614618c1e576040517f08c379a00000000000000000000000000000000000000000000000000000000081526004018080602001828103825260208152602001807f4f776e61626c653a2063616c6c6572206973206e6f7420746865206f776e657281525060200191505060405180910390fd5b618c4a7f79722555be180eabb0320ff679baf2b0ddda1c2b4c109a0e3bf512b4758a0f9860001b612410565b618c767f76844d2ff5e5e512b8401247b188fc046a0e373db1a938c169f2d8076b5144c860001b612410565b618ca27f3fb9cee0d0fa53a81a7a9a70234aaf43093f9640ff65b4fa733f91b28cfad15060001b612410565b618cce7fa697df3bf95cea4e8b3eae327788170524b0b47c28d05f40cd96b56e2b6fd44e60001b612410565b6103e88161ffff1610618d49576040517f08c379a00000000000000000000000000000000000000000000000000000000081526004018080602001828103825260108152602001807f64657646656520746f6f206c617267650000000000000000000000000000000081525060200191505060405180910390fd5b618d757f4ba7d44b25a499e716853c56203625e75c440e854bcbc91157ecf7d877f9a65760001b612410565b618da17fa3cfcb9a1904ffd7d0b8ba0933bb801b4a6602b6a16c0695e9a81247986e6b9c60001b612410565b618dcd7f49e82533235fd038c6a33665a263fe2d0aa52e998a08c376581762abfd4f38e760001b612410565b80600660166101000a81548161ffff021916908361ffff16021790555050565b600084618e1c7f413a3062dbf67f759e47149f7039d949d31dc89913dd5273967299e53c5ff19e60001b612410565b618e487f16b4945650ee1559c77ab30eb320450f4fefba6c0f06f13d8a120ac3ace5b3ed60001b612410565b618e747f50fb7dac316c263cae64d347e55e9dc663def1e1cb5ec7643a98edadbd64772360001b612410565b6000600a60008373ffffffffffffffffffffffffffffffffffffffff1673ffffffffffffffffffffffffffffffffffffffff16815260200190815260200160002060009054906101000a900460ff169050618ef17fdb2dbf800e456fededc2503ee2df651b820dea9089516d20441b3941c2810bc860001b612410565b618f1d7fe80818a8605b750a05feeb1eeb6a674246aa10bd5ac5ffa9815d05122b41fb2960001b612410565b618f497f2b5f0ec5cd9fe659f313a9818e9576e3d00e81e43691667ce60d1bbf5fafec8b60001b612410565b60018160ff161415618fc3576040517f08c379a00000000000000000000000000000000000000000000000000000000081526004018080602001828103825260158152602001807f4d6f6e6f737761703a20504f4f4c204c4f434b4544000000000000000000000081525060200191505060405180910390fd5b618fef7f318e5aaf809e90d513e095ad335db2a2ba876ab071413b42822f5d6ea500984360001b612410565b61901b7fd3deff698bc8d5cda15f9e5e58eeef0c64060b4127f01e56c2d711a85f82f77f60001b612410565b6190477f80e6b30c9f399f60b84e867398f1d1bb718bb2d9d7ecd94db10d48fcf8aebc3560001b612410565b60008160ff1614156191355761907f7f18920d793ffc87562056a94b5b5720e433549f77ea0412cb2c6b8dbc1fdef71e60001b612410565b6190ab7f780b01d2654abf7f91aaeda0dac73511284f7ef5d8e65722a6676b10d904fae160001b612410565b6190d77ff36425ba271916bcc0cf147c9261de0a33e329efe001f857e56c2ad738a77d1c60001b612410565b6001600a60008473ffffffffffffffffffffffffffffffffffffffff1673ffffffffffffffffffffffffffffffffffffffff16815260200190815260200160002060006101000a81548160ff021916908360ff160217905550619162565b6191617f854e5c4e5e1c2780ce39d47178908053e2c74589475b5e3987e00660dd8c1e9b60001b612410565b5b61918e7f7e36253486ab92d96130fe35912429222a8141d9a32f6d9d3abb445d0934c5e460001b612410565b6191ba7f8574a86591dc962c8306d44e2b8fa2ab90ff958c29481e39e1faed78bf8df63f60001b612410565b6191e67f549ef81f8140bbbd64a39cc73bfbd8d6484de4b866165bb6ca8f351be1e532b460001b612410565b6192127f09165620e29e40f090a8c7c1665a108d90f2daa9d7149b0676713b80aee750e160001b612410565b6000600560009054906101000a900473ffffffffffffffffffffffffffffffffffffffff1690506192657f04ca1476108b3d8592db32172b7761e0d22172fbade0fd988ff5ce48dd152c1260001b612410565b6192917f6c8af1695577cd56700ea3abad0b2fb9af59c3733ca60a73a54ad9ba0a98f06e60001b612410565b6002600a60008a73ffffffffffffffffffffffffffffffffffffffff1673ffffffffffffffffffffffffffffffffffffffff16815260200190815260200160002060009054906101000a900460ff1660ff16141561939f576193157fa1fb28d28affbd486d557954a10a97ad7fa9c860e7fd474678371b3e0041210e60001b612410565b6193417f2211ff9aab686412cc3ba88604cb252497b95b36e1f780766a02217e76e2e14960001b612410565b61936d7f45ee51b09d3130347be5c2d2cbd7614dc3bd9c8139ad7ba2a4aee1d4e8e91a6060001b612410565b61939a3330878b73ffffffffffffffffffffffffffffffffffffffff1661c17d909392919063ffffffff16565b6196bc565b6193cb7f3fac9e428aea2fa1a108b503f7873ed0c73140e8f09327250bdc2327d8286bd060001b612410565b6193f77f5876222c2e02b640fcce43ca565c082a02cf8e610665bafc78b88f7e2996504660001b612410565b6194237f0a18ed1e75864f17bd8b6349fb9c673235112f032c24258ea1b10cbcd6881fcf60001b612410565b60008873ffffffffffffffffffffffffffffffffffffffff166370a08231306040518263ffffffff1660e01b8152600401808273ffffffffffffffffffffffffffffffffffffffff16815260200191505060206040518083038186803b15801561948c57600080fd5b505afa1580156194a0573d6000803e3d6000fd5b505050506040513d60208110156194b657600080fd5b810190808051906020019092919050505090506194f57fcd3f0fdee690a1bb5defbba146907544bb660e1237f6bc4f0e5498b621a5488460001b612410565b6195217f30f600b782c2aad9411187db77ef8d247e85c9e28a819132ac60d97b37ef312a60001b612410565b61954e3330888c73ffffffffffffffffffffffffffffffffffffffff1661c17d909392919063ffffffff16565b61957a7ff5c24810569e09c88fa26414b239b461c27ae50018ab4b516580b03f1b57625460001b612410565b6195a67f47e9ad3ac763daf4bb537923e211d8bdea9eeb413d8b08b80e076d6ba2d15a4760001b612410565b60008973ffffffffffffffffffffffffffffffffffffffff166370a08231306040518263ffffffff1660e01b8152600401808273ffffffffffffffffffffffffffffffffffffffff16815260200191505060206040518083038186803b15801561960f57600080fd5b505afa158015619623573d6000803e3d6000fd5b505050506040513d602081101561963957600080fd5b810190808051906020019092919050505090506196787fc314d2cb7513152b97d4405a5c6b86788533c30084b651047d3e80b8a46ba73060001b612410565b6196a47f437fe4d8c7e2b59dc17c5947a98b3d9065d4d0fd9d101a342953a8c4df92036060001b612410565b6196b7828261c23e90919063ffffffff16565b965050505b6196e87f63efa6bc1d4f3174ed2ff1a33da09d6e6e8904ab08d1ad5e86b3b9f5fd3da0dc60001b612410565b6197147f5516efd915ff2bdbd81f006a7b54d52aa5ba6d1b308d97de473c8133a11029cf60001b612410565b600062030d40619741600660149054906101000a900461ffff1661ffff168861be4a90919063ffffffff16565b8161974857fe5b0490506197777fc64073567cf17f4ab095a84885ae59cacdd406e143ffe4dd7b539817b166420f60001b612410565b6197a37fc4054f7bca2bddb0ab1ef46b92b319dcc2d3cccad0f9d5d4183dce78d836649860001b612410565b60006197d17fdf5f7e6b1b3a1416b673076387778022c68eb4c8d6244b7fb4cf52800499923060001b612410565b6197fd7fb863451494da5df90c8e736345d8dc38a51d2a072deb2bda9f78d58253a5a37160001b612410565b600061982b7f0808ae6afa63e5d752f48ef529bcd0c25dcb659268c86ec0ff9ded2cfe0a96bd60001b612410565b6198577f1eaac189aed804ec126b34e66a345341d4ba68b324051d5cee4a38f08f8babd660001b612410565b60006198857fd5f246f055eaa4407f9d0ecc7819aca9fcd00fe68ea5b7e220ad456ccc71697d60001b612410565b6198b17f3daa68cdef099103b1d7976a823e5d9e912121b0b037876cdaa3f0c4b7dbf56c60001b612410565b6198bc8c8c8b61295a565b809450819b50829550839650505050506198f87f98964821c6df61854a5abde91920dec6ae963d8f7ab8de6995a4fda7d448f7dc60001b612410565b6199247f1f378fc03d3d00d05a29423b0575738f3c1d071a8580c3554afe5a8d48436b6260001b612410565b6000670de0b6b3a7640000619942868661be4a90919063ffffffff16565b8161994957fe5b0490506199787f978d6933e7c92920a66e2472a6789651243059d76825ce83c9668ae28f43c85060001b612410565b6199a47f06c4e7a13fb1cb962fefd60a6731f13d55e8e6248ee8be45d96ece8a10092f4960001b612410565b8573ffffffffffffffffffffffffffffffffffffffff168d73ffffffffffffffffffffffffffffffffffffffff161415619b5857619a047ffa72734be7fe57d6ff7a7bd13f0d48dac5526980dbc70e212994eb4e97c7456660001b612410565b619a307f69c4d75c93edff76736b4f02176c94d1396beb953512e08ce0f7c8d7f93e651d60001b612410565b619a5c7ff7909501b7e35f989a73ee27f8f7f68248c28174ddefd0a3140d8e3ed6df2a2560001b612410565b8573ffffffffffffffffffffffffffffffffffffffff16639dc29fac308c6040518363ffffffff1660e01b8152600401808373ffffffffffffffffffffffffffffffffffffffff16815260200182815260200192505050600060405180830381600087803b158015619acd57600080fd5b505af1158015619ae1573d6000803e3d6000fd5b50505050619b117ffd89622334bc18a324c5b7b801588b2aa0aab5b3cbdc9640259927a2a9ceb96d60001b612410565b619b3d7fccc34a68377b284b21da8ffcc3daf4922d13822e664a0455f4df32e525175c8460001b612410565b619b5160028261be4a90919063ffffffff16565b9050619bfc565b619b847f6d69d5c281e66c4a2c863eea466fe8c83c4937509af8b4fb2214998679751a7e60001b612410565b619bb07fea1c00b3f92670a37a523c91804698271cdde5da71be45e48e8ce4263441dc8b60001b612410565b619bdc7f07a9085413deedb8db62f0e8f6a36a9fafd3dbf30df5fd5ebd8b503c5abd38de60001b612410565b619bfb8d856000619bf6858761ba3390919063ffffffff16565b61c3fa565b5b619c287f75074f16c39ff74a42bc13ae1b32dcddc69d1d2a75dc1555e467a22fd7f16ab060001b612410565b619c547fe6af82e6c52381b43388c27630a7a199c8e6b0a83a002687d76a72d7f4c46c7560001b612410565b8573ffffffffffffffffffffffffffffffffffffffff168c73ffffffffffffffffffffffffffffffffffffffff161415619d9a57619cb47fac10f85f4d5d58b913b235676de11d31576f8d669f150060d1fb4a0167960b7960001b612410565b619ce07f3a43c9dfc6c9b266349c77fc13955dad28e2412e45787b5a33b499c974d6640860001b612410565b619d0c7fb4cc14cf87764dc1c09bd5304bf932dd417da1c630961ce131d191593a365a9f60001b612410565b8573ffffffffffffffffffffffffffffffffffffffff166340c10f198c8b6040518363ffffffff1660e01b8152600401808373ffffffffffffffffffffffffffffffffffffffff16815260200182815260200192505050600060405180830381600087803b158015619d7d57600080fd5b505af1158015619d91573d6000803e3d6000fd5b50505050619ec1565b619dc67ff35810c93cdb8cf0073cc5eba929a7d37bf37e0874fb07e2906fafafad22445860001b612410565b619df27f4a6df425843fa65e8d14a47035470824eae088328328f990e9a05555e6c65cbb60001b612410565b619e1e7f753f1e4703eedadb2d1076a99069744278ef9a9d959b90c133cc6084a907aac960001b612410565b619e498b8a8e73ffffffffffffffffffffffffffffffffffffffff1661ac5c9092919063ffffffff16565b619e757f2567e9f71fdee6a92300c5ee2cfa8635761d64581112479d6ece96c9334b2c0b60001b612410565b619ea17f1c31f535da6596e33074d188263ec868e202d8c482d022dbba0e226755bd5a8260001b612410565b619ec08c84619eb9848661ba3390919063ffffffff16565b600061c3fa565b5b619eed7f4eea72c221c07c02d11d89d9d700a39a3b02ec775e3ec8f38d8251b569e6f77460001b612410565b619f197f72a397137dd718a3cb98011a9a17b1c650eace9d3f85e15d4c638cb92a8fb06c60001b612410565b8b73ffffffffffffffffffffffffffffffffffffffff168d73ffffffffffffffffffffffffffffffffffffffff168c73ffffffffffffffffffffffffffffffffffffffff167fcd3829a3813dc3cdd188fd3d01dcf3268c16be2fdd2dd21d0665418816e460628d8d604051808381526020018281526020019250505060405180910390a4619fc97f9481c5d132643f6e47d3ffc832c9cf3ff53d131c724ddffbed79e74e9a68e36560001b612410565b60009350619ff97fab33b8a6eebdb6543f1b3ca7e9b18275a7e1e98379064a6f1b65ab93482afc1c60001b612410565b6000925061a0297fc865c272d7ab679554c87fdbee5796760dcf4a25f1e768fafbc17f8cab438d1760001b612410565b6000915061a0597fd67163ed0083b34137be91c7614c4ba03d0910dbce28783f066037ee3576fdcc60001b612410565b6000905050505050505061a08f7f3b983644b3ea86f67dc78576bf73deb3dee13dfc04151ba57c31f94abdccabb660001b612410565b61a0bb7f213bdce09ea30d7b353e09d9f01b833eebec2eae94222f6c7f33cdace17415a460001b612410565b60008160ff16141561a1a95761a0f37f1164c5749f8283bf5c4cf0b2d86f498466e5816fac79cc7ddd827a406cc609ed60001b612410565b61a11f7fae83cd9879fe1ee5be49812eacc8f816b59b05f2dd2aca608dfeed4217041d6260001b612410565b61a14b7f24e852ab235e8f010a6adc9c2e3bf45db7241653c4d26274a8d38397958f4f7560001b612410565b6000600a60008473ffffffffffffffffffffffffffffffffffffffff1673ffffffffffffffffffffffffffffffffffffffff16815260200190815260200160002060006101000a81548160ff021916908360ff16021790555061a1d6565b61a1d57f7e3871300b502a79324f6370bd982f64f0d4ec85aade83e924c5f8547d88558460001b612410565b5b5050949350505050565b6000600260008473ffffffffffffffffffffffffffffffffffffffff1673ffffffffffffffffffffffffffffffffffffffff16815260200190815260200160002060008373ffffffffffffffffffffffffffffffffffffffff1673ffffffffffffffffffffffffffffffffffffffff16815260200190815260200160002060009054906101000a900460ff16905092915050565b600073ffffffffffffffffffffffffffffffffffffffff168473ffffffffffffffffffffffffffffffffffffffff16141561a2fa576040517f08c379a000000000000000000000000000000000000000000000000000000000815260040180806020018281038252602581526020018061f75b6025913960400191505060405180910390fd5b61a30261b969565b73ffffffffffffffffffffffffffffffffffffffff168573ffffffffffffffffffffffffffffffffffffffff16148061a348575061a3478561a34261b969565b61a1e0565b5b61a39d576040517f08c379a000000000000000000000000000000000000000000000000000000000815260040180806020018281038252602981526020018061f70c6029913960400191505060405180910390fd5b600061a3a761b969565b905061a3c781878761a3b88861e182565b61a3c18861e182565b8761b971565b61a444836040518060600160405280602a815260200161f7d5602a91396001600088815260200190815260200160002060008a73ffffffffffffffffffffffffffffffffffffffff1673ffffffffffffffffffffffffffffffffffffffff1681526020019081526020016000205461b9799092919063ffffffff16565b6001600086815260200190815260200160002060008873ffffffffffffffffffffffffffffffffffffffff1673ffffffffffffffffffffffffffffffffffffffff1681526020019081526020016000208190555061a4fb836001600087815260200190815260200160002060008873ffffffffffffffffffffffffffffffffffffffff1673ffffffffffffffffffffffffffffffffffffffff1681526020019081526020016000205461ba3390919063ffffffff16565b6001600086815260200190815260200160002060008773ffffffffffffffffffffffffffffffffffffffff1673ffffffffffffffffffffffffffffffffffffffff168152602001908152602001600020819055508473ffffffffffffffffffffffffffffffffffffffff168673ffffffffffffffffffffffffffffffffffffffff168273ffffffffffffffffffffffffffffffffffffffff167fc3d58168c5ae7397731d063d5bbf3d657854427343f4c083240f7aacaa2d0f628787604051808381526020018281526020019250505060405180910390a461a5e181878787878761e1f2565b505050505050565b61a5f161b969565b73ffffffffffffffffffffffffffffffffffffffff1661a60f615f3a565b73ffffffffffffffffffffffffffffffffffffffff161461a698576040517f08c379a00000000000000000000000000000000000000000000000000000000081526004018080602001828103825260208152602001807f4f776e61626c653a2063616c6c6572206973206e6f7420746865206f776e657281525060200191505060405180910390fd5b600073ffffffffffffffffffffffffffffffffffffffff168173ffffffffffffffffffffffffffffffffffffffff16141561a71e576040517f08c379a000000000000000000000000000000000000000000000000000000000815260040180806020018281038252602681526020018061f6c26026913960400191505060405180910390fd5b8073ffffffffffffffffffffffffffffffffffffffff16600460009054906101000a900473ffffffffffffffffffffffffffffffffffffffff1673ffffffffffffffffffffffffffffffffffffffff167f8be0079c531659141344cd1fd0a4f28419497f9722a3daafe3b4186f6b6457e060405160405180910390a380600460006101000a81548173ffffffffffffffffffffffffffffffffffffffff021916908373ffffffffffffffffffffffffffffffffffffffff16021790555050565b61a7e661b969565b73ffffffffffffffffffffffffffffffffffffffff1661a804615f3a565b73ffffffffffffffffffffffffffffffffffffffff161461a88d576040517f08c379a00000000000000000000000000000000000000000000000000000000081526004018080602001828103825260208152602001807f4f776e61626c653a2063616c6c6572206973206e6f7420746865206f776e657281525060200191505060405180910390fd5b61a8b97f4de57fb88071e51fbd447d349e514344e8b2d17dce36e1875875e80e919e2d9960001b612410565b61a8e57f47c66303edcd4d05d21ba9fd32d0757cd8dfe9b5394a4440c3f6809843335a9c60001b612410565b61a9117f795913f374fd078d3074f327f4f5d10e5f6db2e5068871e8a3daf83151e3fa3760001b612410565b80600660006101000a81548173ffffffffffffffffffffffffffffffffffffffff021916908373ffffffffffffffffffffffffffffffffffffffff16021790555050565b61a9817f4622f696e9b0fa242c836a77e455dd111a5cfc27120c8fb694e1f68ff68f638160001b612410565b61a9ad7fbd54b0e4d51ad854f982ea1f9e373e4bbf08bd7150d849705ad1801b1ba4664e60001b612410565b61a9d97f3a71de7f19438e99b36285c424badc31139dd27a0f13b7f5fe7579818f3e998860001b612410565b60006007600085815260200190815260200160002054905061aa1d7fab5485d65030c76eb7618b8ed9eff946fd6db30ebcd42e48c56d0bc4049b9f1160001b612410565b61aa497f269ff6a7e298d56c534404b731c88747264c087206175ed56be1e33cb535e75860001b612410565b828211801561aa585750600083115b1561ac295761aa897f3cd3be47e4704d020bfb29117817fa5d8c0428e1e9cb61dfa696e0e2da3fee4b60001b612410565b61aab57f4367427a658ea6be0cb66a82965d7c6882fb43b340c4b128535cc12e4b57a9f560001b612410565b61aae17fb1491ca54be5d4cdb24dcf52f11c4769ef2aa56067f6a17d173c8252171cf6a860001b612410565b6000838303905061ab147f604d0480892f593cfeae96efc1c5ff2162500f560d87c2d9b419ebe94e5fd56360001b612410565b61ab407fd536debc6733835bfb66f5dac27eaa68eef3431269bc57811499a0daa9df858e60001b612410565b6000620186a061ab9383860361ab85600660169054906101000a900461ffff1661ffff1661ab77878961be4a90919063ffffffff16565b61be4a90919063ffffffff16565b61c0f490919063ffffffff16565b8161ab9a57fe5b04905061abc97fbee8166578370e0ef10f12d39aacd142e47ee90f9887a0fee323e7df2214428060001b612410565b61abf57fd846f583277717007ba396f63686bb8040a29f043081029e454231ae41eca83d60001b612410565b61ac22600660009054906101000a900473ffffffffffffffffffffffffffffffffffffffff16878361c2c1565b505061ac56565b61ac557fd9d7f1936bbad8338af80c0bc07d46cc96ee5087effd013f6c1040dad2cb09f460001b612410565b5b50505050565b61acf98363a9059cbb60e01b8484604051602401808373ffffffffffffffffffffffffffffffffffffffff16815260200182815260200192505050604051602081830303815290604052907bffffffffffffffffffffffffffffffffffffffffffffffffffffffff19166020820180517bffffffffffffffffffffffffffffffffffffffffffffffffffffffff838183161783525050505061e4ff565b505050565b61ad2a7faab25cbce9510708c9b3172d6d0ce4f44fa93fd3cb16698c8537b8277fb2280f60001b612410565b61ad567feb0ca809c3bc683c0420800651c53387c4de4daaa3125627e757781c4a8bbc3b60001b612410565b61ad827f215871729a3c862ba61da721fee1b60e4f4f4961799fa1c1a8ae248eaf90eeb760001b612410565b61ada881600760008581526020019081526020016000205461c23e90919063ffffffff16565b600760008481526020019081526020016000208190555061adeb7f25340ee64579f752a71315d30fa62e11183ecf67d4181c42379e8b754b52e8a260001b612410565b61ae177f8386cecf5612055b5938c8da376a5075b706f1b53fc6edc07ef2dbc2ab7dbc2460001b612410565b61ae2283838361e5ee565b505050565b6000806000808661ae5a7f413a3062dbf67f759e47149f7039d949d31dc89913dd5273967299e53c5ff19e60001b612410565b61ae867f16b4945650ee1559c77ab30eb320450f4fefba6c0f06f13d8a120ac3ace5b3ed60001b612410565b61aeb27f50fb7dac316c263cae64d347e55e9dc663def1e1cb5ec7643a98edadbd64772360001b612410565b6000600a60008373ffffffffffffffffffffffffffffffffffffffff1673ffffffffffffffffffffffffffffffffffffffff16815260200190815260200160002060009054906101000a900460ff16905061af2f7fdb2dbf800e456fededc2503ee2df651b820dea9089516d20441b3941c2810bc860001b612410565b61af5b7fe80818a8605b750a05feeb1eeb6a674246aa10bd5ac5ffa9815d05122b41fb2960001b612410565b61af877f2b5f0ec5cd9fe659f313a9818e9576e3d00e81e43691667ce60d1bbf5fafec8b60001b612410565b60018160ff16141561b001576040517f08c379a00000000000000000000000000000000000000000000000000000000081526004018080602001828103825260158152602001807f4d6f6e6f737761703a20504f4f4c204c4f434b4544000000000000000000000081525060200191505060405180910390fd5b61b02d7f318e5aaf809e90d513e095ad335db2a2ba876ab071413b42822f5d6ea500984360001b612410565b61b0597fd3deff698bc8d5cda15f9e5e58eeef0c64060b4127f01e56c2d711a85f82f77f60001b612410565b61b0857f80e6b30c9f399f60b84e867398f1d1bb718bb2d9d7ecd94db10d48fcf8aebc3560001b612410565b60008160ff16141561b1735761b0bd7f18920d793ffc87562056a94b5b5720e433549f77ea0412cb2c6b8dbc1fdef71e60001b612410565b61b0e97f780b01d2654abf7f91aaeda0dac73511284f7ef5d8e65722a6676b10d904fae160001b612410565b61b1157ff36425ba271916bcc0cf147c9261de0a33e329efe001f857e56c2ad738a77d1c60001b612410565b6001600a60008473ffffffffffffffffffffffffffffffffffffffff1673ffffffffffffffffffffffffffffffffffffffff16815260200190815260200160002060006101000a81548160ff021916908360ff16021790555061b1a0565b61b19f7f854e5c4e5e1c2780ce39d47178908053e2c74589475b5e3987e00660dd8c1e9b60001b612410565b5b61b1cc7f7e36253486ab92d96130fe35912429222a8141d9a32f6d9d3abb445d0934c5e460001b612410565b61b1f87f5f9d0a1c0520c2053db28892777b7189362963978e6b7f2d96f0074ed24efb8860001b612410565b61b2247f7cac556253426ba129bec800cf367efbee20aa9aecb4709bc5cd7501e2e9ee0160001b612410565b61b2507f9e9dfc802a103e7d6658675b1233219676b13f2b4fe84d53acfb1165a413533160001b612410565b6000600960008b73ffffffffffffffffffffffffffffffffffffffff1673ffffffffffffffffffffffffffffffffffffffff168152602001908152602001600020600401600e9054906101000a90046dffffffffffffffffffffffffffff166dffffffffffffffffffffffffffff16905061b2ed7f23c7a9ba4f197a4085d4feb9841d760cfe4d2910d224592308d55b78ede0660a60001b612410565b61b3197f6e0ff4d433940aaf095b086f65fae460db8543b59dad2d4f007cc7d1d597392660001b612410565b61b3248a8a8a61c8bc565b809550819650505061b3587f75edcef8afb940debf3a61b8114dde1f9678b87f665a0aa1ebadf4245f58f67a60001b612410565b61b3847fd6414fa9011246ab38c5f3cbdda839e86aa344461323a987d80fcd47bf2eb06660001b612410565b60008a73ffffffffffffffffffffffffffffffffffffffff166370a08231306040518263ffffffff1660e01b8152600401808273ffffffffffffffffffffffffffffffffffffffff16815260200191505060206040518083038186803b15801561b3ed57600080fd5b505afa15801561b401573d6000803e3d6000fd5b505050506040513d602081101561b41757600080fd5b8101908080519060200190929190505050905061b4567f48e530af35d2f6b67400f1b816759c5421e89022f63fe5f4f88f41d22fb6e51060001b612410565b61b4827fba24aa096fb125c6bcafda292c5876d8c0720c5579271f0782e0abb231fb875160001b612410565b670de0b6b3a764000061b49e828461be4a90919063ffffffff16565b8161b4a557fe5b04965061b4d47f5e373e7937af5326f5fcbffad073802a0a9816b17f53e565d731501c84929b5e60001b612410565b61b5007f8e934511b349ad61091d87153947b5ebfaeebfb7967f0fb386e6e11ddcc29ac460001b612410565b61b52c7ff465332ceff9a80e37d43d9d8648c59b93796842cd1ce2a16838d84d7e6c8c2860001b612410565b7fffffffffffffffffffffffffffffffffffffffffffffffffffffffffffffffff6dffffffffffffffffffffffffffff1681111561b5d2576040517f08c379a00000000000000000000000000000000000000000000000000000000081526004018080602001828103825260088152602001807f4f564552464c4f5700000000000000000000000000000000000000000000000081525060200191505060405180910390fd5b61b5fe7f339489cb95bb8eb097264066b580b2afbfff06b8d7b68b341a3c93a9e62ba6c860001b612410565b61b62a7f4e53fc1b3d8bfd95c969f01f82d83e922f258fe21520b310502fcb2c8afcb24360001b612410565b61b6567f9a9d48b2f2672bd6c0327acaba7e37701af002192edfeca3e9b95755a4b6c2f460001b612410565b80600960008d73ffffffffffffffffffffffffffffffffffffffff1673ffffffffffffffffffffffffffffffffffffffff16815260200190815260200160002060040160006101000a8154816dffffffffffffffffffffffffffff02191690836dffffffffffffffffffffffffffff16021790555061b6f77f4f7123604d089134ec362cd8a1499ee2892f1e8218672a263bcc5b2facb6886260001b612410565b61b7237f7b8260c142cede9c01767d66d6c76bf5577ca28ba4308c66641006448399443860001b612410565b61b7488561b73a888a61ba3390919063ffffffff16565b61c23e90919063ffffffff16565b975061b7767fd18dc63409195b52d41f26aa9c7b8faec42317b0bab80bd578486b80372eec9a60001b612410565b61b7a27ffe350f14cd1a4762022e7a2af673fdbb3fe0f76b02827f9bb363ef4587682bf560001b612410565b87600960008d73ffffffffffffffffffffffffffffffffffffffff1673ffffffffffffffffffffffffffffffffffffffff16815260200190815260200160002060010181905550505061b8177f3b983644b3ea86f67dc78576bf73deb3dee13dfc04151ba57c31f94abdccabb660001b612410565b61b8437f213bdce09ea30d7b353e09d9f01b833eebec2eae94222f6c7f33cdace17415a460001b612410565b60008160ff16141561b9315761b87b7f1164c5749f8283bf5c4cf0b2d86f498466e5816fac79cc7ddd827a406cc609ed60001b612410565b61b8a77fae83cd9879fe1ee5be49812eacc8f816b59b05f2dd2aca608dfeed4217041d6260001b612410565b61b8d37f24e852ab235e8f010a6adc9c2e3bf45db7241653c4d26274a8d38397958f4f7560001b612410565b6000600a60008473ffffffffffffffffffffffffffffffffffffffff1673ffffffffffffffffffffffffffffffffffffffff16815260200190815260200160002060006101000a81548160ff021916908360ff16021790555061b95e565b61b95d7f7e3871300b502a79324f6370bd982f64f0d4ec85aade83e924c5f8547d88558460001b612410565b5b505093509350935093565b600033905090565b505050505050565b600083831115829061ba26576040517f08c379a00000000000000000000000000000000000000000000000000000000081526004018080602001828103825283818151815260200191508051906020019080838360005b8381101561b9eb57808201518184015260208101905061b9d0565b50505050905090810190601f16801561ba185780820380516001836020036101000a031916815260200191505b509250505060405180910390fd5b5082840390509392505050565b60008082840190508381101561bab1576040517f08c379a000000000000000000000000000000000000000000000000000000000815260040180806020018281038252601b8152602001807f536166654d6174683a206164646974696f6e206f766572666c6f77000000000081525060200191505060405180910390fd5b8091505092915050565b61bada8473ffffffffffffffffffffffffffffffffffffffff1661e80a565b1561be42578373ffffffffffffffffffffffffffffffffffffffff1663bc197c8187878686866040518663ffffffff1660e01b8152600401808673ffffffffffffffffffffffffffffffffffffffff1681526020018573ffffffffffffffffffffffffffffffffffffffff168152602001806020018060200180602001848103845287818151815260200191508051906020019060200280838360005b8381101561bb9257808201518184015260208101905061bb77565b50505050905001848103835286818151815260200191508051906020019060200280838360005b8381101561bbd457808201518184015260208101905061bbb9565b50505050905001848103825285818151815260200191508051906020019080838360005b8381101561bc1357808201518184015260208101905061bbf8565b50505050905090810190601f16801561bc405780820380516001836020036101000a031916815260200191505b5098505050505050505050602060405180830381600087803b15801561bc6557600080fd5b505af192505050801561bc9957506040513d602081101561bc8557600080fd5b810190808051906020019092919050505060015b61bda35761bca561f560565b8061bcb0575061bd52565b806040517f08c379a00000000000000000000000000000000000000000000000000000000081526004018080602001828103825283818151815260200191508051906020019080838360005b8381101561bd1757808201518184015260208101905061bcfc565b50505050905090810190601f16801561bd445780820380516001836020036101000a031916815260200191505b509250505060405180910390fd5b6040517f08c379a000000000000000000000000000000000000000000000000000000000815260040180806020018281038252603481526020018061f6176034913960400191505060405180910390fd5b63bc197c8160e01b7bffffffffffffffffffffffffffffffffffffffffffffffffffffffff1916817bffffffffffffffffffffffffffffffffffffffffffffffffffffffff19161461be40576040517f08c379a000000000000000000000000000000000000000000000000000000000815260040180806020018281038252602881526020018061f64b6028913960400191505060405180910390fd5b505b505050505050565b60008083141561be5d576000905061beca565b600082840290508284828161be6e57fe5b041461bec5576040517f08c379a000000000000000000000000000000000000000000000000000000000815260040180806020018281038252602181526020018061f7ff6021913960400191505060405180910390fd5b809150505b92915050565b600061befe7faa928c294157421cea0df1f86ea44159a51d4945bd46a9bb9433a1b9d423551960001b612410565b61bf2a7f9f703cf54b0b2c8ecf4e09e89dda40a2ff5d8899bdae579a26366269c179ecff60001b612410565b61bf567f60f39565925fb9b5fcd9e76072b65c942e17c6b66e5c057c0bb7941f3815b9a860001b612410565b6000600181111561bf6357fe5b82600181111561bf6f57fe5b141561c02e5761bfa17f73f18b80d23522dcf05c8fed3ea1edd719b71fc68e722b8f6681a1fa3ac89b3060001b612410565b61bfcd7f7a827efc7945741e39b5d7a4918c2bd0ae560bb51d601e188b6348750526280e60001b612410565b61bff97fd08927e7895283fd4bbea11c9273b9c31b0fb3ed0c6f63b9b59b7290e2d92a3860001b612410565b61c00c838561ba3390919063ffffffff16565b61c01f858761be4a90919063ffffffff16565b8161c02657fe5b04905061c0ec565b61c05a7fcd76bea6484429d4d6776db96d87895375c87f35163a7542c43a516826782f9160001b612410565b61c0867fec18bacfaf9d051e0e72ff83cecb7749f950b8040cd5d673cb13868d9558a31560001b612410565b61c0b27f47af9fe9acab2516bde06abf0a3efc1b63db8cc6d4b8fb86d91540a90d6b5a0560001b612410565b61c0e961c0c8848661c23e90919063ffffffff16565b61c0db868861be4a90919063ffffffff16565b61c0f490919063ffffffff16565b90505b949350505050565b600080821161c16b576040517f08c379a000000000000000000000000000000000000000000000000000000000815260040180806020018281038252601a8152602001807f536166654d6174683a206469766973696f6e206279207a65726f00000000000081525060200191505060405180910390fd5b81838161c17457fe5b04905092915050565b61c238846323b872dd60e01b858585604051602401808473ffffffffffffffffffffffffffffffffffffffff1681526020018373ffffffffffffffffffffffffffffffffffffffff1681526020018281526020019350505050604051602081830303815290604052907bffffffffffffffffffffffffffffffffffffffffffffffffffffffff19166020820180517bffffffffffffffffffffffffffffffffffffffffffffffffffffffff838183161783525050505061e4ff565b50505050565b60008282111561c2b6576040517f08c379a000000000000000000000000000000000000000000000000000000000815260040180806020018281038252601e8152602001807f536166654d6174683a207375627472616374696f6e206f766572666c6f77000081525060200191505060405180910390fd5b818303905092915050565b61c2ed7f151bc2a25d64df8fa03cb7f145d8313ca8e2c05be72ad81585f2a6c4c7fb659460001b612410565b61c3197ffbc6a7de24bbc512b8bae35c0d398b77c755ca58f2adb6a839d44137deeff15d60001b612410565b61c3457fca6c7cf1a64c0a1f7566aa65a867aa9c2ef62d80fe1b1bf4c725a8838f47593c60001b612410565b61c36b81600760008581526020019081526020016000205461ba3390919063ffffffff16565b600760008481526020019081526020016000208190555061c3ae7fd4a5e8bb1044c244f7af5b71d7dca34164bcc58607586116bb05cd0664c423e860001b612410565b61c3da7f6fee4d8f42c2fe43fef41ec4d2a8943a19a0969290ab148dd3a020dced27c27a60001b612410565b61c3f58383836040518060200160405280600081525061e81d565b505050565b61c4267f4662865f7c9db542c642930a22e57cd05b3743e7042fd29a10355f6c7088889f60001b612410565b61c4527f1d331d74b3e1f6b6d88226d2e96b5ec14420c088fc361122d4d0891dcc29ea2a60001b612410565b61c47e7f917f2ae233f8b52e496699acf46dc0c561d0bb6980b53bf89fa55fcda1e1428d60001b612410565b60008473ffffffffffffffffffffffffffffffffffffffff166370a08231306040518263ffffffff1660e01b8152600401808273ffffffffffffffffffffffffffffffffffffffff16815260200191505060206040518083038186803b15801561c4e757600080fd5b505afa15801561c4fb573d6000803e3d6000fd5b505050506040513d602081101561c51157600080fd5b8101908080519060200190929190505050905061c5507f9406697fa8e6a8995fb7d3cfbb27b0d256a3877a1659bfa768a19ea128f6645960001b612410565b61c57c7f8b6530d62827360e0e3bae9ac8a0277741ecfc18d1e69468633e3439405d606e60001b612410565b61c5a87fee0e8bc45dde2062f5fb9980daea4542181a3e6f7037bbc1b26102194054ada560001b612410565b7fffffffffffffffffffffffffffffffffffffffffffffffffffffffffffffffff6dffffffffffffffffffffffffffff16841115801561c61857507fffffffffffffffffffffffffffffffffffffffffffffffffffffffffffffffff6dffffffffffffffffffffffffffff168111155b61c68a576040517f08c379a00000000000000000000000000000000000000000000000000000000081526004018080602001828103825260088152602001807f4f564552464c4f5700000000000000000000000000000000000000000000000081525060200191505060405180910390fd5b61c6b67faab5d46b5d333910b14c063570b1358044a3e384cb8239b1cdc322c97ac042d660001b612410565b61c6e27fd33467ba511ab11c400312073ae8b7cb0740732b43c48fb551ab9ad18a23826b60001b612410565b61c70e7fb10b836decc42d7b2d8e0c7244a6ded646f17c0f809de72e3a300671dd5ad93460001b612410565b80600960008773ffffffffffffffffffffffffffffffffffffffff1673ffffffffffffffffffffffffffffffffffffffff16815260200190815260200160002060040160006101000a8154816dffffffffffffffffffffffffffff02191690836dffffffffffffffffffffffffffff16021790555061c7af7ff56fa9fa45f471a9fba68dd447ae1724edf820c2a32384cfe610e7718fa60ed760001b612410565b61c7db7f80405c7ead21ae664ea784a9847fcfca97922fa49e57de7d1e4fe51d587c8a4d60001b612410565b83600960008773ffffffffffffffffffffffffffffffffffffffff1673ffffffffffffffffffffffffffffffffffffffff168152602001908152602001600020600401600e6101000a8154816dffffffffffffffffffffffffffff02191690836dffffffffffffffffffffffffffff16021790555061c87c7f5199ee4b42a35ed9f8c7017d271f5c5a824a8f253501742c9f292b1a122047b060001b612410565b61c8a87f22295c6e52cca254d283d754c25bae3b0d580107722d2e0d78896d3d1104af7c60001b612410565b61c8b385848461c8bc565b50505050505050565b60008061c8eb7f09d4e1da9bb09133a3f7b1cf192e9cf7b30dcd77837fc2d37583f6806255f93c60001b612410565b61c9177fc713cb214f8545f0f036d572f449926c792d6df3fac6f3abb93f98389194a21760001b612410565b61c9437f7541e48880d44a62af46620e655698de9a0a5b88180146a6a7a49aec372ab2c060001b612410565b8284111561ca355761c9777fdb1c015d4d2a2234e06e7ee3f35a5e6cc0e609730d777f6addcac0ad0c8dd74260001b612410565b61c9a37f1a0c6f46f287e0ffb458d534aebab1a332f1d053d9a63509aab20b13eba1f4e960001b612410565b61c9cf7f4b0cec2f5165c55a513e4e17fe4621a24266525562eb895bcc69d3491e6f005760001b612410565b828403935061ca007f676523120aa7ea1f4695d65b218730e001b525d1476bd1a8e2db42aa6f681fb460001b612410565b61ca2c7f3f416f5c6e349ddcff1891b01daee49f187716179e8f6fc3fc413e215216d89c60001b612410565b6000925061cb1b565b61ca617f5ba700910128b183fbca0bd8b3b49a4d204555d34109d3a67629c8f9b0c0260460001b612410565b61ca8d7f6eea82ea8904ff0a77fff2c2a250423f2018d103580f6f3e7a3cf5159733447560001b612410565b61cab97f12d27f1ec4a1c95308a9541714895d8a0f1a9ccba86ee49eb6ca356441fcb65660001b612410565b838303925061caea7f8e4614e644d1ce17c26335f611dc05d9269e834829692ced0e9aa98a4dfa7a4160001b612410565b61cb167ffab7ae97162e7195173c7872e734a371135971f1f345fc07cc9602827441498660001b612410565b600093505b61cb477f054e515c05e83d5c4fbe5e84bb008d6e27fc33da508c18af5d0719eed881383360001b612410565b61cb737f3a9dfd5d71cec4ea242f53215619ad226144cf6ef1ad6806b975ddfdd6ce355f60001b612410565b6000600960008773ffffffffffffffffffffffffffffffffffffffff1673ffffffffffffffffffffffffffffffffffffffff168152602001908152602001600020600301600e9054906101000a90046dffffffffffffffffffffffffffff166dffffffffffffffffffffffffffff16905061cc107f883a3b495a492a0c5d667740cddaec449ed25d2e42bc631ee51cd51bd4884a4a60001b612410565b61cc3c7f6620fc051e38ada774fe8d40a07662e5909611d315caa4010b5eef288fd3011060001b612410565b6000600960008873ffffffffffffffffffffffffffffffffffffffff1673ffffffffffffffffffffffffffffffffffffffff16815260200190815260200160002060030160009054906101000a90046dffffffffffffffffffffffffffff166dffffffffffffffffffffffffffff16905061ccd97f3810b1f838f3bdb96ba37b6375f3690f4f00eb42e3cb210ed533b24ac7c9c95d60001b612410565b61cd057fd9ece8287df48dabe3758965775077c07a9a9eab2dd7748d83083699e74023b760001b612410565b6000600960008973ffffffffffffffffffffffffffffffffffffffff1673ffffffffffffffffffffffffffffffffffffffff16815260200190815260200160002060020160149054906101000a900460ff16905061cd857fb06d2bc7e14c2187ddd7b497de46f53d5d6fc569c2c5b40147b70897f217706c60001b612410565b61cdb17f50da7f952ba63bc7baebccd1acd935808e07384ce35a121495d456429813ed5360001b612410565b600086111561d1825761cde67f5542cec31e731810dc364569168937fecf10c7a5404172caf0b756d6479b940060001b612410565b61ce127f23769fe12b0e7267089b3c144655698deb6f2ca2d9851bca84bc2cd6c7cceb9260001b612410565b61ce3e7f29afc2930b4420c458ca4a0f1956a9db5ff8aeee1dd003c29a163548676b812660001b612410565b61ce4983838861ea20565b809550819650505061ce7d7f121fa945772af99afd322887d6e6b3320ce2eaf852d6e69cc091a98d04958c3c60001b612410565b61cea97f01192952d9928678a4d77295070a7c56a453014a130149b590bae0ad8e0826f660001b612410565b61ced57fe0178d4fb3c3cdba989da26b4495c4818f20d3d8613253944452862fd3a3388d60001b612410565b7fffffffffffffffffffffffffffffffffffffffffffffffffffffffffffffffff6dffffffffffffffffffffffffffff16851115801561cf4557507fffffffffffffffffffffffffffffffffffffffffffffffffffffffffffffffff6dffffffffffffffffffffffffffff168411155b61cfb7576040517f08c379a00000000000000000000000000000000000000000000000000000000081526004018080602001828103825260088152602001807f4f564552464c4f5700000000000000000000000000000000000000000000000081525060200191505060405180910390fd5b61cfe37fcc7bf963505abe35c9ff886f20658a6430694ed1df916f3283047ae4c02ac18c60001b612410565b61d00f7f536de98414fa1322430fa39c72e6c572bf5efc6dfe60731b986100175c33e93460001b612410565b61d03b7fe549e9b736c59d032ff889e62280378f236f79484dff2f8c858f7d4f612d109360001b612410565b84600960008a73ffffffffffffffffffffffffffffffffffffffff1673ffffffffffffffffffffffffffffffffffffffff168152602001908152602001600020600301600e6101000a8154816dffffffffffffffffffffffffffff02191690836dffffffffffffffffffffffffffff16021790555061d0dc7f02eb4eb20ae20f7975a8371ef0374d7fe7626347d8b36f8ef3d196039936348660001b612410565b61d1087fe6cee63f045402cde2454202bfd3a92b43dce926b1f867227f007f76841d9f5e60001b612410565b83600960008a73ffffffffffffffffffffffffffffffffffffffff1673ffffffffffffffffffffffffffffffffffffffff16815260200190815260200160002060030160006101000a8154816dffffffffffffffffffffffffffff02191690836dffffffffffffffffffffffffffff16021790555061d1af565b61d1ae7f584bdd3bfc753446ccc41282e2a5e1bb3495f3b3b467fadb1f82c8d547bf636d60001b612410565b5b61d1db7f478ea6ad89c83918a0140ccb93710a5d047f378e1be7e2fbc16df29d348a25e160001b612410565b61d2077f5c4dcf28415e468a3ddc57708e5e456848d4a4e371d7f3c0e62818633a62170a60001b612410565b600087111561d5d85761d23c7f7482089d001128e6c182c0aa8d2bbbc63a1e801ab9c4b05ecf109c7cf6670ea660001b612410565b61d2687f8905ff027807cdd07d558d448391d1836d4a036ca0ad0813b47a5aa5c1a8012560001b612410565b61d2947f4e5b2b4f846d685356925ceae0fc5dc9bcdea08e31d613a83b22ad885375df2d60001b612410565b61d29f83838961ee0e565b809550819650505061d2d37f2c2b8996516ef8fa0f63644d21b57c9357f78760d5696a61942b32d5ef8f456d60001b612410565b61d2ff7f933991897795c9ff6225e74bfaff24d19f9941f717ecf404427370d37686c79c60001b612410565b61d32b7f3b0e65148961fd0d73018813a23cf1b3cc01abef6d3421dfdc31a40907189ecb60001b612410565b7fffffffffffffffffffffffffffffffffffffffffffffffffffffffffffffffff6dffffffffffffffffffffffffffff16851115801561d39b57507fffffffffffffffffffffffffffffffffffffffffffffffffffffffffffffffff6dffffffffffffffffffffffffffff168411155b61d40d576040517f08c379a00000000000000000000000000000000000000000000000000000000081526004018080602001828103825260088152602001807f4f564552464c4f5700000000000000000000000000000000000000000000000081525060200191505060405180910390fd5b61d4397ffcfa0ac1170c26ab9f83d7b2ddadc028b61dae8d60ab6812424cba80376c89fb60001b612410565b61d4657fd99a637375831c9d8ec0c8f64df78b583cd2e7f5a7c5f0ca6611e3a811240c4860001b612410565b61d4917f81916b14d533198fbd8474d23cbb6d0d52902cb59a84d14d633b8ca3a06b8cdb60001b612410565b84600960008a73ffffffffffffffffffffffffffffffffffffffff1673ffffffffffffffffffffffffffffffffffffffff168152602001908152602001600020600301600e6101000a8154816dffffffffffffffffffffffffffff02191690836dffffffffffffffffffffffffffff16021790555061d5327faa9bc590f41f71c76a1f44b2c4c162c49649be41c62d28ff51262b63517ba8a460001b612410565b61d55e7fc4e2c6e51ff0c2fed1d54f31b522af09090fa8b1bc730b01c25ec300586fb5b860001b612410565b83600960008a73ffffffffffffffffffffffffffffffffffffffff1673ffffffffffffffffffffffffffffffffffffffff16815260200190815260200160002060030160006101000a8154816dffffffffffffffffffffffffffff02191690836dffffffffffffffffffffffffffff16021790555061d605565b61d6047ff3908026103bab70b5651f9f05938657cf4b66dbfdedcec6b5c388110edbd9ef60001b612410565b5b61d6317fdb6b1b3e81608c6351f5f2e5bb3a98eadf9ededd1844826774ad6dd61706ab1a60001b612410565b61d65d7f24aa0e02859c1dc52ec795da6dc56d66587c9e2cdba5a1090cdcfaf69947edac60001b612410565b6001600281111561d66a57fe5b81600281111561d67657fe5b141561d7c35761d6a87f1281ef157654b911043a05b1fd7a94ddad9afa954f6e57f3d3ba08b546b3caa360001b612410565b61d6d47fa070afa9942c57ce4770a7f64144150829c2bcf6b202fff9e98222f52302137960001b612410565b61d7007f08d0228fd1d0d05396734fb5212149a2d11fb3de147cf8c469644222d1d737f560001b612410565b61d72c7f8fdc15cda65257b4243c6239d62c3c30fbd6f7018f6572fe28e60d77b23ad90760001b612410565b6000851015801561d73d5750600084145b61d792576040517f08c379a000000000000000000000000000000000000000000000000000000000815260040180806020018281038252602a81526020018061f820602a913960400191505060405180910390fd5b61d7be7ffd057accf2a207480834301656b2a93721954bf5d8832f4f7596fc84946fc7c860001b612410565b61d7f0565b61d7ef7f021977d0d3310d1fd77040155949a210604a4e54ea4c62ccf734db3bb1bc63f360001b612410565b5b505050935093915050565b600061d8297f5e1aee51eb1ae06f29f4230ac90dfbeeb93a9250483c40f6b61012f7cf4d049360001b612410565b61d8557ff690d522e3bf84825470c7996077ebee35b7b1626310b82e42e8e3911da4284860001b612410565b61d8817fcfd669a0878e69eb996be090cc99c923b6327d18e88ea72a27c94cb999db3c4760001b612410565b61d8ad7f298aad4c558fd7069c48b45d0355d5aa15639252777297ff1c24a9cd9dd967a860001b612410565b6001600d541461d925576040517f08c379a00000000000000000000000000000000000000000000000000000000081526004018080602001828103825260108152602001807f4d6f6e6f737761703a204c4f434b45440000000000000000000000000000000081525060200191505060405180910390fd5b61d9517ff2d46a4418d470a0fce0d5964e7ed4ba268e3bb7f614fc328fdf4d13d3c4ff9960001b612410565b61d97d7f8f49dc4cbce06a598d37717f3c2f5ceb2eb713b688b6287ac10cb27429c76e8560001b612410565b61d9a97f350f6477611e38f70338a19c40e4da42c7b1944a2a232ea958bb1a1d0bb67d4160001b612410565b6000600d8190555061d9dd7f9cb937e9cfc7e7f2f13c813597ee0e6f63b062cdfd9c80a5ff827a50dfbcd5ce60001b612410565b61da097f1c59276a49287e5849512f37d958784487ab6c22accc7d2c7d111c55eeb126ab60001b612410565b61da357fbf80a8d1b67be4bfabb55efaceeff7727b5cbbb98a3cfd84a48cdd89f9944aea60001b612410565b61da617f13478872180cc5836667294925446d3b9250b4b2d6c642d4acb4080d9529f13760001b612410565b61da8d7fbf8ee579045b6a7211fc17be05e1fda76ff218934f0fc0daf890a47029e2826360001b612410565b6000600b60008673ffffffffffffffffffffffffffffffffffffffff1673ffffffffffffffffffffffffffffffffffffffff16815260200190815260200160002060009054906101000a900460ff1660ff161461db52576040517f08c379a00000000000000000000000000000000000000000000000000000000081526004018080602001828103825260168152602001807f4d6f6e6f737761703a20546f6b656e204578697374730000000000000000000081525060200191505060405180910390fd5b61db7e7f3c794b4d3871ec61bd1c3befeb08ae2abe0cddb8f95a53efdaec4ab8d3459dc460001b612410565b61dbaa7f62ce47aa42617a43208b3e266523c63bdf9383e699a363e00d17465da021370160001b612410565b61dbd67ff6bd6690efce409aab39d67ca1da45d74d751bafcb506595feb751d62ea6423960001b612410565b61dc027f8d81e4a293cfd037a6884d819356519747d70ce38e0ef892b7efc731606175d360001b612410565b600560009054906101000a900473ffffffffffffffffffffffffffffffffffffffff1673ffffffffffffffffffffffffffffffffffffffff168473ffffffffffffffffffffffffffffffffffffffff16141561dcc6576040517f08c379a000000000000000000000000000000000000000000000000000000000815260040180806020018281038252601f8152602001807f4d6f6e6f737761703a207655534420706f6f6c206e6f7420616c6c6f7765640081525060200191505060405180910390fd5b61dcf27f8fd7b9af53f9c68becc8ad75138f669f1f8d61d4c7892c97ea4072823e09d03660001b612410565b61dd1e7f3a27687148ad3ec1238a91afd0a304cfac123188b5b70154d997aac7f3dc1f3360001b612410565b61dd4a7f7f25d854f5072fd7ff1a8b65afb05f32d6bf46ce8429b7d8120ab81954d9d47e60001b612410565b600c54905061dd7b7ffb30676b1802e09c4f523e73d3610cb80ba952fdc419faf46edcc63bd811c4f060001b612410565b61dda77f166074aa750e695523dccca6be8d5222fc64c136ffd5d524c35bb03a0884e39b60001b612410565b604051806101000160405280828152602001600081526020018573ffffffffffffffffffffffffffffffffffffffff16815260200183600281111561dde857fe5b815260200160006dffffffffffffffffffffffffffff16815260200160006dffffffffffffffffffffffffffff16815260200160006dffffffffffffffffffffffffffff168152602001846dffffffffffffffffffffffffffff16815250600960008673ffffffffffffffffffffffffffffffffffffffff1673ffffffffffffffffffffffffffffffffffffffff168152602001908152602001600020600082015181600001556020820151816001015560408201518160020160006101000a81548173ffffffffffffffffffffffffffffffffffffffff021916908373ffffffffffffffffffffffffffffffffffffffff16021790555060608201518160020160146101000a81548160ff0219169083600281111561df0457fe5b021790555060808201518160030160006101000a8154816dffffffffffffffffffffffffffff02191690836dffffffffffffffffffffffffffff16021790555060a082015181600301600e6101000a8154816dffffffffffffffffffffffffffff02191690836dffffffffffffffffffffffffffff16021790555060c08201518160040160006101000a8154816dffffffffffffffffffffffffffff02191690836dffffffffffffffffffffffffffff16021790555060e082015181600401600e6101000a8154816dffffffffffffffffffffffffffff02191690836dffffffffffffffffffffffffffff16021790555090505061e0247fb5edb53400e1b63b704d51d5e8e2f081e228cf5c9fbdc64481cfb42557f82e9960001b612410565b61e0507fc3215498721b8523011fe0a4a52c43a24126b61f2214764815eca69507dabc1c60001b612410565b61e06460018261ba3390919063ffffffff16565b600c8190555061e0967fa9a49cc173e79708804a159ba6d8870490801e7f6fd1f70e25ca4911820ec92260001b612410565b61e0c27fdedf3e2826bcf7539071c0a29cad6d28fb5e6ff29276b94510a1bd009c1e634560001b612410565b6001600b60008673ffffffffffffffffffffffffffffffffffffffff1673ffffffffffffffffffffffffffffffffffffffff16815260200190815260200160002060006101000a81548160ff021916908360ff16021790555061e1477fe1261a7d14fbb95b037558274d79d3df896f0fb5cee840dc0a45b0a06409a05160001b612410565b61e1737f353b6e593c3e169bb3413db458bc6766ca7220df1d8ab3edc4249c2af6fb2f5960001b612410565b6001600d819055509392505050565b606080600167ffffffffffffffff8111801561e19d57600080fd5b5060405190808252806020026020018201604052801561e1cc5781602001602082028036833780820191505090505b509050828160008151811061e1dd57fe5b60200260200101818152505080915050919050565b61e2118473ffffffffffffffffffffffffffffffffffffffff1661e80a565b1561e4f7578373ffffffffffffffffffffffffffffffffffffffff1663f23a6e6187878686866040518663ffffffff1660e01b8152600401808673ffffffffffffffffffffffffffffffffffffffff1681526020018573ffffffffffffffffffffffffffffffffffffffff16815260200184815260200183815260200180602001828103825283818151815260200191508051906020019080838360005b8381101561e2ca57808201518184015260208101905061e2af565b50505050905090810190601f16801561e2f75780820380516001836020036101000a031916815260200191505b509650505050505050602060405180830381600087803b15801561e31a57600080fd5b505af192505050801561e34e57506040513d602081101561e33a57600080fd5b810190808051906020019092919050505060015b61e4585761e35a61f560565b8061e365575061e407565b806040517f08c379a00000000000000000000000000000000000000000000000000000000081526004018080602001828103825283818151815260200191508051906020019080838360005b8381101561e3cc57808201518184015260208101905061e3b1565b50505050905090810190601f16801561e3f95780820380516001836020036101000a031916815260200191505b509250505060405180910390fd5b6040517f08c379a000000000000000000000000000000000000000000000000000000000815260040180806020018281038252603481526020018061f6176034913960400191505060405180910390fd5b63f23a6e6160e01b7bffffffffffffffffffffffffffffffffffffffffffffffffffffffff1916817bffffffffffffffffffffffffffffffffffffffffffffffffffffffff19161461e4f5576040517f08c379a000000000000000000000000000000000000000000000000000000000815260040180806020018281038252602881526020018061f64b6028913960400191505060405180910390fd5b505b505050505050565b606061e561826040518060400160405280602081526020017f5361666545524332303a206c6f772d6c6576656c2063616c6c206661696c65648152508573ffffffffffffffffffffffffffffffffffffffff1661f20f9092919063ffffffff16565b905060008151111561e5e95780806020019051602081101561e58257600080fd5b810190808051906020019092919050505061e5e8576040517f08c379a000000000000000000000000000000000000000000000000000000000815260040180806020018281038252602a81526020018061f896602a913960400191505060405180910390fd5b5b505050565b600073ffffffffffffffffffffffffffffffffffffffff168373ffffffffffffffffffffffffffffffffffffffff16141561e674576040517f08c379a000000000000000000000000000000000000000000000000000000000815260040180806020018281038252602381526020018061f7b26023913960400191505060405180910390fd5b600061e67e61b969565b905061e6ae8185600061e6908761e182565b61e6998761e182565b6040518060200160405280600081525061b971565b61e72b8260405180606001604052806024815260200161f6e8602491396001600087815260200190815260200160002060008873ffffffffffffffffffffffffffffffffffffffff1673ffffffffffffffffffffffffffffffffffffffff1681526020019081526020016000205461b9799092919063ffffffff16565b6001600085815260200190815260200160002060008673ffffffffffffffffffffffffffffffffffffffff1673ffffffffffffffffffffffffffffffffffffffff16815260200190815260200160002081905550600073ffffffffffffffffffffffffffffffffffffffff168473ffffffffffffffffffffffffffffffffffffffff168273ffffffffffffffffffffffffffffffffffffffff167fc3d58168c5ae7397731d063d5bbf3d657854427343f4c083240f7aacaa2d0f628686604051808381526020018281526020019250505060405180910390a450505050565b600080823b905060008111915050919050565b600073ffffffffffffffffffffffffffffffffffffffff168473ffffffffffffffffffffffffffffffffffffffff16141561e8a3576040517f08c379a000000000000000000000000000000000000000000000000000000000815260040180806020018281038252602181526020018061f9116021913960400191505060405180910390fd5b600061e8ad61b969565b905061e8ce8160008761e8bf8861e182565b61e8c88861e182565b8761b971565b61e931836001600087815260200190815260200160002060008873ffffffffffffffffffffffffffffffffffffffff1673ffffffffffffffffffffffffffffffffffffffff1681526020019081526020016000205461ba3390919063ffffffff16565b6001600086815260200190815260200160002060008773ffffffffffffffffffffffffffffffffffffffff1673ffffffffffffffffffffffffffffffffffffffff168152602001908152602001600020819055508473ffffffffffffffffffffffffffffffffffffffff16600073ffffffffffffffffffffffffffffffffffffffff168273ffffffffffffffffffffffffffffffffffffffff167fc3d58168c5ae7397731d063d5bbf3d657854427343f4c083240f7aacaa2d0f628787604051808381526020018281526020019250505060405180910390a461ea198160008787878761e1f2565b5050505050565b60008061ea4f7f3c8642f399fe31024573e88e0663f2f98b7ee5b8b805c67843ccfdbd236c6cc160001b612410565b61ea7b7f2e6bb20fc5951b836efdbf28783d38e7f989e9f5dda676bd1e940dead9585a0f60001b612410565b61eaa77f49ee50e14729260e319b762d5f003cbee5070236971500f211be005a02ea6d7a60001b612410565b600085111561ed105761eadc7f4f7603f4a4ef31b76f2c9712ca8e37d6e2c07837c9da4ee3ff5279a7a9b099e960001b612410565b61eb087f3fbbd6ea17c9fbbbd020451f34295366c4ef9ecaecbc1bda5df8b8f16061451160001b612410565b61eb347f10d3c7eea4ff520a233ea0901629a410367443c6601baa1fb7059c2da3f08b6660001b612410565b8483111561ec255761eb677ee089e15e9f0f976fae68f2029e01c79971027c2fae568a35e5590ee7f5281160001b612410565b61eb937fa6138de8a66c5d782a6f080c0b3a0c2e2c283d4244c0f1792312fcee403077ce60001b612410565b61ebbf7f7a8249bc1197b0b40a50d328dcaa216db27a8c683ff51739819f2fc0c00070dd60001b612410565b6000915061ebef7fa9718c29924814668cdef00ac19ddbd7d2cbb3096598b20d1fd509084b4a668660001b612410565b61ec1b7f4595c9929e3b81b89c738d38a730377d76ae0c9983730afb3cfc4ad7383a79d260001b612410565b848303905061ed0b565b61ec517f1fca615a59277cadd1b62aee784affe0364fe7dfd1045c90e91032752345a15e60001b612410565b61ec7d7fd75773c35caa1eee365a694711bb0c6f5ddfb67cd70055f2c0be5e9498fd1b9360001b612410565b61eca97ff548809adf34beafa863ceb42d55089f4990047575574505745542b3673b759160001b612410565b828503915061ecda7f246c65ec9e8563a25a729b51e58ea1a90773e9ae4eb999e7f5b44618f28c52e460001b612410565b61ed067f601d4603957c49422123b712ac3fc92d1832af1268c41e9a544127814022aad360001b612410565b600090505b61ee06565b61ed3c7fb4ec9f9baaa3592d9bacbfe25364e5a90a482773ac61ab130147d3546f3c1a7d60001b612410565b61ed687f66925c912f7c9203193a76921f67732ec88825d69bd17be39ac655c6eb8a16af60001b612410565b61ed947f725fb780cb4a05fd61c8cbf1533bc6733e338b411dd24fe54ae8b19b1b70db4760001b612410565b6000915061edc47f3f310bf42328a57174d0b02b4a844116aa81b359ed0a3f80b214e565176c8cfd60001b612410565b61edf07fc07e0db7d3ed2d1746d1f5b895c40fc778bf924bf3a165346906c857a2dde66d60001b612410565b61ee03838561ba3390919063ffffffff16565b90505b935093915050565b60008061ee3d7fa2286eb5a1119760f2c73db879c7d926e5323d8b33ac6fb4d0f46c324d764bfc60001b612410565b61ee697f241e772f526943e79347268b9bd252fdf87852ee4e5b2a76c83ddba5492caedd60001b612410565b61ee957fe3e7269b3c32b101a19b18a5b4951e5f5df1eb2ef7fc592335895f3cca27514060001b612410565b600084111561f1115761eeca7ff1d4ab22aaa262a3635dd9a1e9407069bcc1d8cfe53be0deadbd46a6d8ef7d0360001b612410565b61eef67f8b4bce855e893b07b0b4af41bf0513a3f7973e529dc86192b1cea4f8155c79eb60001b612410565b61ef227faaae2004c85de47ab712494e3d32077ece2d30c813b4639df18a1af4f73502b160001b612410565b8383111561f0265761ef567f28b9c8c0ab9b3f6432ca77f89a8f13d346674b82069050b54d6fa0550e30f94c60001b612410565b61ef827f545bba4c7d72e1dd65b06d000b9e645c9ac3d5d2e4db021de16ba5366ccfc2f060001b612410565b61efae7f35710cc1e0b78c56bcfef262a80aaa8543fb253334707d10f916dfc4cd1d88a060001b612410565b6000905061efde7f2ed4b1947e758f2fe049589f7d06dcf6b962bbaf471fdb92475954a9061324e460001b612410565b61f00a7fddb3d3711130444c0f5ab4df9340bc9b82735a7e8db984abef8c3c20c2fcfb8460001b612410565b61f01f8484038661ba3390919063ffffffff16565b915061f10c565b61f0527fa539d0aab5f41da94df7c5bc7b3efdfc51c4d72788c3aa69e384ee32cda3ef0f60001b612410565b61f07e7ffdf3462258b7dd514f4034f995aff880910e212a739d0314c6e26d304c2facd260001b612410565b61f0aa7fdae977434b55355e0a66dc723bbd327979af3a012ca4d3e1895ba05754b34d2160001b612410565b6000915061f0da7fe29d524f800aab3511251d4f7d044da6c0a5974d14d1a27c9aae6e3d1a92601560001b612410565b61f1067fa021e0115f3666ff2a3ec0383636ac4328804f047d67f640a732319c8ee448bb60001b612410565b82840390505b61f207565b61f13d7fe7e65ecea1476a4e79a64e0fe725cf7dc16de8aa78348e0ac2b33a3ba4a91b3060001b612410565b61f1697f85f14f911ed23143a73575fad8c0419fb933174d1443fa37b98dda046b8c726d60001b612410565b61f1957fa8adbb1b03d461c8fc97e52ed477eea11f5d177a7665c59bf5d0f7a183933b9b60001b612410565b61f1a8838661ba3390919063ffffffff16565b915061f1d67fc75b36ac25e6d106f11da737f7ed254b6e38e109e39c7f21bb95d971988e7b6f60001b612410565b61f2027f83e2737c55df40f875a68fc2094c0a5432a5e936c61cfb6926ac34e9a15e519960001b612410565b600090505b935093915050565b606061f21e848460008561f227565b90509392505050565b60608247101561f282576040517f08c379a000000000000000000000000000000000000000000000000000000000815260040180806020018281038252602681526020018061f7356026913960400191505060405180910390fd5b61f28b8561e80a565b61f2fd576040517f08c379a000000000000000000000000000000000000000000000000000000000815260040180806020018281038252601d8152602001807f416464726573733a2063616c6c20746f206e6f6e2d636f6e747261637400000081525060200191505060405180910390fd5b600060608673ffffffffffffffffffffffffffffffffffffffff1685876040518082805190602001908083835b6020831061f34d578051825260208201915060208101905060208303925061f32a565b6001836020036101000a03801982511681845116808217855250505050505090500191505060006040518083038185875af1925050503d806000811461f3af576040519150601f19603f3d011682016040523d82523d6000602084013e61f3b4565b606091505b509150915061f3c482828661f3d0565b92505050949350505050565b6060831561f3e05782905061f495565b60008351111561f3f35782518084602001fd5b816040517f08c379a00000000000000000000000000000000000000000000000000000000081526004018080602001828103825283818151815260200191508051906020019080838360005b8381101561f45a57808201518184015260208101905061f43f565b50505050905090810190601f16801561f4875780820380516001836020036101000a031916815260200191505b509250505060405180910390fd5b9392505050565b6040518061010001604052806000815260200160008152602001600073ffffffffffffffffffffffffffffffffffffffff1681526020016000600281111561f4e057fe5b815260200160006dffffffffffffffffffffffffffff16815260200160006dffffffffffffffffffffffffffff16815260200160006dffffffffffffffffffffffffffff16815260200160006dffffffffffffffffffffffffffff1681525090565b6000601f19601f8301169050919050565b60008160e01c9050919050565b600060443d101561f5705761f613565b60046000803e61f58160005161f553565b6308c379a0811461f592575061f613565b60405160043d036004823e80513d602482011167ffffffffffffffff8211171561f5be5750505061f613565b808201805167ffffffffffffffff81111561f5dd57505050505061f613565b8060208301013d850181111561f5f85750505050505061f613565b61f6018261f542565b60208401016040528296505050505050505b9056fe455243313135353a207472616e7366657220746f206e6f6e2045524331313535526563656976657220696d706c656d656e746572455243313135353a204552433131353552656365697665722072656a656374656420746f6b656e734d6f6e6f737761703a20494e53554646494349454e545f4f55545055545f414d4f554e54455243313135353a2062616c616e636520717565727920666f7220746865207a65726f20616464726573734f776e61626c653a206e6577206f776e657220697320746865207a65726f2061646472657373455243313135353a206275726e20616d6f756e7420657863656564732062616c616e6365455243313135353a2063616c6c6572206973206e6f74206f776e6572206e6f7220617070726f766564416464726573733a20696e73756666696369656e742062616c616e636520666f722063616c6c455243313135353a207472616e7366657220746f20746865207a65726f2061646472657373455243313135353a207472616e736665722063616c6c6572206973206e6f74206f776e6572206e6f7220617070726f766564455243313135353a206275726e2066726f6d20746865207a65726f2061646472657373455243313135353a20696e73756666696369656e742062616c616e636520666f72207472616e73666572536166654d6174683a206d756c7469706c69636174696f6e206f766572666c6f774d6f6e6f737761703a20756e6f6666696369616c20706f6f6c2063616e6e6f74206265617220646562744d6f6e6f737761703a20494e53554646494349454e545f494e5055545f414d4f554e54455243313135353a2073657474696e6720617070726f76616c2073746174757320666f722073656c665361666545524332303a204552433230206f7065726174696f6e20646964206e6f742073756363656564455243313135353a206163636f756e747320616e6420696473206c656e677468206d69736d61746368455243313135353a2069647320616e6420616d6f756e7473206c656e677468206d69736d61746368455243313135353a206d696e7420746f20746865207a65726f20616464726573734d6f6e6f737761703a204c65737320746f6b656e20616d6f756e74207468616e2064657369726564a264697066735822122049dc3021efeabd012b74b49591e872da4b1ae713676a3f973bcd5fd172dce1d064736f6c634300060c0033",
  "linkReferences": {},
  "deployedLinkReferences": {}
}