{
  "_format": "hh-sol-artifact-1",
  "contractName": "Monoswap",
  "sourceName": "contracts/Monoswap.sol",
  "abi": [
    {
      "anonymous": false,
      "inputs": [
        {
          "indexed": true,
          "internalType": "address",
          "name": "provider",
          "type": "address"
        },
        {
          "indexed": true,
          "internalType": "uint256",
          "name": "pid",
          "type": "uint256"
        },
        {
          "indexed": true,
          "internalType": "address",
          "name": "token",
          "type": "address"
        },
        {
          "indexed": false,
          "internalType": "uint256",
          "name": "liquidityAmount",
          "type": "uint256"
        },
        {
          "indexed": false,
          "internalType": "uint256",
          "name": "vusdAmount",
          "type": "uint256"
        },
        {
          "indexed": false,
          "internalType": "uint256",
          "name": "tokenAmount",
          "type": "uint256"
        }
      ],
      "name": "AddLiquidity",
      "type": "event"
    },
    {
      "anonymous": false,
      "inputs": [
        {
          "indexed": true,
          "internalType": "address",
          "name": "previousOwner",
          "type": "address"
        },
        {
          "indexed": true,
          "internalType": "address",
          "name": "newOwner",
          "type": "address"
        }
      ],
      "name": "OwnershipTransferred",
      "type": "event"
    },
    {
      "anonymous": false,
      "inputs": [
        {
          "indexed": true,
          "internalType": "address",
          "name": "provider",
          "type": "address"
        },
        {
          "indexed": true,
          "internalType": "uint256",
          "name": "pid",
          "type": "uint256"
        },
        {
          "indexed": true,
          "internalType": "address",
          "name": "token",
          "type": "address"
        },
        {
          "indexed": false,
          "internalType": "uint256",
          "name": "liquidityAmount",
          "type": "uint256"
        },
        {
          "indexed": false,
          "internalType": "uint256",
          "name": "vusdAmount",
          "type": "uint256"
        },
        {
          "indexed": false,
          "internalType": "uint256",
          "name": "tokenAmount",
          "type": "uint256"
        }
      ],
      "name": "RemoveLiquidity",
      "type": "event"
    },
    {
      "anonymous": false,
      "inputs": [
        {
          "indexed": true,
          "internalType": "address",
          "name": "user",
          "type": "address"
        },
        {
          "indexed": true,
          "internalType": "address",
          "name": "tokenIn",
          "type": "address"
        },
        {
          "indexed": true,
          "internalType": "address",
          "name": "tokenOut",
          "type": "address"
        },
        {
          "indexed": false,
          "internalType": "uint256",
          "name": "amountIn",
          "type": "uint256"
        },
        {
          "indexed": false,
          "internalType": "uint256",
          "name": "amountOut",
          "type": "uint256"
        }
      ],
      "name": "Swap",
      "type": "event"
    },
    {
      "inputs": [
        {
          "internalType": "address",
          "name": "_token",
          "type": "address"
        },
        {
          "internalType": "uint256",
          "name": "liquidity",
          "type": "uint256"
        },
        {
          "internalType": "address",
          "name": "to",
          "type": "address"
        }
      ],
      "name": "_removeLiquidity",
      "outputs": [
        {
          "internalType": "uint256",
          "name": "poolValue",
          "type": "uint256"
        },
        {
          "internalType": "uint256",
          "name": "liquidityIn",
          "type": "uint256"
        },
        {
          "internalType": "uint256",
          "name": "vusdOut",
          "type": "uint256"
        },
        {
          "internalType": "uint256",
          "name": "tokenOut",
          "type": "uint256"
        }
      ],
      "stateMutability": "view",
      "type": "function"
    },
    {
      "inputs": [
        {
          "internalType": "address",
          "name": "_token",
          "type": "address"
        },
        {
          "internalType": "uint256",
          "name": "_amount",
          "type": "uint256"
        },
        {
          "internalType": "address",
          "name": "to",
          "type": "address"
        }
      ],
      "name": "addLiquidity",
      "outputs": [
        {
          "internalType": "uint256",
          "name": "liquidity",
          "type": "uint256"
        }
      ],
      "stateMutability": "nonpayable",
      "type": "function"
    },
    {
      "inputs": [
        {
          "internalType": "address",
          "name": "_token",
          "type": "address"
        },
        {
          "internalType": "uint256",
          "name": "vusdAmount",
          "type": "uint256"
        },
        {
          "internalType": "uint256",
          "name": "tokenAmount",
          "type": "uint256"
        },
        {
          "internalType": "address",
          "name": "to",
          "type": "address"
        }
      ],
      "name": "addLiquidityPair",
      "outputs": [
        {
          "internalType": "uint256",
          "name": "liquidity",
          "type": "uint256"
        }
      ],
      "stateMutability": "nonpayable",
      "type": "function"
    },
    {
      "inputs": [
        {
          "internalType": "address",
          "name": "_token",
          "type": "address"
        },
        {
          "internalType": "uint112",
          "name": "_price",
          "type": "uint112"
        }
      ],
      "name": "addOfficialToken",
      "outputs": [
        {
          "internalType": "uint256",
          "name": "_pid",
          "type": "uint256"
        }
      ],
      "stateMutability": "nonpayable",
      "type": "function"
    },
    {
      "inputs": [
        {
          "internalType": "address",
          "name": "account",
          "type": "address"
        },
        {
          "internalType": "uint256",
          "name": "id",
          "type": "uint256"
        }
      ],
      "name": "balanceOf",
      "outputs": [
        {
          "internalType": "uint256",
          "name": "",
          "type": "uint256"
        }
      ],
      "stateMutability": "view",
      "type": "function"
    },
    {
      "inputs": [
        {
          "internalType": "address",
          "name": "tokenIn",
          "type": "address"
        },
        {
          "internalType": "address",
          "name": "tokenOut",
          "type": "address"
        },
        {
          "internalType": "uint256",
          "name": "amountOut",
          "type": "uint256"
        }
      ],
      "name": "getAmountIn",
      "outputs": [
        {
          "internalType": "uint256",
          "name": "tokenInPrice",
          "type": "uint256"
        },
        {
          "internalType": "uint256",
          "name": "tokenOutPrice",
          "type": "uint256"
        },
        {
          "internalType": "uint256",
          "name": "amountIn",
          "type": "uint256"
        },
        {
          "internalType": "uint256",
          "name": "tradeVusdValue",
          "type": "uint256"
        }
      ],
      "stateMutability": "view",
      "type": "function"
    },
    {
      "inputs": [
        {
          "internalType": "address",
          "name": "tokenIn",
          "type": "address"
        },
        {
          "internalType": "address",
          "name": "tokenOut",
          "type": "address"
        },
        {
          "internalType": "uint256",
          "name": "amountIn",
          "type": "uint256"
        }
      ],
      "name": "getAmountOut",
      "outputs": [
        {
          "internalType": "uint256",
          "name": "tokenInPrice",
          "type": "uint256"
        },
        {
          "internalType": "uint256",
          "name": "tokenOutPrice",
          "type": "uint256"
        },
        {
          "internalType": "uint256",
          "name": "amountOut",
          "type": "uint256"
        },
        {
          "internalType": "uint256",
          "name": "tradeVusdValue",
          "type": "uint256"
        }
      ],
      "stateMutability": "view",
      "type": "function"
    },
    {
      "inputs": [
        {
          "internalType": "address",
          "name": "_token",
          "type": "address"
        }
      ],
      "name": "getPool",
      "outputs": [
        {
          "internalType": "uint256",
          "name": "poolValue",
          "type": "uint256"
        },
        {
          "internalType": "uint256",
          "name": "tokenBalanceVusdValue",
          "type": "uint256"
        },
        {
          "internalType": "uint256",
          "name": "vusdCredit",
          "type": "uint256"
        },
        {
          "internalType": "uint256",
          "name": "vusdDebt",
          "type": "uint256"
        }
      ],
      "stateMutability": "view",
      "type": "function"
    },
    {
      "inputs": [
        {
          "internalType": "contract MonoXPool",
          "name": "_monoXPool",
          "type": "address"
        },
        {
          "internalType": "contract IvUSD",
          "name": "_vusd",
          "type": "address"
        }
      ],
      "name": "initialize",
      "outputs": [],
      "stateMutability": "nonpayable",
      "type": "function"
    },
    {
      "inputs": [
        {
          "internalType": "address",
          "name": "_token",
          "type": "address"
        },
        {
          "internalType": "uint112",
          "name": "_price",
          "type": "uint112"
        },
        {
          "internalType": "uint256",
          "name": "vusdAmount",
          "type": "uint256"
        },
        {
          "internalType": "uint256",
          "name": "tokenAmount",
          "type": "uint256"
        },
        {
          "internalType": "address",
          "name": "to",
          "type": "address"
        }
      ],
      "name": "listNewToken",
      "outputs": [
        {
          "internalType": "uint256",
          "name": "_pid",
          "type": "uint256"
        },
        {
          "internalType": "uint256",
          "name": "liquidity",
          "type": "uint256"
        }
      ],
      "stateMutability": "nonpayable",
      "type": "function"
    },
    {
      "inputs": [],
      "name": "monoXPool",
      "outputs": [
        {
          "internalType": "contract MonoXPool",
          "name": "",
          "type": "address"
        }
      ],
      "stateMutability": "view",
      "type": "function"
    },
    {
      "inputs": [],
      "name": "owner",
      "outputs": [
        {
          "internalType": "address",
          "name": "",
          "type": "address"
        }
      ],
      "stateMutability": "view",
      "type": "function"
    },
    {
      "inputs": [],
      "name": "poolSize",
      "outputs": [
        {
          "internalType": "uint256",
          "name": "",
          "type": "uint256"
        }
      ],
      "stateMutability": "view",
      "type": "function"
    },
    {
      "inputs": [
        {
          "internalType": "address",
          "name": "",
          "type": "address"
        }
      ],
      "name": "pools",
      "outputs": [
        {
          "internalType": "uint256",
          "name": "pid",
          "type": "uint256"
        },
        {
          "internalType": "uint256",
          "name": "lastPoolValue",
          "type": "uint256"
        },
        {
          "internalType": "address",
          "name": "token",
          "type": "address"
        },
        {
          "internalType": "enum Monoswap.PoolStatus",
          "name": "status",
          "type": "uint8"
        },
        {
          "internalType": "uint112",
          "name": "vusdDebt",
          "type": "uint112"
        },
        {
          "internalType": "uint112",
          "name": "vusdCredit",
          "type": "uint112"
        },
        {
          "internalType": "uint112",
          "name": "tokenBalance",
          "type": "uint112"
        },
        {
          "internalType": "uint112",
          "name": "price",
          "type": "uint112"
        }
      ],
      "stateMutability": "view",
      "type": "function"
    },
    {
      "inputs": [
        {
          "internalType": "address",
          "name": "_token",
          "type": "address"
        },
        {
          "internalType": "uint256",
          "name": "liquidity",
          "type": "uint256"
        },
        {
          "internalType": "address",
          "name": "to",
          "type": "address"
        },
        {
          "internalType": "uint256",
          "name": "minVusdOut",
          "type": "uint256"
        },
        {
          "internalType": "uint256",
          "name": "minTokenOut",
          "type": "uint256"
        }
      ],
      "name": "removeLiquidity",
      "outputs": [
        {
          "internalType": "uint256",
          "name": "vusdOut",
          "type": "uint256"
        },
        {
          "internalType": "uint256",
          "name": "tokenOut",
          "type": "uint256"
        }
      ],
      "stateMutability": "nonpayable",
      "type": "function"
    },
    {
      "inputs": [],
      "name": "renounceOwnership",
      "outputs": [],
      "stateMutability": "nonpayable",
      "type": "function"
    },
    {
      "inputs": [
        {
          "internalType": "uint16",
          "name": "_devFee",
          "type": "uint16"
        }
      ],
      "name": "setDevFee",
      "outputs": [],
      "stateMutability": "nonpayable",
      "type": "function"
    },
    {
      "inputs": [
        {
          "internalType": "address",
          "name": "_feeTo",
          "type": "address"
        }
      ],
      "name": "setFeeTo",
      "outputs": [],
      "stateMutability": "nonpayable",
      "type": "function"
    },
    {
      "inputs": [
        {
          "internalType": "uint16",
          "name": "_fees",
          "type": "uint16"
        }
      ],
      "name": "setFees",
      "outputs": [],
      "stateMutability": "nonpayable",
      "type": "function"
    },
    {
      "inputs": [
        {
          "internalType": "address",
          "name": "tokenIn",
          "type": "address"
        },
        {
          "internalType": "address",
          "name": "tokenOut",
          "type": "address"
        },
        {
          "internalType": "uint256",
          "name": "amountIn",
          "type": "uint256"
        },
        {
          "internalType": "uint256",
          "name": "amountOutMin",
          "type": "uint256"
        },
        {
          "internalType": "address",
          "name": "to",
          "type": "address"
        },
        {
          "internalType": "uint256",
          "name": "deadline",
          "type": "uint256"
        }
      ],
      "name": "swapExactTokenForToken",
      "outputs": [
        {
          "internalType": "uint256",
          "name": "amountOut",
          "type": "uint256"
        }
      ],
      "stateMutability": "nonpayable",
      "type": "function"
    },
    {
      "inputs": [
        {
          "internalType": "address",
          "name": "tokenIn",
          "type": "address"
        },
        {
          "internalType": "address",
          "name": "tokenOut",
          "type": "address"
        },
        {
          "internalType": "address",
          "name": "to",
          "type": "address"
        },
        {
          "internalType": "uint256",
          "name": "amountIn",
          "type": "uint256"
        }
      ],
      "name": "swapIn",
      "outputs": [
        {
          "internalType": "uint256",
          "name": "amountOut",
          "type": "uint256"
        }
      ],
      "stateMutability": "nonpayable",
      "type": "function"
    },
    {
      "inputs": [
        {
          "internalType": "address",
          "name": "tokenIn",
          "type": "address"
        },
        {
          "internalType": "address",
          "name": "tokenOut",
          "type": "address"
        },
        {
          "internalType": "address",
          "name": "to",
          "type": "address"
        },
        {
          "internalType": "uint256",
          "name": "amountOut",
          "type": "uint256"
        }
      ],
      "name": "swapOut",
      "outputs": [
        {
          "internalType": "uint256",
          "name": "amountIn",
          "type": "uint256"
        }
      ],
      "stateMutability": "nonpayable",
      "type": "function"
    },
    {
      "inputs": [
        {
          "internalType": "address",
          "name": "tokenIn",
          "type": "address"
        },
        {
          "internalType": "address",
          "name": "tokenOut",
          "type": "address"
        },
        {
          "internalType": "uint256",
          "name": "amountInMax",
          "type": "uint256"
        },
        {
          "internalType": "uint256",
          "name": "amountOut",
          "type": "uint256"
        },
        {
          "internalType": "address",
          "name": "to",
          "type": "address"
        },
        {
          "internalType": "uint256",
          "name": "deadline",
          "type": "uint256"
        }
      ],
      "name": "swapTokenForExactToken",
      "outputs": [
        {
          "internalType": "uint256",
          "name": "amountIn",
          "type": "uint256"
        }
      ],
      "stateMutability": "nonpayable",
      "type": "function"
    },
    {
      "inputs": [
        {
          "internalType": "address",
          "name": "",
          "type": "address"
        }
      ],
      "name": "tokenPoolStatus",
      "outputs": [
        {
          "internalType": "uint8",
          "name": "",
          "type": "uint8"
        }
      ],
      "stateMutability": "view",
      "type": "function"
    },
    {
      "inputs": [
        {
          "internalType": "uint256",
          "name": "",
          "type": "uint256"
        }
      ],
      "name": "totalSupply",
      "outputs": [
        {
          "internalType": "uint256",
          "name": "",
          "type": "uint256"
        }
      ],
      "stateMutability": "view",
      "type": "function"
    },
    {
      "inputs": [
        {
          "internalType": "address",
          "name": "newOwner",
          "type": "address"
        }
      ],
      "name": "transferOwnership",
      "outputs": [],
      "stateMutability": "nonpayable",
      "type": "function"
    }
  ],
  "bytecode": "0x608060405234801561001057600080fd5b50613c6d806100206000396000f3fe608060405234801561001057600080fd5b506004361061013c5760003560e01c8062c2408714610141578062fdd58e1461019a578063138d03cd146101d85780631a9fe17e146102205780631b8793781461025c578063485cc955146102925780634aa06652146102c25780634ec18db91461031e57806353b609b514610326578063556ca7091461035c5780635dd44a6d14610396578063715018a6146103de5780638411b1e2146103e65780638da5cb5b1461040a578063a4063dbc14610412578063b2421178146104b7578063bbe4f6db146104ed578063bd85b03914610513578063c22b53be14610530578063c48caa701461056c578063ca1123c2146105a1578063d56468ac146105c2578063e18cb4fe1461060d578063e4df1c431461062e578063f2fde38b1461066a578063f46901ed14610690575b600080fd5b610181600480360360a081101561015757600080fd5b506001600160a01b03813581169160208101359160408201351690606081013590608001356106b6565b6040805192835260208301919091528051918290030190f35b6101c6600480360360408110156101b057600080fd5b506001600160a01b03813516906020013561099a565b60408051918252519081900360200190f35b6101c6600480360360c08110156101ee57600080fd5b506001600160a01b03813581169160208101358216916040820135916060810135916080820135169060a00135610a25565b6102466004803603602081101561023657600080fd5b50356001600160a01b0316610adf565b6040805160ff9092168252519081900360200190f35b6101c66004803603606081101561027257600080fd5b506001600160a01b03813581169160208101359160409091013516610af4565b6102c0600480360360408110156102a857600080fd5b506001600160a01b0381358116916020013516610b0b565b005b6102f8600480360360608110156102d857600080fd5b506001600160a01b03813581169160208101359091169060400135610c15565b604080519485526020850193909352838301919091526060830152519081900360800190f35b6101c6610f4b565b6102f86004803603606081101561033c57600080fd5b506001600160a01b03813581169160208101359091169060400135610f51565b6101c66004803603608081101561037257600080fd5b506001600160a01b038135811691602081013591604082013591606001351661126f565b6101c6600480360360c08110156103ac57600080fd5b506001600160a01b03813581169160208101358216916040820135916060810135916080820135169060a00135611523565b6102c06115bc565b6103ee611656565b604080516001600160a01b039092168252519081900360200190f35b6103ee611665565b6104386004803603602081101561042857600080fd5b50356001600160a01b0316611674565b60405180898152602001888152602001876001600160a01b0316815260200186600281111561046357fe5b8152602001856001600160701b03168152602001846001600160701b03168152602001836001600160701b03168152602001826001600160701b031681526020019850505050505050505060405180910390f35b6102f8600480360360608110156104cd57600080fd5b506001600160a01b038135811691602081013591604090910135166116d6565b6102f86004803603602081101561050357600080fd5b50356001600160a01b0316611a68565b6101c66004803603602081101561052957600080fd5b5035611b7d565b6101c66004803603608081101561054657600080fd5b506001600160a01b03813581169160208101358216916040820135169060600135611b8f565b6101c66004803603604081101561058257600080fd5b5080356001600160a01b031690602001356001600160701b0316612054565b6102c0600480360360208110156105b757600080fd5b503561ffff166120cb565b610181600480360360a08110156105d857600080fd5b506001600160a01b0381358116916001600160701b03602082013516916040820135916060810135916080909101351661219a565b6102c06004803603602081101561062357600080fd5b503561ffff166121c3565b6101c66004803603608081101561064457600080fd5b506001600160a01b03813581169160208101358216916040820135169060600135612294565b6102c06004803603602081101561068057600080fd5b50356001600160a01b03166126e6565b6102c0600480360360208110156106a657600080fd5b50356001600160a01b03166127d7565b6001600160a01b0385166000908152606a6020526040812054819060ff16600114610716576040805162461bcd60e51b81526020600482015260196024820152600080516020613aca833981519152604482015290519081900360640190fd5b6001600160a01b038781166000908152606860209081526040808320815161010081018352815481526001820154938101939093526002808201549586169284019290925292939192916060840191600160a01b90910460ff169081111561077a57fe5b600281111561078557fe5b815260038201546001600160701b038082166020840152600160701b918290048116604084015260049093015480841660608401520490911660809091015290506000806107d48a8a8a6116d6565b865160208801519299509097509294509092506107f291908461285b565b86851015610847576040805162461bcd60e51b815260206004820181905260248201527f4d6f6e6f737761703a204c6573732076555344207468616e2064657369726564604482015290519081900360640190fd5b858410156108865760405162461bcd60e51b8152600401808060200182810382526028815260200180613c106028913960400191505060405180910390fd5b84156108fa57606554604080516340c10f1960e01b81526001600160a01b038b8116600483015260248201899052915191909216916340c10f1991604480830192600092919082900301818387803b1580156108e157600080fd5b505af11580156108f5573d6000803e3d6000fd5b505050505b61090e6001600160a01b038b168986612939565b61091d8884600001518361298b565b6109298a600087612a2c565b50505050896001600160a01b03168360000151896001600160a01b03167fab577bf53edf8e035c53859461bfaac55e75b9380a594cc487ae89665d7788f284898960405180848152602001838152602001828152602001935050505060405180910390a45050509550959350505050565b606d5460408051627eeac760e11b81526001600160a01b038581166004830152602482018590529151600093929092169162fdd58e91604480820192602092909190829003018186803b1580156109f057600080fd5b505afa158015610a04573d6000803e3d6000fd5b505050506040513d6020811015610a1a57600080fd5b505190505b92915050565b60008142811015610a71576040805162461bcd60e51b8152602060048201526011602482015270135bdb9bdcddd85c0e8811561412549151607a1b604482015290519081900360640190fd5b610a7d88888688611b8f565b915085821115610ad4576040805162461bcd60e51b815260206004820181905260248201527f4d6f6e6f737761703a204558434553534956455f494e5055545f414d4f554e54604482015290519081900360640190fd5b509695505050505050565b606a6020526000908152604090205460ff1681565b6000610b03846000858561126f565b949350505050565b600054610100900460ff1680610b245750610b24612c79565b80610b32575060005460ff16155b610b6d5760405162461bcd60e51b815260040180806020018281038252602e815260200180613b0a602e913960400191505060405180910390fd5b600054610100900460ff16158015610b98576000805460ff1961ff0019909116610100171660011790555b610ba0612c8a565b606d80546001600160a01b03199081166001600160a01b0386811691909117909255606580549091169184169190911790556066805461ffff60a01b1916604b60a21b1761ffff60b01b1916601960b11b1790556000606b556001606c558015610c10576000805461ff00191690555b505050565b60008060008060008511610c5a5760405162461bcd60e51b8152600401808060200182810382526023815260200180613bc36023913960400191505060405180910390fd5b606654600090620186a090610c82908890600160a01b900461ffff16830362ffffff16612d3c565b81610c8957fe5b60655491900491506001600160a01b03908116908916811415610cb957819250670de0b6b3a76400009550610dd8565b6001600160a01b0389166000908152606a602052604090205460ff16600114610d17576040805162461bcd60e51b81526020600482015260196024820152600080516020613aca833981519152604482015290519081900360640190fd5b6001600160a01b03891660009081526068602052604081206002810154600490910154600160a01b90910460ff1691600160701b82046001600160701b03908116921690836002811115610d6757fe5b1415610da8576040805162461bcd60e51b81526020600482015260176024820152600080516020613aea833981519152604482015290519081900360640190fd5b610db58282876000612d95565b9850670de0b6b3a7640000610dca8a87612d3c565b81610dd157fe5b0495505050505b806001600160a01b0316886001600160a01b03161415610e0557829350670de0b6b3a76400009450610f40565b6001600160a01b0388166000908152606a602052604090205460ff16600114610e63576040805162461bcd60e51b81526020600482015260196024820152600080516020613aca833981519152604482015290519081900360640190fd5b6001600160a01b03881660009081526068602052604081206002810154600490910154600160a01b90910460ff1691600160701b82046001600160701b03908116921690836002811115610eb357fe5b1415610ef4576040805162461bcd60e51b81526020600482015260176024820152600080516020613aea833981519152604482015290519081900360640190fd5b6000610f1283610f0c89670de0b6b3a7640000612d3c565b90612ded565b9050610f218383836001612d95565b9850610f3989610f0c89670de0b6b3a7640000612d3c565b9750505050505b505093509350935093565b606b5481565b60008060008060008511610f965760405162461bcd60e51b8152600401808060200182810382526023815260200180613bc36023913960400191505060405180910390fd5b606654600090620186a090610fbe908890600160a01b900461ffff16830162ffffff16612d3c565b81610fc557fe5b60655491900491506001600160a01b03908116908816811415610ff557819250670de0b6b3a76400009450611114565b6001600160a01b0388166000908152606a602052604090205460ff16600114611053576040805162461bcd60e51b81526020600482015260196024820152600080516020613aca833981519152604482015290519081900360640190fd5b6001600160a01b03881660009081526068602052604081206002810154600490910154600160a01b90910460ff1691600160701b82046001600160701b039081169216908360028111156110a357fe5b14156110e4576040805162461bcd60e51b81526020600482015260176024820152600080516020613aea833981519152604482015290519081900360640190fd5b6110f18282876001612d95565b9750670de0b6b3a76400006111068987612d3c565b8161110d57fe5b0495505050505b806001600160a01b0316896001600160a01b0316141561114157829350670de0b6b3a76400009550610f40565b6001600160a01b0389166000908152606a602052604090205460ff1660011461119f576040805162461bcd60e51b81526020600482015260196024820152600080516020613aca833981519152604482015290519081900360640190fd5b6001600160a01b03891660009081526068602052604081206002810154600490910154600160a01b90910460ff1691600160701b82046001600160701b039081169216908360028111156111ef57fe5b1415611230576040805162461bcd60e51b81526020600482015260176024820152600080516020613aea833981519152604482015290519081900360640190fd5b600061124883610f0c89670de0b6b3a7640000612d3c565b90506112578383836000612d95565b9950610f398a610f0c89670de0b6b3a7640000612d3c565b60008083116112bc576040805162461bcd60e51b8152602060048201526014602482015273135bdb9bdcddd85c0e8810985908105b5bdd5b9d60621b604482015290519081900360640190fd5b6001600160a01b0385166000908152606a602052604090205460ff16600114611320576040805162461bcd60e51b8152602060048201526011602482015270135bdb9bdcddd85c0e88139bc81c1bdbdb607a1b604482015290519081900360640190fd5b600061132b86611a68565b5050506001600160a01b03878116600090815260686020908152604080832081516101008101835281548152600182015493810193909352600280820154958616928401929092529495509193909290916060840191600160a01b900460ff169081111561139557fe5b60028111156113a057fe5b815260038201546001600160701b03808216602080850191909152600160701b9283900482166040850152600490940154808216606085015291909104166080909101528151908201519192506113f7918461285b565b805160009081526067602052604090205461141d6001600160a01b038916333089612e51565b861561143b5760655461143b906001600160a01b031633308a612e51565b6000611479670de0b6b3a76400006114698560e001516001600160701b03168a612d3c90919063ffffffff16565b8161147057fe5b8a919004612eab565b9050816114935761148c816103e8612f03565b94506114a4565b6114a184610f0c8484612d3c565b94505b6114b386846000015187612f60565b6114bf89896000612a2c565b5050845160408051898152602081018d90528082018c905290516001600160a01b03808f169550929350918a16917f166ddb815a41f60899d37e5c34db8f6cd53a5c65da870fcc7315af673878562a9181900360600190a450505050949350505050565b6000814281101561156f576040805162461bcd60e51b8152602060048201526011602482015270135bdb9bdcddd85c0e8811561412549151607a1b604482015290519081900360640190fd5b61157b88888689612294565b915084821015610ad45760405162461bcd60e51b8152600401808060200182810382526024815260200180613a806024913960400191505060405180910390fd5b6115c4612fe4565b6001600160a01b03166115d5611665565b6001600160a01b03161461161e576040805162461bcd60e51b81526020600482018190526024820152600080516020613b83833981519152604482015290519081900360640190fd5b6033546040516000916001600160a01b031690600080516020613ba3833981519152908390a3603380546001600160a01b0319169055565b606d546001600160a01b031681565b6033546001600160a01b031690565b60686020526000908152604090208054600182015460028301546003840154600490940154929391926001600160a01b03821692600160a01b90920460ff16916001600160701b0380821692600160701b928390048216928282169291041688565b60008060008060008611611728576040805162461bcd60e51b8152602060048201526014602482015273135bdb9bdcddd85c0e8810985908105b5bdd5b9d60621b604482015290519081900360640190fd5b6001600160a01b0387811660009081526068602090815260408083208151610100810183528154815260018201549381019390935260028082015495861692840192909252929384938493849390926060840191600160a01b90910460ff169081111561179157fe5b600281111561179c57fe5b815260038201546001600160701b038082166020840152600160701b918290048116604084015260049093015480841660608401520490911660809091015290506117e68b611a68565b809550819650829750839b5050505050600060676000836000015181526020019081526020016000205490508a606d60009054906101000a90046001600160a01b03166001600160a01b031662fdd58e8c85600001516040518363ffffffff1660e01b815260040180836001600160a01b031681526020018281526020019250505060206040518083038186803b15801561188057600080fd5b505afa158015611894573d6000803e3d6000fd5b505050506040513d60208110156118aa57600080fd5b50511161193757606d54825160408051627eeac760e11b81526001600160a01b038e8116600483015260248201939093529051919092169162fdd58e916044808301926020929190829003018186803b15801561190657600080fd5b505afa15801561191a573d6000803e3d6000fd5b505050506040513d602081101561193057600080fd5b5051611939565b8a5b975060008c6001600160a01b03166370a08231306040518263ffffffff1660e01b815260040180826001600160a01b0316815260200191505060206040518083038186803b15801561198a57600080fd5b505afa15801561199e573d6000803e3d6000fd5b505050506040513d60208110156119b457600080fd5b505160c08401519091506001600160701b0316811015611a0257670de0b6b3a76400006119f78460e001516001600160701b031683612d3c90919063ffffffff16565b816119fe57fe5b0495505b8315611a395760e0830151611a36906001600160701b0316610f0c670de0b6b3a7640000611a308a89612f03565b90612d3c565b90505b611a4782610f0c8b88612d3c565b9750611a5782610f0c8b84612d3c565b965050505050505093509350935093565b6001600160a01b0381811660009081526068602090815260408083208151610100810183528154815260018201549381019390935260028082015495861692840192909252929384938493849384939192916060840191600160a01b90910460ff1690811115611ad457fe5b6002811115611adf57fe5b815260038201546001600160701b038082166020840152600160701b9182900481166040840152600490930154808416606084015204821660809182015260a08301519083015160c084015160e085015192841697509083169550929350670de0b6b3a764000092611b55929182169116612d3c565b81611b5c57fe5b049350611b7382611b6d8686612eab565b90612f03565b9450509193509193565b60676020526000908152604090205481565b6001600160a01b038416600090815260696020526040812054859060ff166001811415611bfb576040805162461bcd60e51b8152602060048201526015602482015274135bdb9bdcddd85c0e881413d3d3081313d0d2d151605a1b604482015290519081900360640190fd5b60ff8116611c27576001600160a01b0382166000908152606960205260409020805460ff191660011790555b6065546001600160a01b031660008080611c428b8b8a610f51565b6001600160a01b038f16600090815260696020526040902054919a5092955090935090915060ff1660021415611c8c57611c876001600160a01b038c1633308a612e51565b611dfa565b60008b6001600160a01b03166370a08231306040518263ffffffff1660e01b815260040180826001600160a01b0316815260200191505060206040518083038186803b158015611cdb57600080fd5b505afa158015611cef573d6000803e3d6000fd5b505050506040513d6020811015611d0557600080fd5b50519050611d1e6001600160a01b038d1633308b612e51565b60008c6001600160a01b03166370a08231306040518263ffffffff1660e01b815260040180826001600160a01b0316815260200191505060206040518083038186803b158015611d6d57600080fd5b505afa158015611d81573d6000803e3d6000fd5b505050506040513d6020811015611d9757600080fd5b50519050611da58183612f03565b891015611df7576040805162461bcd60e51b815260206004820152601b60248201527a4d6f6e6f737761703a204e6f7420456e6f75676820546f6b656e7360281b604482015290519081900360640190fd5b50505b60665460009062030d4090611e1b908a90600160a01b900461ffff16612d3c565b81611e2257fe5b0490506000670de0b6b3a7640000611e3a8684612d3c565b81611e4157fe5b049050856001600160a01b03168d6001600160a01b03161415611edf5760408051632770a7eb60e21b8152306004820152602481018b905290516001600160a01b03881691639dc29fac91604480830192600092919082900301818387803b158015611eac57600080fd5b505af1158015611ec0573d6000803e3d6000fd5b50505050611ed8600282612d3c90919063ffffffff16565b9050611ef5565b611ef58d866000611ef08786612eab565b612fe8565b856001600160a01b03168c6001600160a01b03161415611f9157856001600160a01b03166340c10f198c8c6040518363ffffffff1660e01b815260040180836001600160a01b0316815260200182815260200192505050600060405180830381600087803b158015611f6657600080fd5b505af1158015611f7a573d6000803e3d6000fd5b50505050611f8a8d826000613117565b5050611fbb565b611fa56001600160a01b038d168c8c612939565b611fbb8c85611fb48685612eab565b6000612fe8565b8b6001600160a01b03168d6001600160a01b03168c6001600160a01b03167fcd3829a3813dc3cdd188fd3d01dcf3268c16be2fdd2dd21d0665418816e460628c8e604051808381526020018281526020019250505060405180910390a4505050505060ff82161515905061204a576001600160a01b0382166000908152606960205260409020805460ff191690555b5050949350505050565b600061205e612fe4565b6001600160a01b031661206f611665565b6001600160a01b0316146120b8576040805162461bcd60e51b81526020600482018190526024820152600080516020613b83833981519152604482015290519081900360640190fd5b6120c483836002613359565b9392505050565b6120d3612fe4565b6001600160a01b03166120e4611665565b6001600160a01b03161461212d576040805162461bcd60e51b81526020600482018190526024820152600080516020613b83833981519152604482015290519081900360640190fd5b6103e88161ffff1610612178576040805162461bcd60e51b815260206004820152600e60248201526d6665657320746f6f206c6172676560901b604482015290519081900360640190fd5b6066805461ffff909216600160a01b0261ffff60a01b19909216919091179055565b6000806121a987876001613359565b91506121b78786868661126f565b90509550959350505050565b6121cb612fe4565b6001600160a01b03166121dc611665565b6001600160a01b031614612225576040805162461bcd60e51b81526020600482018190526024820152600080516020613b83833981519152604482015290519081900360640190fd5b6103e88161ffff1610612272576040805162461bcd60e51b815260206004820152601060248201526f64657646656520746f6f206c6172676560801b604482015290519081900360640190fd5b6066805461ffff909216600160b01b0261ffff60b01b19909216919091179055565b6001600160a01b038416600090815260696020526040812054859060ff166001811415612300576040805162461bcd60e51b8152602060048201526015602482015274135bdb9bdcddd85c0e881413d3d3081313d0d2d151605a1b604482015290519081900360640190fd5b60ff811661232c576001600160a01b0382166000908152606960205260409020805460ff191660011790555b6065546001600160a01b0388811660009081526069602052604090205491169060ff16600214156123715761236c6001600160a01b038916333088612e51565b61248f565b6000886001600160a01b03166370a08231306040518263ffffffff1660e01b815260040180826001600160a01b0316815260200191505060206040518083038186803b1580156123c057600080fd5b505afa1580156123d4573d6000803e3d6000fd5b505050506040513d60208110156123ea57600080fd5b505190506124036001600160a01b038a16333089612e51565b6000896001600160a01b03166370a08231306040518263ffffffff1660e01b815260040180826001600160a01b0316815260200191505060206040518083038186803b15801561245257600080fd5b505afa158015612466573d6000803e3d6000fd5b505050506040513d602081101561247c57600080fd5b5051905061248a8183612f03565b965050505b60665460009062030d40906124b0908890600160a01b900461ffff16612d3c565b816124b757fe5b04905060008060006124ca8c8c8b610c15565b909a50919450925090506000670de0b6b3a76400006124e98587612d3c565b816124f057fe5b049050856001600160a01b03168d6001600160a01b0316141561258e5760408051632770a7eb60e21b8152306004820152602481018c905290516001600160a01b03881691639dc29fac91604480830192600092919082900301818387803b15801561255b57600080fd5b505af115801561256f573d6000803e3d6000fd5b50505050612587600282612d3c90919063ffffffff16565b905061259f565b61259f8d856000611ef08686612eab565b856001600160a01b03168c6001600160a01b0316141561262d57856001600160a01b03166340c10f198c8b6040518363ffffffff1660e01b815260040180836001600160a01b0316815260200182815260200192505050600060405180830381600087803b15801561261057600080fd5b505af1158015612624573d6000803e3d6000fd5b50505050612650565b6126416001600160a01b038d168c8b612939565b6126508c84611fb48585612eab565b8b6001600160a01b03168d6001600160a01b03168c6001600160a01b03167fcd3829a3813dc3cdd188fd3d01dcf3268c16be2fdd2dd21d0665418816e460628d8d604051808381526020018281526020019250505060405180910390a4505050505060ff82161515905061204a57506001600160a01b03166000908152606960205260409020805460ff19169055949350505050565b6126ee612fe4565b6001600160a01b03166126ff611665565b6001600160a01b031614612748576040805162461bcd60e51b81526020600482018190526024820152600080516020613b83833981519152604482015290519081900360640190fd5b6001600160a01b03811661278d5760405162461bcd60e51b8152600401808060200182810382526026815260200180613aa46026913960400191505060405180910390fd5b6033546040516001600160a01b03808416921690600080516020613ba383398151915290600090a3603380546001600160a01b0319166001600160a01b0392909216919091179055565b6127df612fe4565b6001600160a01b03166127f0611665565b6001600160a01b031614612839576040805162461bcd60e51b81526020600482018190526024820152600080516020613b83833981519152604482015290519081900360640190fd5b606680546001600160a01b0319166001600160a01b0392909216919091179055565b60008381526067602052604090205482821180156128795750600083115b156129335760665483830390600090620186a0906128ae9084870390610f0c90600160b01b900461ffff16611a308888612d3c565b816128b557fe5b606d5460665460408051630ab714fb60e11b81526001600160a01b039283166004820152602481018c905294909304604485018190529251929450169163156e29f691606480830192600092919082900301818387803b15801561291857600080fd5b505af115801561292c573d6000803e3d6000fd5b5050505050505b50505050565b604080516001600160a01b038416602482015260448082018490528251808303909101815260649091019091526020810180516001600160e01b031663a9059cbb60e01b179052610c109084906135ea565b6000828152606760205260409020546129a49082612f03565b60008381526067602052604080822092909255606d548251637a94c56560e11b81526001600160a01b03878116600483015260248201879052604482018690529351939091169263f5298aca9260648084019391929182900301818387803b158015612a0f57600080fd5b505af1158015612a23573d6000803e3d6000fd5b50505050505050565b6001600160a01b038316600090815260696020526040812054819081908190879060ff166001811415612a9e576040805162461bcd60e51b8152602060048201526015602482015274135bdb9bdcddd85c0e881413d3d3081313d0d2d151605a1b604482015290519081900360640190fd5b60ff8116612aca576001600160a01b0382166000908152606960205260409020805460ff191660011790555b6001600160a01b038916600090815260686020526040902060040154600160701b90046001600160701b0316612b018a8a8a613117565b604080516370a0823160e01b815230600482015290519297509095506000916001600160a01b038d16916370a08231916024808301926020929190829003018186803b158015612b5057600080fd5b505afa158015612b64573d6000803e3d6000fd5b505050506040513d6020811015612b7a57600080fd5b50519050670de0b6b3a7640000612b918383612d3c565b81612b9857fe5b0496506001600160701b03811115612be2576040805162461bcd60e51b81526020600482015260086024820152674f564552464c4f5760c01b604482015290519081900360640190fd5b6001600160a01b038b16600090815260686020526040902060040180546001600160701b0319166001600160701b038316179055612c2485611b6d8989612eab565b6001600160a01b038c1660009081526068602052604090206001018190559750505060ff8116610f40576001600160a01b0382166000908152606960205260409020805460ff19169055505093509350935093565b6000612c843061369b565b15905090565b600054610100900460ff1680612ca35750612ca3612c79565b80612cb1575060005460ff16155b612cec5760405162461bcd60e51b815260040180806020018281038252602e815260200180613b0a602e913960400191505060405180910390fd5b600054610100900460ff16158015612d17576000805460ff1961ff0019909116610100171660011790555b612d1f6136a1565b612d27613741565b8015612d39576000805461ff00191690555b50565b600082612d4b57506000610a1f565b82820282848281612d5857fe5b04146120c45760405162461bcd60e51b8152600401808060200182810382526021815260200180613b386021913960400191505060405180910390fd5b600080826001811115612da457fe5b1415612dcd57612db48484612eab565b612dbe8686612d3c565b81612dc557fe5b049050610b03565b612de4612dda8585612f03565b610f0c8787612d3c565b95945050505050565b6000808211612e40576040805162461bcd60e51b815260206004820152601a602482015279536166654d6174683a206469766973696f6e206279207a65726f60301b604482015290519081900360640190fd5b818381612e4957fe5b049392505050565b604080516001600160a01b0380861660248301528416604482015260648082018490528251808303909101815260849091019091526020810180516001600160e01b03166323b872dd60e01b1790526129339085906135ea565b6000828201838110156120c4576040805162461bcd60e51b815260206004820152601b60248201527a536166654d6174683a206164646974696f6e206f766572666c6f7760281b604482015290519081900360640190fd5b600082821115612f5a576040805162461bcd60e51b815260206004820152601e60248201527f536166654d6174683a207375627472616374696f6e206f766572666c6f770000604482015290519081900360640190fd5b50900390565b600082815260676020526040902054612f799082612eab565b60008381526067602052604080822092909255606d548251630ab714fb60e11b81526001600160a01b03878116600483015260248201879052604482018690529351939091169263156e29f69260648084019391929182900301818387803b158015612a0f57600080fd5b3390565b6000846001600160a01b03166370a08231306040518263ffffffff1660e01b815260040180826001600160a01b0316815260200191505060206040518083038186803b15801561303757600080fd5b505afa15801561304b573d6000803e3d6000fd5b505050506040513d602081101561306157600080fd5b505190506001600160701b03841180159061308357506001600160701b038111155b6130bf576040805162461bcd60e51b81526020600482015260086024820152674f564552464c4f5760c01b604482015290519081900360640190fd5b6001600160a01b038516600090815260686020526040902060040180546001600160701b03868116600160701b02600160701b600160e01b03199185166001600160701b03199093169290921716179055612a238584845b6000808284111561312f579190920391600091613137565b600093909203915b6001600160a01b038516600090815260686020526040902060038101546002909101546001600160701b03600160701b8304811692169060ff600160a01b90910416851561323b5761318a838388613828565b90955093506001600160701b0385118015906131ad57506001600160701b038411155b6131e9576040805162461bcd60e51b81526020600482015260086024820152674f564552464c4f5760c01b604482015290519081900360640190fd5b6001600160a01b038816600090815260686020526040902060030180546001600160701b038681166001600160701b0319918916600160701b02600160701b600160e01b031990931692909217161790555b86156132fd5761324c83838961386c565b90955093506001600160701b03851180159061326f57506001600160701b038411155b6132ab576040805162461bcd60e51b81526020600482015260086024820152674f564552464c4f5760c01b604482015290519081900360640190fd5b6001600160a01b038816600090815260686020526040902060030180546001600160701b038681166001600160701b0319918916600160701b02600160701b600160e01b031990931692909217161790555b600181600281111561330b57fe5b141561334e57831561334e5760405162461bcd60e51b815260040180806020018281038252602a815260200180613b59602a913960400191505060405180910390fd5b505050935093915050565b6000606c546001146133a5576040805162461bcd60e51b815260206004820152601060248201526f135bdb9bdcddd85c0e881313d0d2d15160821b604482015290519081900360640190fd5b6000606c8190556001600160a01b0385168152606a602052604090205460ff1615613410576040805162461bcd60e51b81526020600482015260166024820152754d6f6e6f737761703a20546f6b656e2045786973747360501b604482015290519081900360640190fd5b6065546001600160a01b0385811691161415613473576040805162461bcd60e51b815260206004820152601f60248201527f4d6f6e6f737761703a207655534420706f6f6c206e6f7420616c6c6f77656400604482015290519081900360640190fd5b606b54905060405180610100016040528082815260200160008152602001856001600160a01b031681526020018360028111156134ac57fe5b815260006020808301829052604080840183905260608085018490526001600160701b0389166080909501949094526001600160a01b038981168452606883529281902085518155918501516001830155840151600280830180546001600160a01b031916929094169190911780845593850151919391929160ff60a01b191690600160a01b90849081111561353e57fe5b0217905550608082015160038201805460a08501516001600160701b03908116600160701b908102600160701b600160e01b03199583166001600160701b03199485161786161790935560c08601516004909501805460e09097015182169093029416941693909317161790556135b6816001612eab565b606b556001600160a01b039093166000908152606a60205260409020805460ff19166001908117909155606c555090919050565b600061363f826040518060400160405280602081526020017f5361666545524332303a206c6f772d6c6576656c2063616c6c206661696c6564815250856001600160a01b03166138b69092919063ffffffff16565b805190915015610c105780806020019051602081101561365e57600080fd5b5051610c105760405162461bcd60e51b815260040180806020018281038252602a815260200180613be6602a913960400191505060405180910390fd5b3b151590565b600054610100900460ff16806136ba57506136ba612c79565b806136c8575060005460ff16155b6137035760405162461bcd60e51b815260040180806020018281038252602e815260200180613b0a602e913960400191505060405180910390fd5b600054610100900460ff16158015612d27576000805460ff1961ff0019909116610100171660011790558015612d39576000805461ff001916905550565b600054610100900460ff168061375a575061375a612c79565b80613768575060005460ff16155b6137a35760405162461bcd60e51b815260040180806020018281038252602e815260200180613b0a602e913960400191505060405180910390fd5b600054610100900460ff161580156137ce576000805460ff1961ff0019909116610100171660011790555b60006137d8612fe4565b603380546001600160a01b0319166001600160a01b03831690811790915560405191925090600090600080516020613ba3833981519152908290a3508015612d39576000805461ff001916905550565b6000808415613853578483111561384657506000905083820361384e565b505080830360005b613864565b600091506138618484612eab565b90505b935093915050565b60008083156138a057838311156138935750600061388c85858503612eab565b915061384e565b5060009050818303613864565b6138aa8584612eab565b95600095509350505050565b6060610b038484600085856138ca8561369b565b61391b576040805162461bcd60e51b815260206004820152601d60248201527f416464726573733a2063616c6c20746f206e6f6e2d636f6e7472616374000000604482015290519081900360640190fd5b600080866001600160a01b031685876040518082805190602001908083835b602083106139595780518252601f19909201916020918201910161393a565b6001836020036101000a03801982511681845116808217855250505050505090500191505060006040518083038185875af1925050503d80600081146139bb576040519150601f19603f3d011682016040523d82523d6000602084013e6139c0565b606091505b50915091506139d08282866139db565b979650505050505050565b606083156139ea5750816120c4565b8251156139fa5782518084602001fd5b8160405162461bcd60e51b81526004018080602001828103825283818151815260200191508051906020019080838360005b83811015613a44578181015183820152602001613a2c565b50505050905090810190601f168015613a715780820380516001836020036101000a031916815260200191505b509250505060405180910390fdfe4d6f6e6f737761703a20494e53554646494349454e545f4f55545055545f414d4f554e544f776e61626c653a206e6577206f776e657220697320746865207a65726f20616464726573734d6f6e6f737761703a20546f6b656e204e6f7420466f756e64000000000000004d6f6e6f737761703a20506f6f6c20556e6c6973746564000000000000000000496e697469616c697a61626c653a20636f6e747261637420697320616c726561647920696e697469616c697a6564536166654d6174683a206d756c7469706c69636174696f6e206f766572666c6f774d6f6e6f737761703a20756e6f6666696369616c20706f6f6c2063616e6e6f74206265617220646562744f776e61626c653a2063616c6c6572206973206e6f7420746865206f776e65728be0079c531659141344cd1fd0a4f28419497f9722a3daafe3b4186f6b6457e04d6f6e6f737761703a20494e53554646494349454e545f494e5055545f414d4f554e545361666545524332303a204552433230206f7065726174696f6e20646964206e6f7420737563636565644d6f6e6f737761703a204c65737320746f6b656e20616d6f756e74207468616e2064657369726564a2646970667358221220bf55e975dff460f29663b854c691e4be1153ffb137ebd5ca6df88c03832a40f164736f6c63430007060033",
  "linkReferences": {},
  "deployedLinkReferences": {}
}