{
  "_format": "hh-sol-artifact-1",
  "contractName": "Monoswap",
  "sourceName": "contracts/Monoswap.sol",
  "abi": [
    {
      "inputs": [
        {
          "internalType": "contract IvUSD",
          "name": "_vusd",
          "type": "address"
        }
      ],
      "stateMutability": "nonpayable",
      "type": "constructor"
    },
    {
      "anonymous": false,
      "inputs": [
        {
          "indexed": true,
          "internalType": "address",
          "name": "provider",
          "type": "address"
        },
        {
          "indexed": true,
          "internalType": "uint256",
          "name": "pid",
          "type": "uint256"
        },
        {
          "indexed": true,
          "internalType": "address",
          "name": "token",
          "type": "address"
        },
        {
          "indexed": false,
          "internalType": "uint256",
          "name": "liquidityAmount",
          "type": "uint256"
        },
        {
          "indexed": false,
          "internalType": "uint256",
          "name": "vusdAmount",
          "type": "uint256"
        },
        {
          "indexed": false,
          "internalType": "uint256",
          "name": "tokenAmount",
          "type": "uint256"
        }
      ],
      "name": "AddLiquidity",
      "type": "event"
    },
    {
      "anonymous": false,
      "inputs": [
        {
          "indexed": true,
          "internalType": "address",
          "name": "account",
          "type": "address"
        },
        {
          "indexed": true,
          "internalType": "address",
          "name": "operator",
          "type": "address"
        },
        {
          "indexed": false,
          "internalType": "bool",
          "name": "approved",
          "type": "bool"
        }
      ],
      "name": "ApprovalForAll",
      "type": "event"
    },
    {
      "anonymous": false,
      "inputs": [
        {
          "indexed": true,
          "internalType": "address",
          "name": "previousOwner",
          "type": "address"
        },
        {
          "indexed": true,
          "internalType": "address",
          "name": "newOwner",
          "type": "address"
        }
      ],
      "name": "OwnershipTransferred",
      "type": "event"
    },
    {
      "anonymous": false,
      "inputs": [
        {
          "indexed": true,
          "internalType": "address",
          "name": "provider",
          "type": "address"
        },
        {
          "indexed": true,
          "internalType": "uint256",
          "name": "pid",
          "type": "uint256"
        },
        {
          "indexed": true,
          "internalType": "address",
          "name": "token",
          "type": "address"
        },
        {
          "indexed": false,
          "internalType": "uint256",
          "name": "liquidityAmount",
          "type": "uint256"
        },
        {
          "indexed": false,
          "internalType": "uint256",
          "name": "vusdAmount",
          "type": "uint256"
        },
        {
          "indexed": false,
          "internalType": "uint256",
          "name": "tokenAmount",
          "type": "uint256"
        }
      ],
      "name": "RemoveLiquidity",
      "type": "event"
    },
    {
      "anonymous": false,
      "inputs": [
        {
          "indexed": true,
          "internalType": "address",
          "name": "user",
          "type": "address"
        },
        {
          "indexed": true,
          "internalType": "address",
          "name": "tokenIn",
          "type": "address"
        },
        {
          "indexed": true,
          "internalType": "address",
          "name": "tokenOut",
          "type": "address"
        },
        {
          "indexed": false,
          "internalType": "uint256",
          "name": "amountIn",
          "type": "uint256"
        },
        {
          "indexed": false,
          "internalType": "uint256",
          "name": "amountOut",
          "type": "uint256"
        }
      ],
      "name": "Swap",
      "type": "event"
    },
    {
      "anonymous": false,
      "inputs": [
        {
          "indexed": true,
          "internalType": "address",
          "name": "operator",
          "type": "address"
        },
        {
          "indexed": true,
          "internalType": "address",
          "name": "from",
          "type": "address"
        },
        {
          "indexed": true,
          "internalType": "address",
          "name": "to",
          "type": "address"
        },
        {
          "indexed": false,
          "internalType": "uint256[]",
          "name": "ids",
          "type": "uint256[]"
        },
        {
          "indexed": false,
          "internalType": "uint256[]",
          "name": "values",
          "type": "uint256[]"
        }
      ],
      "name": "TransferBatch",
      "type": "event"
    },
    {
      "anonymous": false,
      "inputs": [
        {
          "indexed": true,
          "internalType": "address",
          "name": "operator",
          "type": "address"
        },
        {
          "indexed": true,
          "internalType": "address",
          "name": "from",
          "type": "address"
        },
        {
          "indexed": true,
          "internalType": "address",
          "name": "to",
          "type": "address"
        },
        {
          "indexed": false,
          "internalType": "uint256",
          "name": "id",
          "type": "uint256"
        },
        {
          "indexed": false,
          "internalType": "uint256",
          "name": "value",
          "type": "uint256"
        }
      ],
      "name": "TransferSingle",
      "type": "event"
    },
    {
      "anonymous": false,
      "inputs": [
        {
          "indexed": false,
          "internalType": "string",
          "name": "value",
          "type": "string"
        },
        {
          "indexed": true,
          "internalType": "uint256",
          "name": "id",
          "type": "uint256"
        }
      ],
      "name": "URI",
      "type": "event"
    },
    {
      "inputs": [
        {
          "internalType": "address",
          "name": "_token",
          "type": "address"
        },
        {
          "internalType": "uint256",
          "name": "liquidity",
          "type": "uint256"
        },
        {
          "internalType": "address",
          "name": "to",
          "type": "address"
        }
      ],
      "name": "_removeLiquidity",
      "outputs": [
        {
          "internalType": "uint256",
          "name": "poolValue",
          "type": "uint256"
        },
        {
          "internalType": "uint256",
          "name": "liquidityIn",
          "type": "uint256"
        },
        {
          "internalType": "uint256",
          "name": "vusdOut",
          "type": "uint256"
        },
        {
          "internalType": "uint256",
          "name": "tokenOut",
          "type": "uint256"
        }
      ],
      "stateMutability": "view",
      "type": "function"
    },
    {
      "inputs": [
        {
          "internalType": "address",
          "name": "_token",
          "type": "address"
        },
        {
          "internalType": "uint256",
          "name": "_amount",
          "type": "uint256"
        },
        {
          "internalType": "address",
          "name": "to",
          "type": "address"
        }
      ],
      "name": "addLiquidity",
      "outputs": [
        {
          "internalType": "uint256",
          "name": "liquidity",
          "type": "uint256"
        }
      ],
      "stateMutability": "nonpayable",
      "type": "function"
    },
    {
      "inputs": [
        {
          "internalType": "address",
          "name": "_token",
          "type": "address"
        },
        {
          "internalType": "uint256",
          "name": "vusdAmount",
          "type": "uint256"
        },
        {
          "internalType": "uint256",
          "name": "tokenAmount",
          "type": "uint256"
        },
        {
          "internalType": "address",
          "name": "to",
          "type": "address"
        }
      ],
      "name": "addLiquidityPair",
      "outputs": [
        {
          "internalType": "uint256",
          "name": "liquidity",
          "type": "uint256"
        }
      ],
      "stateMutability": "nonpayable",
      "type": "function"
    },
    {
      "inputs": [
        {
          "internalType": "address",
          "name": "_token",
          "type": "address"
        },
        {
          "internalType": "uint112",
          "name": "_price",
          "type": "uint112"
        }
      ],
      "name": "addOfficialToken",
      "outputs": [
        {
          "internalType": "uint256",
          "name": "_pid",
          "type": "uint256"
        }
      ],
      "stateMutability": "nonpayable",
      "type": "function"
    },
    {
      "inputs": [
        {
          "internalType": "address",
          "name": "account",
          "type": "address"
        },
        {
          "internalType": "uint256",
          "name": "id",
          "type": "uint256"
        }
      ],
      "name": "balanceOf",
      "outputs": [
        {
          "internalType": "uint256",
          "name": "",
          "type": "uint256"
        }
      ],
      "stateMutability": "view",
      "type": "function"
    },
    {
      "inputs": [
        {
          "internalType": "address[]",
          "name": "accounts",
          "type": "address[]"
        },
        {
          "internalType": "uint256[]",
          "name": "ids",
          "type": "uint256[]"
        }
      ],
      "name": "balanceOfBatch",
      "outputs": [
        {
          "internalType": "uint256[]",
          "name": "",
          "type": "uint256[]"
        }
      ],
      "stateMutability": "view",
      "type": "function"
    },
    {
      "inputs": [
        {
          "internalType": "address",
          "name": "tokenIn",
          "type": "address"
        },
        {
          "internalType": "address",
          "name": "tokenOut",
          "type": "address"
        },
        {
          "internalType": "uint256",
          "name": "amountOut",
          "type": "uint256"
        }
      ],
      "name": "getAmountIn",
      "outputs": [
        {
          "internalType": "uint256",
          "name": "tokenInPrice",
          "type": "uint256"
        },
        {
          "internalType": "uint256",
          "name": "tokenOutPrice",
          "type": "uint256"
        },
        {
          "internalType": "uint256",
          "name": "amountIn",
          "type": "uint256"
        },
        {
          "internalType": "uint256",
          "name": "tradeVusdValue",
          "type": "uint256"
        }
      ],
      "stateMutability": "view",
      "type": "function"
    },
    {
      "inputs": [
        {
          "internalType": "address",
          "name": "tokenIn",
          "type": "address"
        },
        {
          "internalType": "address",
          "name": "tokenOut",
          "type": "address"
        },
        {
          "internalType": "uint256",
          "name": "amountIn",
          "type": "uint256"
        }
      ],
      "name": "getAmountOut",
      "outputs": [
        {
          "internalType": "uint256",
          "name": "tokenInPrice",
          "type": "uint256"
        },
        {
          "internalType": "uint256",
          "name": "tokenOutPrice",
          "type": "uint256"
        },
        {
          "internalType": "uint256",
          "name": "amountOut",
          "type": "uint256"
        },
        {
          "internalType": "uint256",
          "name": "tradeVusdValue",
          "type": "uint256"
        }
      ],
      "stateMutability": "view",
      "type": "function"
    },
    {
      "inputs": [
        {
          "internalType": "address",
          "name": "_token",
          "type": "address"
        }
      ],
      "name": "getPool",
      "outputs": [
        {
          "internalType": "uint256",
          "name": "poolValue",
          "type": "uint256"
        },
        {
          "internalType": "uint256",
          "name": "tokenBalanceVusdValue",
          "type": "uint256"
        },
        {
          "internalType": "uint256",
          "name": "vusdCredit",
          "type": "uint256"
        },
        {
          "internalType": "uint256",
          "name": "vusdDebt",
          "type": "uint256"
        }
      ],
      "stateMutability": "view",
      "type": "function"
    },
    {
      "inputs": [
        {
          "internalType": "address",
          "name": "account",
          "type": "address"
        },
        {
          "internalType": "address",
          "name": "operator",
          "type": "address"
        }
      ],
      "name": "isApprovedForAll",
      "outputs": [
        {
          "internalType": "bool",
          "name": "",
          "type": "bool"
        }
      ],
      "stateMutability": "view",
      "type": "function"
    },
    {
      "inputs": [
        {
          "internalType": "address",
          "name": "_token",
          "type": "address"
        },
        {
          "internalType": "uint112",
          "name": "_price",
          "type": "uint112"
        },
        {
          "internalType": "uint256",
          "name": "vusdAmount",
          "type": "uint256"
        },
        {
          "internalType": "uint256",
          "name": "tokenAmount",
          "type": "uint256"
        },
        {
          "internalType": "address",
          "name": "to",
          "type": "address"
        }
      ],
      "name": "listNewToken",
      "outputs": [
        {
          "internalType": "uint256",
          "name": "_pid",
          "type": "uint256"
        },
        {
          "internalType": "uint256",
          "name": "liquidity",
          "type": "uint256"
        }
      ],
      "stateMutability": "nonpayable",
      "type": "function"
    },
    {
      "inputs": [],
      "name": "owner",
      "outputs": [
        {
          "internalType": "address",
          "name": "",
          "type": "address"
        }
      ],
      "stateMutability": "view",
      "type": "function"
    },
    {
      "inputs": [],
      "name": "poolSize",
      "outputs": [
        {
          "internalType": "uint256",
          "name": "",
          "type": "uint256"
        }
      ],
      "stateMutability": "view",
      "type": "function"
    },
    {
      "inputs": [
        {
          "internalType": "address",
          "name": "",
          "type": "address"
        }
      ],
      "name": "pools",
      "outputs": [
        {
          "internalType": "uint256",
          "name": "pid",
          "type": "uint256"
        },
        {
          "internalType": "uint256",
          "name": "lastPoolValue",
          "type": "uint256"
        },
        {
          "internalType": "address",
          "name": "token",
          "type": "address"
        },
        {
          "internalType": "enum Monoswap.PoolStatus",
          "name": "status",
          "type": "uint8"
        },
        {
          "internalType": "uint112",
          "name": "vusdDebt",
          "type": "uint112"
        },
        {
          "internalType": "uint112",
          "name": "vusdCredit",
          "type": "uint112"
        },
        {
          "internalType": "uint112",
          "name": "tokenBalance",
          "type": "uint112"
        },
        {
          "internalType": "uint112",
          "name": "price",
          "type": "uint112"
        }
      ],
      "stateMutability": "view",
      "type": "function"
    },
    {
      "inputs": [
        {
          "internalType": "address",
          "name": "_token",
          "type": "address"
        },
        {
          "internalType": "uint256",
          "name": "liquidity",
          "type": "uint256"
        },
        {
          "internalType": "address",
          "name": "to",
          "type": "address"
        },
        {
          "internalType": "uint256",
          "name": "minVusdOut",
          "type": "uint256"
        },
        {
          "internalType": "uint256",
          "name": "minTokenOut",
          "type": "uint256"
        }
      ],
      "name": "removeLiquidity",
      "outputs": [
        {
          "internalType": "uint256",
          "name": "vusdOut",
          "type": "uint256"
        },
        {
          "internalType": "uint256",
          "name": "tokenOut",
          "type": "uint256"
        }
      ],
      "stateMutability": "nonpayable",
      "type": "function"
    },
    {
      "inputs": [],
      "name": "renounceOwnership",
      "outputs": [],
      "stateMutability": "nonpayable",
      "type": "function"
    },
    {
      "inputs": [
        {
          "internalType": "address",
          "name": "from",
          "type": "address"
        },
        {
          "internalType": "address",
          "name": "to",
          "type": "address"
        },
        {
          "internalType": "uint256[]",
          "name": "ids",
          "type": "uint256[]"
        },
        {
          "internalType": "uint256[]",
          "name": "amounts",
          "type": "uint256[]"
        },
        {
          "internalType": "bytes",
          "name": "data",
          "type": "bytes"
        }
      ],
      "name": "safeBatchTransferFrom",
      "outputs": [],
      "stateMutability": "nonpayable",
      "type": "function"
    },
    {
      "inputs": [
        {
          "internalType": "address",
          "name": "from",
          "type": "address"
        },
        {
          "internalType": "address",
          "name": "to",
          "type": "address"
        },
        {
          "internalType": "uint256",
          "name": "id",
          "type": "uint256"
        },
        {
          "internalType": "uint256",
          "name": "amount",
          "type": "uint256"
        },
        {
          "internalType": "bytes",
          "name": "data",
          "type": "bytes"
        }
      ],
      "name": "safeTransferFrom",
      "outputs": [],
      "stateMutability": "nonpayable",
      "type": "function"
    },
    {
      "inputs": [
        {
          "internalType": "address",
          "name": "operator",
          "type": "address"
        },
        {
          "internalType": "bool",
          "name": "approved",
          "type": "bool"
        }
      ],
      "name": "setApprovalForAll",
      "outputs": [],
      "stateMutability": "nonpayable",
      "type": "function"
    },
    {
      "inputs": [
        {
          "internalType": "uint16",
          "name": "_devFee",
          "type": "uint16"
        }
      ],
      "name": "setDevFee",
      "outputs": [],
      "stateMutability": "nonpayable",
      "type": "function"
    },
    {
      "inputs": [
        {
          "internalType": "address",
          "name": "_feeTo",
          "type": "address"
        }
      ],
      "name": "setFeeTo",
      "outputs": [],
      "stateMutability": "nonpayable",
      "type": "function"
    },
    {
      "inputs": [
        {
          "internalType": "uint16",
          "name": "_fees",
          "type": "uint16"
        }
      ],
      "name": "setFees",
      "outputs": [],
      "stateMutability": "nonpayable",
      "type": "function"
    },
    {
      "inputs": [
        {
          "internalType": "bytes4",
          "name": "interfaceId",
          "type": "bytes4"
        }
      ],
      "name": "supportsInterface",
      "outputs": [
        {
          "internalType": "bool",
          "name": "",
          "type": "bool"
        }
      ],
      "stateMutability": "view",
      "type": "function"
    },
    {
      "inputs": [
        {
          "internalType": "address",
          "name": "tokenIn",
          "type": "address"
        },
        {
          "internalType": "address",
          "name": "tokenOut",
          "type": "address"
        },
        {
          "internalType": "uint256",
          "name": "amountIn",
          "type": "uint256"
        },
        {
          "internalType": "uint256",
          "name": "amountOutMin",
          "type": "uint256"
        },
        {
          "internalType": "address",
          "name": "to",
          "type": "address"
        },
        {
          "internalType": "uint256",
          "name": "deadline",
          "type": "uint256"
        }
      ],
      "name": "swapExactTokenForToken",
      "outputs": [
        {
          "internalType": "uint256",
          "name": "amountOut",
          "type": "uint256"
        }
      ],
      "stateMutability": "nonpayable",
      "type": "function"
    },
    {
      "inputs": [
        {
          "internalType": "address",
          "name": "tokenIn",
          "type": "address"
        },
        {
          "internalType": "address",
          "name": "tokenOut",
          "type": "address"
        },
        {
          "internalType": "address",
          "name": "to",
          "type": "address"
        },
        {
          "internalType": "uint256",
          "name": "amountIn",
          "type": "uint256"
        }
      ],
      "name": "swapIn",
      "outputs": [
        {
          "internalType": "uint256",
          "name": "amountOut",
          "type": "uint256"
        }
      ],
      "stateMutability": "nonpayable",
      "type": "function"
    },
    {
      "inputs": [
        {
          "internalType": "address",
          "name": "tokenIn",
          "type": "address"
        },
        {
          "internalType": "address",
          "name": "tokenOut",
          "type": "address"
        },
        {
          "internalType": "address",
          "name": "to",
          "type": "address"
        },
        {
          "internalType": "uint256",
          "name": "amountOut",
          "type": "uint256"
        }
      ],
      "name": "swapOut",
      "outputs": [
        {
          "internalType": "uint256",
          "name": "amountIn",
          "type": "uint256"
        }
      ],
      "stateMutability": "nonpayable",
      "type": "function"
    },
    {
      "inputs": [
        {
          "internalType": "address",
          "name": "tokenIn",
          "type": "address"
        },
        {
          "internalType": "address",
          "name": "tokenOut",
          "type": "address"
        },
        {
          "internalType": "uint256",
          "name": "amountInMax",
          "type": "uint256"
        },
        {
          "internalType": "uint256",
          "name": "amountOut",
          "type": "uint256"
        },
        {
          "internalType": "address",
          "name": "to",
          "type": "address"
        },
        {
          "internalType": "uint256",
          "name": "deadline",
          "type": "uint256"
        }
      ],
      "name": "swapTokenForExactToken",
      "outputs": [
        {
          "internalType": "uint256",
          "name": "amountIn",
          "type": "uint256"
        }
      ],
      "stateMutability": "nonpayable",
      "type": "function"
    },
    {
      "inputs": [
        {
          "internalType": "address",
          "name": "",
          "type": "address"
        }
      ],
      "name": "tokenPoolStatus",
      "outputs": [
        {
          "internalType": "uint8",
          "name": "",
          "type": "uint8"
        }
      ],
      "stateMutability": "view",
      "type": "function"
    },
    {
      "inputs": [
        {
          "internalType": "uint256",
          "name": "",
          "type": "uint256"
        }
      ],
      "name": "totalSupply",
      "outputs": [
        {
          "internalType": "uint256",
          "name": "",
          "type": "uint256"
        }
      ],
      "stateMutability": "view",
      "type": "function"
    },
    {
      "inputs": [
        {
          "internalType": "address",
          "name": "newOwner",
          "type": "address"
        }
      ],
      "name": "transferOwnership",
      "outputs": [],
      "stateMutability": "nonpayable",
      "type": "function"
    },
    {
      "inputs": [
        {
          "internalType": "uint256",
          "name": "",
          "type": "uint256"
        }
      ],
      "name": "uri",
      "outputs": [
        {
          "internalType": "string",
          "name": "",
          "type": "string"
        }
      ],
      "stateMutability": "view",
      "type": "function"
    }
  ],
  "bytecode": "0x60806040526006805461ffff60a01b1916604b60a21b1761ffff60b01b1916601960b11b1790556103e86008556000600c556001600d553480156200004357600080fd5b5060405162004f7d38038062004f7d833981810160405260208110156200006957600080fd5b50516040805180820190915260038152627b317d60e81b6020820152620000976301ffc9a760e01b62000147565b620000a281620001cc565b620000b4636cdb3d1360e11b62000147565b620000c66303a24d0760e21b62000147565b506000620000d3620001e5565b600480546001600160a01b0319166001600160a01b038316908117909155604051919250906000907f8be0079c531659141344cd1fd0a4f28419497f9722a3daafe3b4186f6b6457e0908290a350600580546001600160a01b0319166001600160a01b039290921691909117905562000295565b6001600160e01b03198082161415620001a7576040805162461bcd60e51b815260206004820152601c60248201527f4552433136353a20696e76616c696420696e7465726661636520696400000000604482015290519081900360640190fd5b6001600160e01b0319166000908152602081905260409020805460ff19166001179055565b8051620001e1906003906020840190620001e9565b5050565b3390565b828054600181600116156101000203166002900490600052602060002090601f0160209004810192826200022157600085556200026c565b82601f106200023c57805160ff19168380011785556200026c565b828001600101855582156200026c579182015b828111156200026c5782518255916020019190600101906200024f565b506200027a9291506200027e565b5090565b5b808211156200027a57600081556001016200027f565b614cd880620002a56000396000f3fe608060405234801561001057600080fd5b50600436106101735760003560e01c8062c2408714610178578062fdd58e146101d157806301ffc9a71461020f5780630e89341c1461024a578063138d03cd146102dc5780631a9fe17e146103245780631b879378146103605780632eb2c2d6146103965780634aa06652146105595780634e1273f4146105b55780634ec18db91461072857806353b609b514610730578063556ca709146107665780635dd44a6d146107a0578063715018a6146107e85780638da5cb5b146107f0578063a22cb46514610814578063a4063dbc14610842578063b2421178146108e7578063bbe4f6db1461091d578063bd85b03914610943578063c22b53be14610960578063c48caa701461099c578063ca1123c2146109d1578063d56468ac146109f2578063e18cb4fe14610a3d578063e4df1c4314610a5e578063e985e9c514610a9a578063f242432a14610ac8578063f2fde38b14610b91578063f46901ed14610bb7575b600080fd5b6101b8600480360360a081101561018e57600080fd5b506001600160a01b0381358116916020810135916040820135169060608101359060800135610bdd565b6040805192835260208301919091528051918290030190f35b6101fd600480360360408110156101e757600080fd5b506001600160a01b038135169060200135610ec1565b60408051918252519081900360200190f35b6102366004803603602081101561022557600080fd5b50356001600160e01b031916610f33565b604080519115158252519081900360200190f35b6102676004803603602081101561026057600080fd5b5035610f52565b6040805160208082528351818301528351919283929083019185019080838360005b838110156102a1578181015183820152602001610289565b50505050905090810190601f1680156102ce5780820380516001836020036101000a031916815260200191505b509250505060405180910390f35b6101fd600480360360c08110156102f257600080fd5b506001600160a01b03813581169160208101358216916040820135916060810135916080820135169060a00135610fea565b61034a6004803603602081101561033a57600080fd5b50356001600160a01b03166110a4565b6040805160ff9092168252519081900360200190f35b6101fd6004803603606081101561037657600080fd5b506001600160a01b038135811691602081013591604090910135166110b9565b610557600480360360a08110156103ac57600080fd5b6001600160a01b038235811692602081013590911691810190606081016040820135600160201b8111156103df57600080fd5b8201836020820111156103f157600080fd5b803590602001918460208302840111600160201b8311171561041257600080fd5b9190808060200260200160405190810160405280939291908181526020018383602002808284376000920191909152509295949360208101935035915050600160201b81111561046157600080fd5b82018360208201111561047357600080fd5b803590602001918460208302840111600160201b8311171561049457600080fd5b9190808060200260200160405190810160405280939291908181526020018383602002808284376000920191909152509295949360208101935035915050600160201b8111156104e357600080fd5b8201836020820111156104f557600080fd5b803590602001918460018302840111600160201b8311171561051657600080fd5b91908080601f0160208091040260200160405190810160405280939291908181526020018383808284376000920191909152509295506110d0945050505050565b005b61058f6004803603606081101561056f57600080fd5b506001600160a01b038135811691602081013590911690604001356113ce565b604080519485526020850193909352838301919091526060830152519081900360800190f35b6106d8600480360360408110156105cb57600080fd5b810190602081018135600160201b8111156105e557600080fd5b8201836020820111156105f757600080fd5b803590602001918460208302840111600160201b8311171561061857600080fd5b9190808060200260200160405190810160405280939291908181526020018383602002808284376000920191909152509295949360208101935035915050600160201b81111561066757600080fd5b82018360208201111561067957600080fd5b803590602001918460208302840111600160201b8311171561069a57600080fd5b919080806020026020016040519081016040528093929190818152602001838360200280828437600092019190915250929550611704945050505050565b60408051602080825283518183015283519192839290830191858101910280838360005b838110156107145781810151838201526020016106fc565b505050509050019250505060405180910390f35b6101fd6117ef565b61058f6004803603606081101561074657600080fd5b506001600160a01b038135811691602081013590911690604001356117f5565b6101fd6004803603608081101561077c57600080fd5b506001600160a01b0381358116916020810135916040820135916060013516611b13565b6101fd600480360360c08110156107b657600080fd5b506001600160a01b03813581169160208101358216916040820135916060810135916080820135169060a00135611dc9565b610557611e62565b6107f8611f0e565b604080516001600160a01b039092168252519081900360200190f35b6105576004803603604081101561082a57600080fd5b506001600160a01b0381351690602001351515611f1e565b6108686004803603602081101561085857600080fd5b50356001600160a01b031661200d565b60405180898152602001888152602001876001600160a01b0316815260200186600281111561089357fe5b8152602001856001600160701b03168152602001846001600160701b03168152602001836001600160701b03168152602001826001600160701b031681526020019850505050505050505060405180910390f35b61058f600480360360608110156108fd57600080fd5b506001600160a01b0381358116916020810135916040909101351661206f565b61058f6004803603602081101561093357600080fd5b50356001600160a01b03166122f4565b6101fd6004803603602081101561095957600080fd5b5035612409565b6101fd6004803603608081101561097657600080fd5b506001600160a01b0381358116916020810135821691604082013516906060013561241b565b6101fd600480360360408110156109b257600080fd5b5080356001600160a01b031690602001356001600160701b03166128e0565b610557600480360360208110156109e757600080fd5b503561ffff16612957565b6101b8600480360360a0811015610a0857600080fd5b506001600160a01b0381358116916001600160701b036020820135169160408201359160608101359160809091013516612a26565b61055760048036036020811015610a5357600080fd5b503561ffff16612a4f565b6101fd60048036036080811015610a7457600080fd5b506001600160a01b03813581169160208101358216916040820135169060600135612b20565b61023660048036036040811015610ab057600080fd5b506001600160a01b0381358116916020013516612f72565b610557600480360360a0811015610ade57600080fd5b6001600160a01b03823581169260208101359091169160408201359160608101359181019060a081016080820135600160201b811115610b1d57600080fd5b820183602082011115610b2f57600080fd5b803590602001918460018302840111600160201b83111715610b5057600080fd5b91908080601f016020809104026020016040519081016040528093929190818152602001838380828437600092019190915250929550612fa0945050505050565b61055760048036036020811015610ba757600080fd5b50356001600160a01b0316613159565b61055760048036036020811015610bcd57600080fd5b50356001600160a01b031661325c565b6001600160a01b0385166000908152600b6020526040812054819060ff16600114610c3d576040805162461bcd60e51b81526020600482015260196024820152600080516020614a1b833981519152604482015290519081900360640190fd5b6001600160a01b038781166000908152600960209081526040808320815161010081018352815481526001820154938101939093526002808201549586169284019290925292939192916060840191600160a01b90910460ff1690811115610ca157fe5b6002811115610cac57fe5b815260038201546001600160701b038082166020840152600160701b91829004811660408401526004909301548084166060840152049091166080909101529050600080610cfb8a8a8a61206f565b86516020880151929950909750929450909250610d199190846132e0565b86851015610d6e576040805162461bcd60e51b815260206004820181905260248201527f4d6f6e6f737761703a204c6573732076555344207468616e2064657369726564604482015290519081900360640190fd5b85841015610dad5760405162461bcd60e51b8152600401808060200182810382526028815260200180614c7b6028913960400191505060405180910390fd5b8415610e2157600554604080516340c10f1960e01b81526001600160a01b038b8116600483015260248201899052915191909216916340c10f1991604480830192600092919082900301818387803b158015610e0857600080fd5b505af1158015610e1c573d6000803e3d6000fd5b505050505b610e356001600160a01b038b16898661335c565b610e44888460000151836133b3565b610e508a6000876133e6565b50505050896001600160a01b03168360000151896001600160a01b03167fab577bf53edf8e035c53859461bfaac55e75b9380a594cc487ae89665d7788f284898960405180848152602001838152602001828152602001935050505060405180910390a45050509550959350505050565b60006001600160a01b038316610f085760405162461bcd60e51b815260040180806020018281038252602b8152602001806149a6602b913960400191505060405180910390fd5b5060008181526001602090815260408083206001600160a01b03861684529091529020545b92915050565b6001600160e01b03191660009081526020819052604090205460ff1690565b60038054604080516020601f6002600019610100600188161502019095169490940493840181900481028201810190925282815260609390929091830182828015610fde5780601f10610fb357610100808354040283529160200191610fde565b820191906000526020600020905b815481529060010190602001808311610fc157829003601f168201915b50505050509050919050565b60008142811015611036576040805162461bcd60e51b8152602060048201526011602482015270135bdb9bdcddd85c0e8811561412549151607a1b604482015290519081900360640190fd5b6110428888868861241b565b915085821115611099576040805162461bcd60e51b815260206004820181905260248201527f4d6f6e6f737761703a204558434553534956455f494e5055545f414d4f554e54604482015290519081900360640190fd5b509695505050505050565b600b6020526000908152604090205460ff1681565b60006110c88460008585611b13565b949350505050565b81518351146111105760405162461bcd60e51b8152600401808060200182810382526028815260200180614c326028913960400191505060405180910390fd5b6001600160a01b0384166111555760405162461bcd60e51b8152600401808060200182810382526025815260200180614a846025913960400191505060405180910390fd5b61115d613633565b6001600160a01b0316856001600160a01b03161480611188575061118885611183613633565b612f72565b6111c35760405162461bcd60e51b8152600401808060200182810382526032815260200180614aa96032913960400191505060405180910390fd5b60006111cd613633565b90506111dd8187878787876113c6565b60005b84518110156112de5760008582815181106111f757fe5b60200260200101519050600085838151811061120f57fe5b6020026020010151905061127c816040518060600160405280602a8152602001614afe602a91396001600086815260200190815260200160002060008d6001600160a01b03166001600160a01b03168152602001908152602001600020546136379092919063ffffffff16565b60008381526001602090815260408083206001600160a01b038e811685529252808320939093558a16815220546112b390826136ce565b60009283526001602081815260408086206001600160a01b038d1687529091529093205550016111e0565b50846001600160a01b0316866001600160a01b0316826001600160a01b03167f4a39dc06d4c0dbc64b70af90fd698a233a518aa5d07e595d983b8c0526c8f7fb8787604051808060200180602001838103835285818151815260200191508051906020019060200280838360005b8381101561136457818101518382015260200161134c565b50505050905001838103825284818151815260200191508051906020019060200280838360005b838110156113a357818101518382015260200161138b565b5050505090500194505050505060405180910390a46113c6818787878787613726565b505050505050565b600080600080600085116114135760405162461bcd60e51b8152600401808060200182810382526023815260200180614b936023913960400191505060405180910390fd5b600654600090620186a09061143b908890600160a01b900461ffff16830362ffffff166139a5565b8161144257fe5b60055491900491506001600160a01b0390811690891681141561147257819250670de0b6b3a76400009550611591565b6001600160a01b0389166000908152600b602052604090205460ff166001146114d0576040805162461bcd60e51b81526020600482015260196024820152600080516020614a1b833981519152604482015290519081900360640190fd5b6001600160a01b03891660009081526009602052604081206002810154600490910154600160a01b90910460ff1691600160701b82046001600160701b0390811692169083600281111561152057fe5b1415611561576040805162461bcd60e51b81526020600482015260176024820152600080516020614a64833981519152604482015290519081900360640190fd5b61156e82828760006139fe565b9850670de0b6b3a76400006115838a876139a5565b8161158a57fe5b0495505050505b806001600160a01b0316886001600160a01b031614156115be57829350670de0b6b3a764000094506116f9565b6001600160a01b0388166000908152600b602052604090205460ff1660011461161c576040805162461bcd60e51b81526020600482015260196024820152600080516020614a1b833981519152604482015290519081900360640190fd5b6001600160a01b03881660009081526009602052604081206002810154600490910154600160a01b90910460ff1691600160701b82046001600160701b0390811692169083600281111561166c57fe5b14156116ad576040805162461bcd60e51b81526020600482015260176024820152600080516020614a64833981519152604482015290519081900360640190fd5b60006116cb836116c589670de0b6b3a76400006139a5565b90613a56565b90506116da83838360016139fe565b98506116f2896116c589670de0b6b3a76400006139a5565b9750505050505b505093509350935093565b606081518351146117465760405162461bcd60e51b8152600401808060200182810382526029815260200180614c096029913960400191505060405180910390fd5b600083516001600160401b038111801561175f57600080fd5b50604051908082528060200260200182016040528015611789578160200160208202803683370190505b50905060005b84518110156117e7576117c88582815181106117a757fe5b60200260200101518583815181106117bb57fe5b6020026020010151610ec1565b8282815181106117d457fe5b602090810291909101015260010161178f565b509392505050565b600c5481565b6000806000806000851161183a5760405162461bcd60e51b8152600401808060200182810382526023815260200180614b936023913960400191505060405180910390fd5b600654600090620186a090611862908890600160a01b900461ffff16830162ffffff166139a5565b8161186957fe5b60055491900491506001600160a01b0390811690881681141561189957819250670de0b6b3a764000094506119b8565b6001600160a01b0388166000908152600b602052604090205460ff166001146118f7576040805162461bcd60e51b81526020600482015260196024820152600080516020614a1b833981519152604482015290519081900360640190fd5b6001600160a01b03881660009081526009602052604081206002810154600490910154600160a01b90910460ff1691600160701b82046001600160701b0390811692169083600281111561194757fe5b1415611988576040805162461bcd60e51b81526020600482015260176024820152600080516020614a64833981519152604482015290519081900360640190fd5b61199582828760016139fe565b9750670de0b6b3a76400006119aa89876139a5565b816119b157fe5b0495505050505b806001600160a01b0316896001600160a01b031614156119e557829350670de0b6b3a764000095506116f9565b6001600160a01b0389166000908152600b602052604090205460ff16600114611a43576040805162461bcd60e51b81526020600482015260196024820152600080516020614a1b833981519152604482015290519081900360640190fd5b6001600160a01b03891660009081526009602052604081206002810154600490910154600160a01b90910460ff1691600160701b82046001600160701b03908116921690836002811115611a9357fe5b1415611ad4576040805162461bcd60e51b81526020600482015260176024820152600080516020614a64833981519152604482015290519081900360640190fd5b6000611aec836116c589670de0b6b3a76400006139a5565b9050611afb83838360006139fe565b99506116f28a6116c589670de0b6b3a76400006139a5565b6000808311611b60576040805162461bcd60e51b8152602060048201526014602482015273135bdb9bdcddd85c0e8810985908105b5bdd5b9d60621b604482015290519081900360640190fd5b6001600160a01b0385166000908152600b602052604090205460ff16600114611bc4576040805162461bcd60e51b8152602060048201526011602482015270135bdb9bdcddd85c0e88139bc81c1bdbdb607a1b604482015290519081900360640190fd5b6000611bcf866122f4565b5050506001600160a01b03878116600090815260096020908152604080832081516101008101835281548152600182015493810193909352600280820154958616928401929092529495509193909290916060840191600160a01b900460ff1690811115611c3957fe5b6002811115611c4457fe5b815260038201546001600160701b03808216602080850191909152600160701b928390048216604085015260049094015480821660608501529190910416608090910152815190820151919250611c9b91846132e0565b8051600090815260076020526040902054611cc16001600160a01b038916333089613aba565b8615611cdf57600554611cdf906001600160a01b031633308a613aba565b6000611d1d670de0b6b3a7640000611d0d8560e001516001600160701b03168a6139a590919063ffffffff16565b81611d1457fe5b8a9190046136ce565b905081611d3957600854611d32908290613b14565b9450611d4a565b611d47846116c584846139a5565b94505b611d5986846000015187613b71565b611d65898960006133e6565b5050845160408051898152602081018d90528082018c905290516001600160a01b03808f169550929350918a16917f166ddb815a41f60899d37e5c34db8f6cd53a5c65da870fcc7315af673878562a9181900360600190a450505050949350505050565b60008142811015611e15576040805162461bcd60e51b8152602060048201526011602482015270135bdb9bdcddd85c0e8811561412549151607a1b604482015290519081900360640190fd5b611e2188888689612b20565b9150848210156110995760405162461bcd60e51b81526004018080602001828103825260248152602001806149826024913960400191505060405180910390fd5b611e6a613633565b6001600160a01b0316611e7b611f0e565b6001600160a01b031614611ec4576040805162461bcd60e51b81526020600482018190526024820152600080516020614b73833981519152604482015290519081900360640190fd5b6004546040516000916001600160a01b0316907f8be0079c531659141344cd1fd0a4f28419497f9722a3daafe3b4186f6b6457e0908390a3600480546001600160a01b0319169055565b6004546001600160a01b03165b90565b816001600160a01b0316611f30613633565b6001600160a01b03161415611f765760405162461bcd60e51b8152600401808060200182810382526029815260200180614bb66029913960400191505060405180910390fd5b8060026000611f83613633565b6001600160a01b03908116825260208083019390935260409182016000908120918716808252919093529120805460ff191692151592909217909155611fc7613633565b6001600160a01b03167f17307eab39ab6107e8899845ad3d59bd9653f200f220920489ca2b5937696c318360405180821515815260200191505060405180910390a35050565b60096020526000908152604090208054600182015460028301546003840154600490940154929391926001600160a01b03821692600160a01b90920460ff16916001600160701b0380821692600160701b928390048216928282169291041688565b600080600080600086116120c1576040805162461bcd60e51b8152602060048201526014602482015273135bdb9bdcddd85c0e8810985908105b5bdd5b9d60621b604482015290519081900360640190fd5b6001600160a01b0387811660009081526009602090815260408083208151610100810183528154815260018201549381019390935260028082015495861692840192909252929384938493849390926060840191600160a01b90910460ff169081111561212a57fe5b600281111561213557fe5b815260038201546001600160701b038082166020840152600160701b9182900481166040840152600490930154808416606084015204909116608090910152905061217f8b6122f4565b84516000908152600760205260409020548551949c509297509095509350908b906121ab908c90610ec1565b116121c3576121be8a8360000151610ec1565b6121c5565b8a5b975060008c6001600160a01b03166370a08231306040518263ffffffff1660e01b815260040180826001600160a01b0316815260200191505060206040518083038186803b15801561221657600080fd5b505afa15801561222a573d6000803e3d6000fd5b505050506040513d602081101561224057600080fd5b505160c08401519091506001600160701b031681101561228e57670de0b6b3a76400006122838460e001516001600160701b0316836139a590919063ffffffff16565b8161228a57fe5b0495505b83156122c55760e08301516122c2906001600160701b03166116c5670de0b6b3a76400006122bc8a89613b14565b906139a5565b90505b6122d3826116c58b886139a5565b97506122e3826116c58b846139a5565b965050505050505093509350935093565b6001600160a01b0381811660009081526009602090815260408083208151610100810183528154815260018201549381019390935260028082015495861692840192909252929384938493849384939192916060840191600160a01b90910460ff169081111561236057fe5b600281111561236b57fe5b815260038201546001600160701b038082166020840152600160701b9182900481166040840152600490930154808416606084015204821660809182015260a08301519083015160c084015160e085015192841697509083169550929350670de0b6b3a7640000926123e19291821691166139a5565b816123e857fe5b0493506123ff826123f986866136ce565b90613b14565b9450509193509193565b60076020526000908152604090205481565b6001600160a01b0384166000908152600a6020526040812054859060ff166001811415612487576040805162461bcd60e51b8152602060048201526015602482015274135bdb9bdcddd85c0e881413d3d3081313d0d2d151605a1b604482015290519081900360640190fd5b60ff81166124b3576001600160a01b0382166000908152600a60205260409020805460ff191660011790555b6005546001600160a01b0316600080806124ce8b8b8a6117f5565b6001600160a01b038f166000908152600a6020526040902054919a5092955090935090915060ff1660021415612518576125136001600160a01b038c1633308a613aba565b612686565b60008b6001600160a01b03166370a08231306040518263ffffffff1660e01b815260040180826001600160a01b0316815260200191505060206040518083038186803b15801561256757600080fd5b505afa15801561257b573d6000803e3d6000fd5b505050506040513d602081101561259157600080fd5b505190506125aa6001600160a01b038d1633308b613aba565b60008c6001600160a01b03166370a08231306040518263ffffffff1660e01b815260040180826001600160a01b0316815260200191505060206040518083038186803b1580156125f957600080fd5b505afa15801561260d573d6000803e3d6000fd5b505050506040513d602081101561262357600080fd5b505190506126318183613b14565b891015612683576040805162461bcd60e51b815260206004820152601b60248201527a4d6f6e6f737761703a204e6f7420456e6f75676820546f6b656e7360281b604482015290519081900360640190fd5b50505b60065460009062030d40906126a7908a90600160a01b900461ffff166139a5565b816126ae57fe5b0490506000670de0b6b3a76400006126c686846139a5565b816126cd57fe5b049050856001600160a01b03168d6001600160a01b0316141561276b5760408051632770a7eb60e21b8152306004820152602481018b905290516001600160a01b03881691639dc29fac91604480830192600092919082900301818387803b15801561273857600080fd5b505af115801561274c573d6000803e3d6000fd5b505050506127646002826139a590919063ffffffff16565b9050612781565b6127818d86600061277c87866136ce565b613bbc565b856001600160a01b03168c6001600160a01b0316141561281d57856001600160a01b03166340c10f198c8c6040518363ffffffff1660e01b815260040180836001600160a01b0316815260200182815260200192505050600060405180830381600087803b1580156127f257600080fd5b505af1158015612806573d6000803e3d6000fd5b505050506128168d826000613ceb565b5050612847565b6128316001600160a01b038d168c8c61335c565b6128478c8561284086856136ce565b6000613bbc565b8b6001600160a01b03168d6001600160a01b03168c6001600160a01b03167fcd3829a3813dc3cdd188fd3d01dcf3268c16be2fdd2dd21d0665418816e460628c8e604051808381526020018281526020019250505060405180910390a4505050505060ff8216151590506128d6576001600160a01b0382166000908152600a60205260409020805460ff191690555b5050949350505050565b60006128ea613633565b6001600160a01b03166128fb611f0e565b6001600160a01b031614612944576040805162461bcd60e51b81526020600482018190526024820152600080516020614b73833981519152604482015290519081900360640190fd5b61295083836002613f2d565b9392505050565b61295f613633565b6001600160a01b0316612970611f0e565b6001600160a01b0316146129b9576040805162461bcd60e51b81526020600482018190526024820152600080516020614b73833981519152604482015290519081900360640190fd5b6103e88161ffff1610612a04576040805162461bcd60e51b815260206004820152600e60248201526d6665657320746f6f206c6172676560901b604482015290519081900360640190fd5b6006805461ffff909216600160a01b0261ffff60a01b19909216919091179055565b600080612a3587876001613f2d565b9150612a4387868686611b13565b90509550959350505050565b612a57613633565b6001600160a01b0316612a68611f0e565b6001600160a01b031614612ab1576040805162461bcd60e51b81526020600482018190526024820152600080516020614b73833981519152604482015290519081900360640190fd5b6103e88161ffff1610612afe576040805162461bcd60e51b815260206004820152601060248201526f64657646656520746f6f206c6172676560801b604482015290519081900360640190fd5b6006805461ffff909216600160b01b0261ffff60b01b19909216919091179055565b6001600160a01b0384166000908152600a6020526040812054859060ff166001811415612b8c576040805162461bcd60e51b8152602060048201526015602482015274135bdb9bdcddd85c0e881413d3d3081313d0d2d151605a1b604482015290519081900360640190fd5b60ff8116612bb8576001600160a01b0382166000908152600a60205260409020805460ff191660011790555b6005546001600160a01b038881166000908152600a602052604090205491169060ff1660021415612bfd57612bf86001600160a01b038916333088613aba565b612d1b565b6000886001600160a01b03166370a08231306040518263ffffffff1660e01b815260040180826001600160a01b0316815260200191505060206040518083038186803b158015612c4c57600080fd5b505afa158015612c60573d6000803e3d6000fd5b505050506040513d6020811015612c7657600080fd5b50519050612c8f6001600160a01b038a16333089613aba565b6000896001600160a01b03166370a08231306040518263ffffffff1660e01b815260040180826001600160a01b0316815260200191505060206040518083038186803b158015612cde57600080fd5b505afa158015612cf2573d6000803e3d6000fd5b505050506040513d6020811015612d0857600080fd5b50519050612d168183613b14565b965050505b60065460009062030d4090612d3c908890600160a01b900461ffff166139a5565b81612d4357fe5b0490506000806000612d568c8c8b6113ce565b909a50919450925090506000670de0b6b3a7640000612d7585876139a5565b81612d7c57fe5b049050856001600160a01b03168d6001600160a01b03161415612e1a5760408051632770a7eb60e21b8152306004820152602481018c905290516001600160a01b03881691639dc29fac91604480830192600092919082900301818387803b158015612de757600080fd5b505af1158015612dfb573d6000803e3d6000fd5b50505050612e136002826139a590919063ffffffff16565b9050612e2b565b612e2b8d85600061277c86866136ce565b856001600160a01b03168c6001600160a01b03161415612eb957856001600160a01b03166340c10f198c8b6040518363ffffffff1660e01b815260040180836001600160a01b0316815260200182815260200192505050600060405180830381600087803b158015612e9c57600080fd5b505af1158015612eb0573d6000803e3d6000fd5b50505050612edc565b612ecd6001600160a01b038d168c8b61335c565b612edc8c8461284085856136ce565b8b6001600160a01b03168d6001600160a01b03168c6001600160a01b03167fcd3829a3813dc3cdd188fd3d01dcf3268c16be2fdd2dd21d0665418816e460628d8d604051808381526020018281526020019250505060405180910390a4505050505060ff8216151590506128d657506001600160a01b03166000908152600a60205260409020805460ff19169055949350505050565b6001600160a01b03918216600090815260026020908152604080832093909416825291909152205460ff1690565b6001600160a01b038416612fe55760405162461bcd60e51b8152600401808060200182810382526025815260200180614a846025913960400191505060405180910390fd5b612fed613633565b6001600160a01b0316856001600160a01b03161480613013575061301385611183613633565b61304e5760405162461bcd60e51b8152600401808060200182810382526029815260200180614a3b6029913960400191505060405180910390fd5b6000613058613633565b9050613078818787613069886141be565b613072886141be565b876113c6565b6130bf836040518060600160405280602a8152602001614afe602a913960008781526001602090815260408083206001600160a01b038d1684529091529020549190613637565b60008581526001602090815260408083206001600160a01b038b811685529252808320939093558716815220546130f690846136ce565b60008581526001602090815260408083206001600160a01b03808b168086529184529382902094909455805188815291820187905280518a84169386169260008051602061496283398151915292908290030190a46113c6818787878787614203565b613161613633565b6001600160a01b0316613172611f0e565b6001600160a01b0316146131bb576040805162461bcd60e51b81526020600482018190526024820152600080516020614b73833981519152604482015290519081900360640190fd5b6001600160a01b0381166132005760405162461bcd60e51b81526004018080602001828103825260268152602001806149d16026913960400191505060405180910390fd5b6004546040516001600160a01b038084169216907f8be0079c531659141344cd1fd0a4f28419497f9722a3daafe3b4186f6b6457e090600090a3600480546001600160a01b0319166001600160a01b0392909216919091179055565b613264613633565b6001600160a01b0316613275611f0e565b6001600160a01b0316146132be576040805162461bcd60e51b81526020600482018190526024820152600080516020614b73833981519152604482015290519081900360640190fd5b600680546001600160a01b0319166001600160a01b0392909216919091179055565b60008381526007602052604090205482821180156132fe5750600083115b156133565760065483830390600090620186a09061333390848703906116c590600160b01b900461ffff166122bc88886139a5565b8161333a57fe5b60065491900491506113c6906001600160a01b03168783613b71565b50505050565b604080516001600160a01b038416602482015260448082018490528251808303909101815260649091019091526020810180516001600160e01b031663a9059cbb60e01b1790526133ae908490614374565b505050565b6000828152600760205260409020546133cc9082613b14565b6000838152600760205260409020556133ae838383614425565b6001600160a01b0383166000908152600a6020526040812054819081908190879060ff166001811415613458576040805162461bcd60e51b8152602060048201526015602482015274135bdb9bdcddd85c0e881413d3d3081313d0d2d151605a1b604482015290519081900360640190fd5b60ff8116613484576001600160a01b0382166000908152600a60205260409020805460ff191660011790555b6001600160a01b038916600090815260096020526040902060040154600160701b90046001600160701b03166134bb8a8a8a613ceb565b604080516370a0823160e01b815230600482015290519297509095506000916001600160a01b038d16916370a08231916024808301926020929190829003018186803b15801561350a57600080fd5b505afa15801561351e573d6000803e3d6000fd5b505050506040513d602081101561353457600080fd5b50519050670de0b6b3a764000061354b83836139a5565b8161355257fe5b0496506001600160701b0381111561359c576040805162461bcd60e51b81526020600482015260086024820152674f564552464c4f5760c01b604482015290519081900360640190fd5b6001600160a01b038b16600090815260096020526040902060040180546001600160701b0319166001600160701b0383161790556135de856123f989896136ce565b6001600160a01b038c1660009081526009602052604090206001018190559750505060ff81166116f9576001600160a01b0382166000908152600a60205260409020805460ff19169055505093509350935093565b3390565b600081848411156136c65760405162461bcd60e51b81526004018080602001828103825283818151815260200191508051906020019080838360005b8381101561368b578181015183820152602001613673565b50505050905090810190601f1680156136b85780820380516001836020036101000a031916815260200191505b509250505060405180910390fd5b505050900390565b600082820183811015612950576040805162461bcd60e51b815260206004820152601b60248201527a536166654d6174683a206164646974696f6e206f766572666c6f7760281b604482015290519081900360640190fd5b613738846001600160a01b0316614546565b156113c657836001600160a01b031663bc197c8187878686866040518663ffffffff1660e01b815260040180866001600160a01b03168152602001856001600160a01b03168152602001806020018060200180602001848103845287818151815260200191508051906020019060200280838360005b838110156137c65781810151838201526020016137ae565b50505050905001848103835286818151815260200191508051906020019060200280838360005b838110156138055781810151838201526020016137ed565b50505050905001848103825285818151815260200191508051906020019080838360005b83811015613841578181015183820152602001613829565b50505050905090810190601f16801561386e5780820380516001836020036101000a031916815260200191505b5098505050505050505050602060405180830381600087803b15801561389357600080fd5b505af19250505080156138b857506040513d60208110156138b357600080fd5b505160015b61394d576138c4614861565b806138cf5750613916565b60405162461bcd60e51b815260206004820181815283516024840152835184939192839260440191908501908083836000831561368b578181015183820152602001613673565b60405162461bcd60e51b81526004018080602001828103825260348152602001806149066034913960400191505060405180910390fd5b6001600160e01b0319811663bc197c8160e01b1461399c5760405162461bcd60e51b815260040180806020018281038252602881526020018061493a6028913960400191505060405180910390fd5b50505050505050565b6000826139b457506000610f2d565b828202828482816139c157fe5b04146129505760405162461bcd60e51b8152600401808060200182810382526021815260200180614b286021913960400191505060405180910390fd5b600080826001811115613a0d57fe5b1415613a3657613a1d84846136ce565b613a2786866139a5565b81613a2e57fe5b0490506110c8565b613a4d613a438585613b14565b6116c587876139a5565b95945050505050565b6000808211613aa9576040805162461bcd60e51b815260206004820152601a602482015279536166654d6174683a206469766973696f6e206279207a65726f60301b604482015290519081900360640190fd5b818381613ab257fe5b049392505050565b604080516001600160a01b0380861660248301528416604482015260648082018490528251808303909101815260849091019091526020810180516001600160e01b03166323b872dd60e01b179052613356908590614374565b600082821115613b6b576040805162461bcd60e51b815260206004820152601e60248201527f536166654d6174683a207375627472616374696f6e206f766572666c6f770000604482015290519081900360640190fd5b50900390565b600082815260076020526040902054613b8a90826136ce565b60076000848152602001908152602001600020819055506133ae8383836040518060200160405280600081525061454c565b6000846001600160a01b03166370a08231306040518263ffffffff1660e01b815260040180826001600160a01b0316815260200191505060206040518083038186803b158015613c0b57600080fd5b505afa158015613c1f573d6000803e3d6000fd5b505050506040513d6020811015613c3557600080fd5b505190506001600160701b038411801590613c5757506001600160701b038111155b613c93576040805162461bcd60e51b81526020600482015260086024820152674f564552464c4f5760c01b604482015290519081900360640190fd5b6001600160a01b038516600090815260096020526040902060040180546001600160701b03868116600160701b02600160701b600160e01b03199185166001600160701b0319909316929092171617905561399c8584845b60008082841115613d03579190920391600091613d0b565b600093909203915b6001600160a01b038516600090815260096020526040902060038101546002909101546001600160701b03600160701b8304811692169060ff600160a01b909104168515613e0f57613d5e838388614642565b90955093506001600160701b038511801590613d8157506001600160701b038411155b613dbd576040805162461bcd60e51b81526020600482015260086024820152674f564552464c4f5760c01b604482015290519081900360640190fd5b6001600160a01b038816600090815260096020526040902060030180546001600160701b038681166001600160701b0319918916600160701b02600160701b600160e01b031990931692909217161790555b8615613ed157613e20838389614686565b90955093506001600160701b038511801590613e4357506001600160701b038411155b613e7f576040805162461bcd60e51b81526020600482015260086024820152674f564552464c4f5760c01b604482015290519081900360640190fd5b6001600160a01b038816600090815260096020526040902060030180546001600160701b038681166001600160701b0319918916600160701b02600160701b600160e01b031990931692909217161790555b6001816002811115613edf57fe5b1415613f22578315613f225760405162461bcd60e51b815260040180806020018281038252602a815260200180614b49602a913960400191505060405180910390fd5b505050935093915050565b6000600d54600114613f79576040805162461bcd60e51b815260206004820152601060248201526f135bdb9bdcddd85c0e881313d0d2d15160821b604482015290519081900360640190fd5b6000600d8190556001600160a01b0385168152600b602052604090205460ff1615613fe4576040805162461bcd60e51b81526020600482015260166024820152754d6f6e6f737761703a20546f6b656e2045786973747360501b604482015290519081900360640190fd5b6005546001600160a01b0385811691161415614047576040805162461bcd60e51b815260206004820152601f60248201527f4d6f6e6f737761703a207655534420706f6f6c206e6f7420616c6c6f77656400604482015290519081900360640190fd5b600c54905060405180610100016040528082815260200160008152602001856001600160a01b0316815260200183600281111561408057fe5b815260006020808301829052604080840183905260608085018490526001600160701b0389166080909501949094526001600160a01b038981168452600983529281902085518155918501516001830155840151600280830180546001600160a01b031916929094169190911780845593850151919391929160ff60a01b191690600160a01b90849081111561411257fe5b0217905550608082015160038201805460a08501516001600160701b03908116600160701b908102600160701b600160e01b03199583166001600160701b03199485161786161790935560c08601516004909501805460e090970151821690930294169416939093171617905561418a8160016136ce565b600c556001600160a01b039093166000908152600b60205260409020805460ff19166001908117909155600d555090919050565b604080516001808252818301909252606091600091906020808301908036833701905050905082816000815181106141f257fe5b602090810291909101015292915050565b614215846001600160a01b0316614546565b156113c657836001600160a01b031663f23a6e6187878686866040518663ffffffff1660e01b815260040180866001600160a01b03168152602001856001600160a01b0316815260200184815260200183815260200180602001828103825283818151815260200191508051906020019080838360005b838110156142a457818101518382015260200161428c565b50505050905090810190601f1680156142d15780820380516001836020036101000a031916815260200191505b509650505050505050602060405180830381600087803b1580156142f457600080fd5b505af192505050801561431957506040513d602081101561431457600080fd5b505160015b614325576138c4614861565b6001600160e01b0319811663f23a6e6160e01b1461399c5760405162461bcd60e51b815260040180806020018281038252602881526020018061493a6028913960400191505060405180910390fd5b60006143c9826040518060400160405280602081526020017f5361666545524332303a206c6f772d6c6576656c2063616c6c206661696c6564815250856001600160a01b03166146d09092919063ffffffff16565b8051909150156133ae578080602001905160208110156143e857600080fd5b50516133ae5760405162461bcd60e51b815260040180806020018281038252602a815260200180614bdf602a913960400191505060405180910390fd5b6001600160a01b03831661446a5760405162461bcd60e51b8152600401808060200182810382526023815260200180614adb6023913960400191505060405180910390fd5b6000614474613633565b90506144a481856000614486876141be565b61448f876141be565b604051806020016040528060008152506113c6565b6144eb826040518060600160405280602481526020016149f76024913960008681526001602090815260408083206001600160a01b038b1684529091529020549190613637565b60008481526001602090815260408083206001600160a01b03808a168086529184528285209590955581518881529283018790528151939490939086169260008051602061496283398151915292908290030190a450505050565b3b151590565b6001600160a01b0384166145915760405162461bcd60e51b8152600401808060200182810382526021815260200180614c5a6021913960400191505060405180910390fd5b600061459b613633565b90506145ad81600087613069886141be565b60008481526001602090815260408083206001600160a01b03891684529091529020546145da90846136ce565b60008581526001602090815260408083206001600160a01b03808b168086529184528285209590955581518981529283018890528151909486169260008051602061496283398151915292908290030190a461463b81600087878787614203565b5050505050565b600080841561466d5784831115614660575060009050838203614668565b505080830360005b61467e565b6000915061467b84846136ce565b90505b935093915050565b60008083156146ba57838311156146ad575060006146a6858585036136ce565b9150614668565b506000905081830361467e565b6146c485846136ce565b95600095509350505050565b60606110c88484600085856146e485614546565b614735576040805162461bcd60e51b815260206004820152601d60248201527f416464726573733a2063616c6c20746f206e6f6e2d636f6e7472616374000000604482015290519081900360640190fd5b600080866001600160a01b031685876040518082805190602001908083835b602083106147735780518252601f199092019160209182019101614754565b6001836020036101000a03801982511681845116808217855250505050505090500191505060006040518083038185875af1925050503d80600081146147d5576040519150601f19603f3d011682016040523d82523d6000602084013e6147da565b606091505b50915091506147ea8282866147f5565b979650505050505050565b60608315614804575081612950565b8251156148145782518084602001fd5b60405162461bcd60e51b815260206004820181815284516024840152845185939192839260440191908501908083836000831561368b578181015183820152602001613673565b60e01c90565b600060443d101561487157611f1b565b600481823e6308c379a0614885825161485b565b1461488f57611f1b565b6040513d600319016004823e80513d6001600160401b0381602484011181841117156148be5750505050611f1b565b828401925082519150808211156148d85750505050611f1b565b503d830160208284010111156148f057505050611f1b565b601f01601f191681016020016040529150509056fe455243313135353a207472616e7366657220746f206e6f6e2045524331313535526563656976657220696d706c656d656e746572455243313135353a204552433131353552656365697665722072656a656374656420746f6b656e73c3d58168c5ae7397731d063d5bbf3d657854427343f4c083240f7aacaa2d0f624d6f6e6f737761703a20494e53554646494349454e545f4f55545055545f414d4f554e54455243313135353a2062616c616e636520717565727920666f7220746865207a65726f20616464726573734f776e61626c653a206e6577206f776e657220697320746865207a65726f2061646472657373455243313135353a206275726e20616d6f756e7420657863656564732062616c616e63654d6f6e6f737761703a20546f6b656e204e6f7420466f756e6400000000000000455243313135353a2063616c6c6572206973206e6f74206f776e6572206e6f7220617070726f7665644d6f6e6f737761703a20506f6f6c20556e6c6973746564000000000000000000455243313135353a207472616e7366657220746f20746865207a65726f2061646472657373455243313135353a207472616e736665722063616c6c6572206973206e6f74206f776e6572206e6f7220617070726f766564455243313135353a206275726e2066726f6d20746865207a65726f2061646472657373455243313135353a20696e73756666696369656e742062616c616e636520666f72207472616e73666572536166654d6174683a206d756c7469706c69636174696f6e206f766572666c6f774d6f6e6f737761703a20756e6f6666696369616c20706f6f6c2063616e6e6f74206265617220646562744f776e61626c653a2063616c6c6572206973206e6f7420746865206f776e65724d6f6e6f737761703a20494e53554646494349454e545f494e5055545f414d4f554e54455243313135353a2073657474696e6720617070726f76616c2073746174757320666f722073656c665361666545524332303a204552433230206f7065726174696f6e20646964206e6f742073756363656564455243313135353a206163636f756e747320616e6420696473206c656e677468206d69736d61746368455243313135353a2069647320616e6420616d6f756e7473206c656e677468206d69736d61746368455243313135353a206d696e7420746f20746865207a65726f20616464726573734d6f6e6f737761703a204c65737320746f6b656e20616d6f756e74207468616e2064657369726564a26469706673582212208cbd939e2332d8789f7be5c8430eb3aa8edd3ae554ac556e3151b509c33674cd64736f6c63430007060033",
  "linkReferences": {},
  "deployedLinkReferences": {}
}