{
  "_format": "hh-sol-artifact-1",
  "contractName": "Monoswap",
  "sourceName": "contracts/Monoswap.sol",
  "abi": [
    {
      "inputs": [
        {
          "internalType": "contract MonoswapToken",
          "name": "_monoswapToken",
          "type": "address"
        },
        {
          "internalType": "contract IvUSD",
          "name": "_vusd",
          "type": "address"
        }
      ],
      "stateMutability": "nonpayable",
      "type": "constructor"
    },
    {
      "anonymous": false,
      "inputs": [
        {
          "indexed": true,
          "internalType": "address",
          "name": "provider",
          "type": "address"
        },
        {
          "indexed": true,
          "internalType": "uint256",
          "name": "pid",
          "type": "uint256"
        },
        {
          "indexed": true,
          "internalType": "address",
          "name": "token",
          "type": "address"
        },
        {
          "indexed": false,
          "internalType": "uint256",
          "name": "liquidityAmount",
          "type": "uint256"
        },
        {
          "indexed": false,
          "internalType": "uint256",
          "name": "vusdAmount",
          "type": "uint256"
        },
        {
          "indexed": false,
          "internalType": "uint256",
          "name": "tokenAmount",
          "type": "uint256"
        }
      ],
      "name": "AddLiquidity",
      "type": "event"
    },
    {
      "anonymous": false,
      "inputs": [
        {
          "indexed": true,
          "internalType": "address",
          "name": "previousOwner",
          "type": "address"
        },
        {
          "indexed": true,
          "internalType": "address",
          "name": "newOwner",
          "type": "address"
        }
      ],
      "name": "OwnershipTransferred",
      "type": "event"
    },
    {
      "anonymous": false,
      "inputs": [
        {
          "indexed": true,
          "internalType": "address",
          "name": "provider",
          "type": "address"
        },
        {
          "indexed": true,
          "internalType": "uint256",
          "name": "pid",
          "type": "uint256"
        },
        {
          "indexed": true,
          "internalType": "address",
          "name": "token",
          "type": "address"
        },
        {
          "indexed": false,
          "internalType": "uint256",
          "name": "liquidityAmount",
          "type": "uint256"
        },
        {
          "indexed": false,
          "internalType": "uint256",
          "name": "vusdAmount",
          "type": "uint256"
        },
        {
          "indexed": false,
          "internalType": "uint256",
          "name": "tokenAmount",
          "type": "uint256"
        }
      ],
      "name": "RemoveLiquidity",
      "type": "event"
    },
    {
      "anonymous": false,
      "inputs": [
        {
          "indexed": true,
          "internalType": "address",
          "name": "user",
          "type": "address"
        },
        {
          "indexed": true,
          "internalType": "address",
          "name": "tokenIn",
          "type": "address"
        },
        {
          "indexed": true,
          "internalType": "address",
          "name": "tokenOut",
          "type": "address"
        },
        {
          "indexed": false,
          "internalType": "uint256",
          "name": "amountIn",
          "type": "uint256"
        },
        {
          "indexed": false,
          "internalType": "uint256",
          "name": "amountOut",
          "type": "uint256"
        }
      ],
      "name": "Swap",
      "type": "event"
    },
    {
      "inputs": [
        {
          "internalType": "address",
          "name": "_token",
          "type": "address"
        },
        {
          "internalType": "uint256",
          "name": "liquidity",
          "type": "uint256"
        },
        {
          "internalType": "address",
          "name": "to",
          "type": "address"
        }
      ],
      "name": "_removeLiquidity",
      "outputs": [
        {
          "internalType": "uint256",
          "name": "poolValue",
          "type": "uint256"
        },
        {
          "internalType": "uint256",
          "name": "liquidityIn",
          "type": "uint256"
        },
        {
          "internalType": "uint256",
          "name": "vusdOut",
          "type": "uint256"
        },
        {
          "internalType": "uint256",
          "name": "tokenOut",
          "type": "uint256"
        }
      ],
      "stateMutability": "view",
      "type": "function"
    },
    {
      "inputs": [
        {
          "internalType": "address",
          "name": "_token",
          "type": "address"
        },
        {
          "internalType": "uint256",
          "name": "_amount",
          "type": "uint256"
        },
        {
          "internalType": "address",
          "name": "to",
          "type": "address"
        }
      ],
      "name": "addLiquidity",
      "outputs": [
        {
          "internalType": "uint256",
          "name": "liquidity",
          "type": "uint256"
        }
      ],
      "stateMutability": "nonpayable",
      "type": "function"
    },
    {
      "inputs": [
        {
          "internalType": "address",
          "name": "_token",
          "type": "address"
        },
        {
          "internalType": "uint256",
          "name": "vusdAmount",
          "type": "uint256"
        },
        {
          "internalType": "uint256",
          "name": "tokenAmount",
          "type": "uint256"
        },
        {
          "internalType": "address",
          "name": "to",
          "type": "address"
        }
      ],
      "name": "addLiquidityPair",
      "outputs": [
        {
          "internalType": "uint256",
          "name": "liquidity",
          "type": "uint256"
        }
      ],
      "stateMutability": "nonpayable",
      "type": "function"
    },
    {
      "inputs": [
        {
          "internalType": "address",
          "name": "_token",
          "type": "address"
        },
        {
          "internalType": "uint112",
          "name": "_price",
          "type": "uint112"
        }
      ],
      "name": "addOfficialToken",
      "outputs": [
        {
          "internalType": "uint256",
          "name": "_pid",
          "type": "uint256"
        }
      ],
      "stateMutability": "nonpayable",
      "type": "function"
    },
    {
      "inputs": [
        {
          "internalType": "address",
          "name": "tokenIn",
          "type": "address"
        },
        {
          "internalType": "address",
          "name": "tokenOut",
          "type": "address"
        },
        {
          "internalType": "uint256",
          "name": "amountOut",
          "type": "uint256"
        }
      ],
      "name": "getAmountIn",
      "outputs": [
        {
          "internalType": "uint256",
          "name": "tokenInPrice",
          "type": "uint256"
        },
        {
          "internalType": "uint256",
          "name": "tokenOutPrice",
          "type": "uint256"
        },
        {
          "internalType": "uint256",
          "name": "amountIn",
          "type": "uint256"
        },
        {
          "internalType": "uint256",
          "name": "tradeVusdValue",
          "type": "uint256"
        }
      ],
      "stateMutability": "view",
      "type": "function"
    },
    {
      "inputs": [
        {
          "internalType": "address",
          "name": "tokenIn",
          "type": "address"
        },
        {
          "internalType": "address",
          "name": "tokenOut",
          "type": "address"
        },
        {
          "internalType": "uint256",
          "name": "amountIn",
          "type": "uint256"
        }
      ],
      "name": "getAmountOut",
      "outputs": [
        {
          "internalType": "uint256",
          "name": "tokenInPrice",
          "type": "uint256"
        },
        {
          "internalType": "uint256",
          "name": "tokenOutPrice",
          "type": "uint256"
        },
        {
          "internalType": "uint256",
          "name": "amountOut",
          "type": "uint256"
        },
        {
          "internalType": "uint256",
          "name": "tradeVusdValue",
          "type": "uint256"
        }
      ],
      "stateMutability": "view",
      "type": "function"
    },
    {
      "inputs": [
        {
          "internalType": "address",
          "name": "_token",
          "type": "address"
        }
      ],
      "name": "getPool",
      "outputs": [
        {
          "internalType": "uint256",
          "name": "poolValue",
          "type": "uint256"
        },
        {
          "internalType": "uint256",
          "name": "tokenBalanceVusdValue",
          "type": "uint256"
        },
        {
          "internalType": "uint256",
          "name": "vusdCredit",
          "type": "uint256"
        },
        {
          "internalType": "uint256",
          "name": "vusdDebt",
          "type": "uint256"
        }
      ],
      "stateMutability": "view",
      "type": "function"
    },
    {
      "inputs": [
        {
          "internalType": "address",
          "name": "_token",
          "type": "address"
        },
        {
          "internalType": "uint112",
          "name": "_price",
          "type": "uint112"
        },
        {
          "internalType": "uint256",
          "name": "vusdAmount",
          "type": "uint256"
        },
        {
          "internalType": "uint256",
          "name": "tokenAmount",
          "type": "uint256"
        },
        {
          "internalType": "address",
          "name": "to",
          "type": "address"
        }
      ],
      "name": "listNewToken",
      "outputs": [
        {
          "internalType": "uint256",
          "name": "_pid",
          "type": "uint256"
        },
        {
          "internalType": "uint256",
          "name": "liquidity",
          "type": "uint256"
        }
      ],
      "stateMutability": "nonpayable",
      "type": "function"
    },
    {
      "inputs": [],
      "name": "monoswapToken",
      "outputs": [
        {
          "internalType": "contract MonoswapToken",
          "name": "",
          "type": "address"
        }
      ],
      "stateMutability": "view",
      "type": "function"
    },
    {
      "inputs": [],
      "name": "owner",
      "outputs": [
        {
          "internalType": "address",
          "name": "",
          "type": "address"
        }
      ],
      "stateMutability": "view",
      "type": "function"
    },
    {
      "inputs": [],
      "name": "poolSize",
      "outputs": [
        {
          "internalType": "uint256",
          "name": "",
          "type": "uint256"
        }
      ],
      "stateMutability": "view",
      "type": "function"
    },
    {
      "inputs": [
        {
          "internalType": "address",
          "name": "",
          "type": "address"
        }
      ],
      "name": "pools",
      "outputs": [
        {
          "internalType": "uint256",
          "name": "pid",
          "type": "uint256"
        },
        {
          "internalType": "uint256",
          "name": "lastPoolValue",
          "type": "uint256"
        },
        {
          "internalType": "address",
          "name": "token",
          "type": "address"
        },
        {
          "internalType": "enum Monoswap.PoolStatus",
          "name": "status",
          "type": "uint8"
        },
        {
          "internalType": "uint112",
          "name": "vusdDebt",
          "type": "uint112"
        },
        {
          "internalType": "uint112",
          "name": "vusdCredit",
          "type": "uint112"
        },
        {
          "internalType": "uint112",
          "name": "tokenBalance",
          "type": "uint112"
        },
        {
          "internalType": "uint112",
          "name": "price",
          "type": "uint112"
        }
      ],
      "stateMutability": "view",
      "type": "function"
    },
    {
      "inputs": [
        {
          "internalType": "address",
          "name": "_token",
          "type": "address"
        },
        {
          "internalType": "uint256",
          "name": "liquidity",
          "type": "uint256"
        },
        {
          "internalType": "address",
          "name": "to",
          "type": "address"
        },
        {
          "internalType": "uint256",
          "name": "minVusdOut",
          "type": "uint256"
        },
        {
          "internalType": "uint256",
          "name": "minTokenOut",
          "type": "uint256"
        }
      ],
      "name": "removeLiquidity",
      "outputs": [
        {
          "internalType": "uint256",
          "name": "vusdOut",
          "type": "uint256"
        },
        {
          "internalType": "uint256",
          "name": "tokenOut",
          "type": "uint256"
        }
      ],
      "stateMutability": "nonpayable",
      "type": "function"
    },
    {
      "inputs": [],
      "name": "renounceOwnership",
      "outputs": [],
      "stateMutability": "nonpayable",
      "type": "function"
    },
    {
      "inputs": [
        {
          "internalType": "uint16",
          "name": "_devFee",
          "type": "uint16"
        }
      ],
      "name": "setDevFee",
      "outputs": [],
      "stateMutability": "nonpayable",
      "type": "function"
    },
    {
      "inputs": [
        {
          "internalType": "address",
          "name": "_feeTo",
          "type": "address"
        }
      ],
      "name": "setFeeTo",
      "outputs": [],
      "stateMutability": "nonpayable",
      "type": "function"
    },
    {
      "inputs": [
        {
          "internalType": "uint16",
          "name": "_fees",
          "type": "uint16"
        }
      ],
      "name": "setFees",
      "outputs": [],
      "stateMutability": "nonpayable",
      "type": "function"
    },
    {
      "inputs": [
        {
          "internalType": "address",
          "name": "tokenIn",
          "type": "address"
        },
        {
          "internalType": "address",
          "name": "tokenOut",
          "type": "address"
        },
        {
          "internalType": "uint256",
          "name": "amountIn",
          "type": "uint256"
        },
        {
          "internalType": "uint256",
          "name": "amountOutMin",
          "type": "uint256"
        },
        {
          "internalType": "address",
          "name": "to",
          "type": "address"
        },
        {
          "internalType": "uint256",
          "name": "deadline",
          "type": "uint256"
        }
      ],
      "name": "swapExactTokenForToken",
      "outputs": [
        {
          "internalType": "uint256",
          "name": "amountOut",
          "type": "uint256"
        }
      ],
      "stateMutability": "nonpayable",
      "type": "function"
    },
    {
      "inputs": [
        {
          "internalType": "address",
          "name": "tokenIn",
          "type": "address"
        },
        {
          "internalType": "address",
          "name": "tokenOut",
          "type": "address"
        },
        {
          "internalType": "address",
          "name": "to",
          "type": "address"
        },
        {
          "internalType": "uint256",
          "name": "amountIn",
          "type": "uint256"
        }
      ],
      "name": "swapIn",
      "outputs": [
        {
          "internalType": "uint256",
          "name": "amountOut",
          "type": "uint256"
        }
      ],
      "stateMutability": "nonpayable",
      "type": "function"
    },
    {
      "inputs": [
        {
          "internalType": "address",
          "name": "tokenIn",
          "type": "address"
        },
        {
          "internalType": "address",
          "name": "tokenOut",
          "type": "address"
        },
        {
          "internalType": "address",
          "name": "to",
          "type": "address"
        },
        {
          "internalType": "uint256",
          "name": "amountOut",
          "type": "uint256"
        }
      ],
      "name": "swapOut",
      "outputs": [
        {
          "internalType": "uint256",
          "name": "amountIn",
          "type": "uint256"
        }
      ],
      "stateMutability": "nonpayable",
      "type": "function"
    },
    {
      "inputs": [
        {
          "internalType": "address",
          "name": "tokenIn",
          "type": "address"
        },
        {
          "internalType": "address",
          "name": "tokenOut",
          "type": "address"
        },
        {
          "internalType": "uint256",
          "name": "amountInMax",
          "type": "uint256"
        },
        {
          "internalType": "uint256",
          "name": "amountOut",
          "type": "uint256"
        },
        {
          "internalType": "address",
          "name": "to",
          "type": "address"
        },
        {
          "internalType": "uint256",
          "name": "deadline",
          "type": "uint256"
        }
      ],
      "name": "swapTokenForExactToken",
      "outputs": [
        {
          "internalType": "uint256",
          "name": "amountIn",
          "type": "uint256"
        }
      ],
      "stateMutability": "nonpayable",
      "type": "function"
    },
    {
      "inputs": [
        {
          "internalType": "address",
          "name": "",
          "type": "address"
        }
      ],
      "name": "tokenPoolStatus",
      "outputs": [
        {
          "internalType": "uint8",
          "name": "",
          "type": "uint8"
        }
      ],
      "stateMutability": "view",
      "type": "function"
    },
    {
      "inputs": [
        {
          "internalType": "uint256",
          "name": "",
          "type": "uint256"
        }
      ],
      "name": "totalSupply",
      "outputs": [
        {
          "internalType": "uint256",
          "name": "",
          "type": "uint256"
        }
      ],
      "stateMutability": "view",
      "type": "function"
    },
    {
      "inputs": [
        {
          "internalType": "address",
          "name": "newOwner",
          "type": "address"
        }
      ],
      "name": "transferOwnership",
      "outputs": [],
      "stateMutability": "nonpayable",
      "type": "function"
    }
  ],
  "bytecode": "0x60806040526002805461ffff60a01b1916604b60a21b1761ffff60b01b1916601960b11b1790556103e8600455600060085560016009553480156200004357600080fd5b506040516200391238038062003912833981810160405260408110156200006957600080fd5b50805160209091015160006200007e620000fa565b600080546001600160a01b0319166001600160a01b0383169081178255604051929350917f8be0079c531659141344cd1fd0a4f28419497f9722a3daafe3b4186f6b6457e0908290a350600a80546001600160a01b039384166001600160a01b03199182161790915560018054929093169116179055620000fe565b3390565b613804806200010e6000396000f3fe608060405234801561001057600080fd5b50600436106101275760003560e01c8062c240871461012c578063138d03cd146101855780631a9fe17e146101df5780631b8793781461021b5780634aa06652146102515780634ec18db9146102ad57806353b609b5146102b5578063556ca709146102eb5780635dd44a6d14610325578063715018a61461036d5780638da5cb5b14610377578063a4063dbc1461039b578063b242117814610440578063bbe4f6db14610476578063bd85b0391461049c578063c22b53be146104b9578063c48caa70146104f5578063ca1123c21461052a578063d56468ac1461054b578063e18cb4fe14610596578063e4df1c43146105b7578063e903a0f1146105f3578063f2fde38b146105fb578063f46901ed14610621575b600080fd5b61016c600480360360a081101561014257600080fd5b506001600160a01b0381358116916020810135916040820135169060608101359060800135610647565b6040805192835260208301919091528051918290030190f35b6101cd600480360360c081101561019b57600080fd5b506001600160a01b03813581169160208101358216916040820135916060810135916080820135169060a0013561092b565b60408051918252519081900360200190f35b610205600480360360208110156101f557600080fd5b50356001600160a01b03166109e5565b6040805160ff9092168252519081900360200190f35b6101cd6004803603606081101561023157600080fd5b506001600160a01b038135811691602081013591604090910135166109fa565b6102876004803603606081101561026757600080fd5b506001600160a01b03813581169160208101359091169060400135610a11565b604080519485526020850193909352838301919091526060830152519081900360800190f35b6101cd610d47565b610287600480360360608110156102cb57600080fd5b506001600160a01b03813581169160208101359091169060400135610d4d565b6101cd6004803603608081101561030157600080fd5b506001600160a01b038135811691602081013591604082013591606001351661106b565b6101cd600480360360c081101561033b57600080fd5b506001600160a01b03813581169160208101358216916040820135916060810135916080820135169060a00135611321565b6103756113ba565b005b61037f611466565b604080516001600160a01b039092168252519081900360200190f35b6103c1600480360360208110156103b157600080fd5b50356001600160a01b0316611475565b60405180898152602001888152602001876001600160a01b031681526020018660028111156103ec57fe5b8152602001856001600160701b03168152602001846001600160701b03168152602001836001600160701b03168152602001826001600160701b031681526020019850505050505050505060405180910390f35b6102876004803603606081101561045657600080fd5b506001600160a01b038135811691602081013591604090910135166114d7565b6102876004803603602081101561048c57600080fd5b50356001600160a01b0316611869565b6101cd600480360360208110156104b257600080fd5b503561197e565b6101cd600480360360808110156104cf57600080fd5b506001600160a01b03813581169160208101358216916040820135169060600135611990565b6101cd6004803603604081101561050b57600080fd5b5080356001600160a01b031690602001356001600160701b0316611e55565b6103756004803603602081101561054057600080fd5b503561ffff16611ecc565b61016c600480360360a081101561056157600080fd5b506001600160a01b0381358116916001600160701b036020820135169160408201359160608101359160809091013516611f9b565b610375600480360360208110156105ac57600080fd5b503561ffff16611fc4565b6101cd600480360360808110156105cd57600080fd5b506001600160a01b03813581169160208101358216916040820135169060600135612095565b61037f6124e7565b6103756004803603602081101561061157600080fd5b50356001600160a01b03166124f6565b6103756004803603602081101561063757600080fd5b50356001600160a01b03166125f8565b6001600160a01b038516600090815260076020526040812054819060ff166001146106a7576040805162461bcd60e51b815260206004820152601960248201526000805160206136af833981519152604482015290519081900360640190fd5b6001600160a01b038781166000908152600560209081526040808320815161010081018352815481526001820154938101939093526002808201549586169284019290925292939192916060840191600160a01b90910460ff169081111561070b57fe5b600281111561071657fe5b815260038201546001600160701b038082166020840152600160701b918290048116604084015260049093015480841660608401520490911660809091015290506000806107658a8a8a6114d7565b8651602088015192995090975092945090925061078391908461267c565b868510156107d8576040805162461bcd60e51b815260206004820181905260248201527f4d6f6e6f737761703a204c6573732076555344207468616e2064657369726564604482015290519081900360640190fd5b858410156108175760405162461bcd60e51b81526004018080602001828103825260288152602001806137a76028913960400191505060405180910390fd5b841561088b57600154604080516340c10f1960e01b81526001600160a01b038b8116600483015260248201899052915191909216916340c10f1991604480830192600092919082900301818387803b15801561087257600080fd5b505af1158015610886573d6000803e3d6000fd5b505050505b61089f6001600160a01b038b16898661275a565b6108ae888460000151836127b1565b6108ba8a600087612852565b50505050896001600160a01b03168360000151896001600160a01b03167fab577bf53edf8e035c53859461bfaac55e75b9380a594cc487ae89665d7788f284898960405180848152602001838152602001828152602001935050505060405180910390a45050509550959350505050565b60008142811015610977576040805162461bcd60e51b8152602060048201526011602482015270135bdb9bdcddd85c0e8811561412549151607a1b604482015290519081900360640190fd5b61098388888688611990565b9150858211156109da576040805162461bcd60e51b815260206004820181905260248201527f4d6f6e6f737761703a204558434553534956455f494e5055545f414d4f554e54604482015290519081900360640190fd5b509695505050505050565b60076020526000908152604090205460ff1681565b6000610a09846000858561106b565b949350505050565b60008060008060008511610a565760405162461bcd60e51b815260040180806020018281038252602381526020018061375a6023913960400191505060405180910390fd5b600254600090620186a090610a7e908890600160a01b900461ffff16830362ffffff16612a9f565b81610a8557fe5b60015491900491506001600160a01b03908116908916811415610ab557819250670de0b6b3a76400009550610bd4565b6001600160a01b03891660009081526007602052604090205460ff16600114610b13576040805162461bcd60e51b815260206004820152601960248201526000805160206136af833981519152604482015290519081900360640190fd5b6001600160a01b03891660009081526005602052604081206002810154600490910154600160a01b90910460ff1691600160701b82046001600160701b03908116921690836002811115610b6357fe5b1415610ba4576040805162461bcd60e51b815260206004820152601760248201526000805160206136cf833981519152604482015290519081900360640190fd5b610bb18282876000612b01565b9850670de0b6b3a7640000610bc68a87612a9f565b81610bcd57fe5b0495505050505b806001600160a01b0316886001600160a01b03161415610c0157829350670de0b6b3a76400009450610d3c565b6001600160a01b03881660009081526007602052604090205460ff16600114610c5f576040805162461bcd60e51b815260206004820152601960248201526000805160206136af833981519152604482015290519081900360640190fd5b6001600160a01b03881660009081526005602052604081206002810154600490910154600160a01b90910460ff1691600160701b82046001600160701b03908116921690836002811115610caf57fe5b1415610cf0576040805162461bcd60e51b815260206004820152601760248201526000805160206136cf833981519152604482015290519081900360640190fd5b6000610d0e83610d0889670de0b6b3a7640000612a9f565b90612b59565b9050610d1d8383836001612b01565b9850610d3589610d0889670de0b6b3a7640000612a9f565b9750505050505b505093509350935093565b60085481565b60008060008060008511610d925760405162461bcd60e51b815260040180806020018281038252602381526020018061375a6023913960400191505060405180910390fd5b600254600090620186a090610dba908890600160a01b900461ffff16830162ffffff16612a9f565b81610dc157fe5b60015491900491506001600160a01b03908116908816811415610df157819250670de0b6b3a76400009450610f10565b6001600160a01b03881660009081526007602052604090205460ff16600114610e4f576040805162461bcd60e51b815260206004820152601960248201526000805160206136af833981519152604482015290519081900360640190fd5b6001600160a01b03881660009081526005602052604081206002810154600490910154600160a01b90910460ff1691600160701b82046001600160701b03908116921690836002811115610e9f57fe5b1415610ee0576040805162461bcd60e51b815260206004820152601760248201526000805160206136cf833981519152604482015290519081900360640190fd5b610eed8282876001612b01565b9750670de0b6b3a7640000610f028987612a9f565b81610f0957fe5b0495505050505b806001600160a01b0316896001600160a01b03161415610f3d57829350670de0b6b3a76400009550610d3c565b6001600160a01b03891660009081526007602052604090205460ff16600114610f9b576040805162461bcd60e51b815260206004820152601960248201526000805160206136af833981519152604482015290519081900360640190fd5b6001600160a01b03891660009081526005602052604081206002810154600490910154600160a01b90910460ff1691600160701b82046001600160701b03908116921690836002811115610feb57fe5b141561102c576040805162461bcd60e51b815260206004820152601760248201526000805160206136cf833981519152604482015290519081900360640190fd5b600061104483610d0889670de0b6b3a7640000612a9f565b90506110538383836000612b01565b9950610d358a610d0889670de0b6b3a7640000612a9f565b60008083116110b8576040805162461bcd60e51b8152602060048201526014602482015273135bdb9bdcddd85c0e8810985908105b5bdd5b9d60621b604482015290519081900360640190fd5b6001600160a01b03851660009081526007602052604090205460ff1660011461111c576040805162461bcd60e51b8152602060048201526011602482015270135bdb9bdcddd85c0e88139bc81c1bdbdb607a1b604482015290519081900360640190fd5b600061112786611869565b5050506001600160a01b03878116600090815260056020908152604080832081516101008101835281548152600182015493810193909352600280820154958616928401929092529495509193909290916060840191600160a01b900460ff169081111561119157fe5b600281111561119c57fe5b815260038201546001600160701b03808216602080850191909152600160701b9283900482166040850152600490940154808216606085015291909104166080909101528151908201519192506111f3918461267c565b80516000908152600360205260409020546112196001600160a01b038916333089612bbd565b861561123757600154611237906001600160a01b031633308a612bbd565b6000611275670de0b6b3a76400006112658560e001516001600160701b03168a612a9f90919063ffffffff16565b8161126c57fe5b8a919004612c17565b9050816112915760045461128a908290612c6f565b94506112a2565b61129f84610d088484612a9f565b94505b6112b186846000015187612ccc565b6112bd89896000612852565b5050845160408051898152602081018d90528082018c905290516001600160a01b03808f169550929350918a16917f166ddb815a41f60899d37e5c34db8f6cd53a5c65da870fcc7315af673878562a9181900360600190a450505050949350505050565b6000814281101561136d576040805162461bcd60e51b8152602060048201526011602482015270135bdb9bdcddd85c0e8811561412549151607a1b604482015290519081900360640190fd5b61137988888689612095565b9150848210156109da5760405162461bcd60e51b81526004018080602001828103825260248152602001806136656024913960400191505060405180910390fd5b6113c2612d50565b6001600160a01b03166113d3611466565b6001600160a01b03161461141c576040805162461bcd60e51b8152602060048201819052602482015260008051602061373a833981519152604482015290519081900360640190fd5b600080546040516001600160a01b03909116907f8be0079c531659141344cd1fd0a4f28419497f9722a3daafe3b4186f6b6457e0908390a3600080546001600160a01b0319169055565b6000546001600160a01b031690565b60056020526000908152604090208054600182015460028301546003840154600490940154929391926001600160a01b03821692600160a01b90920460ff16916001600160701b0380821692600160701b928390048216928282169291041688565b60008060008060008611611529576040805162461bcd60e51b8152602060048201526014602482015273135bdb9bdcddd85c0e8810985908105b5bdd5b9d60621b604482015290519081900360640190fd5b6001600160a01b0387811660009081526005602090815260408083208151610100810183528154815260018201549381019390935260028082015495861692840192909252929384938493849390926060840191600160a01b90910460ff169081111561159257fe5b600281111561159d57fe5b815260038201546001600160701b038082166020840152600160701b918290048116604084015260049093015480841660608401520490911660809091015290506115e78b611869565b809550819650829750839b5050505050600060036000836000015181526020019081526020016000205490508a600a60009054906101000a90046001600160a01b03166001600160a01b031662fdd58e8c85600001516040518363ffffffff1660e01b815260040180836001600160a01b031681526020018281526020019250505060206040518083038186803b15801561168157600080fd5b505afa158015611695573d6000803e3d6000fd5b505050506040513d60208110156116ab57600080fd5b50511161173857600a54825160408051627eeac760e11b81526001600160a01b038e8116600483015260248201939093529051919092169162fdd58e916044808301926020929190829003018186803b15801561170757600080fd5b505afa15801561171b573d6000803e3d6000fd5b505050506040513d602081101561173157600080fd5b505161173a565b8a5b975060008c6001600160a01b03166370a08231306040518263ffffffff1660e01b815260040180826001600160a01b0316815260200191505060206040518083038186803b15801561178b57600080fd5b505afa15801561179f573d6000803e3d6000fd5b505050506040513d60208110156117b557600080fd5b505160c08401519091506001600160701b031681101561180357670de0b6b3a76400006117f88460e001516001600160701b031683612a9f90919063ffffffff16565b816117ff57fe5b0495505b831561183a5760e0830151611837906001600160701b0316610d08670de0b6b3a76400006118318a89612c6f565b90612a9f565b90505b61184882610d088b88612a9f565b975061185882610d088b84612a9f565b965050505050505093509350935093565b6001600160a01b0381811660009081526005602090815260408083208151610100810183528154815260018201549381019390935260028082015495861692840192909252929384938493849384939192916060840191600160a01b90910460ff16908111156118d557fe5b60028111156118e057fe5b815260038201546001600160701b038082166020840152600160701b9182900481166040840152600490930154808416606084015204821660809182015260a08301519083015160c084015160e085015192841697509083169550929350670de0b6b3a764000092611956929182169116612a9f565b8161195d57fe5b0493506119748261196e8686612c17565b90612c6f565b9450509193509193565b60036020526000908152604090205481565b6001600160a01b038416600090815260066020526040812054859060ff1660018114156119fc576040805162461bcd60e51b8152602060048201526015602482015274135bdb9bdcddd85c0e881413d3d3081313d0d2d151605a1b604482015290519081900360640190fd5b60ff8116611a28576001600160a01b0382166000908152600660205260409020805460ff191660011790555b6001546001600160a01b031660008080611a438b8b8a610d4d565b6001600160a01b038f16600090815260066020526040902054919a5092955090935090915060ff1660021415611a8d57611a886001600160a01b038c1633308a612bbd565b611bfb565b60008b6001600160a01b03166370a08231306040518263ffffffff1660e01b815260040180826001600160a01b0316815260200191505060206040518083038186803b158015611adc57600080fd5b505afa158015611af0573d6000803e3d6000fd5b505050506040513d6020811015611b0657600080fd5b50519050611b1f6001600160a01b038d1633308b612bbd565b60008c6001600160a01b03166370a08231306040518263ffffffff1660e01b815260040180826001600160a01b0316815260200191505060206040518083038186803b158015611b6e57600080fd5b505afa158015611b82573d6000803e3d6000fd5b505050506040513d6020811015611b9857600080fd5b50519050611ba68183612c6f565b891015611bf8576040805162461bcd60e51b815260206004820152601b60248201527a4d6f6e6f737761703a204e6f7420456e6f75676820546f6b656e7360281b604482015290519081900360640190fd5b50505b60025460009062030d4090611c1c908a90600160a01b900461ffff16612a9f565b81611c2357fe5b0490506000670de0b6b3a7640000611c3b8684612a9f565b81611c4257fe5b049050856001600160a01b03168d6001600160a01b03161415611ce05760408051632770a7eb60e21b8152306004820152602481018b905290516001600160a01b03881691639dc29fac91604480830192600092919082900301818387803b158015611cad57600080fd5b505af1158015611cc1573d6000803e3d6000fd5b50505050611cd9600282612a9f90919063ffffffff16565b9050611cf6565b611cf68d866000611cf18786612c17565b612d54565b856001600160a01b03168c6001600160a01b03161415611d9257856001600160a01b03166340c10f198c8c6040518363ffffffff1660e01b815260040180836001600160a01b0316815260200182815260200192505050600060405180830381600087803b158015611d6757600080fd5b505af1158015611d7b573d6000803e3d6000fd5b50505050611d8b8d826000612e83565b5050611dbc565b611da66001600160a01b038d168c8c61275a565b611dbc8c85611db58685612c17565b6000612d54565b8b6001600160a01b03168d6001600160a01b03168c6001600160a01b03167fcd3829a3813dc3cdd188fd3d01dcf3268c16be2fdd2dd21d0665418816e460628c8e604051808381526020018281526020019250505060405180910390a4505050505060ff821615159050611e4b576001600160a01b0382166000908152600660205260409020805460ff191690555b5050949350505050565b6000611e5f612d50565b6001600160a01b0316611e70611466565b6001600160a01b031614611eb9576040805162461bcd60e51b8152602060048201819052602482015260008051602061373a833981519152604482015290519081900360640190fd5b611ec5838360026130c5565b9392505050565b611ed4612d50565b6001600160a01b0316611ee5611466565b6001600160a01b031614611f2e576040805162461bcd60e51b8152602060048201819052602482015260008051602061373a833981519152604482015290519081900360640190fd5b6103e88161ffff1610611f79576040805162461bcd60e51b815260206004820152600e60248201526d6665657320746f6f206c6172676560901b604482015290519081900360640190fd5b6002805461ffff909216600160a01b0261ffff60a01b19909216919091179055565b600080611faa878760016130c5565b9150611fb88786868661106b565b90509550959350505050565b611fcc612d50565b6001600160a01b0316611fdd611466565b6001600160a01b031614612026576040805162461bcd60e51b8152602060048201819052602482015260008051602061373a833981519152604482015290519081900360640190fd5b6103e88161ffff1610612073576040805162461bcd60e51b815260206004820152601060248201526f64657646656520746f6f206c6172676560801b604482015290519081900360640190fd5b6002805461ffff909216600160b01b0261ffff60b01b19909216919091179055565b6001600160a01b038416600090815260066020526040812054859060ff166001811415612101576040805162461bcd60e51b8152602060048201526015602482015274135bdb9bdcddd85c0e881413d3d3081313d0d2d151605a1b604482015290519081900360640190fd5b60ff811661212d576001600160a01b0382166000908152600660205260409020805460ff191660011790555b6001546001600160a01b0388811660009081526006602052604090205491169060ff16600214156121725761216d6001600160a01b038916333088612bbd565b612290565b6000886001600160a01b03166370a08231306040518263ffffffff1660e01b815260040180826001600160a01b0316815260200191505060206040518083038186803b1580156121c157600080fd5b505afa1580156121d5573d6000803e3d6000fd5b505050506040513d60208110156121eb57600080fd5b505190506122046001600160a01b038a16333089612bbd565b6000896001600160a01b03166370a08231306040518263ffffffff1660e01b815260040180826001600160a01b0316815260200191505060206040518083038186803b15801561225357600080fd5b505afa158015612267573d6000803e3d6000fd5b505050506040513d602081101561227d57600080fd5b5051905061228b8183612c6f565b965050505b60025460009062030d40906122b1908890600160a01b900461ffff16612a9f565b816122b857fe5b04905060008060006122cb8c8c8b610a11565b909a50919450925090506000670de0b6b3a76400006122ea8587612a9f565b816122f157fe5b049050856001600160a01b03168d6001600160a01b0316141561238f5760408051632770a7eb60e21b8152306004820152602481018c905290516001600160a01b03881691639dc29fac91604480830192600092919082900301818387803b15801561235c57600080fd5b505af1158015612370573d6000803e3d6000fd5b50505050612388600282612a9f90919063ffffffff16565b90506123a0565b6123a08d856000611cf18686612c17565b856001600160a01b03168c6001600160a01b0316141561242e57856001600160a01b03166340c10f198c8b6040518363ffffffff1660e01b815260040180836001600160a01b0316815260200182815260200192505050600060405180830381600087803b15801561241157600080fd5b505af1158015612425573d6000803e3d6000fd5b50505050612451565b6124426001600160a01b038d168c8b61275a565b6124518c84611db58585612c17565b8b6001600160a01b03168d6001600160a01b03168c6001600160a01b03167fcd3829a3813dc3cdd188fd3d01dcf3268c16be2fdd2dd21d0665418816e460628d8d604051808381526020018281526020019250505060405180910390a4505050505060ff821615159050611e4b57506001600160a01b03166000908152600660205260409020805460ff19169055949350505050565b600a546001600160a01b031681565b6124fe612d50565b6001600160a01b031661250f611466565b6001600160a01b031614612558576040805162461bcd60e51b8152602060048201819052602482015260008051602061373a833981519152604482015290519081900360640190fd5b6001600160a01b03811661259d5760405162461bcd60e51b81526004018080602001828103825260268152602001806136896026913960400191505060405180910390fd5b600080546040516001600160a01b03808516939216917f8be0079c531659141344cd1fd0a4f28419497f9722a3daafe3b4186f6b6457e091a3600080546001600160a01b0319166001600160a01b0392909216919091179055565b612600612d50565b6001600160a01b0316612611611466565b6001600160a01b03161461265a576040805162461bcd60e51b8152602060048201819052602482015260008051602061373a833981519152604482015290519081900360640190fd5b600280546001600160a01b0319166001600160a01b0392909216919091179055565b600083815260036020526040902054828211801561269a5750600083115b156127545760025483830390600090620186a0906126cf9084870390610d0890600160b01b900461ffff166118318888612a9f565b816126d657fe5b600a5460025460408051630ab714fb60e11b81526001600160a01b039283166004820152602481018c905294909304604485018190529251929450169163156e29f691606480830192600092919082900301818387803b15801561273957600080fd5b505af115801561274d573d6000803e3d6000fd5b5050505050505b50505050565b604080516001600160a01b038416602482015260448082018490528251808303909101815260649091019091526020810180516001600160e01b031663a9059cbb60e01b1790526127ac908490613356565b505050565b6000828152600360205260409020546127ca9082612c6f565b60008381526003602052604080822092909255600a548251637a94c56560e11b81526001600160a01b03878116600483015260248201879052604482018690529351939091169263f5298aca9260648084019391929182900301818387803b15801561283557600080fd5b505af1158015612849573d6000803e3d6000fd5b50505050505050565b6001600160a01b038316600090815260066020526040812054819081908190879060ff1660018114156128c4576040805162461bcd60e51b8152602060048201526015602482015274135bdb9bdcddd85c0e881413d3d3081313d0d2d151605a1b604482015290519081900360640190fd5b60ff81166128f0576001600160a01b0382166000908152600660205260409020805460ff191660011790555b6001600160a01b038916600090815260056020526040902060040154600160701b90046001600160701b03166129278a8a8a612e83565b604080516370a0823160e01b815230600482015290519297509095506000916001600160a01b038d16916370a08231916024808301926020929190829003018186803b15801561297657600080fd5b505afa15801561298a573d6000803e3d6000fd5b505050506040513d60208110156129a057600080fd5b50519050670de0b6b3a76400006129b78383612a9f565b816129be57fe5b0496506001600160701b03811115612a08576040805162461bcd60e51b81526020600482015260086024820152674f564552464c4f5760c01b604482015290519081900360640190fd5b6001600160a01b038b16600090815260056020526040902060040180546001600160701b0319166001600160701b038316179055612a4a8561196e8989612c17565b6001600160a01b038c1660009081526005602052604090206001018190559750505060ff8116610d3c576001600160a01b0382166000908152600660205260409020805460ff19169055505093509350935093565b600082612aae57506000612afb565b82820282848281612abb57fe5b0414612af85760405162461bcd60e51b81526004018080602001828103825260218152602001806136ef6021913960400191505060405180910390fd5b90505b92915050565b600080826001811115612b1057fe5b1415612b3957612b208484612c17565b612b2a8686612a9f565b81612b3157fe5b049050610a09565b612b50612b468585612c6f565b610d088787612a9f565b95945050505050565b6000808211612bac576040805162461bcd60e51b815260206004820152601a602482015279536166654d6174683a206469766973696f6e206279207a65726f60301b604482015290519081900360640190fd5b818381612bb557fe5b049392505050565b604080516001600160a01b0380861660248301528416604482015260648082018490528251808303909101815260849091019091526020810180516001600160e01b03166323b872dd60e01b179052612754908590613356565b600082820183811015612af8576040805162461bcd60e51b815260206004820152601b60248201527a536166654d6174683a206164646974696f6e206f766572666c6f7760281b604482015290519081900360640190fd5b600082821115612cc6576040805162461bcd60e51b815260206004820152601e60248201527f536166654d6174683a207375627472616374696f6e206f766572666c6f770000604482015290519081900360640190fd5b50900390565b600082815260036020526040902054612ce59082612c17565b60008381526003602052604080822092909255600a548251630ab714fb60e11b81526001600160a01b03878116600483015260248201879052604482018690529351939091169263156e29f69260648084019391929182900301818387803b15801561283557600080fd5b3390565b6000846001600160a01b03166370a08231306040518263ffffffff1660e01b815260040180826001600160a01b0316815260200191505060206040518083038186803b158015612da357600080fd5b505afa158015612db7573d6000803e3d6000fd5b505050506040513d6020811015612dcd57600080fd5b505190506001600160701b038411801590612def57506001600160701b038111155b612e2b576040805162461bcd60e51b81526020600482015260086024820152674f564552464c4f5760c01b604482015290519081900360640190fd5b6001600160a01b038516600090815260056020526040902060040180546001600160701b03868116600160701b02600160701b600160e01b03199185166001600160701b031990931692909217161790556128498584845b60008082841115612e9b579190920391600091612ea3565b600093909203915b6001600160a01b038516600090815260056020526040902060038101546002909101546001600160701b03600160701b8304811692169060ff600160a01b909104168515612fa757612ef6838388613407565b90955093506001600160701b038511801590612f1957506001600160701b038411155b612f55576040805162461bcd60e51b81526020600482015260086024820152674f564552464c4f5760c01b604482015290519081900360640190fd5b6001600160a01b038816600090815260056020526040902060030180546001600160701b038681166001600160701b0319918916600160701b02600160701b600160e01b031990931692909217161790555b861561306957612fb883838961344b565b90955093506001600160701b038511801590612fdb57506001600160701b038411155b613017576040805162461bcd60e51b81526020600482015260086024820152674f564552464c4f5760c01b604482015290519081900360640190fd5b6001600160a01b038816600090815260056020526040902060030180546001600160701b038681166001600160701b0319918916600160701b02600160701b600160e01b031990931692909217161790555b600181600281111561307757fe5b14156130ba5783156130ba5760405162461bcd60e51b815260040180806020018281038252602a815260200180613710602a913960400191505060405180910390fd5b505050935093915050565b6000600954600114613111576040805162461bcd60e51b815260206004820152601060248201526f135bdb9bdcddd85c0e881313d0d2d15160821b604482015290519081900360640190fd5b600060098190556001600160a01b03851681526007602052604090205460ff161561317c576040805162461bcd60e51b81526020600482015260166024820152754d6f6e6f737761703a20546f6b656e2045786973747360501b604482015290519081900360640190fd5b6001546001600160a01b03858116911614156131df576040805162461bcd60e51b815260206004820152601f60248201527f4d6f6e6f737761703a207655534420706f6f6c206e6f7420616c6c6f77656400604482015290519081900360640190fd5b600854905060405180610100016040528082815260200160008152602001856001600160a01b0316815260200183600281111561321857fe5b815260006020808301829052604080840183905260608085018490526001600160701b0389166080909501949094526001600160a01b038981168452600583529281902085518155918501516001830155840151600280830180546001600160a01b031916929094169190911780845593850151919391929160ff60a01b191690600160a01b9084908111156132aa57fe5b0217905550608082015160038201805460a08501516001600160701b03908116600160701b908102600160701b600160e01b03199583166001600160701b03199485161786161790935560c08601516004909501805460e0909701518216909302941694169390931716179055613322816001612c17565b6008556001600160a01b039093166000908152600760205260409020805460ff191660019081179091556009555090919050565b60006133ab826040518060400160405280602081526020017f5361666545524332303a206c6f772d6c6576656c2063616c6c206661696c6564815250856001600160a01b03166134959092919063ffffffff16565b8051909150156127ac578080602001905160208110156133ca57600080fd5b50516127ac5760405162461bcd60e51b815260040180806020018281038252602a81526020018061377d602a913960400191505060405180910390fd5b6000808415613432578483111561342557506000905083820361342d565b505080830360005b613443565b600091506134408484612c17565b90505b935093915050565b600080831561347f57838311156134725750600061346b85858503612c17565b915061342d565b5060009050818303613443565b6134898584612c17565b95600095509350505050565b6060610a098484600085856134a9856135ba565b6134fa576040805162461bcd60e51b815260206004820152601d60248201527f416464726573733a2063616c6c20746f206e6f6e2d636f6e7472616374000000604482015290519081900360640190fd5b600080866001600160a01b031685876040518082805190602001908083835b602083106135385780518252601f199092019160209182019101613519565b6001836020036101000a03801982511681845116808217855250505050505090500191505060006040518083038185875af1925050503d806000811461359a576040519150601f19603f3d011682016040523d82523d6000602084013e61359f565b606091505b50915091506135af8282866135c0565b979650505050505050565b3b151590565b606083156135cf575081611ec5565b8251156135df5782518084602001fd5b8160405162461bcd60e51b81526004018080602001828103825283818151815260200191508051906020019080838360005b83811015613629578181015183820152602001613611565b50505050905090810190601f1680156136565780820380516001836020036101000a031916815260200191505b509250505060405180910390fdfe4d6f6e6f737761703a20494e53554646494349454e545f4f55545055545f414d4f554e544f776e61626c653a206e6577206f776e657220697320746865207a65726f20616464726573734d6f6e6f737761703a20546f6b656e204e6f7420466f756e64000000000000004d6f6e6f737761703a20506f6f6c20556e6c6973746564000000000000000000536166654d6174683a206d756c7469706c69636174696f6e206f766572666c6f774d6f6e6f737761703a20756e6f6666696369616c20706f6f6c2063616e6e6f74206265617220646562744f776e61626c653a2063616c6c6572206973206e6f7420746865206f776e65724d6f6e6f737761703a20494e53554646494349454e545f494e5055545f414d4f554e545361666545524332303a204552433230206f7065726174696f6e20646964206e6f7420737563636565644d6f6e6f737761703a204c65737320746f6b656e20616d6f756e74207468616e2064657369726564a26469706673582212207f90405009ac684cec18b746dd7147c5cbc556c78cf3f68a184069956958641c64736f6c63430007060033",
  "linkReferences": {},
  "deployedLinkReferences": {}
}