{
  "_format": "hh-sol-artifact-1",
  "contractName": "Monoswap",
  "sourceName": "contracts/Monoswap.sol",
  "abi": [
    {
      "anonymous": false,
      "inputs": [
        {
          "indexed": true,
          "internalType": "address",
          "name": "provider",
          "type": "address"
        },
        {
          "indexed": true,
          "internalType": "uint256",
          "name": "pid",
          "type": "uint256"
        },
        {
          "indexed": true,
          "internalType": "address",
          "name": "token",
          "type": "address"
        },
        {
          "indexed": false,
          "internalType": "uint256",
          "name": "liquidityAmount",
          "type": "uint256"
        },
        {
          "indexed": false,
          "internalType": "uint256",
          "name": "vusdAmount",
          "type": "uint256"
        },
        {
          "indexed": false,
          "internalType": "uint256",
          "name": "tokenAmount",
          "type": "uint256"
        }
      ],
      "name": "AddLiquidity",
      "type": "event"
    },
    {
      "anonymous": false,
      "inputs": [
        {
          "indexed": true,
          "internalType": "address",
          "name": "previousOwner",
          "type": "address"
        },
        {
          "indexed": true,
          "internalType": "address",
          "name": "newOwner",
          "type": "address"
        }
      ],
      "name": "OwnershipTransferred",
      "type": "event"
    },
    {
      "anonymous": false,
      "inputs": [
        {
          "indexed": true,
          "internalType": "address",
          "name": "provider",
          "type": "address"
        },
        {
          "indexed": true,
          "internalType": "uint256",
          "name": "pid",
          "type": "uint256"
        },
        {
          "indexed": true,
          "internalType": "address",
          "name": "token",
          "type": "address"
        },
        {
          "indexed": false,
          "internalType": "uint256",
          "name": "liquidityAmount",
          "type": "uint256"
        },
        {
          "indexed": false,
          "internalType": "uint256",
          "name": "vusdAmount",
          "type": "uint256"
        },
        {
          "indexed": false,
          "internalType": "uint256",
          "name": "tokenAmount",
          "type": "uint256"
        }
      ],
      "name": "RemoveLiquidity",
      "type": "event"
    },
    {
      "anonymous": false,
      "inputs": [
        {
          "indexed": true,
          "internalType": "address",
          "name": "user",
          "type": "address"
        },
        {
          "indexed": true,
          "internalType": "address",
          "name": "tokenIn",
          "type": "address"
        },
        {
          "indexed": true,
          "internalType": "address",
          "name": "tokenOut",
          "type": "address"
        },
        {
          "indexed": false,
          "internalType": "uint256",
          "name": "amountIn",
          "type": "uint256"
        },
        {
          "indexed": false,
          "internalType": "uint256",
          "name": "amountOut",
          "type": "uint256"
        }
      ],
      "name": "Swap",
      "type": "event"
    },
    {
      "inputs": [],
      "name": "ETH",
      "outputs": [
        {
          "internalType": "address",
          "name": "",
          "type": "address"
        }
      ],
      "stateMutability": "view",
      "type": "function"
    },
    {
      "inputs": [],
      "name": "WETH",
      "outputs": [
        {
          "internalType": "address",
          "name": "",
          "type": "address"
        }
      ],
      "stateMutability": "view",
      "type": "function"
    },
    {
      "inputs": [
        {
          "internalType": "address",
          "name": "_token",
          "type": "address"
        },
        {
          "internalType": "uint256",
          "name": "liquidity",
          "type": "uint256"
        },
        {
          "internalType": "address",
          "name": "to",
          "type": "address"
        }
      ],
      "name": "_removeLiquidity",
      "outputs": [
        {
          "internalType": "uint256",
          "name": "poolValue",
          "type": "uint256"
        },
        {
          "internalType": "uint256",
          "name": "liquidityIn",
          "type": "uint256"
        },
        {
          "internalType": "uint256",
          "name": "vusdOut",
          "type": "uint256"
        },
        {
          "internalType": "uint256",
          "name": "tokenOut",
          "type": "uint256"
        }
      ],
      "stateMutability": "view",
      "type": "function"
    },
    {
      "inputs": [
        {
          "internalType": "address",
          "name": "_token",
          "type": "address"
        },
        {
          "internalType": "uint256",
          "name": "_amount",
          "type": "uint256"
        },
        {
          "internalType": "address",
          "name": "to",
          "type": "address"
        }
      ],
      "name": "addLiquidity",
      "outputs": [
        {
          "internalType": "uint256",
          "name": "liquidity",
          "type": "uint256"
        }
      ],
      "stateMutability": "nonpayable",
      "type": "function"
    },
    {
      "inputs": [
        {
          "internalType": "uint256",
          "name": "_amount",
          "type": "uint256"
        },
        {
          "internalType": "address",
          "name": "to",
          "type": "address"
        }
      ],
      "name": "addLiquidityETH",
      "outputs": [
        {
          "internalType": "uint256",
          "name": "liquidity",
          "type": "uint256"
        }
      ],
      "stateMutability": "nonpayable",
      "type": "function"
    },
    {
      "inputs": [
        {
          "internalType": "address",
          "name": "_token",
          "type": "address"
        },
        {
          "internalType": "uint256",
          "name": "vusdAmount",
          "type": "uint256"
        },
        {
          "internalType": "uint256",
          "name": "tokenAmount",
          "type": "uint256"
        },
        {
          "internalType": "address",
          "name": "to",
          "type": "address"
        }
      ],
      "name": "addLiquidityPair",
      "outputs": [
        {
          "internalType": "uint256",
          "name": "liquidity",
          "type": "uint256"
        }
      ],
      "stateMutability": "nonpayable",
      "type": "function"
    },
    {
      "inputs": [
        {
          "internalType": "address",
          "name": "_token",
          "type": "address"
        },
        {
          "internalType": "uint112",
          "name": "_price",
          "type": "uint112"
        }
      ],
      "name": "addOfficialToken",
      "outputs": [
        {
          "internalType": "uint256",
          "name": "_pid",
          "type": "uint256"
        }
      ],
      "stateMutability": "nonpayable",
      "type": "function"
    },
    {
      "inputs": [
        {
          "internalType": "address",
          "name": "account",
          "type": "address"
        },
        {
          "internalType": "uint256",
          "name": "id",
          "type": "uint256"
        }
      ],
      "name": "balanceOf",
      "outputs": [
        {
          "internalType": "uint256",
          "name": "",
          "type": "uint256"
        }
      ],
      "stateMutability": "view",
      "type": "function"
    },
    {
      "inputs": [
        {
          "internalType": "address",
          "name": "tokenIn",
          "type": "address"
        },
        {
          "internalType": "address",
          "name": "tokenOut",
          "type": "address"
        },
        {
          "internalType": "uint256",
          "name": "amountOut",
          "type": "uint256"
        }
      ],
      "name": "getAmountIn",
      "outputs": [
        {
          "internalType": "uint256",
          "name": "tokenInPrice",
          "type": "uint256"
        },
        {
          "internalType": "uint256",
          "name": "tokenOutPrice",
          "type": "uint256"
        },
        {
          "internalType": "uint256",
          "name": "amountIn",
          "type": "uint256"
        },
        {
          "internalType": "uint256",
          "name": "tradeVusdValue",
          "type": "uint256"
        }
      ],
      "stateMutability": "view",
      "type": "function"
    },
    {
      "inputs": [
        {
          "internalType": "address",
          "name": "tokenIn",
          "type": "address"
        },
        {
          "internalType": "address",
          "name": "tokenOut",
          "type": "address"
        },
        {
          "internalType": "uint256",
          "name": "amountIn",
          "type": "uint256"
        }
      ],
      "name": "getAmountOut",
      "outputs": [
        {
          "internalType": "uint256",
          "name": "tokenInPrice",
          "type": "uint256"
        },
        {
          "internalType": "uint256",
          "name": "tokenOutPrice",
          "type": "uint256"
        },
        {
          "internalType": "uint256",
          "name": "amountOut",
          "type": "uint256"
        },
        {
          "internalType": "uint256",
          "name": "tradeVusdValue",
          "type": "uint256"
        }
      ],
      "stateMutability": "view",
      "type": "function"
    },
    {
      "inputs": [
        {
          "internalType": "address",
          "name": "_token",
          "type": "address"
        }
      ],
      "name": "getPool",
      "outputs": [
        {
          "internalType": "uint256",
          "name": "poolValue",
          "type": "uint256"
        },
        {
          "internalType": "uint256",
          "name": "tokenBalanceVusdValue",
          "type": "uint256"
        },
        {
          "internalType": "uint256",
          "name": "vusdCredit",
          "type": "uint256"
        },
        {
          "internalType": "uint256",
          "name": "vusdDebt",
          "type": "uint256"
        }
      ],
      "stateMutability": "view",
      "type": "function"
    },
    {
      "inputs": [
        {
          "internalType": "contract MonoXPool",
          "name": "_monoXPool",
          "type": "address"
        },
        {
          "internalType": "contract IvUSD",
          "name": "_vusd",
          "type": "address"
        }
      ],
      "name": "initialize",
      "outputs": [],
      "stateMutability": "nonpayable",
      "type": "function"
    },
    {
      "inputs": [
        {
          "internalType": "address",
          "name": "_token",
          "type": "address"
        },
        {
          "internalType": "uint112",
          "name": "_price",
          "type": "uint112"
        },
        {
          "internalType": "uint256",
          "name": "vusdAmount",
          "type": "uint256"
        },
        {
          "internalType": "uint256",
          "name": "tokenAmount",
          "type": "uint256"
        },
        {
          "internalType": "address",
          "name": "to",
          "type": "address"
        }
      ],
      "name": "listNewToken",
      "outputs": [
        {
          "internalType": "uint256",
          "name": "_pid",
          "type": "uint256"
        },
        {
          "internalType": "uint256",
          "name": "liquidity",
          "type": "uint256"
        }
      ],
      "stateMutability": "nonpayable",
      "type": "function"
    },
    {
      "inputs": [],
      "name": "monoXPool",
      "outputs": [
        {
          "internalType": "contract MonoXPool",
          "name": "",
          "type": "address"
        }
      ],
      "stateMutability": "view",
      "type": "function"
    },
    {
      "inputs": [],
      "name": "owner",
      "outputs": [
        {
          "internalType": "address",
          "name": "",
          "type": "address"
        }
      ],
      "stateMutability": "view",
      "type": "function"
    },
    {
      "inputs": [],
      "name": "poolSize",
      "outputs": [
        {
          "internalType": "uint256",
          "name": "",
          "type": "uint256"
        }
      ],
      "stateMutability": "view",
      "type": "function"
    },
    {
      "inputs": [
        {
          "internalType": "address",
          "name": "",
          "type": "address"
        }
      ],
      "name": "pools",
      "outputs": [
        {
          "internalType": "uint256",
          "name": "pid",
          "type": "uint256"
        },
        {
          "internalType": "uint256",
          "name": "lastPoolValue",
          "type": "uint256"
        },
        {
          "internalType": "address",
          "name": "token",
          "type": "address"
        },
        {
          "internalType": "enum Monoswap.PoolStatus",
          "name": "status",
          "type": "uint8"
        },
        {
          "internalType": "uint112",
          "name": "vusdDebt",
          "type": "uint112"
        },
        {
          "internalType": "uint112",
          "name": "vusdCredit",
          "type": "uint112"
        },
        {
          "internalType": "uint112",
          "name": "tokenBalance",
          "type": "uint112"
        },
        {
          "internalType": "uint112",
          "name": "price",
          "type": "uint112"
        }
      ],
      "stateMutability": "view",
      "type": "function"
    },
    {
      "inputs": [
        {
          "internalType": "address",
          "name": "_token",
          "type": "address"
        },
        {
          "internalType": "uint256",
          "name": "liquidity",
          "type": "uint256"
        },
        {
          "internalType": "address",
          "name": "to",
          "type": "address"
        },
        {
          "internalType": "uint256",
          "name": "minVusdOut",
          "type": "uint256"
        },
        {
          "internalType": "uint256",
          "name": "minTokenOut",
          "type": "uint256"
        }
      ],
      "name": "removeLiquidity",
      "outputs": [
        {
          "internalType": "uint256",
          "name": "vusdOut",
          "type": "uint256"
        },
        {
          "internalType": "uint256",
          "name": "tokenOut",
          "type": "uint256"
        }
      ],
      "stateMutability": "nonpayable",
      "type": "function"
    },
    {
      "inputs": [],
      "name": "renounceOwnership",
      "outputs": [],
      "stateMutability": "nonpayable",
      "type": "function"
    },
    {
      "inputs": [
        {
          "internalType": "uint16",
          "name": "_devFee",
          "type": "uint16"
        }
      ],
      "name": "setDevFee",
      "outputs": [],
      "stateMutability": "nonpayable",
      "type": "function"
    },
    {
      "inputs": [
        {
          "internalType": "address",
          "name": "_feeTo",
          "type": "address"
        }
      ],
      "name": "setFeeTo",
      "outputs": [],
      "stateMutability": "nonpayable",
      "type": "function"
    },
    {
      "inputs": [
        {
          "internalType": "uint16",
          "name": "_fees",
          "type": "uint16"
        }
      ],
      "name": "setFees",
      "outputs": [],
      "stateMutability": "nonpayable",
      "type": "function"
    },
    {
      "inputs": [
        {
          "internalType": "address",
          "name": "tokenIn",
          "type": "address"
        },
        {
          "internalType": "address",
          "name": "tokenOut",
          "type": "address"
        },
        {
          "internalType": "uint256",
          "name": "amountIn",
          "type": "uint256"
        },
        {
          "internalType": "uint256",
          "name": "amountOutMin",
          "type": "uint256"
        },
        {
          "internalType": "address",
          "name": "to",
          "type": "address"
        },
        {
          "internalType": "uint256",
          "name": "deadline",
          "type": "uint256"
        }
      ],
      "name": "swapExactETHForToken",
      "outputs": [
        {
          "internalType": "uint256",
          "name": "amountOut",
          "type": "uint256"
        }
      ],
      "stateMutability": "payable",
      "type": "function"
    },
    {
      "inputs": [
        {
          "internalType": "address",
          "name": "tokenIn",
          "type": "address"
        },
        {
          "internalType": "address",
          "name": "tokenOut",
          "type": "address"
        },
        {
          "internalType": "uint256",
          "name": "amountIn",
          "type": "uint256"
        },
        {
          "internalType": "uint256",
          "name": "amountOutMin",
          "type": "uint256"
        },
        {
          "internalType": "address",
          "name": "to",
          "type": "address"
        },
        {
          "internalType": "uint256",
          "name": "deadline",
          "type": "uint256"
        }
      ],
      "name": "swapExactTokenForToken",
      "outputs": [
        {
          "internalType": "uint256",
          "name": "amountOut",
          "type": "uint256"
        }
      ],
      "stateMutability": "nonpayable",
      "type": "function"
    },
    {
      "inputs": [
        {
          "internalType": "address",
          "name": "tokenIn",
          "type": "address"
        },
        {
          "internalType": "address",
          "name": "tokenOut",
          "type": "address"
        },
        {
          "internalType": "address",
          "name": "to",
          "type": "address"
        },
        {
          "internalType": "uint256",
          "name": "amountIn",
          "type": "uint256"
        }
      ],
      "name": "swapIn",
      "outputs": [
        {
          "internalType": "uint256",
          "name": "amountOut",
          "type": "uint256"
        }
      ],
      "stateMutability": "nonpayable",
      "type": "function"
    },
    {
      "inputs": [
        {
          "internalType": "address",
          "name": "tokenIn",
          "type": "address"
        },
        {
          "internalType": "address",
          "name": "tokenOut",
          "type": "address"
        },
        {
          "internalType": "address",
          "name": "to",
          "type": "address"
        },
        {
          "internalType": "uint256",
          "name": "amountOut",
          "type": "uint256"
        }
      ],
      "name": "swapOut",
      "outputs": [
        {
          "internalType": "uint256",
          "name": "amountIn",
          "type": "uint256"
        }
      ],
      "stateMutability": "nonpayable",
      "type": "function"
    },
    {
      "inputs": [
        {
          "internalType": "address",
          "name": "tokenIn",
          "type": "address"
        },
        {
          "internalType": "address",
          "name": "tokenOut",
          "type": "address"
        },
        {
          "internalType": "uint256",
          "name": "amountInMax",
          "type": "uint256"
        },
        {
          "internalType": "uint256",
          "name": "amountOut",
          "type": "uint256"
        },
        {
          "internalType": "address",
          "name": "to",
          "type": "address"
        },
        {
          "internalType": "uint256",
          "name": "deadline",
          "type": "uint256"
        }
      ],
      "name": "swapTokenForExactToken",
      "outputs": [
        {
          "internalType": "uint256",
          "name": "amountIn",
          "type": "uint256"
        }
      ],
      "stateMutability": "nonpayable",
      "type": "function"
    },
    {
      "inputs": [
        {
          "internalType": "address",
          "name": "",
          "type": "address"
        }
      ],
      "name": "tokenPoolStatus",
      "outputs": [
        {
          "internalType": "uint8",
          "name": "",
          "type": "uint8"
        }
      ],
      "stateMutability": "view",
      "type": "function"
    },
    {
      "inputs": [
        {
          "internalType": "uint256",
          "name": "",
          "type": "uint256"
        }
      ],
      "name": "totalSupply",
      "outputs": [
        {
          "internalType": "uint256",
          "name": "",
          "type": "uint256"
        }
      ],
      "stateMutability": "view",
      "type": "function"
    },
    {
      "inputs": [
        {
          "internalType": "address",
          "name": "newOwner",
          "type": "address"
        }
      ],
      "name": "transferOwnership",
      "outputs": [],
      "stateMutability": "nonpayable",
      "type": "function"
    },
    {
      "inputs": [
        {
          "internalType": "address",
          "name": "_token",
          "type": "address"
        },
        {
          "internalType": "enum Monoswap.PoolStatus",
          "name": "_status",
          "type": "uint8"
        }
      ],
      "name": "updatePoolStatus",
      "outputs": [],
      "stateMutability": "nonpayable",
      "type": "function"
    }
  ],
  "bytecode": "0x608060405234801561001057600080fd5b50614071806100206000396000f3fe6080604052600436106101665760003560e01c8062c240871461016b578062fdd58e146101d1578063019347101461021c578063138d03cd146102645780631a9fe17e146102b95780631b879378146103025780633f3d69e314610345578063485cc955146103835780634a9f3ae7146103be5780634aa06652146103f75780634ec18db91461046057806353b609b514610475578063556ca709146104b85780635dd44a6d146104ff578063715018a6146105545780638322fff2146105695780638411b1e21461059a5780638da5cb5b146105af578063a4063dbc146105c4578063ad5c464814610676578063b24211781461068b578063bbe4f6db146106ce578063bd85b03914610701578063c22b53be1461072b578063c48caa7014610774578063ca1123c2146107b6578063d56468ac146107e4578063e18cb4fe1461083c578063e4df1c431461086a578063f2fde38b146108b3578063f46901ed146108e6575b600080fd5b34801561017757600080fd5b506101b8600480360360a081101561018e57600080fd5b506001600160a01b0381358116916020810135916040820135169060608101359060800135610919565b6040805192835260208301919091528051918290030190f35b3480156101dd57600080fd5b5061020a600480360360408110156101f457600080fd5b506001600160a01b038135169060200135610bfd565b60408051918252519081900360200190f35b61020a600480360360c081101561023257600080fd5b506001600160a01b03813581169160208101358216916040820135916060810135916080820135169060a00135610c88565b34801561027057600080fd5b5061020a600480360360c081101561028757600080fd5b506001600160a01b03813581169160208101358216916040820135916060810135916080820135169060a00135610ce8565b3480156102c557600080fd5b506102ec600480360360208110156102dc57600080fd5b50356001600160a01b0316610d97565b6040805160ff9092168252519081900360200190f35b34801561030e57600080fd5b5061020a6004803603606081101561032557600080fd5b506001600160a01b03813581169160208101359160409091013516610dac565b34801561035157600080fd5b506103816004803603604081101561036857600080fd5b5080356001600160a01b0316906020013560ff16610dc3565b005b34801561038f57600080fd5b50610381600480360360408110156103a657600080fd5b506001600160a01b0381358116916020013516610e6b565b3480156103ca57600080fd5b5061020a600480360360408110156103e157600080fd5b50803590602001356001600160a01b0316610f75565b34801561040357600080fd5b5061043a6004803603606081101561041a57600080fd5b506001600160a01b03813581169160208101359091169060400135610f9f565b604080519485526020850193909352838301919091526060830152519081900360800190f35b34801561046c57600080fd5b5061020a6112d5565b34801561048157600080fd5b5061043a6004803603606081101561049857600080fd5b506001600160a01b038135811691602081013590911690604001356112db565b3480156104c457600080fd5b5061020a600480360360808110156104db57600080fd5b506001600160a01b03813581169160208101359160408201359160600135166115f9565b34801561050b57600080fd5b5061020a600480360360c081101561052257600080fd5b506001600160a01b03813581169160208101358216916040820135916060810135916080820135169060a001356118ad565b34801561056057600080fd5b50610381611946565b34801561057557600080fd5b5061057e6119e0565b604080516001600160a01b039092168252519081900360200190f35b3480156105a657600080fd5b5061057e6119e5565b3480156105bb57600080fd5b5061057e6119f4565b3480156105d057600080fd5b506105f7600480360360208110156105e757600080fd5b50356001600160a01b0316611a03565b60405180898152602001888152602001876001600160a01b0316815260200186600281111561062257fe5b8152602001856001600160701b03168152602001846001600160701b03168152602001836001600160701b03168152602001826001600160701b031681526020019850505050505050505060405180910390f35b34801561068257600080fd5b5061057e611a65565b34801561069757600080fd5b5061043a600480360360608110156106ae57600080fd5b506001600160a01b03813581169160208101359160409091013516611a7d565b3480156106da57600080fd5b5061043a600480360360208110156106f157600080fd5b50356001600160a01b0316611e0f565b34801561070d57600080fd5b5061020a6004803603602081101561072457600080fd5b5035611f24565b34801561073757600080fd5b5061020a6004803603608081101561074e57600080fd5b506001600160a01b03813581169160208101358216916040820135169060600135611f36565b34801561078057600080fd5b5061020a6004803603604081101561079757600080fd5b5080356001600160a01b031690602001356001600160701b03166123fb565b3480156107c257600080fd5b50610381600480360360208110156107d957600080fd5b503561ffff1661246b565b3480156107f057600080fd5b506101b8600480360360a081101561080757600080fd5b506001600160a01b0381358116916001600160701b03602082013516916040820135916060810135916080909101351661253a565b34801561084857600080fd5b506103816004803603602081101561085f57600080fd5b503561ffff16612563565b34801561087657600080fd5b5061020a6004803603608081101561088d57600080fd5b506001600160a01b03813581169160208101358216916040820135169060600135612634565b3480156108bf57600080fd5b50610381600480360360208110156108d657600080fd5b50356001600160a01b0316612a86565b3480156108f257600080fd5b506103816004803603602081101561090957600080fd5b50356001600160a01b0316612b77565b6001600160a01b0385166000908152606a6020526040812054819060ff16600114610979576040805162461bcd60e51b81526020600482015260196024820152600080516020613ece833981519152604482015290519081900360640190fd5b6001600160a01b038781166000908152606860209081526040808320815161010081018352815481526001820154938101939093526002808201549586169284019290925292939192916060840191600160a01b90910460ff16908111156109dd57fe5b60028111156109e857fe5b815260038201546001600160701b038082166020840152600160701b91829004811660408401526004909301548084166060840152049091166080909101529050600080610a378a8a8a611a7d565b86516020880151929950909750929450909250610a55919084612bfb565b86851015610aaa576040805162461bcd60e51b815260206004820181905260248201527f4d6f6e6f737761703a204c6573732076555344207468616e2064657369726564604482015290519081900360640190fd5b85841015610ae95760405162461bcd60e51b81526004018080602001828103825260288152602001806140146028913960400191505060405180910390fd5b8415610b5d57606554604080516340c10f1960e01b81526001600160a01b038b8116600483015260248201899052915191909216916340c10f1991604480830192600092919082900301818387803b158015610b4457600080fd5b505af1158015610b58573d6000803e3d6000fd5b505050505b610b716001600160a01b038b168986612cd9565b610b8088846000015183612d2b565b610b8c8a600087612dcc565b50505050896001600160a01b03168360000151896001600160a01b03167fab577bf53edf8e035c53859461bfaac55e75b9380a594cc487ae89665d7788f284898960405180848152602001838152602001828152602001935050505060405180910390a45050509550959350505050565b606d5460408051627eeac760e11b81526001600160a01b038581166004830152602482018590529151600093929092169162fdd58e91604480820192602092909190829003018186803b158015610c5357600080fd5b505afa158015610c67573d6000803e3d6000fd5b505050506040513d6020811015610c7d57600080fd5b505190505b92915050565b60008142811015610cd4576040805162461bcd60e51b8152602060048201526011602482015270135bdb9bdcddd85c0e8811561412549151607a1b604482015290519081900360640190fd5b610cdd34613019565b509695505050505050565b60008142811015610d34576040805162461bcd60e51b8152602060048201526011602482015270135bdb9bdcddd85c0e8811561412549151607a1b604482015290519081900360640190fd5b610d4088888688611f36565b915085821115610cdd576040805162461bcd60e51b815260206004820181905260248201527f4d6f6e6f737761703a204558434553534956455f494e5055545f414d4f554e54604482015290519081900360640190fd5b606a6020526000908152604090205460ff1681565b6000610dbb84600085856115f9565b949350505050565b610dcb61305d565b6001600160a01b0316610ddc6119f4565b6001600160a01b031614610e25576040805162461bcd60e51b81526020600482018190526024820152600080516020613f87833981519152604482015290519081900360640190fd5b6001600160a01b038216600090815260686020526040902060028082018054849260ff60a01b1990911690600160a01b908490811115610e6157fe5b0217905550505050565b600054610100900460ff1680610e845750610e84613061565b80610e92575060005460ff16155b610ecd5760405162461bcd60e51b815260040180806020018281038252602e815260200180613f0e602e913960400191505060405180910390fd5b600054610100900460ff16158015610ef8576000805460ff1961ff0019909116610100171660011790555b610f00613072565b606d80546001600160a01b03199081166001600160a01b0386811691909117909255606580549091169184169190911790556066805461ffff60a01b1916604b60a21b1761ffff60b01b1916601960b11b1790556000606b556001606c558015610f70576000805461ff00191690555b505050565b6000610f9873c02aaa39b223fe8d0a0e5c4f27ead9083c756cc2600085856115f9565b9392505050565b60008060008060008511610fe45760405162461bcd60e51b8152600401808060200182810382526023815260200180613fc76023913960400191505060405180910390fd5b606654600090620186a09061100c908890600160a01b900461ffff16830362ffffff16613123565b8161101357fe5b60655491900491506001600160a01b0390811690891681141561104357819250670de0b6b3a76400009550611162565b6001600160a01b0389166000908152606a602052604090205460ff166001146110a1576040805162461bcd60e51b81526020600482015260196024820152600080516020613ece833981519152604482015290519081900360640190fd5b6001600160a01b03891660009081526068602052604081206002810154600490910154600160a01b90910460ff1691600160701b82046001600160701b039081169216908360028111156110f157fe5b1415611132576040805162461bcd60e51b81526020600482015260176024820152600080516020613eee833981519152604482015290519081900360640190fd5b61113f828287600061317c565b9850670de0b6b3a76400006111548a87613123565b8161115b57fe5b0495505050505b806001600160a01b0316886001600160a01b0316141561118f57829350670de0b6b3a764000094506112ca565b6001600160a01b0388166000908152606a602052604090205460ff166001146111ed576040805162461bcd60e51b81526020600482015260196024820152600080516020613ece833981519152604482015290519081900360640190fd5b6001600160a01b03881660009081526068602052604081206002810154600490910154600160a01b90910460ff1691600160701b82046001600160701b0390811692169083600281111561123d57fe5b141561127e576040805162461bcd60e51b81526020600482015260176024820152600080516020613eee833981519152604482015290519081900360640190fd5b600061129c8361129689670de0b6b3a7640000613123565b906131d4565b90506112ab838383600161317c565b98506112c38961129689670de0b6b3a7640000613123565b9750505050505b505093509350935093565b606b5481565b600080600080600085116113205760405162461bcd60e51b8152600401808060200182810382526023815260200180613fc76023913960400191505060405180910390fd5b606654600090620186a090611348908890600160a01b900461ffff16830162ffffff16613123565b8161134f57fe5b60655491900491506001600160a01b0390811690881681141561137f57819250670de0b6b3a7640000945061149e565b6001600160a01b0388166000908152606a602052604090205460ff166001146113dd576040805162461bcd60e51b81526020600482015260196024820152600080516020613ece833981519152604482015290519081900360640190fd5b6001600160a01b03881660009081526068602052604081206002810154600490910154600160a01b90910460ff1691600160701b82046001600160701b0390811692169083600281111561142d57fe5b141561146e576040805162461bcd60e51b81526020600482015260176024820152600080516020613eee833981519152604482015290519081900360640190fd5b61147b828287600161317c565b9750670de0b6b3a76400006114908987613123565b8161149757fe5b0495505050505b806001600160a01b0316896001600160a01b031614156114cb57829350670de0b6b3a764000095506112ca565b6001600160a01b0389166000908152606a602052604090205460ff16600114611529576040805162461bcd60e51b81526020600482015260196024820152600080516020613ece833981519152604482015290519081900360640190fd5b6001600160a01b03891660009081526068602052604081206002810154600490910154600160a01b90910460ff1691600160701b82046001600160701b0390811692169083600281111561157957fe5b14156115ba576040805162461bcd60e51b81526020600482015260176024820152600080516020613eee833981519152604482015290519081900360640190fd5b60006115d28361129689670de0b6b3a7640000613123565b90506115e1838383600061317c565b99506112c38a61129689670de0b6b3a7640000613123565b6000808311611646576040805162461bcd60e51b8152602060048201526014602482015273135bdb9bdcddd85c0e8810985908105b5bdd5b9d60621b604482015290519081900360640190fd5b6001600160a01b0385166000908152606a602052604090205460ff166001146116aa576040805162461bcd60e51b8152602060048201526011602482015270135bdb9bdcddd85c0e88139bc81c1bdbdb607a1b604482015290519081900360640190fd5b60006116b586611e0f565b5050506001600160a01b03878116600090815260686020908152604080832081516101008101835281548152600182015493810193909352600280820154958616928401929092529495509193909290916060840191600160a01b900460ff169081111561171f57fe5b600281111561172a57fe5b815260038201546001600160701b03808216602080850191909152600160701b9283900482166040850152600490940154808216606085015291909104166080909101528151908201519192506117819184612bfb565b80516000908152606760205260409020546117a76001600160a01b038916333089613238565b86156117c5576065546117c5906001600160a01b031633308a613238565b6000611803670de0b6b3a76400006117f38560e001516001600160701b03168a61312390919063ffffffff16565b816117fa57fe5b8a919004613292565b90508161181d57611816816103e86132ea565b945061182e565b61182b846112968484613123565b94505b61183d86846000015187613347565b61184989896000612dcc565b5050845160408051898152602081018d90528082018c905290516001600160a01b03808f169550929350918a16917f166ddb815a41f60899d37e5c34db8f6cd53a5c65da870fcc7315af673878562a9181900360600190a450505050949350505050565b600081428110156118f9576040805162461bcd60e51b8152602060048201526011602482015270135bdb9bdcddd85c0e8811561412549151607a1b604482015290519081900360640190fd5b61190588888689612634565b915084821015610cdd5760405162461bcd60e51b8152600401808060200182810382526024815260200180613e846024913960400191505060405180910390fd5b61194e61305d565b6001600160a01b031661195f6119f4565b6001600160a01b0316146119a8576040805162461bcd60e51b81526020600482018190526024820152600080516020613f87833981519152604482015290519081900360640190fd5b6033546040516000916001600160a01b031690600080516020613fa7833981519152908390a3603380546001600160a01b0319169055565b600081565b606d546001600160a01b031681565b6033546001600160a01b031690565b60686020526000908152604090208054600182015460028301546003840154600490940154929391926001600160a01b03821692600160a01b90920460ff16916001600160701b0380821692600160701b928390048216928282169291041688565b73c02aaa39b223fe8d0a0e5c4f27ead9083c756cc281565b60008060008060008611611acf576040805162461bcd60e51b8152602060048201526014602482015273135bdb9bdcddd85c0e8810985908105b5bdd5b9d60621b604482015290519081900360640190fd5b6001600160a01b0387811660009081526068602090815260408083208151610100810183528154815260018201549381019390935260028082015495861692840192909252929384938493849390926060840191600160a01b90910460ff1690811115611b3857fe5b6002811115611b4357fe5b815260038201546001600160701b038082166020840152600160701b91829004811660408401526004909301548084166060840152049091166080909101529050611b8d8b611e0f565b809550819650829750839b5050505050600060676000836000015181526020019081526020016000205490508a606d60009054906101000a90046001600160a01b03166001600160a01b031662fdd58e8c85600001516040518363ffffffff1660e01b815260040180836001600160a01b031681526020018281526020019250505060206040518083038186803b158015611c2757600080fd5b505afa158015611c3b573d6000803e3d6000fd5b505050506040513d6020811015611c5157600080fd5b505111611cde57606d54825160408051627eeac760e11b81526001600160a01b038e8116600483015260248201939093529051919092169162fdd58e916044808301926020929190829003018186803b158015611cad57600080fd5b505afa158015611cc1573d6000803e3d6000fd5b505050506040513d6020811015611cd757600080fd5b5051611ce0565b8a5b975060008c6001600160a01b03166370a08231306040518263ffffffff1660e01b815260040180826001600160a01b0316815260200191505060206040518083038186803b158015611d3157600080fd5b505afa158015611d45573d6000803e3d6000fd5b505050506040513d6020811015611d5b57600080fd5b505160c08401519091506001600160701b0316811015611da957670de0b6b3a7640000611d9e8460e001516001600160701b03168361312390919063ffffffff16565b81611da557fe5b0495505b8315611de05760e0830151611ddd906001600160701b0316611296670de0b6b3a7640000611dd78a896132ea565b90613123565b90505b611dee826112968b88613123565b9750611dfe826112968b84613123565b965050505050505093509350935093565b6001600160a01b0381811660009081526068602090815260408083208151610100810183528154815260018201549381019390935260028082015495861692840192909252929384938493849384939192916060840191600160a01b90910460ff1690811115611e7b57fe5b6002811115611e8657fe5b815260038201546001600160701b038082166020840152600160701b9182900481166040840152600490930154808416606084015204821660809182015260a08301519083015160c084015160e085015192841697509083169550929350670de0b6b3a764000092611efc929182169116613123565b81611f0357fe5b049350611f1a82611f148686613292565b906132ea565b9450509193509193565b60676020526000908152604090205481565b6001600160a01b038416600090815260696020526040812054859060ff166001811415611fa2576040805162461bcd60e51b8152602060048201526015602482015274135bdb9bdcddd85c0e881413d3d3081313d0d2d151605a1b604482015290519081900360640190fd5b60ff8116611fce576001600160a01b0382166000908152606960205260409020805460ff191660011790555b6065546001600160a01b031660008080611fe98b8b8a6112db565b6001600160a01b038f16600090815260696020526040902054919a5092955090935090915060ff16600214156120335761202e6001600160a01b038c1633308a613238565b6121a1565b60008b6001600160a01b03166370a08231306040518263ffffffff1660e01b815260040180826001600160a01b0316815260200191505060206040518083038186803b15801561208257600080fd5b505afa158015612096573d6000803e3d6000fd5b505050506040513d60208110156120ac57600080fd5b505190506120c56001600160a01b038d1633308b613238565b60008c6001600160a01b03166370a08231306040518263ffffffff1660e01b815260040180826001600160a01b0316815260200191505060206040518083038186803b15801561211457600080fd5b505afa158015612128573d6000803e3d6000fd5b505050506040513d602081101561213e57600080fd5b5051905061214c81836132ea565b89101561219e576040805162461bcd60e51b815260206004820152601b60248201527a4d6f6e6f737761703a204e6f7420456e6f75676820546f6b656e7360281b604482015290519081900360640190fd5b50505b60665460009062030d40906121c2908a90600160a01b900461ffff16613123565b816121c957fe5b0490506000670de0b6b3a76400006121e18684613123565b816121e857fe5b049050856001600160a01b03168d6001600160a01b031614156122865760408051632770a7eb60e21b8152306004820152602481018b905290516001600160a01b03881691639dc29fac91604480830192600092919082900301818387803b15801561225357600080fd5b505af1158015612267573d6000803e3d6000fd5b5050505061227f60028261312390919063ffffffff16565b905061229c565b61229c8d8660006122978786613292565b6133cb565b856001600160a01b03168c6001600160a01b0316141561233857856001600160a01b03166340c10f198c8c6040518363ffffffff1660e01b815260040180836001600160a01b0316815260200182815260200192505050600060405180830381600087803b15801561230d57600080fd5b505af1158015612321573d6000803e3d6000fd5b505050506123318d8260006134fa565b5050612362565b61234c6001600160a01b038d168c8c612cd9565b6123628c8561235b8685613292565b60006133cb565b8b6001600160a01b03168d6001600160a01b03168c6001600160a01b03167fcd3829a3813dc3cdd188fd3d01dcf3268c16be2fdd2dd21d0665418816e460628c8e604051808381526020018281526020019250505060405180910390a4505050505060ff8216151590506123f1576001600160a01b0382166000908152606960205260409020805460ff191690555b5050949350505050565b600061240561305d565b6001600160a01b03166124166119f4565b6001600160a01b03161461245f576040805162461bcd60e51b81526020600482018190526024820152600080516020613f87833981519152604482015290519081900360640190fd5b610f988383600261373c565b61247361305d565b6001600160a01b03166124846119f4565b6001600160a01b0316146124cd576040805162461bcd60e51b81526020600482018190526024820152600080516020613f87833981519152604482015290519081900360640190fd5b6103e88161ffff1610612518576040805162461bcd60e51b815260206004820152600e60248201526d6665657320746f6f206c6172676560901b604482015290519081900360640190fd5b6066805461ffff909216600160a01b0261ffff60a01b19909216919091179055565b6000806125498787600161373c565b9150612557878686866115f9565b90509550959350505050565b61256b61305d565b6001600160a01b031661257c6119f4565b6001600160a01b0316146125c5576040805162461bcd60e51b81526020600482018190526024820152600080516020613f87833981519152604482015290519081900360640190fd5b6103e88161ffff1610612612576040805162461bcd60e51b815260206004820152601060248201526f64657646656520746f6f206c6172676560801b604482015290519081900360640190fd5b6066805461ffff909216600160b01b0261ffff60b01b19909216919091179055565b6001600160a01b038416600090815260696020526040812054859060ff1660018114156126a0576040805162461bcd60e51b8152602060048201526015602482015274135bdb9bdcddd85c0e881413d3d3081313d0d2d151605a1b604482015290519081900360640190fd5b60ff81166126cc576001600160a01b0382166000908152606960205260409020805460ff191660011790555b6065546001600160a01b0388811660009081526069602052604090205491169060ff16600214156127115761270c6001600160a01b038916333088613238565b61282f565b6000886001600160a01b03166370a08231306040518263ffffffff1660e01b815260040180826001600160a01b0316815260200191505060206040518083038186803b15801561276057600080fd5b505afa158015612774573d6000803e3d6000fd5b505050506040513d602081101561278a57600080fd5b505190506127a36001600160a01b038a16333089613238565b6000896001600160a01b03166370a08231306040518263ffffffff1660e01b815260040180826001600160a01b0316815260200191505060206040518083038186803b1580156127f257600080fd5b505afa158015612806573d6000803e3d6000fd5b505050506040513d602081101561281c57600080fd5b5051905061282a81836132ea565b965050505b60665460009062030d4090612850908890600160a01b900461ffff16613123565b8161285757fe5b049050600080600061286a8c8c8b610f9f565b909a50919450925090506000670de0b6b3a76400006128898587613123565b8161289057fe5b049050856001600160a01b03168d6001600160a01b0316141561292e5760408051632770a7eb60e21b8152306004820152602481018c905290516001600160a01b03881691639dc29fac91604480830192600092919082900301818387803b1580156128fb57600080fd5b505af115801561290f573d6000803e3d6000fd5b5050505061292760028261312390919063ffffffff16565b905061293f565b61293f8d8560006122978686613292565b856001600160a01b03168c6001600160a01b031614156129cd57856001600160a01b03166340c10f198c8b6040518363ffffffff1660e01b815260040180836001600160a01b0316815260200182815260200192505050600060405180830381600087803b1580156129b057600080fd5b505af11580156129c4573d6000803e3d6000fd5b505050506129f0565b6129e16001600160a01b038d168c8b612cd9565b6129f08c8461235b8585613292565b8b6001600160a01b03168d6001600160a01b03168c6001600160a01b03167fcd3829a3813dc3cdd188fd3d01dcf3268c16be2fdd2dd21d0665418816e460628d8d604051808381526020018281526020019250505060405180910390a4505050505060ff8216151590506123f157506001600160a01b03166000908152606960205260409020805460ff19169055949350505050565b612a8e61305d565b6001600160a01b0316612a9f6119f4565b6001600160a01b031614612ae8576040805162461bcd60e51b81526020600482018190526024820152600080516020613f87833981519152604482015290519081900360640190fd5b6001600160a01b038116612b2d5760405162461bcd60e51b8152600401808060200182810382526026815260200180613ea86026913960400191505060405180910390fd5b6033546040516001600160a01b03808416921690600080516020613fa783398151915290600090a3603380546001600160a01b0319166001600160a01b0392909216919091179055565b612b7f61305d565b6001600160a01b0316612b906119f4565b6001600160a01b031614612bd9576040805162461bcd60e51b81526020600482018190526024820152600080516020613f87833981519152604482015290519081900360640190fd5b606680546001600160a01b0319166001600160a01b0392909216919091179055565b6000838152606760205260409020548282118015612c195750600083115b15612cd35760665483830390600090620186a090612c4e908487039061129690600160b01b900461ffff16611dd78888613123565b81612c5557fe5b606d5460665460408051630ab714fb60e11b81526001600160a01b039283166004820152602481018c905294909304604485018190529251929450169163156e29f691606480830192600092919082900301818387803b158015612cb857600080fd5b505af1158015612ccc573d6000803e3d6000fd5b5050505050505b50505050565b604080516001600160a01b038416602482015260448082018490528251808303909101815260649091019091526020810180516001600160e01b031663a9059cbb60e01b179052610f709084906139cd565b600082815260676020526040902054612d4490826132ea565b60008381526067602052604080822092909255606d548251637a94c56560e11b81526001600160a01b03878116600483015260248201879052604482018690529351939091169263f5298aca9260648084019391929182900301818387803b158015612daf57600080fd5b505af1158015612dc3573d6000803e3d6000fd5b50505050505050565b6001600160a01b038316600090815260696020526040812054819081908190879060ff166001811415612e3e576040805162461bcd60e51b8152602060048201526015602482015274135bdb9bdcddd85c0e881413d3d3081313d0d2d151605a1b604482015290519081900360640190fd5b60ff8116612e6a576001600160a01b0382166000908152606960205260409020805460ff191660011790555b6001600160a01b038916600090815260686020526040902060040154600160701b90046001600160701b0316612ea18a8a8a6134fa565b604080516370a0823160e01b815230600482015290519297509095506000916001600160a01b038d16916370a08231916024808301926020929190829003018186803b158015612ef057600080fd5b505afa158015612f04573d6000803e3d6000fd5b505050506040513d6020811015612f1a57600080fd5b50519050670de0b6b3a7640000612f318383613123565b81612f3857fe5b0496506001600160701b03811115612f82576040805162461bcd60e51b81526020600482015260086024820152674f564552464c4f5760c01b604482015290519081900360640190fd5b6001600160a01b038b16600090815260686020526040902060040180546001600160701b0319166001600160701b038316179055612fc485611f148989613292565b6001600160a01b038c1660009081526068602052604090206001018190559750505060ff81166112ca576001600160a01b0382166000908152606960205260409020805460ff19169055505093509350935093565b6040805160248082018490528251808303909101815260449091019091526020810180516001600160e01b031663f5b1bba960e01b17905261305a90613a7e565b50565b3390565b600061306c30613a9f565b15905090565b600054610100900460ff168061308b575061308b613061565b80613099575060005460ff16155b6130d45760405162461bcd60e51b815260040180806020018281038252602e815260200180613f0e602e913960400191505060405180910390fd5b600054610100900460ff161580156130ff576000805460ff1961ff0019909116610100171660011790555b613107613aa5565b61310f613b45565b801561305a576000805461ff001916905550565b60008261313257506000610c82565b8282028284828161313f57fe5b0414610f985760405162461bcd60e51b8152600401808060200182810382526021815260200180613f3c6021913960400191505060405180910390fd5b60008082600181111561318b57fe5b14156131b45761319b8484613292565b6131a58686613123565b816131ac57fe5b049050610dbb565b6131cb6131c185856132ea565b6112968787613123565b95945050505050565b6000808211613227576040805162461bcd60e51b815260206004820152601a602482015279536166654d6174683a206469766973696f6e206279207a65726f60301b604482015290519081900360640190fd5b81838161323057fe5b049392505050565b604080516001600160a01b0380861660248301528416604482015260648082018490528251808303909101815260849091019091526020810180516001600160e01b03166323b872dd60e01b179052612cd39085906139cd565b600082820183811015610f98576040805162461bcd60e51b815260206004820152601b60248201527a536166654d6174683a206164646974696f6e206f766572666c6f7760281b604482015290519081900360640190fd5b600082821115613341576040805162461bcd60e51b815260206004820152601e60248201527f536166654d6174683a207375627472616374696f6e206f766572666c6f770000604482015290519081900360640190fd5b50900390565b6000828152606760205260409020546133609082613292565b60008381526067602052604080822092909255606d548251630ab714fb60e11b81526001600160a01b03878116600483015260248201879052604482018690529351939091169263156e29f69260648084019391929182900301818387803b158015612daf57600080fd5b6000846001600160a01b03166370a08231306040518263ffffffff1660e01b815260040180826001600160a01b0316815260200191505060206040518083038186803b15801561341a57600080fd5b505afa15801561342e573d6000803e3d6000fd5b505050506040513d602081101561344457600080fd5b505190506001600160701b03841180159061346657506001600160701b038111155b6134a2576040805162461bcd60e51b81526020600482015260086024820152674f564552464c4f5760c01b604482015290519081900360640190fd5b6001600160a01b038516600090815260686020526040902060040180546001600160701b03868116600160701b02600160701b600160e01b03199185166001600160701b03199093169290921716179055612dc38584845b6000808284111561351257919092039160009161351a565b600093909203915b6001600160a01b038516600090815260686020526040902060038101546002909101546001600160701b03600160701b8304811692169060ff600160a01b90910416851561361e5761356d838388613c2c565b90955093506001600160701b03851180159061359057506001600160701b038411155b6135cc576040805162461bcd60e51b81526020600482015260086024820152674f564552464c4f5760c01b604482015290519081900360640190fd5b6001600160a01b038816600090815260686020526040902060030180546001600160701b038681166001600160701b0319918916600160701b02600160701b600160e01b031990931692909217161790555b86156136e05761362f838389613c70565b90955093506001600160701b03851180159061365257506001600160701b038411155b61368e576040805162461bcd60e51b81526020600482015260086024820152674f564552464c4f5760c01b604482015290519081900360640190fd5b6001600160a01b038816600090815260686020526040902060030180546001600160701b038681166001600160701b0319918916600160701b02600160701b600160e01b031990931692909217161790555b60018160028111156136ee57fe5b14156137315783156137315760405162461bcd60e51b815260040180806020018281038252602a815260200180613f5d602a913960400191505060405180910390fd5b505050935093915050565b6000606c54600114613788576040805162461bcd60e51b815260206004820152601060248201526f135bdb9bdcddd85c0e881313d0d2d15160821b604482015290519081900360640190fd5b6000606c8190556001600160a01b0385168152606a602052604090205460ff16156137f3576040805162461bcd60e51b81526020600482015260166024820152754d6f6e6f737761703a20546f6b656e2045786973747360501b604482015290519081900360640190fd5b6065546001600160a01b0385811691161415613856576040805162461bcd60e51b815260206004820152601f60248201527f4d6f6e6f737761703a207655534420706f6f6c206e6f7420616c6c6f77656400604482015290519081900360640190fd5b606b54905060405180610100016040528082815260200160008152602001856001600160a01b0316815260200183600281111561388f57fe5b815260006020808301829052604080840183905260608085018490526001600160701b0389166080909501949094526001600160a01b038981168452606883529281902085518155918501516001830155840151600280830180546001600160a01b031916929094169190911780845593850151919391929160ff60a01b191690600160a01b90849081111561392157fe5b0217905550608082015160038201805460a08501516001600160701b03908116600160701b908102600160701b600160e01b03199583166001600160701b03199485161786161790935560c08601516004909501805460e0909701518216909302941694169390931716179055613999816001613292565b606b556001600160a01b039093166000908152606a60205260409020805460ff19166001908117909155606c555090919050565b6000613a22826040518060400160405280602081526020017f5361666545524332303a206c6f772d6c6576656c2063616c6c206661696c6564815250856001600160a01b0316613cba9092919063ffffffff16565b805190915015610f7057808060200190516020811015613a4157600080fd5b5051610f705760405162461bcd60e51b815260040180806020018281038252602a815260200180613fea602a913960400191505060405180910390fd5b80516a636f6e736f6c652e6c6f67602083016000808483855afa5050505050565b3b151590565b600054610100900460ff1680613abe5750613abe613061565b80613acc575060005460ff16155b613b075760405162461bcd60e51b815260040180806020018281038252602e815260200180613f0e602e913960400191505060405180910390fd5b600054610100900460ff1615801561310f576000805460ff1961ff001990911661010017166001179055801561305a576000805461ff001916905550565b600054610100900460ff1680613b5e5750613b5e613061565b80613b6c575060005460ff16155b613ba75760405162461bcd60e51b815260040180806020018281038252602e815260200180613f0e602e913960400191505060405180910390fd5b600054610100900460ff16158015613bd2576000805460ff1961ff0019909116610100171660011790555b6000613bdc61305d565b603380546001600160a01b0319166001600160a01b03831690811790915560405191925090600090600080516020613fa7833981519152908290a350801561305a576000805461ff001916905550565b6000808415613c575784831115613c4a575060009050838203613c52565b505080830360005b613c68565b60009150613c658484613292565b90505b935093915050565b6000808315613ca45783831115613c9757506000613c9085858503613292565b9150613c52565b5060009050818303613c68565b613cae8584613292565b95600095509350505050565b6060610dbb848460008585613cce85613a9f565b613d1f576040805162461bcd60e51b815260206004820152601d60248201527f416464726573733a2063616c6c20746f206e6f6e2d636f6e7472616374000000604482015290519081900360640190fd5b600080866001600160a01b031685876040518082805190602001908083835b60208310613d5d5780518252601f199092019160209182019101613d3e565b6001836020036101000a03801982511681845116808217855250505050505090500191505060006040518083038185875af1925050503d8060008114613dbf576040519150601f19603f3d011682016040523d82523d6000602084013e613dc4565b606091505b5091509150613dd4828286613ddf565b979650505050505050565b60608315613dee575081610f98565b825115613dfe5782518084602001fd5b8160405162461bcd60e51b81526004018080602001828103825283818151815260200191508051906020019080838360005b83811015613e48578181015183820152602001613e30565b50505050905090810190601f168015613e755780820380516001836020036101000a031916815260200191505b509250505060405180910390fdfe4d6f6e6f737761703a20494e53554646494349454e545f4f55545055545f414d4f554e544f776e61626c653a206e6577206f776e657220697320746865207a65726f20616464726573734d6f6e6f737761703a20546f6b656e204e6f7420466f756e64000000000000004d6f6e6f737761703a20506f6f6c20556e6c6973746564000000000000000000496e697469616c697a61626c653a20636f6e747261637420697320616c726561647920696e697469616c697a6564536166654d6174683a206d756c7469706c69636174696f6e206f766572666c6f774d6f6e6f737761703a20756e6f6666696369616c20706f6f6c2063616e6e6f74206265617220646562744f776e61626c653a2063616c6c6572206973206e6f7420746865206f776e65728be0079c531659141344cd1fd0a4f28419497f9722a3daafe3b4186f6b6457e04d6f6e6f737761703a20494e53554646494349454e545f494e5055545f414d4f554e545361666545524332303a204552433230206f7065726174696f6e20646964206e6f7420737563636565644d6f6e6f737761703a204c65737320746f6b656e20616d6f756e74207468616e2064657369726564a264697066735822122052caeeb08577f8ac732954ed99bc113b6b15712791119b5c7d382124988478e564736f6c63430007060033",
  "linkReferences": {},
  "deployedLinkReferences": {}
}