{
  "_format": "hh-sol-artifact-1",
  "contractName": "Monoswap",
  "sourceName": "contracts/Monoswap.sol",
  "abi": [
    {
      "anonymous": false,
      "inputs": [
        {
          "indexed": true,
          "internalType": "address",
          "name": "provider",
          "type": "address"
        },
        {
          "indexed": true,
          "internalType": "uint256",
          "name": "pid",
          "type": "uint256"
        },
        {
          "indexed": true,
          "internalType": "address",
          "name": "token",
          "type": "address"
        },
        {
          "indexed": false,
          "internalType": "uint256",
          "name": "liquidityAmount",
          "type": "uint256"
        },
        {
          "indexed": false,
          "internalType": "uint256",
          "name": "vusdAmount",
          "type": "uint256"
        },
        {
          "indexed": false,
          "internalType": "uint256",
          "name": "tokenAmount",
          "type": "uint256"
        }
      ],
      "name": "AddLiquidity",
      "type": "event"
    },
    {
      "anonymous": false,
      "inputs": [
        {
          "indexed": true,
          "internalType": "address",
          "name": "previousOwner",
          "type": "address"
        },
        {
          "indexed": true,
          "internalType": "address",
          "name": "newOwner",
          "type": "address"
        }
      ],
      "name": "OwnershipTransferred",
      "type": "event"
    },
    {
      "anonymous": false,
      "inputs": [
        {
          "indexed": true,
          "internalType": "address",
          "name": "provider",
          "type": "address"
        },
        {
          "indexed": true,
          "internalType": "uint256",
          "name": "pid",
          "type": "uint256"
        },
        {
          "indexed": true,
          "internalType": "address",
          "name": "token",
          "type": "address"
        },
        {
          "indexed": false,
          "internalType": "uint256",
          "name": "liquidityAmount",
          "type": "uint256"
        },
        {
          "indexed": false,
          "internalType": "uint256",
          "name": "vusdAmount",
          "type": "uint256"
        },
        {
          "indexed": false,
          "internalType": "uint256",
          "name": "tokenAmount",
          "type": "uint256"
        }
      ],
      "name": "RemoveLiquidity",
      "type": "event"
    },
    {
      "anonymous": false,
      "inputs": [
        {
          "indexed": true,
          "internalType": "address",
          "name": "user",
          "type": "address"
        },
        {
          "indexed": true,
          "internalType": "address",
          "name": "tokenIn",
          "type": "address"
        },
        {
          "indexed": true,
          "internalType": "address",
          "name": "tokenOut",
          "type": "address"
        },
        {
          "indexed": false,
          "internalType": "uint256",
          "name": "amountIn",
          "type": "uint256"
        },
        {
          "indexed": false,
          "internalType": "uint256",
          "name": "amountOut",
          "type": "uint256"
        }
      ],
      "name": "Swap",
      "type": "event"
    },
    {
      "inputs": [
        {
          "internalType": "address",
          "name": "_token",
          "type": "address"
        },
        {
          "internalType": "uint256",
          "name": "liquidity",
          "type": "uint256"
        },
        {
          "internalType": "address",
          "name": "to",
          "type": "address"
        }
      ],
      "name": "_removeLiquidity",
      "outputs": [
        {
          "internalType": "uint256",
          "name": "poolValue",
          "type": "uint256"
        },
        {
          "internalType": "uint256",
          "name": "liquidityIn",
          "type": "uint256"
        },
        {
          "internalType": "uint256",
          "name": "vusdOut",
          "type": "uint256"
        },
        {
          "internalType": "uint256",
          "name": "tokenOut",
          "type": "uint256"
        }
      ],
      "stateMutability": "view",
      "type": "function"
    },
    {
      "inputs": [
        {
          "internalType": "address",
          "name": "_token",
          "type": "address"
        },
        {
          "internalType": "uint256",
          "name": "_amount",
          "type": "uint256"
        },
        {
          "internalType": "address",
          "name": "to",
          "type": "address"
        }
      ],
      "name": "addLiquidity",
      "outputs": [
        {
          "internalType": "uint256",
          "name": "liquidity",
          "type": "uint256"
        }
      ],
      "stateMutability": "nonpayable",
      "type": "function"
    },
    {
      "inputs": [
        {
          "internalType": "address",
          "name": "_token",
          "type": "address"
        },
        {
          "internalType": "uint256",
          "name": "vusdAmount",
          "type": "uint256"
        },
        {
          "internalType": "uint256",
          "name": "tokenAmount",
          "type": "uint256"
        },
        {
          "internalType": "address",
          "name": "to",
          "type": "address"
        }
      ],
      "name": "addLiquidityPair",
      "outputs": [
        {
          "internalType": "uint256",
          "name": "liquidity",
          "type": "uint256"
        }
      ],
      "stateMutability": "nonpayable",
      "type": "function"
    },
    {
      "inputs": [
        {
          "internalType": "address",
          "name": "_token",
          "type": "address"
        },
        {
          "internalType": "uint112",
          "name": "_price",
          "type": "uint112"
        }
      ],
      "name": "addOfficialToken",
      "outputs": [
        {
          "internalType": "uint256",
          "name": "_pid",
          "type": "uint256"
        }
      ],
      "stateMutability": "nonpayable",
      "type": "function"
    },
    {
      "inputs": [
        {
          "internalType": "address",
          "name": "tokenIn",
          "type": "address"
        },
        {
          "internalType": "address",
          "name": "tokenOut",
          "type": "address"
        },
        {
          "internalType": "uint256",
          "name": "amountOut",
          "type": "uint256"
        }
      ],
      "name": "getAmountIn",
      "outputs": [
        {
          "internalType": "uint256",
          "name": "tokenInPrice",
          "type": "uint256"
        },
        {
          "internalType": "uint256",
          "name": "tokenOutPrice",
          "type": "uint256"
        },
        {
          "internalType": "uint256",
          "name": "amountIn",
          "type": "uint256"
        },
        {
          "internalType": "uint256",
          "name": "tradeVusdValue",
          "type": "uint256"
        }
      ],
      "stateMutability": "view",
      "type": "function"
    },
    {
      "inputs": [
        {
          "internalType": "address",
          "name": "tokenIn",
          "type": "address"
        },
        {
          "internalType": "address",
          "name": "tokenOut",
          "type": "address"
        },
        {
          "internalType": "uint256",
          "name": "amountIn",
          "type": "uint256"
        }
      ],
      "name": "getAmountOut",
      "outputs": [
        {
          "internalType": "uint256",
          "name": "tokenInPrice",
          "type": "uint256"
        },
        {
          "internalType": "uint256",
          "name": "tokenOutPrice",
          "type": "uint256"
        },
        {
          "internalType": "uint256",
          "name": "amountOut",
          "type": "uint256"
        },
        {
          "internalType": "uint256",
          "name": "tradeVusdValue",
          "type": "uint256"
        }
      ],
      "stateMutability": "view",
      "type": "function"
    },
    {
      "inputs": [
        {
          "internalType": "address",
          "name": "_token",
          "type": "address"
        }
      ],
      "name": "getPool",
      "outputs": [
        {
          "internalType": "uint256",
          "name": "poolValue",
          "type": "uint256"
        },
        {
          "internalType": "uint256",
          "name": "tokenBalanceVusdValue",
          "type": "uint256"
        },
        {
          "internalType": "uint256",
          "name": "vusdCredit",
          "type": "uint256"
        },
        {
          "internalType": "uint256",
          "name": "vusdDebt",
          "type": "uint256"
        }
      ],
      "stateMutability": "view",
      "type": "function"
    },
    {
      "inputs": [
        {
          "internalType": "contract MonoswapToken",
          "name": "_monoswapToken",
          "type": "address"
        },
        {
          "internalType": "contract IvUSD",
          "name": "_vusd",
          "type": "address"
        }
      ],
      "name": "initialize",
      "outputs": [],
      "stateMutability": "nonpayable",
      "type": "function"
    },
    {
      "inputs": [
        {
          "internalType": "address",
          "name": "_token",
          "type": "address"
        },
        {
          "internalType": "uint112",
          "name": "_price",
          "type": "uint112"
        },
        {
          "internalType": "uint256",
          "name": "vusdAmount",
          "type": "uint256"
        },
        {
          "internalType": "uint256",
          "name": "tokenAmount",
          "type": "uint256"
        },
        {
          "internalType": "address",
          "name": "to",
          "type": "address"
        }
      ],
      "name": "listNewToken",
      "outputs": [
        {
          "internalType": "uint256",
          "name": "_pid",
          "type": "uint256"
        },
        {
          "internalType": "uint256",
          "name": "liquidity",
          "type": "uint256"
        }
      ],
      "stateMutability": "nonpayable",
      "type": "function"
    },
    {
      "inputs": [],
      "name": "monoswapToken",
      "outputs": [
        {
          "internalType": "contract MonoswapToken",
          "name": "",
          "type": "address"
        }
      ],
      "stateMutability": "view",
      "type": "function"
    },
    {
      "inputs": [],
      "name": "owner",
      "outputs": [
        {
          "internalType": "address",
          "name": "",
          "type": "address"
        }
      ],
      "stateMutability": "view",
      "type": "function"
    },
    {
      "inputs": [],
      "name": "poolSize",
      "outputs": [
        {
          "internalType": "uint256",
          "name": "",
          "type": "uint256"
        }
      ],
      "stateMutability": "view",
      "type": "function"
    },
    {
      "inputs": [
        {
          "internalType": "address",
          "name": "",
          "type": "address"
        }
      ],
      "name": "pools",
      "outputs": [
        {
          "internalType": "uint256",
          "name": "pid",
          "type": "uint256"
        },
        {
          "internalType": "uint256",
          "name": "lastPoolValue",
          "type": "uint256"
        },
        {
          "internalType": "address",
          "name": "token",
          "type": "address"
        },
        {
          "internalType": "enum Monoswap.PoolStatus",
          "name": "status",
          "type": "uint8"
        },
        {
          "internalType": "uint112",
          "name": "vusdDebt",
          "type": "uint112"
        },
        {
          "internalType": "uint112",
          "name": "vusdCredit",
          "type": "uint112"
        },
        {
          "internalType": "uint112",
          "name": "tokenBalance",
          "type": "uint112"
        },
        {
          "internalType": "uint112",
          "name": "price",
          "type": "uint112"
        }
      ],
      "stateMutability": "view",
      "type": "function"
    },
    {
      "inputs": [
        {
          "internalType": "address",
          "name": "_token",
          "type": "address"
        },
        {
          "internalType": "uint256",
          "name": "liquidity",
          "type": "uint256"
        },
        {
          "internalType": "address",
          "name": "to",
          "type": "address"
        },
        {
          "internalType": "uint256",
          "name": "minVusdOut",
          "type": "uint256"
        },
        {
          "internalType": "uint256",
          "name": "minTokenOut",
          "type": "uint256"
        }
      ],
      "name": "removeLiquidity",
      "outputs": [
        {
          "internalType": "uint256",
          "name": "vusdOut",
          "type": "uint256"
        },
        {
          "internalType": "uint256",
          "name": "tokenOut",
          "type": "uint256"
        }
      ],
      "stateMutability": "nonpayable",
      "type": "function"
    },
    {
      "inputs": [],
      "name": "renounceOwnership",
      "outputs": [],
      "stateMutability": "nonpayable",
      "type": "function"
    },
    {
      "inputs": [
        {
          "internalType": "uint16",
          "name": "_devFee",
          "type": "uint16"
        }
      ],
      "name": "setDevFee",
      "outputs": [],
      "stateMutability": "nonpayable",
      "type": "function"
    },
    {
      "inputs": [
        {
          "internalType": "address",
          "name": "_feeTo",
          "type": "address"
        }
      ],
      "name": "setFeeTo",
      "outputs": [],
      "stateMutability": "nonpayable",
      "type": "function"
    },
    {
      "inputs": [
        {
          "internalType": "uint16",
          "name": "_fees",
          "type": "uint16"
        }
      ],
      "name": "setFees",
      "outputs": [],
      "stateMutability": "nonpayable",
      "type": "function"
    },
    {
      "inputs": [
        {
          "internalType": "address",
          "name": "tokenIn",
          "type": "address"
        },
        {
          "internalType": "address",
          "name": "tokenOut",
          "type": "address"
        },
        {
          "internalType": "uint256",
          "name": "amountIn",
          "type": "uint256"
        },
        {
          "internalType": "uint256",
          "name": "amountOutMin",
          "type": "uint256"
        },
        {
          "internalType": "address",
          "name": "to",
          "type": "address"
        },
        {
          "internalType": "uint256",
          "name": "deadline",
          "type": "uint256"
        }
      ],
      "name": "swapExactTokenForToken",
      "outputs": [
        {
          "internalType": "uint256",
          "name": "amountOut",
          "type": "uint256"
        }
      ],
      "stateMutability": "nonpayable",
      "type": "function"
    },
    {
      "inputs": [
        {
          "internalType": "address",
          "name": "tokenIn",
          "type": "address"
        },
        {
          "internalType": "address",
          "name": "tokenOut",
          "type": "address"
        },
        {
          "internalType": "address",
          "name": "to",
          "type": "address"
        },
        {
          "internalType": "uint256",
          "name": "amountIn",
          "type": "uint256"
        }
      ],
      "name": "swapIn",
      "outputs": [
        {
          "internalType": "uint256",
          "name": "amountOut",
          "type": "uint256"
        }
      ],
      "stateMutability": "nonpayable",
      "type": "function"
    },
    {
      "inputs": [
        {
          "internalType": "address",
          "name": "tokenIn",
          "type": "address"
        },
        {
          "internalType": "address",
          "name": "tokenOut",
          "type": "address"
        },
        {
          "internalType": "address",
          "name": "to",
          "type": "address"
        },
        {
          "internalType": "uint256",
          "name": "amountOut",
          "type": "uint256"
        }
      ],
      "name": "swapOut",
      "outputs": [
        {
          "internalType": "uint256",
          "name": "amountIn",
          "type": "uint256"
        }
      ],
      "stateMutability": "nonpayable",
      "type": "function"
    },
    {
      "inputs": [
        {
          "internalType": "address",
          "name": "tokenIn",
          "type": "address"
        },
        {
          "internalType": "address",
          "name": "tokenOut",
          "type": "address"
        },
        {
          "internalType": "uint256",
          "name": "amountInMax",
          "type": "uint256"
        },
        {
          "internalType": "uint256",
          "name": "amountOut",
          "type": "uint256"
        },
        {
          "internalType": "address",
          "name": "to",
          "type": "address"
        },
        {
          "internalType": "uint256",
          "name": "deadline",
          "type": "uint256"
        }
      ],
      "name": "swapTokenForExactToken",
      "outputs": [
        {
          "internalType": "uint256",
          "name": "amountIn",
          "type": "uint256"
        }
      ],
      "stateMutability": "nonpayable",
      "type": "function"
    },
    {
      "inputs": [
        {
          "internalType": "address",
          "name": "",
          "type": "address"
        }
      ],
      "name": "tokenPoolStatus",
      "outputs": [
        {
          "internalType": "uint8",
          "name": "",
          "type": "uint8"
        }
      ],
      "stateMutability": "view",
      "type": "function"
    },
    {
      "inputs": [
        {
          "internalType": "uint256",
          "name": "",
          "type": "uint256"
        }
      ],
      "name": "totalSupply",
      "outputs": [
        {
          "internalType": "uint256",
          "name": "",
          "type": "uint256"
        }
      ],
      "stateMutability": "view",
      "type": "function"
    },
    {
      "inputs": [
        {
          "internalType": "address",
          "name": "newOwner",
          "type": "address"
        }
      ],
      "name": "transferOwnership",
      "outputs": [],
      "stateMutability": "nonpayable",
      "type": "function"
    }
  ],
  "bytecode": "0x608060405234801561001057600080fd5b50613bb5806100206000396000f3fe608060405234801561001057600080fd5b50600436106101325760003560e01c8062c2408714610137578063138d03cd146101905780631a9fe17e146101ea5780631b87937814610226578063485cc9551461025c5780634aa066521461028c5780634ec18db9146102e857806353b609b5146102f0578063556ca709146103265780635dd44a6d14610360578063715018a6146103a85780638da5cb5b146103b0578063a4063dbc146103d4578063b242117814610479578063bbe4f6db146104af578063bd85b039146104d5578063c22b53be146104f2578063c48caa701461052e578063ca1123c214610563578063d56468ac14610584578063e18cb4fe146105cf578063e4df1c43146105f0578063e903a0f11461062c578063f2fde38b14610634578063f46901ed1461065a575b600080fd5b610177600480360360a081101561014d57600080fd5b506001600160a01b0381358116916020810135916040820135169060608101359060800135610680565b6040805192835260208301919091528051918290030190f35b6101d8600480360360c08110156101a657600080fd5b506001600160a01b03813581169160208101358216916040820135916060810135916080820135169060a00135610964565b60408051918252519081900360200190f35b6102106004803603602081101561020057600080fd5b50356001600160a01b0316610a1e565b6040805160ff9092168252519081900360200190f35b6101d86004803603606081101561023c57600080fd5b506001600160a01b03813581169160208101359160409091013516610a33565b61028a6004803603604081101561027257600080fd5b506001600160a01b0381358116916020013516610a4a565b005b6102c2600480360360608110156102a257600080fd5b506001600160a01b03813581169160208101359091169060400135610b54565b604080519485526020850193909352838301919091526060830152519081900360800190f35b6101d8610e8a565b6102c26004803603606081101561030657600080fd5b506001600160a01b03813581169160208101359091169060400135610e90565b6101d86004803603608081101561033c57600080fd5b506001600160a01b03813581169160208101359160408201359160600135166111ae565b6101d8600480360360c081101561037657600080fd5b506001600160a01b03813581169160208101358216916040820135916060810135916080820135169060a00135611462565b61028a6114fb565b6103b8611595565b604080516001600160a01b039092168252519081900360200190f35b6103fa600480360360208110156103ea57600080fd5b50356001600160a01b03166115a4565b60405180898152602001888152602001876001600160a01b0316815260200186600281111561042557fe5b8152602001856001600160701b03168152602001846001600160701b03168152602001836001600160701b03168152602001826001600160701b031681526020019850505050505050505060405180910390f35b6102c26004803603606081101561048f57600080fd5b506001600160a01b03813581169160208101359160409091013516611606565b6102c2600480360360208110156104c557600080fd5b50356001600160a01b0316611998565b6101d8600480360360208110156104eb57600080fd5b5035611aad565b6101d86004803603608081101561050857600080fd5b506001600160a01b03813581169160208101358216916040820135169060600135611abf565b6101d86004803603604081101561054457600080fd5b5080356001600160a01b031690602001356001600160701b0316611f84565b61028a6004803603602081101561057957600080fd5b503561ffff16611ffb565b610177600480360360a081101561059a57600080fd5b506001600160a01b0381358116916001600160701b0360208201351691604082013591606081013591608090910135166120ca565b61028a600480360360208110156105e557600080fd5b503561ffff166120f3565b6101d86004803603608081101561060657600080fd5b506001600160a01b038135811691602081013582169160408201351690606001356121c4565b6103b8612616565b61028a6004803603602081101561064a57600080fd5b50356001600160a01b0316612625565b61028a6004803603602081101561067057600080fd5b50356001600160a01b0316612716565b6001600160a01b0385166000908152606a6020526040812054819060ff166001146106e0576040805162461bcd60e51b81526020600482015260196024820152600080516020613a12833981519152604482015290519081900360640190fd5b6001600160a01b038781166000908152606860209081526040808320815161010081018352815481526001820154938101939093526002808201549586169284019290925292939192916060840191600160a01b90910460ff169081111561074457fe5b600281111561074f57fe5b815260038201546001600160701b038082166020840152600160701b9182900481166040840152600490930154808416606084015204909116608090910152905060008061079e8a8a8a611606565b865160208801519299509097509294509092506107bc91908461279a565b86851015610811576040805162461bcd60e51b815260206004820181905260248201527f4d6f6e6f737761703a204c6573732076555344207468616e2064657369726564604482015290519081900360640190fd5b858410156108505760405162461bcd60e51b8152600401808060200182810382526028815260200180613b586028913960400191505060405180910390fd5b84156108c457606554604080516340c10f1960e01b81526001600160a01b038b8116600483015260248201899052915191909216916340c10f1991604480830192600092919082900301818387803b1580156108ab57600080fd5b505af11580156108bf573d6000803e3d6000fd5b505050505b6108d86001600160a01b038b168986612878565b6108e7888460000151836128ca565b6108f38a60008761296b565b50505050896001600160a01b03168360000151896001600160a01b03167fab577bf53edf8e035c53859461bfaac55e75b9380a594cc487ae89665d7788f284898960405180848152602001838152602001828152602001935050505060405180910390a45050509550959350505050565b600081428110156109b0576040805162461bcd60e51b8152602060048201526011602482015270135bdb9bdcddd85c0e8811561412549151607a1b604482015290519081900360640190fd5b6109bc88888688611abf565b915085821115610a13576040805162461bcd60e51b815260206004820181905260248201527f4d6f6e6f737761703a204558434553534956455f494e5055545f414d4f554e54604482015290519081900360640190fd5b509695505050505050565b606a6020526000908152604090205460ff1681565b6000610a4284600085856111ae565b949350505050565b600054610100900460ff1680610a635750610a63612bb8565b80610a71575060005460ff16155b610aac5760405162461bcd60e51b815260040180806020018281038252602e815260200180613a52602e913960400191505060405180910390fd5b600054610100900460ff16158015610ad7576000805460ff1961ff0019909116610100171660011790555b610adf612bc9565b606d80546001600160a01b03199081166001600160a01b0386811691909117909255606580549091169184169190911790556066805461ffff60a01b1916604b60a21b1761ffff60b01b1916601960b11b1790556000606b556001606c558015610b4f576000805461ff00191690555b505050565b60008060008060008511610b995760405162461bcd60e51b8152600401808060200182810382526023815260200180613b0b6023913960400191505060405180910390fd5b606654600090620186a090610bc1908890600160a01b900461ffff16830362ffffff16612c7b565b81610bc857fe5b60655491900491506001600160a01b03908116908916811415610bf857819250670de0b6b3a76400009550610d17565b6001600160a01b0389166000908152606a602052604090205460ff16600114610c56576040805162461bcd60e51b81526020600482015260196024820152600080516020613a12833981519152604482015290519081900360640190fd5b6001600160a01b03891660009081526068602052604081206002810154600490910154600160a01b90910460ff1691600160701b82046001600160701b03908116921690836002811115610ca657fe5b1415610ce7576040805162461bcd60e51b81526020600482015260176024820152600080516020613a32833981519152604482015290519081900360640190fd5b610cf48282876000612cdd565b9850670de0b6b3a7640000610d098a87612c7b565b81610d1057fe5b0495505050505b806001600160a01b0316886001600160a01b03161415610d4457829350670de0b6b3a76400009450610e7f565b6001600160a01b0388166000908152606a602052604090205460ff16600114610da2576040805162461bcd60e51b81526020600482015260196024820152600080516020613a12833981519152604482015290519081900360640190fd5b6001600160a01b03881660009081526068602052604081206002810154600490910154600160a01b90910460ff1691600160701b82046001600160701b03908116921690836002811115610df257fe5b1415610e33576040805162461bcd60e51b81526020600482015260176024820152600080516020613a32833981519152604482015290519081900360640190fd5b6000610e5183610e4b89670de0b6b3a7640000612c7b565b90612d35565b9050610e608383836001612cdd565b9850610e7889610e4b89670de0b6b3a7640000612c7b565b9750505050505b505093509350935093565b606b5481565b60008060008060008511610ed55760405162461bcd60e51b8152600401808060200182810382526023815260200180613b0b6023913960400191505060405180910390fd5b606654600090620186a090610efd908890600160a01b900461ffff16830162ffffff16612c7b565b81610f0457fe5b60655491900491506001600160a01b03908116908816811415610f3457819250670de0b6b3a76400009450611053565b6001600160a01b0388166000908152606a602052604090205460ff16600114610f92576040805162461bcd60e51b81526020600482015260196024820152600080516020613a12833981519152604482015290519081900360640190fd5b6001600160a01b03881660009081526068602052604081206002810154600490910154600160a01b90910460ff1691600160701b82046001600160701b03908116921690836002811115610fe257fe5b1415611023576040805162461bcd60e51b81526020600482015260176024820152600080516020613a32833981519152604482015290519081900360640190fd5b6110308282876001612cdd565b9750670de0b6b3a76400006110458987612c7b565b8161104c57fe5b0495505050505b806001600160a01b0316896001600160a01b0316141561108057829350670de0b6b3a76400009550610e7f565b6001600160a01b0389166000908152606a602052604090205460ff166001146110de576040805162461bcd60e51b81526020600482015260196024820152600080516020613a12833981519152604482015290519081900360640190fd5b6001600160a01b03891660009081526068602052604081206002810154600490910154600160a01b90910460ff1691600160701b82046001600160701b0390811692169083600281111561112e57fe5b141561116f576040805162461bcd60e51b81526020600482015260176024820152600080516020613a32833981519152604482015290519081900360640190fd5b600061118783610e4b89670de0b6b3a7640000612c7b565b90506111968383836000612cdd565b9950610e788a610e4b89670de0b6b3a7640000612c7b565b60008083116111fb576040805162461bcd60e51b8152602060048201526014602482015273135bdb9bdcddd85c0e8810985908105b5bdd5b9d60621b604482015290519081900360640190fd5b6001600160a01b0385166000908152606a602052604090205460ff1660011461125f576040805162461bcd60e51b8152602060048201526011602482015270135bdb9bdcddd85c0e88139bc81c1bdbdb607a1b604482015290519081900360640190fd5b600061126a86611998565b5050506001600160a01b03878116600090815260686020908152604080832081516101008101835281548152600182015493810193909352600280820154958616928401929092529495509193909290916060840191600160a01b900460ff16908111156112d457fe5b60028111156112df57fe5b815260038201546001600160701b03808216602080850191909152600160701b928390048216604085015260049094015480821660608501529190910416608090910152815190820151919250611336918461279a565b805160009081526067602052604090205461135c6001600160a01b038916333089612d99565b861561137a5760655461137a906001600160a01b031633308a612d99565b60006113b8670de0b6b3a76400006113a88560e001516001600160701b03168a612c7b90919063ffffffff16565b816113af57fe5b8a919004612df3565b9050816113d2576113cb816103e8612e4b565b94506113e3565b6113e084610e4b8484612c7b565b94505b6113f286846000015187612ea8565b6113fe8989600061296b565b5050845160408051898152602081018d90528082018c905290516001600160a01b03808f169550929350918a16917f166ddb815a41f60899d37e5c34db8f6cd53a5c65da870fcc7315af673878562a9181900360600190a450505050949350505050565b600081428110156114ae576040805162461bcd60e51b8152602060048201526011602482015270135bdb9bdcddd85c0e8811561412549151607a1b604482015290519081900360640190fd5b6114ba888886896121c4565b915084821015610a135760405162461bcd60e51b81526004018080602001828103825260248152602001806139c86024913960400191505060405180910390fd5b611503612f2c565b6001600160a01b0316611514611595565b6001600160a01b03161461155d576040805162461bcd60e51b81526020600482018190526024820152600080516020613acb833981519152604482015290519081900360640190fd5b6033546040516000916001600160a01b031690600080516020613aeb833981519152908390a3603380546001600160a01b0319169055565b6033546001600160a01b031690565b60686020526000908152604090208054600182015460028301546003840154600490940154929391926001600160a01b03821692600160a01b90920460ff16916001600160701b0380821692600160701b928390048216928282169291041688565b60008060008060008611611658576040805162461bcd60e51b8152602060048201526014602482015273135bdb9bdcddd85c0e8810985908105b5bdd5b9d60621b604482015290519081900360640190fd5b6001600160a01b0387811660009081526068602090815260408083208151610100810183528154815260018201549381019390935260028082015495861692840192909252929384938493849390926060840191600160a01b90910460ff16908111156116c157fe5b60028111156116cc57fe5b815260038201546001600160701b038082166020840152600160701b918290048116604084015260049093015480841660608401520490911660809091015290506117168b611998565b809550819650829750839b5050505050600060676000836000015181526020019081526020016000205490508a606d60009054906101000a90046001600160a01b03166001600160a01b031662fdd58e8c85600001516040518363ffffffff1660e01b815260040180836001600160a01b031681526020018281526020019250505060206040518083038186803b1580156117b057600080fd5b505afa1580156117c4573d6000803e3d6000fd5b505050506040513d60208110156117da57600080fd5b50511161186757606d54825160408051627eeac760e11b81526001600160a01b038e8116600483015260248201939093529051919092169162fdd58e916044808301926020929190829003018186803b15801561183657600080fd5b505afa15801561184a573d6000803e3d6000fd5b505050506040513d602081101561186057600080fd5b5051611869565b8a5b975060008c6001600160a01b03166370a08231306040518263ffffffff1660e01b815260040180826001600160a01b0316815260200191505060206040518083038186803b1580156118ba57600080fd5b505afa1580156118ce573d6000803e3d6000fd5b505050506040513d60208110156118e457600080fd5b505160c08401519091506001600160701b031681101561193257670de0b6b3a76400006119278460e001516001600160701b031683612c7b90919063ffffffff16565b8161192e57fe5b0495505b83156119695760e0830151611966906001600160701b0316610e4b670de0b6b3a76400006119608a89612e4b565b90612c7b565b90505b61197782610e4b8b88612c7b565b975061198782610e4b8b84612c7b565b965050505050505093509350935093565b6001600160a01b0381811660009081526068602090815260408083208151610100810183528154815260018201549381019390935260028082015495861692840192909252929384938493849384939192916060840191600160a01b90910460ff1690811115611a0457fe5b6002811115611a0f57fe5b815260038201546001600160701b038082166020840152600160701b9182900481166040840152600490930154808416606084015204821660809182015260a08301519083015160c084015160e085015192841697509083169550929350670de0b6b3a764000092611a85929182169116612c7b565b81611a8c57fe5b049350611aa382611a9d8686612df3565b90612e4b565b9450509193509193565b60676020526000908152604090205481565b6001600160a01b038416600090815260696020526040812054859060ff166001811415611b2b576040805162461bcd60e51b8152602060048201526015602482015274135bdb9bdcddd85c0e881413d3d3081313d0d2d151605a1b604482015290519081900360640190fd5b60ff8116611b57576001600160a01b0382166000908152606960205260409020805460ff191660011790555b6065546001600160a01b031660008080611b728b8b8a610e90565b6001600160a01b038f16600090815260696020526040902054919a5092955090935090915060ff1660021415611bbc57611bb76001600160a01b038c1633308a612d99565b611d2a565b60008b6001600160a01b03166370a08231306040518263ffffffff1660e01b815260040180826001600160a01b0316815260200191505060206040518083038186803b158015611c0b57600080fd5b505afa158015611c1f573d6000803e3d6000fd5b505050506040513d6020811015611c3557600080fd5b50519050611c4e6001600160a01b038d1633308b612d99565b60008c6001600160a01b03166370a08231306040518263ffffffff1660e01b815260040180826001600160a01b0316815260200191505060206040518083038186803b158015611c9d57600080fd5b505afa158015611cb1573d6000803e3d6000fd5b505050506040513d6020811015611cc757600080fd5b50519050611cd58183612e4b565b891015611d27576040805162461bcd60e51b815260206004820152601b60248201527a4d6f6e6f737761703a204e6f7420456e6f75676820546f6b656e7360281b604482015290519081900360640190fd5b50505b60665460009062030d4090611d4b908a90600160a01b900461ffff16612c7b565b81611d5257fe5b0490506000670de0b6b3a7640000611d6a8684612c7b565b81611d7157fe5b049050856001600160a01b03168d6001600160a01b03161415611e0f5760408051632770a7eb60e21b8152306004820152602481018b905290516001600160a01b03881691639dc29fac91604480830192600092919082900301818387803b158015611ddc57600080fd5b505af1158015611df0573d6000803e3d6000fd5b50505050611e08600282612c7b90919063ffffffff16565b9050611e25565b611e258d866000611e208786612df3565b612f30565b856001600160a01b03168c6001600160a01b03161415611ec157856001600160a01b03166340c10f198c8c6040518363ffffffff1660e01b815260040180836001600160a01b0316815260200182815260200192505050600060405180830381600087803b158015611e9657600080fd5b505af1158015611eaa573d6000803e3d6000fd5b50505050611eba8d82600061305f565b5050611eeb565b611ed56001600160a01b038d168c8c612878565b611eeb8c85611ee48685612df3565b6000612f30565b8b6001600160a01b03168d6001600160a01b03168c6001600160a01b03167fcd3829a3813dc3cdd188fd3d01dcf3268c16be2fdd2dd21d0665418816e460628c8e604051808381526020018281526020019250505060405180910390a4505050505060ff821615159050611f7a576001600160a01b0382166000908152606960205260409020805460ff191690555b5050949350505050565b6000611f8e612f2c565b6001600160a01b0316611f9f611595565b6001600160a01b031614611fe8576040805162461bcd60e51b81526020600482018190526024820152600080516020613acb833981519152604482015290519081900360640190fd5b611ff4838360026132a1565b9392505050565b612003612f2c565b6001600160a01b0316612014611595565b6001600160a01b03161461205d576040805162461bcd60e51b81526020600482018190526024820152600080516020613acb833981519152604482015290519081900360640190fd5b6103e88161ffff16106120a8576040805162461bcd60e51b815260206004820152600e60248201526d6665657320746f6f206c6172676560901b604482015290519081900360640190fd5b6066805461ffff909216600160a01b0261ffff60a01b19909216919091179055565b6000806120d9878760016132a1565b91506120e7878686866111ae565b90509550959350505050565b6120fb612f2c565b6001600160a01b031661210c611595565b6001600160a01b031614612155576040805162461bcd60e51b81526020600482018190526024820152600080516020613acb833981519152604482015290519081900360640190fd5b6103e88161ffff16106121a2576040805162461bcd60e51b815260206004820152601060248201526f64657646656520746f6f206c6172676560801b604482015290519081900360640190fd5b6066805461ffff909216600160b01b0261ffff60b01b19909216919091179055565b6001600160a01b038416600090815260696020526040812054859060ff166001811415612230576040805162461bcd60e51b8152602060048201526015602482015274135bdb9bdcddd85c0e881413d3d3081313d0d2d151605a1b604482015290519081900360640190fd5b60ff811661225c576001600160a01b0382166000908152606960205260409020805460ff191660011790555b6065546001600160a01b0388811660009081526069602052604090205491169060ff16600214156122a15761229c6001600160a01b038916333088612d99565b6123bf565b6000886001600160a01b03166370a08231306040518263ffffffff1660e01b815260040180826001600160a01b0316815260200191505060206040518083038186803b1580156122f057600080fd5b505afa158015612304573d6000803e3d6000fd5b505050506040513d602081101561231a57600080fd5b505190506123336001600160a01b038a16333089612d99565b6000896001600160a01b03166370a08231306040518263ffffffff1660e01b815260040180826001600160a01b0316815260200191505060206040518083038186803b15801561238257600080fd5b505afa158015612396573d6000803e3d6000fd5b505050506040513d60208110156123ac57600080fd5b505190506123ba8183612e4b565b965050505b60665460009062030d40906123e0908890600160a01b900461ffff16612c7b565b816123e757fe5b04905060008060006123fa8c8c8b610b54565b909a50919450925090506000670de0b6b3a76400006124198587612c7b565b8161242057fe5b049050856001600160a01b03168d6001600160a01b031614156124be5760408051632770a7eb60e21b8152306004820152602481018c905290516001600160a01b03881691639dc29fac91604480830192600092919082900301818387803b15801561248b57600080fd5b505af115801561249f573d6000803e3d6000fd5b505050506124b7600282612c7b90919063ffffffff16565b90506124cf565b6124cf8d856000611e208686612df3565b856001600160a01b03168c6001600160a01b0316141561255d57856001600160a01b03166340c10f198c8b6040518363ffffffff1660e01b815260040180836001600160a01b0316815260200182815260200192505050600060405180830381600087803b15801561254057600080fd5b505af1158015612554573d6000803e3d6000fd5b50505050612580565b6125716001600160a01b038d168c8b612878565b6125808c84611ee48585612df3565b8b6001600160a01b03168d6001600160a01b03168c6001600160a01b03167fcd3829a3813dc3cdd188fd3d01dcf3268c16be2fdd2dd21d0665418816e460628d8d604051808381526020018281526020019250505060405180910390a4505050505060ff821615159050611f7a57506001600160a01b03166000908152606960205260409020805460ff19169055949350505050565b606d546001600160a01b031681565b61262d612f2c565b6001600160a01b031661263e611595565b6001600160a01b031614612687576040805162461bcd60e51b81526020600482018190526024820152600080516020613acb833981519152604482015290519081900360640190fd5b6001600160a01b0381166126cc5760405162461bcd60e51b81526004018080602001828103825260268152602001806139ec6026913960400191505060405180910390fd5b6033546040516001600160a01b03808416921690600080516020613aeb83398151915290600090a3603380546001600160a01b0319166001600160a01b0392909216919091179055565b61271e612f2c565b6001600160a01b031661272f611595565b6001600160a01b031614612778576040805162461bcd60e51b81526020600482018190526024820152600080516020613acb833981519152604482015290519081900360640190fd5b606680546001600160a01b0319166001600160a01b0392909216919091179055565b60008381526067602052604090205482821180156127b85750600083115b156128725760665483830390600090620186a0906127ed9084870390610e4b90600160b01b900461ffff166119608888612c7b565b816127f457fe5b606d5460665460408051630ab714fb60e11b81526001600160a01b039283166004820152602481018c905294909304604485018190529251929450169163156e29f691606480830192600092919082900301818387803b15801561285757600080fd5b505af115801561286b573d6000803e3d6000fd5b5050505050505b50505050565b604080516001600160a01b038416602482015260448082018490528251808303909101815260649091019091526020810180516001600160e01b031663a9059cbb60e01b179052610b4f908490613532565b6000828152606760205260409020546128e39082612e4b565b60008381526067602052604080822092909255606d548251637a94c56560e11b81526001600160a01b03878116600483015260248201879052604482018690529351939091169263f5298aca9260648084019391929182900301818387803b15801561294e57600080fd5b505af1158015612962573d6000803e3d6000fd5b50505050505050565b6001600160a01b038316600090815260696020526040812054819081908190879060ff1660018114156129dd576040805162461bcd60e51b8152602060048201526015602482015274135bdb9bdcddd85c0e881413d3d3081313d0d2d151605a1b604482015290519081900360640190fd5b60ff8116612a09576001600160a01b0382166000908152606960205260409020805460ff191660011790555b6001600160a01b038916600090815260686020526040902060040154600160701b90046001600160701b0316612a408a8a8a61305f565b604080516370a0823160e01b815230600482015290519297509095506000916001600160a01b038d16916370a08231916024808301926020929190829003018186803b158015612a8f57600080fd5b505afa158015612aa3573d6000803e3d6000fd5b505050506040513d6020811015612ab957600080fd5b50519050670de0b6b3a7640000612ad08383612c7b565b81612ad757fe5b0496506001600160701b03811115612b21576040805162461bcd60e51b81526020600482015260086024820152674f564552464c4f5760c01b604482015290519081900360640190fd5b6001600160a01b038b16600090815260686020526040902060040180546001600160701b0319166001600160701b038316179055612b6385611a9d8989612df3565b6001600160a01b038c1660009081526068602052604090206001018190559750505060ff8116610e7f576001600160a01b0382166000908152606960205260409020805460ff19169055505093509350935093565b6000612bc3306135e3565b15905090565b600054610100900460ff1680612be25750612be2612bb8565b80612bf0575060005460ff16155b612c2b5760405162461bcd60e51b815260040180806020018281038252602e815260200180613a52602e913960400191505060405180910390fd5b600054610100900460ff16158015612c56576000805460ff1961ff0019909116610100171660011790555b612c5e6135e9565b612c66613689565b8015612c78576000805461ff00191690555b50565b600082612c8a57506000612cd7565b82820282848281612c9757fe5b0414612cd45760405162461bcd60e51b8152600401808060200182810382526021815260200180613a806021913960400191505060405180910390fd5b90505b92915050565b600080826001811115612cec57fe5b1415612d1557612cfc8484612df3565b612d068686612c7b565b81612d0d57fe5b049050610a42565b612d2c612d228585612e4b565b610e4b8787612c7b565b95945050505050565b6000808211612d88576040805162461bcd60e51b815260206004820152601a602482015279536166654d6174683a206469766973696f6e206279207a65726f60301b604482015290519081900360640190fd5b818381612d9157fe5b049392505050565b604080516001600160a01b0380861660248301528416604482015260648082018490528251808303909101815260849091019091526020810180516001600160e01b03166323b872dd60e01b179052612872908590613532565b600082820183811015612cd4576040805162461bcd60e51b815260206004820152601b60248201527a536166654d6174683a206164646974696f6e206f766572666c6f7760281b604482015290519081900360640190fd5b600082821115612ea2576040805162461bcd60e51b815260206004820152601e60248201527f536166654d6174683a207375627472616374696f6e206f766572666c6f770000604482015290519081900360640190fd5b50900390565b600082815260676020526040902054612ec19082612df3565b60008381526067602052604080822092909255606d548251630ab714fb60e11b81526001600160a01b03878116600483015260248201879052604482018690529351939091169263156e29f69260648084019391929182900301818387803b15801561294e57600080fd5b3390565b6000846001600160a01b03166370a08231306040518263ffffffff1660e01b815260040180826001600160a01b0316815260200191505060206040518083038186803b158015612f7f57600080fd5b505afa158015612f93573d6000803e3d6000fd5b505050506040513d6020811015612fa957600080fd5b505190506001600160701b038411801590612fcb57506001600160701b038111155b613007576040805162461bcd60e51b81526020600482015260086024820152674f564552464c4f5760c01b604482015290519081900360640190fd5b6001600160a01b038516600090815260686020526040902060040180546001600160701b03868116600160701b02600160701b600160e01b03199185166001600160701b031990931692909217161790556129628584845b6000808284111561307757919092039160009161307f565b600093909203915b6001600160a01b038516600090815260686020526040902060038101546002909101546001600160701b03600160701b8304811692169060ff600160a01b909104168515613183576130d2838388613770565b90955093506001600160701b0385118015906130f557506001600160701b038411155b613131576040805162461bcd60e51b81526020600482015260086024820152674f564552464c4f5760c01b604482015290519081900360640190fd5b6001600160a01b038816600090815260686020526040902060030180546001600160701b038681166001600160701b0319918916600160701b02600160701b600160e01b031990931692909217161790555b8615613245576131948383896137b4565b90955093506001600160701b0385118015906131b757506001600160701b038411155b6131f3576040805162461bcd60e51b81526020600482015260086024820152674f564552464c4f5760c01b604482015290519081900360640190fd5b6001600160a01b038816600090815260686020526040902060030180546001600160701b038681166001600160701b0319918916600160701b02600160701b600160e01b031990931692909217161790555b600181600281111561325357fe5b14156132965783156132965760405162461bcd60e51b815260040180806020018281038252602a815260200180613aa1602a913960400191505060405180910390fd5b505050935093915050565b6000606c546001146132ed576040805162461bcd60e51b815260206004820152601060248201526f135bdb9bdcddd85c0e881313d0d2d15160821b604482015290519081900360640190fd5b6000606c8190556001600160a01b0385168152606a602052604090205460ff1615613358576040805162461bcd60e51b81526020600482015260166024820152754d6f6e6f737761703a20546f6b656e2045786973747360501b604482015290519081900360640190fd5b6065546001600160a01b03858116911614156133bb576040805162461bcd60e51b815260206004820152601f60248201527f4d6f6e6f737761703a207655534420706f6f6c206e6f7420616c6c6f77656400604482015290519081900360640190fd5b606b54905060405180610100016040528082815260200160008152602001856001600160a01b031681526020018360028111156133f457fe5b815260006020808301829052604080840183905260608085018490526001600160701b0389166080909501949094526001600160a01b038981168452606883529281902085518155918501516001830155840151600280830180546001600160a01b031916929094169190911780845593850151919391929160ff60a01b191690600160a01b90849081111561348657fe5b0217905550608082015160038201805460a08501516001600160701b03908116600160701b908102600160701b600160e01b03199583166001600160701b03199485161786161790935560c08601516004909501805460e09097015182169093029416941693909317161790556134fe816001612df3565b606b556001600160a01b039093166000908152606a60205260409020805460ff19166001908117909155606c555090919050565b6000613587826040518060400160405280602081526020017f5361666545524332303a206c6f772d6c6576656c2063616c6c206661696c6564815250856001600160a01b03166137fe9092919063ffffffff16565b805190915015610b4f578080602001905160208110156135a657600080fd5b5051610b4f5760405162461bcd60e51b815260040180806020018281038252602a815260200180613b2e602a913960400191505060405180910390fd5b3b151590565b600054610100900460ff16806136025750613602612bb8565b80613610575060005460ff16155b61364b5760405162461bcd60e51b815260040180806020018281038252602e815260200180613a52602e913960400191505060405180910390fd5b600054610100900460ff16158015612c66576000805460ff1961ff0019909116610100171660011790558015612c78576000805461ff001916905550565b600054610100900460ff16806136a257506136a2612bb8565b806136b0575060005460ff16155b6136eb5760405162461bcd60e51b815260040180806020018281038252602e815260200180613a52602e913960400191505060405180910390fd5b600054610100900460ff16158015613716576000805460ff1961ff0019909116610100171660011790555b6000613720612f2c565b603380546001600160a01b0319166001600160a01b03831690811790915560405191925090600090600080516020613aeb833981519152908290a3508015612c78576000805461ff001916905550565b600080841561379b578483111561378e575060009050838203613796565b505080830360005b6137ac565b600091506137a98484612df3565b90505b935093915050565b60008083156137e857838311156137db575060006137d485858503612df3565b9150613796565b50600090508183036137ac565b6137f28584612df3565b95600095509350505050565b6060610a42848460008585613812856135e3565b613863576040805162461bcd60e51b815260206004820152601d60248201527f416464726573733a2063616c6c20746f206e6f6e2d636f6e7472616374000000604482015290519081900360640190fd5b600080866001600160a01b031685876040518082805190602001908083835b602083106138a15780518252601f199092019160209182019101613882565b6001836020036101000a03801982511681845116808217855250505050505090500191505060006040518083038185875af1925050503d8060008114613903576040519150601f19603f3d011682016040523d82523d6000602084013e613908565b606091505b5091509150613918828286613923565b979650505050505050565b60608315613932575081611ff4565b8251156139425782518084602001fd5b8160405162461bcd60e51b81526004018080602001828103825283818151815260200191508051906020019080838360005b8381101561398c578181015183820152602001613974565b50505050905090810190601f1680156139b95780820380516001836020036101000a031916815260200191505b509250505060405180910390fdfe4d6f6e6f737761703a20494e53554646494349454e545f4f55545055545f414d4f554e544f776e61626c653a206e6577206f776e657220697320746865207a65726f20616464726573734d6f6e6f737761703a20546f6b656e204e6f7420466f756e64000000000000004d6f6e6f737761703a20506f6f6c20556e6c6973746564000000000000000000496e697469616c697a61626c653a20636f6e747261637420697320616c726561647920696e697469616c697a6564536166654d6174683a206d756c7469706c69636174696f6e206f766572666c6f774d6f6e6f737761703a20756e6f6666696369616c20706f6f6c2063616e6e6f74206265617220646562744f776e61626c653a2063616c6c6572206973206e6f7420746865206f776e65728be0079c531659141344cd1fd0a4f28419497f9722a3daafe3b4186f6b6457e04d6f6e6f737761703a20494e53554646494349454e545f494e5055545f414d4f554e545361666545524332303a204552433230206f7065726174696f6e20646964206e6f7420737563636565644d6f6e6f737761703a204c65737320746f6b656e20616d6f756e74207468616e2064657369726564a2646970667358221220bd4215d6e4d66be1c614acf2ba8379fbb98c90c5716c41668ca7beaa75e6f11964736f6c63430007060033",
  "linkReferences": {},
  "deployedLinkReferences": {}
}