{
  "_format": "hh-sol-artifact-1",
  "contractName": "Monoswap",
  "sourceName": "contracts/Monoswap.sol",
  "abi": [
    {
      "inputs": [
        {
          "internalType": "contract IvUSD",
          "name": "_vusd",
          "type": "address"
        }
      ],
      "stateMutability": "nonpayable",
      "type": "constructor"
    },
    {
      "anonymous": false,
      "inputs": [
        {
          "indexed": true,
          "internalType": "address",
          "name": "provider",
          "type": "address"
        },
        {
          "indexed": true,
          "internalType": "uint256",
          "name": "pid",
          "type": "uint256"
        },
        {
          "indexed": true,
          "internalType": "address",
          "name": "token",
          "type": "address"
        },
        {
          "indexed": false,
          "internalType": "uint256",
          "name": "liquidityAmount",
          "type": "uint256"
        },
        {
          "indexed": false,
          "internalType": "uint256",
          "name": "vusdAmount",
          "type": "uint256"
        },
        {
          "indexed": false,
          "internalType": "uint256",
          "name": "tokenAmount",
          "type": "uint256"
        }
      ],
      "name": "AddLiquidity",
      "type": "event"
    },
    {
      "anonymous": false,
      "inputs": [
        {
          "indexed": true,
          "internalType": "address",
          "name": "account",
          "type": "address"
        },
        {
          "indexed": true,
          "internalType": "address",
          "name": "operator",
          "type": "address"
        },
        {
          "indexed": false,
          "internalType": "bool",
          "name": "approved",
          "type": "bool"
        }
      ],
      "name": "ApprovalForAll",
      "type": "event"
    },
    {
      "anonymous": false,
      "inputs": [
        {
          "indexed": true,
          "internalType": "address",
          "name": "previousOwner",
          "type": "address"
        },
        {
          "indexed": true,
          "internalType": "address",
          "name": "newOwner",
          "type": "address"
        }
      ],
      "name": "OwnershipTransferred",
      "type": "event"
    },
    {
      "anonymous": false,
      "inputs": [
        {
          "indexed": true,
          "internalType": "address",
          "name": "provider",
          "type": "address"
        },
        {
          "indexed": true,
          "internalType": "uint256",
          "name": "pid",
          "type": "uint256"
        },
        {
          "indexed": true,
          "internalType": "address",
          "name": "token",
          "type": "address"
        },
        {
          "indexed": false,
          "internalType": "uint256",
          "name": "liquidityAmount",
          "type": "uint256"
        },
        {
          "indexed": false,
          "internalType": "uint256",
          "name": "vusdAmount",
          "type": "uint256"
        },
        {
          "indexed": false,
          "internalType": "uint256",
          "name": "tokenAmount",
          "type": "uint256"
        }
      ],
      "name": "RemoveLiquidity",
      "type": "event"
    },
    {
      "anonymous": false,
      "inputs": [
        {
          "indexed": true,
          "internalType": "address",
          "name": "user",
          "type": "address"
        },
        {
          "indexed": true,
          "internalType": "address",
          "name": "tokenIn",
          "type": "address"
        },
        {
          "indexed": true,
          "internalType": "address",
          "name": "tokenOut",
          "type": "address"
        },
        {
          "indexed": false,
          "internalType": "uint256",
          "name": "amountIn",
          "type": "uint256"
        },
        {
          "indexed": false,
          "internalType": "uint256",
          "name": "amountOut",
          "type": "uint256"
        }
      ],
      "name": "Swap",
      "type": "event"
    },
    {
      "anonymous": false,
      "inputs": [
        {
          "indexed": true,
          "internalType": "address",
          "name": "operator",
          "type": "address"
        },
        {
          "indexed": true,
          "internalType": "address",
          "name": "from",
          "type": "address"
        },
        {
          "indexed": true,
          "internalType": "address",
          "name": "to",
          "type": "address"
        },
        {
          "indexed": false,
          "internalType": "uint256[]",
          "name": "ids",
          "type": "uint256[]"
        },
        {
          "indexed": false,
          "internalType": "uint256[]",
          "name": "values",
          "type": "uint256[]"
        }
      ],
      "name": "TransferBatch",
      "type": "event"
    },
    {
      "anonymous": false,
      "inputs": [
        {
          "indexed": true,
          "internalType": "address",
          "name": "operator",
          "type": "address"
        },
        {
          "indexed": true,
          "internalType": "address",
          "name": "from",
          "type": "address"
        },
        {
          "indexed": true,
          "internalType": "address",
          "name": "to",
          "type": "address"
        },
        {
          "indexed": false,
          "internalType": "uint256",
          "name": "id",
          "type": "uint256"
        },
        {
          "indexed": false,
          "internalType": "uint256",
          "name": "value",
          "type": "uint256"
        }
      ],
      "name": "TransferSingle",
      "type": "event"
    },
    {
      "anonymous": false,
      "inputs": [
        {
          "indexed": false,
          "internalType": "string",
          "name": "value",
          "type": "string"
        },
        {
          "indexed": true,
          "internalType": "uint256",
          "name": "id",
          "type": "uint256"
        }
      ],
      "name": "URI",
      "type": "event"
    },
    {
      "inputs": [
        {
          "internalType": "address",
          "name": "_token",
          "type": "address"
        },
        {
          "internalType": "uint256",
          "name": "liquidity",
          "type": "uint256"
        },
        {
          "internalType": "address",
          "name": "to",
          "type": "address"
        }
      ],
      "name": "_removeLiquidity",
      "outputs": [
        {
          "internalType": "uint256",
          "name": "poolValue",
          "type": "uint256"
        },
        {
          "internalType": "uint256",
          "name": "liquidityIn",
          "type": "uint256"
        },
        {
          "internalType": "uint256",
          "name": "vusdOut",
          "type": "uint256"
        },
        {
          "internalType": "uint256",
          "name": "tokenOut",
          "type": "uint256"
        }
      ],
      "stateMutability": "view",
      "type": "function"
    },
    {
      "inputs": [
        {
          "internalType": "address",
          "name": "_token",
          "type": "address"
        },
        {
          "internalType": "uint256",
          "name": "_amount",
          "type": "uint256"
        },
        {
          "internalType": "address",
          "name": "to",
          "type": "address"
        }
      ],
      "name": "addLiquidity",
      "outputs": [
        {
          "internalType": "uint256",
          "name": "liquidity",
          "type": "uint256"
        }
      ],
      "stateMutability": "nonpayable",
      "type": "function"
    },
    {
      "inputs": [
        {
          "internalType": "address",
          "name": "_token",
          "type": "address"
        },
        {
          "internalType": "uint256",
          "name": "vusdAmount",
          "type": "uint256"
        },
        {
          "internalType": "uint256",
          "name": "tokenAmount",
          "type": "uint256"
        },
        {
          "internalType": "address",
          "name": "to",
          "type": "address"
        }
      ],
      "name": "addLiquidityPair",
      "outputs": [
        {
          "internalType": "uint256",
          "name": "liquidity",
          "type": "uint256"
        }
      ],
      "stateMutability": "nonpayable",
      "type": "function"
    },
    {
      "inputs": [
        {
          "internalType": "address",
          "name": "_token",
          "type": "address"
        },
        {
          "internalType": "uint112",
          "name": "_price",
          "type": "uint112"
        }
      ],
      "name": "addOfficialToken",
      "outputs": [
        {
          "internalType": "uint256",
          "name": "_pid",
          "type": "uint256"
        }
      ],
      "stateMutability": "nonpayable",
      "type": "function"
    },
    {
      "inputs": [
        {
          "internalType": "address",
          "name": "account",
          "type": "address"
        },
        {
          "internalType": "uint256",
          "name": "id",
          "type": "uint256"
        }
      ],
      "name": "balanceOf",
      "outputs": [
        {
          "internalType": "uint256",
          "name": "",
          "type": "uint256"
        }
      ],
      "stateMutability": "view",
      "type": "function"
    },
    {
      "inputs": [
        {
          "internalType": "address[]",
          "name": "accounts",
          "type": "address[]"
        },
        {
          "internalType": "uint256[]",
          "name": "ids",
          "type": "uint256[]"
        }
      ],
      "name": "balanceOfBatch",
      "outputs": [
        {
          "internalType": "uint256[]",
          "name": "",
          "type": "uint256[]"
        }
      ],
      "stateMutability": "view",
      "type": "function"
    },
    {
      "inputs": [
        {
          "internalType": "address",
          "name": "tokenIn",
          "type": "address"
        },
        {
          "internalType": "address",
          "name": "tokenOut",
          "type": "address"
        },
        {
          "internalType": "uint256",
          "name": "amountOut",
          "type": "uint256"
        }
      ],
      "name": "getAmountIn",
      "outputs": [
        {
          "internalType": "uint256",
          "name": "tokenInPrice",
          "type": "uint256"
        },
        {
          "internalType": "uint256",
          "name": "tokenOutPrice",
          "type": "uint256"
        },
        {
          "internalType": "uint256",
          "name": "amountIn",
          "type": "uint256"
        },
        {
          "internalType": "uint256",
          "name": "tradeVusdValue",
          "type": "uint256"
        }
      ],
      "stateMutability": "view",
      "type": "function"
    },
    {
      "inputs": [
        {
          "internalType": "address",
          "name": "tokenIn",
          "type": "address"
        },
        {
          "internalType": "address",
          "name": "tokenOut",
          "type": "address"
        },
        {
          "internalType": "uint256",
          "name": "amountIn",
          "type": "uint256"
        }
      ],
      "name": "getAmountOut",
      "outputs": [
        {
          "internalType": "uint256",
          "name": "tokenInPrice",
          "type": "uint256"
        },
        {
          "internalType": "uint256",
          "name": "tokenOutPrice",
          "type": "uint256"
        },
        {
          "internalType": "uint256",
          "name": "amountOut",
          "type": "uint256"
        },
        {
          "internalType": "uint256",
          "name": "tradeVusdValue",
          "type": "uint256"
        }
      ],
      "stateMutability": "view",
      "type": "function"
    },
    {
      "inputs": [
        {
          "internalType": "address",
          "name": "_token",
          "type": "address"
        }
      ],
      "name": "getPool",
      "outputs": [
        {
          "internalType": "uint256",
          "name": "poolValue",
          "type": "uint256"
        },
        {
          "internalType": "uint256",
          "name": "tokenBalanceVusdValue",
          "type": "uint256"
        },
        {
          "internalType": "uint256",
          "name": "vusdCredit",
          "type": "uint256"
        },
        {
          "internalType": "uint256",
          "name": "vusdDebt",
          "type": "uint256"
        }
      ],
      "stateMutability": "view",
      "type": "function"
    },
    {
      "inputs": [
        {
          "internalType": "address",
          "name": "account",
          "type": "address"
        },
        {
          "internalType": "address",
          "name": "operator",
          "type": "address"
        }
      ],
      "name": "isApprovedForAll",
      "outputs": [
        {
          "internalType": "bool",
          "name": "",
          "type": "bool"
        }
      ],
      "stateMutability": "view",
      "type": "function"
    },
    {
      "inputs": [
        {
          "internalType": "address",
          "name": "_token",
          "type": "address"
        },
        {
          "internalType": "uint112",
          "name": "_price",
          "type": "uint112"
        },
        {
          "internalType": "uint256",
          "name": "vusdAmount",
          "type": "uint256"
        },
        {
          "internalType": "uint256",
          "name": "tokenAmount",
          "type": "uint256"
        },
        {
          "internalType": "address",
          "name": "to",
          "type": "address"
        }
      ],
      "name": "listNewToken",
      "outputs": [
        {
          "internalType": "uint256",
          "name": "_pid",
          "type": "uint256"
        },
        {
          "internalType": "uint256",
          "name": "liquidity",
          "type": "uint256"
        }
      ],
      "stateMutability": "nonpayable",
      "type": "function"
    },
    {
      "inputs": [],
      "name": "owner",
      "outputs": [
        {
          "internalType": "address",
          "name": "",
          "type": "address"
        }
      ],
      "stateMutability": "view",
      "type": "function"
    },
    {
      "inputs": [],
      "name": "poolSize",
      "outputs": [
        {
          "internalType": "uint256",
          "name": "",
          "type": "uint256"
        }
      ],
      "stateMutability": "view",
      "type": "function"
    },
    {
      "inputs": [
        {
          "internalType": "address",
          "name": "",
          "type": "address"
        }
      ],
      "name": "pools",
      "outputs": [
        {
          "internalType": "uint256",
          "name": "pid",
          "type": "uint256"
        },
        {
          "internalType": "uint256",
          "name": "lastPoolValue",
          "type": "uint256"
        },
        {
          "internalType": "address",
          "name": "token",
          "type": "address"
        },
        {
          "internalType": "enum Monoswap.PoolStatus",
          "name": "status",
          "type": "uint8"
        },
        {
          "internalType": "uint112",
          "name": "vusdDebt",
          "type": "uint112"
        },
        {
          "internalType": "uint112",
          "name": "vusdCredit",
          "type": "uint112"
        },
        {
          "internalType": "uint112",
          "name": "tokenBalance",
          "type": "uint112"
        },
        {
          "internalType": "uint112",
          "name": "price",
          "type": "uint112"
        }
      ],
      "stateMutability": "view",
      "type": "function"
    },
    {
      "inputs": [
        {
          "internalType": "address",
          "name": "_token",
          "type": "address"
        },
        {
          "internalType": "uint256",
          "name": "liquidity",
          "type": "uint256"
        },
        {
          "internalType": "address",
          "name": "to",
          "type": "address"
        },
        {
          "internalType": "uint256",
          "name": "minVusdOut",
          "type": "uint256"
        },
        {
          "internalType": "uint256",
          "name": "minTokenOut",
          "type": "uint256"
        }
      ],
      "name": "removeLiquidity",
      "outputs": [
        {
          "internalType": "uint256",
          "name": "vusdOut",
          "type": "uint256"
        },
        {
          "internalType": "uint256",
          "name": "tokenOut",
          "type": "uint256"
        }
      ],
      "stateMutability": "nonpayable",
      "type": "function"
    },
    {
      "inputs": [],
      "name": "renounceOwnership",
      "outputs": [],
      "stateMutability": "nonpayable",
      "type": "function"
    },
    {
      "inputs": [
        {
          "internalType": "address",
          "name": "from",
          "type": "address"
        },
        {
          "internalType": "address",
          "name": "to",
          "type": "address"
        },
        {
          "internalType": "uint256[]",
          "name": "ids",
          "type": "uint256[]"
        },
        {
          "internalType": "uint256[]",
          "name": "amounts",
          "type": "uint256[]"
        },
        {
          "internalType": "bytes",
          "name": "data",
          "type": "bytes"
        }
      ],
      "name": "safeBatchTransferFrom",
      "outputs": [],
      "stateMutability": "nonpayable",
      "type": "function"
    },
    {
      "inputs": [
        {
          "internalType": "address",
          "name": "from",
          "type": "address"
        },
        {
          "internalType": "address",
          "name": "to",
          "type": "address"
        },
        {
          "internalType": "uint256",
          "name": "id",
          "type": "uint256"
        },
        {
          "internalType": "uint256",
          "name": "amount",
          "type": "uint256"
        },
        {
          "internalType": "bytes",
          "name": "data",
          "type": "bytes"
        }
      ],
      "name": "safeTransferFrom",
      "outputs": [],
      "stateMutability": "nonpayable",
      "type": "function"
    },
    {
      "inputs": [
        {
          "internalType": "address",
          "name": "operator",
          "type": "address"
        },
        {
          "internalType": "bool",
          "name": "approved",
          "type": "bool"
        }
      ],
      "name": "setApprovalForAll",
      "outputs": [],
      "stateMutability": "nonpayable",
      "type": "function"
    },
    {
      "inputs": [
        {
          "internalType": "uint16",
          "name": "_devFee",
          "type": "uint16"
        }
      ],
      "name": "setDevFee",
      "outputs": [],
      "stateMutability": "nonpayable",
      "type": "function"
    },
    {
      "inputs": [
        {
          "internalType": "address",
          "name": "_feeTo",
          "type": "address"
        }
      ],
      "name": "setFeeTo",
      "outputs": [],
      "stateMutability": "nonpayable",
      "type": "function"
    },
    {
      "inputs": [
        {
          "internalType": "uint16",
          "name": "_fees",
          "type": "uint16"
        }
      ],
      "name": "setFees",
      "outputs": [],
      "stateMutability": "nonpayable",
      "type": "function"
    },
    {
      "inputs": [
        {
          "internalType": "bytes4",
          "name": "interfaceId",
          "type": "bytes4"
        }
      ],
      "name": "supportsInterface",
      "outputs": [
        {
          "internalType": "bool",
          "name": "",
          "type": "bool"
        }
      ],
      "stateMutability": "view",
      "type": "function"
    },
    {
      "inputs": [
        {
          "internalType": "address",
          "name": "tokenIn",
          "type": "address"
        },
        {
          "internalType": "address",
          "name": "tokenOut",
          "type": "address"
        },
        {
          "internalType": "uint256",
          "name": "amountIn",
          "type": "uint256"
        },
        {
          "internalType": "uint256",
          "name": "amountOutMin",
          "type": "uint256"
        },
        {
          "internalType": "address",
          "name": "to",
          "type": "address"
        },
        {
          "internalType": "uint256",
          "name": "deadline",
          "type": "uint256"
        }
      ],
      "name": "swapExactTokenForToken",
      "outputs": [
        {
          "internalType": "uint256",
          "name": "amountOut",
          "type": "uint256"
        }
      ],
      "stateMutability": "nonpayable",
      "type": "function"
    },
    {
      "inputs": [
        {
          "internalType": "address",
          "name": "tokenIn",
          "type": "address"
        },
        {
          "internalType": "address",
          "name": "tokenOut",
          "type": "address"
        },
        {
          "internalType": "address",
          "name": "to",
          "type": "address"
        },
        {
          "internalType": "uint256",
          "name": "amountIn",
          "type": "uint256"
        }
      ],
      "name": "swapIn",
      "outputs": [
        {
          "internalType": "uint256",
          "name": "amountOut",
          "type": "uint256"
        }
      ],
      "stateMutability": "nonpayable",
      "type": "function"
    },
    {
      "inputs": [
        {
          "internalType": "address",
          "name": "tokenIn",
          "type": "address"
        },
        {
          "internalType": "address",
          "name": "tokenOut",
          "type": "address"
        },
        {
          "internalType": "address",
          "name": "to",
          "type": "address"
        },
        {
          "internalType": "uint256",
          "name": "amountOut",
          "type": "uint256"
        }
      ],
      "name": "swapOut",
      "outputs": [
        {
          "internalType": "uint256",
          "name": "amountIn",
          "type": "uint256"
        }
      ],
      "stateMutability": "nonpayable",
      "type": "function"
    },
    {
      "inputs": [
        {
          "internalType": "address",
          "name": "tokenIn",
          "type": "address"
        },
        {
          "internalType": "address",
          "name": "tokenOut",
          "type": "address"
        },
        {
          "internalType": "uint256",
          "name": "amountInMax",
          "type": "uint256"
        },
        {
          "internalType": "uint256",
          "name": "amountOut",
          "type": "uint256"
        },
        {
          "internalType": "address",
          "name": "to",
          "type": "address"
        },
        {
          "internalType": "uint256",
          "name": "deadline",
          "type": "uint256"
        }
      ],
      "name": "swapTokenForExactToken",
      "outputs": [
        {
          "internalType": "uint256",
          "name": "amountIn",
          "type": "uint256"
        }
      ],
      "stateMutability": "nonpayable",
      "type": "function"
    },
    {
      "inputs": [
        {
          "internalType": "address",
          "name": "",
          "type": "address"
        }
      ],
      "name": "tokenPoolStatus",
      "outputs": [
        {
          "internalType": "uint8",
          "name": "",
          "type": "uint8"
        }
      ],
      "stateMutability": "view",
      "type": "function"
    },
    {
      "inputs": [
        {
          "internalType": "uint256",
          "name": "",
          "type": "uint256"
        }
      ],
      "name": "totalSupply",
      "outputs": [
        {
          "internalType": "uint256",
          "name": "",
          "type": "uint256"
        }
      ],
      "stateMutability": "view",
      "type": "function"
    },
    {
      "inputs": [
        {
          "internalType": "address",
          "name": "newOwner",
          "type": "address"
        }
      ],
      "name": "transferOwnership",
      "outputs": [],
      "stateMutability": "nonpayable",
      "type": "function"
    },
    {
      "inputs": [
        {
          "internalType": "uint256",
          "name": "",
          "type": "uint256"
        }
      ],
      "name": "uri",
      "outputs": [
        {
          "internalType": "string",
          "name": "",
          "type": "string"
        }
      ],
      "stateMutability": "view",
      "type": "function"
    }
  ],
  "bytecode": "0x60806040526006805461ffff60a01b1916604b60a21b1761ffff60b01b1916601960b11b1790556103e86008556000600c556001600d553480156200004357600080fd5b5060405162004fcb38038062004fcb833981810160405260208110156200006957600080fd5b50516040805180820190915260038152627b317d60e81b6020820152620000976301ffc9a760e01b62000147565b620000a281620001cc565b620000b4636cdb3d1360e11b62000147565b620000c66303a24d0760e21b62000147565b506000620000d3620001e5565b600480546001600160a01b0319166001600160a01b038316908117909155604051919250906000907f8be0079c531659141344cd1fd0a4f28419497f9722a3daafe3b4186f6b6457e0908290a350600580546001600160a01b0319166001600160a01b039290921691909117905562000285565b6001600160e01b03198082161415620001a7576040805162461bcd60e51b815260206004820152601c60248201527f4552433136353a20696e76616c696420696e7465726661636520696400000000604482015290519081900360640190fd5b6001600160e01b0319166000908152602081905260409020805460ff19166001179055565b8051620001e1906003906020840190620001e9565b5050565b3390565b828054600181600116156101000203166002900490600052602060002090601f016020900481019282601f106200022c57805160ff19168380011785556200025c565b828001600101855582156200025c579182015b828111156200025c5782518255916020019190600101906200023f565b506200026a9291506200026e565b5090565b5b808211156200026a57600081556001016200026f565b614d3680620002956000396000f3fe608060405234801561001057600080fd5b50600436106101735760003560e01c8062c2408714610178578062fdd58e146101d157806301ffc9a71461020f5780630e89341c1461024a578063138d03cd146102dc5780631a9fe17e146103245780631b879378146103605780632eb2c2d6146103965780634aa06652146105595780634e1273f4146105b55780634ec18db91461072857806353b609b514610730578063556ca709146107665780635dd44a6d146107a0578063715018a6146107e85780638da5cb5b146107f0578063a22cb46514610814578063a4063dbc14610842578063b2421178146108e7578063bbe4f6db1461091d578063bd85b03914610943578063c22b53be14610960578063c48caa701461099c578063ca1123c2146109d1578063d56468ac146109f2578063e18cb4fe14610a3d578063e4df1c4314610a5e578063e985e9c514610a9a578063f242432a14610ac8578063f2fde38b14610b91578063f46901ed14610bb7575b600080fd5b6101b8600480360360a081101561018e57600080fd5b506001600160a01b0381358116916020810135916040820135169060608101359060800135610bdd565b6040805192835260208301919091528051918290030190f35b6101fd600480360360408110156101e757600080fd5b506001600160a01b038135169060200135610ec8565b60408051918252519081900360200190f35b6102366004803603602081101561022557600080fd5b50356001600160e01b031916610f3a565b604080519115158252519081900360200190f35b6102676004803603602081101561026057600080fd5b5035610f59565b6040805160208082528351818301528351919283929083019185019080838360005b838110156102a1578181015183820152602001610289565b50505050905090810190601f1680156102ce5780820380516001836020036101000a031916815260200191505b509250505060405180910390f35b6101fd600480360360c08110156102f257600080fd5b506001600160a01b03813581169160208101358216916040820135916060810135916080820135169060a00135610ff1565b61034a6004803603602081101561033a57600080fd5b50356001600160a01b03166110ab565b6040805160ff9092168252519081900360200190f35b6101fd6004803603606081101561037657600080fd5b506001600160a01b038135811691602081013591604090910135166110c0565b610557600480360360a08110156103ac57600080fd5b6001600160a01b038235811692602081013590911691810190606081016040820135600160201b8111156103df57600080fd5b8201836020820111156103f157600080fd5b803590602001918460208302840111600160201b8311171561041257600080fd5b9190808060200260200160405190810160405280939291908181526020018383602002808284376000920191909152509295949360208101935035915050600160201b81111561046157600080fd5b82018360208201111561047357600080fd5b803590602001918460208302840111600160201b8311171561049457600080fd5b9190808060200260200160405190810160405280939291908181526020018383602002808284376000920191909152509295949360208101935035915050600160201b8111156104e357600080fd5b8201836020820111156104f557600080fd5b803590602001918460018302840111600160201b8311171561051657600080fd5b91908080601f0160208091040260200160405190810160405280939291908181526020018383808284376000920191909152509295506110d7945050505050565b005b61058f6004803603606081101561056f57600080fd5b506001600160a01b038135811691602081013590911690604001356113d5565b604080519485526020850193909352838301919091526060830152519081900360800190f35b6106d8600480360360408110156105cb57600080fd5b810190602081018135600160201b8111156105e557600080fd5b8201836020820111156105f757600080fd5b803590602001918460208302840111600160201b8311171561061857600080fd5b9190808060200260200160405190810160405280939291908181526020018383602002808284376000920191909152509295949360208101935035915050600160201b81111561066757600080fd5b82018360208201111561067957600080fd5b803590602001918460208302840111600160201b8311171561069a57600080fd5b91908080602002602001604051908101604052809392919081815260200183836020028082843760009201919091525092955061170b945050505050565b60408051602080825283518183015283519192839290830191858101910280838360005b838110156107145781810151838201526020016106fc565b505050509050019250505060405180910390f35b6101fd6117f6565b61058f6004803603606081101561074657600080fd5b506001600160a01b038135811691602081013590911690604001356117fc565b6101fd6004803603608081101561077c57600080fd5b506001600160a01b0381358116916020810135916040820135916060013516611b1a565b6101fd600480360360c08110156107b657600080fd5b506001600160a01b03813581169160208101358216916040820135916060810135916080820135169060a00135611dd6565b610557611e6f565b6107f8611f1b565b604080516001600160a01b039092168252519081900360200190f35b6105576004803603604081101561082a57600080fd5b506001600160a01b0381351690602001351515611f2b565b6108686004803603602081101561085857600080fd5b50356001600160a01b031661201a565b60405180898152602001888152602001876001600160a01b0316815260200186600281111561089357fe5b8152602001856001600160701b03168152602001846001600160701b03168152602001836001600160701b03168152602001826001600160701b031681526020019850505050505050505060405180910390f35b61058f600480360360608110156108fd57600080fd5b506001600160a01b0381358116916020810135916040909101351661207c565b61058f6004803603602081101561093357600080fd5b50356001600160a01b0316612308565b6101fd6004803603602081101561095957600080fd5b5035612422565b6101fd6004803603608081101561097657600080fd5b506001600160a01b03813581169160208101358216916040820135169060600135612434565b6101fd600480360360408110156109b257600080fd5b5080356001600160a01b031690602001356001600160701b03166128f9565b610557600480360360208110156109e757600080fd5b503561ffff16612970565b6101b8600480360360a0811015610a0857600080fd5b506001600160a01b0381358116916001600160701b036020820135169160408201359160608101359160809091013516612a3f565b61055760048036036020811015610a5357600080fd5b503561ffff16612a68565b6101fd60048036036080811015610a7457600080fd5b506001600160a01b03813581169160208101358216916040820135169060600135612b39565b61023660048036036040811015610ab057600080fd5b506001600160a01b0381358116916020013516612f8b565b610557600480360360a0811015610ade57600080fd5b6001600160a01b03823581169260208101359091169160408201359160608101359181019060a081016080820135600160201b811115610b1d57600080fd5b820183602082011115610b2f57600080fd5b803590602001918460018302840111600160201b83111715610b5057600080fd5b91908080601f016020809104026020016040519081016040528093929190818152602001838380828437600092019190915250929550612fb9945050505050565b61055760048036036020811015610ba757600080fd5b50356001600160a01b0316613172565b61055760048036036020811015610bcd57600080fd5b50356001600160a01b0316613275565b6001600160a01b0385166000908152600b6020526040812054819060ff16600114610c3d576040805162461bcd60e51b81526020600482015260196024820152600080516020614a79833981519152604482015290519081900360640190fd5b610c45614874565b6001600160a01b038881166000908152600960209081526040918290208251610100810184528154815260018201549281019290925260028082015494851693830193909352909290916060840191600160a01b900460ff1690811115610ca857fe5b6002811115610cb357fe5b815260038201546001600160701b038082166020840152600160701b91829004811660408401526004909301548084166060840152049091166080909101529050600080610d028a8a8a61207c565b86516020880151929950909750929450909250610d209190846132f9565b86851015610d75576040805162461bcd60e51b815260206004820181905260248201527f4d6f6e6f737761703a204c6573732076555344207468616e2064657369726564604482015290519081900360640190fd5b85841015610db45760405162461bcd60e51b8152600401808060200182810382526028815260200180614cd96028913960400191505060405180910390fd5b8415610e2857600554604080516340c10f1960e01b81526001600160a01b038b8116600483015260248201899052915191909216916340c10f1991604480830192600092919082900301818387803b158015610e0f57600080fd5b505af1158015610e23573d6000803e3d6000fd5b505050505b610e3c6001600160a01b038b168986613375565b610e4b888460000151836133cc565b610e578a6000876133ff565b50505050896001600160a01b03168360000151896001600160a01b03167fab577bf53edf8e035c53859461bfaac55e75b9380a594cc487ae89665d7788f284898960405180848152602001838152602001828152602001935050505060405180910390a45050509550959350505050565b60006001600160a01b038316610f0f5760405162461bcd60e51b815260040180806020018281038252602b815260200180614a04602b913960400191505060405180910390fd5b5060008181526001602090815260408083206001600160a01b03861684529091529020545b92915050565b6001600160e01b03191660009081526020819052604090205460ff1690565b60038054604080516020601f6002600019610100600188161502019095169490940493840181900481028201810190925282815260609390929091830182828015610fe55780601f10610fba57610100808354040283529160200191610fe5565b820191906000526020600020905b815481529060010190602001808311610fc857829003601f168201915b50505050509050919050565b6000814281101561103d576040805162461bcd60e51b8152602060048201526011602482015270135bdb9bdcddd85c0e8811561412549151607a1b604482015290519081900360640190fd5b61104988888688612434565b9150858211156110a0576040805162461bcd60e51b815260206004820181905260248201527f4d6f6e6f737761703a204558434553534956455f494e5055545f414d4f554e54604482015290519081900360640190fd5b509695505050505050565b600b6020526000908152604090205460ff1681565b60006110cf8460008585611b1a565b949350505050565b81518351146111175760405162461bcd60e51b8152600401808060200182810382526028815260200180614c906028913960400191505060405180910390fd5b6001600160a01b03841661115c5760405162461bcd60e51b8152600401808060200182810382526025815260200180614ae26025913960400191505060405180910390fd5b61116461364c565b6001600160a01b0316856001600160a01b0316148061118f575061118f8561118a61364c565b612f8b565b6111ca5760405162461bcd60e51b8152600401808060200182810382526032815260200180614b076032913960400191505060405180910390fd5b60006111d461364c565b90506111e48187878787876113cd565b60005b84518110156112e55760008582815181106111fe57fe5b60200260200101519050600085838151811061121657fe5b60200260200101519050611283816040518060600160405280602a8152602001614b5c602a91396001600086815260200190815260200160002060008d6001600160a01b03166001600160a01b03168152602001908152602001600020546136509092919063ffffffff16565b60008381526001602090815260408083206001600160a01b038e811685529252808320939093558a16815220546112ba90826136e7565b60009283526001602081815260408086206001600160a01b038d1687529091529093205550016111e7565b50846001600160a01b0316866001600160a01b0316826001600160a01b03167f4a39dc06d4c0dbc64b70af90fd698a233a518aa5d07e595d983b8c0526c8f7fb8787604051808060200180602001838103835285818151815260200191508051906020019060200280838360005b8381101561136b578181015183820152602001611353565b50505050905001838103825284818151815260200191508051906020019060200280838360005b838110156113aa578181015183820152602001611392565b5050505090500194505050505060405180910390a46113cd81878787878761373f565b505050505050565b6000806000806000851161141a5760405162461bcd60e51b8152600401808060200182810382526023815260200180614bf16023913960400191505060405180910390fd5b600654600090620186a090611442908890600160a01b900461ffff16830362ffffff166139be565b8161144957fe5b60055491900491506001600160a01b0390811690891681141561147957819250670de0b6b3a76400009550611598565b6001600160a01b0389166000908152600b602052604090205460ff166001146114d7576040805162461bcd60e51b81526020600482015260196024820152600080516020614a79833981519152604482015290519081900360640190fd5b6001600160a01b03891660009081526009602052604081206002810154600490910154600160a01b90910460ff1691600160701b82046001600160701b0390811692169083600281111561152757fe5b1415611568576040805162461bcd60e51b81526020600482015260176024820152600080516020614ac2833981519152604482015290519081900360640190fd5b6115758282876000613a17565b9850670de0b6b3a764000061158a8a876139be565b8161159157fe5b0495505050505b806001600160a01b0316886001600160a01b031614156115c557829350670de0b6b3a76400009450611700565b6001600160a01b0388166000908152600b602052604090205460ff16600114611623576040805162461bcd60e51b81526020600482015260196024820152600080516020614a79833981519152604482015290519081900360640190fd5b6001600160a01b03881660009081526009602052604081206002810154600490910154600160a01b90910460ff1691600160701b82046001600160701b0390811692169083600281111561167357fe5b14156116b4576040805162461bcd60e51b81526020600482015260176024820152600080516020614ac2833981519152604482015290519081900360640190fd5b60006116d2836116cc89670de0b6b3a76400006139be565b90613a6f565b90506116e18383836001613a17565b98506116f9896116cc89670de0b6b3a76400006139be565b9750505050505b505093509350935093565b6060815183511461174d5760405162461bcd60e51b8152600401808060200182810382526029815260200180614c676029913960400191505060405180910390fd5b606083516001600160401b038111801561176657600080fd5b50604051908082528060200260200182016040528015611790578160200160208202803683370190505b50905060005b84518110156117ee576117cf8582815181106117ae57fe5b60200260200101518583815181106117c257fe5b6020026020010151610ec8565b8282815181106117db57fe5b6020908102919091010152600101611796565b509392505050565b600c5481565b600080600080600085116118415760405162461bcd60e51b8152600401808060200182810382526023815260200180614bf16023913960400191505060405180910390fd5b600654600090620186a090611869908890600160a01b900461ffff16830162ffffff166139be565b8161187057fe5b60055491900491506001600160a01b039081169088168114156118a057819250670de0b6b3a764000094506119bf565b6001600160a01b0388166000908152600b602052604090205460ff166001146118fe576040805162461bcd60e51b81526020600482015260196024820152600080516020614a79833981519152604482015290519081900360640190fd5b6001600160a01b03881660009081526009602052604081206002810154600490910154600160a01b90910460ff1691600160701b82046001600160701b0390811692169083600281111561194e57fe5b141561198f576040805162461bcd60e51b81526020600482015260176024820152600080516020614ac2833981519152604482015290519081900360640190fd5b61199c8282876001613a17565b9750670de0b6b3a76400006119b189876139be565b816119b857fe5b0495505050505b806001600160a01b0316896001600160a01b031614156119ec57829350670de0b6b3a76400009550611700565b6001600160a01b0389166000908152600b602052604090205460ff16600114611a4a576040805162461bcd60e51b81526020600482015260196024820152600080516020614a79833981519152604482015290519081900360640190fd5b6001600160a01b03891660009081526009602052604081206002810154600490910154600160a01b90910460ff1691600160701b82046001600160701b03908116921690836002811115611a9a57fe5b1415611adb576040805162461bcd60e51b81526020600482015260176024820152600080516020614ac2833981519152604482015290519081900360640190fd5b6000611af3836116cc89670de0b6b3a76400006139be565b9050611b028383836000613a17565b99506116f98a6116cc89670de0b6b3a76400006139be565b6000808311611b67576040805162461bcd60e51b8152602060048201526014602482015273135bdb9bdcddd85c0e8810985908105b5bdd5b9d60621b604482015290519081900360640190fd5b6001600160a01b0385166000908152600b602052604090205460ff16600114611bcb576040805162461bcd60e51b8152602060048201526011602482015270135bdb9bdcddd85c0e88139bc81c1bdbdb607a1b604482015290519081900360640190fd5b6000611bd686612308565b5050509050611be3614874565b6001600160a01b038781166000908152600960209081526040918290208251610100810184528154815260018201549281019290925260028082015494851693830193909352909290916060840191600160a01b900460ff1690811115611c4657fe5b6002811115611c5157fe5b815260038201546001600160701b03808216602080850191909152600160701b928390048216604085015260049094015480821660608501529190910416608090910152815190820151919250611ca891846132f9565b8051600090815260076020526040902054611cce6001600160a01b038916333089613ad3565b8615611cec57600554611cec906001600160a01b031633308a613ad3565b6000611d2a670de0b6b3a7640000611d1a8560e001516001600160701b03168a6139be90919063ffffffff16565b81611d2157fe5b8a9190046136e7565b905081611d4657600854611d3f908290613b2d565b9450611d57565b611d54846116cc84846139be565b94505b611d6686846000015187613b8a565b611d72898960006133ff565b5050845160408051898152602081018d90528082018c905290516001600160a01b03808f169550929350918a16917f166ddb815a41f60899d37e5c34db8f6cd53a5c65da870fcc7315af673878562a9181900360600190a450505050949350505050565b60008142811015611e22576040805162461bcd60e51b8152602060048201526011602482015270135bdb9bdcddd85c0e8811561412549151607a1b604482015290519081900360640190fd5b611e2e88888689612b39565b9150848210156110a05760405162461bcd60e51b81526004018080602001828103825260248152602001806149e06024913960400191505060405180910390fd5b611e7761364c565b6001600160a01b0316611e88611f1b565b6001600160a01b031614611ed1576040805162461bcd60e51b81526020600482018190526024820152600080516020614bd1833981519152604482015290519081900360640190fd5b6004546040516000916001600160a01b0316907f8be0079c531659141344cd1fd0a4f28419497f9722a3daafe3b4186f6b6457e0908390a3600480546001600160a01b0319169055565b6004546001600160a01b03165b90565b816001600160a01b0316611f3d61364c565b6001600160a01b03161415611f835760405162461bcd60e51b8152600401808060200182810382526029815260200180614c146029913960400191505060405180910390fd5b8060026000611f9061364c565b6001600160a01b03908116825260208083019390935260409182016000908120918716808252919093529120805460ff191692151592909217909155611fd461364c565b6001600160a01b03167f17307eab39ab6107e8899845ad3d59bd9653f200f220920489ca2b5937696c318360405180821515815260200191505060405180910390a35050565b60096020526000908152604090208054600182015460028301546003840154600490940154929391926001600160a01b03821692600160a01b90920460ff16916001600160701b0380821692600160701b928390048216928282169291041688565b600080600080600086116120ce576040805162461bcd60e51b8152602060048201526014602482015273135bdb9bdcddd85c0e8810985908105b5bdd5b9d60621b604482015290519081900360640190fd5b60008060006120db614874565b6001600160a01b038b81166000908152600960209081526040918290208251610100810184528154815260018201549281019290925260028082015494851693830193909352909290916060840191600160a01b900460ff169081111561213e57fe5b600281111561214957fe5b815260038201546001600160701b038082166020840152600160701b918290048116604084015260049093015480841660608401520490911660809091015290506121938b612308565b84516000908152600760205260409020548551949c509297509095509350908b906121bf908c90610ec8565b116121d7576121d28a8360000151610ec8565b6121d9565b8a5b975060008c6001600160a01b03166370a08231306040518263ffffffff1660e01b815260040180826001600160a01b0316815260200191505060206040518083038186803b15801561222a57600080fd5b505afa15801561223e573d6000803e3d6000fd5b505050506040513d602081101561225457600080fd5b505160c08401519091506001600160701b03168110156122a257670de0b6b3a76400006122978460e001516001600160701b0316836139be90919063ffffffff16565b8161229e57fe5b0495505b83156122d95760e08301516122d6906001600160701b03166116cc670de0b6b3a76400006122d08a89613b2d565b906139be565b90505b6122e7826116cc8b886139be565b97506122f7826116cc8b846139be565b965050505050505093509350935093565b600080600080612316614874565b6001600160a01b038681166000908152600960209081526040918290208251610100810184528154815260018201549281019290925260028082015494851693830193909352909290916060840191600160a01b900460ff169081111561237957fe5b600281111561238457fe5b815260038201546001600160701b038082166020840152600160701b9182900481166040840152600490930154808416606084015204821660809182015260a08301519083015160c084015160e085015192841697509083169550929350670de0b6b3a7640000926123fa9291821691166139be565b8161240157fe5b0493506124188261241286866136e7565b90613b2d565b9450509193509193565b60076020526000908152604090205481565b6001600160a01b0384166000908152600a6020526040812054859060ff1660018114156124a0576040805162461bcd60e51b8152602060048201526015602482015274135bdb9bdcddd85c0e881413d3d3081313d0d2d151605a1b604482015290519081900360640190fd5b60ff81166124cc576001600160a01b0382166000908152600a60205260409020805460ff191660011790555b6005546001600160a01b0316600080806124e78b8b8a6117fc565b6001600160a01b038f166000908152600a6020526040902054919a5092955090935090915060ff16600214156125315761252c6001600160a01b038c1633308a613ad3565b61269f565b60008b6001600160a01b03166370a08231306040518263ffffffff1660e01b815260040180826001600160a01b0316815260200191505060206040518083038186803b15801561258057600080fd5b505afa158015612594573d6000803e3d6000fd5b505050506040513d60208110156125aa57600080fd5b505190506125c36001600160a01b038d1633308b613ad3565b60008c6001600160a01b03166370a08231306040518263ffffffff1660e01b815260040180826001600160a01b0316815260200191505060206040518083038186803b15801561261257600080fd5b505afa158015612626573d6000803e3d6000fd5b505050506040513d602081101561263c57600080fd5b5051905061264a8183613b2d565b89101561269c576040805162461bcd60e51b815260206004820152601b60248201527a4d6f6e6f737761703a204e6f7420456e6f75676820546f6b656e7360281b604482015290519081900360640190fd5b50505b60065460009062030d40906126c0908a90600160a01b900461ffff166139be565b816126c757fe5b0490506000670de0b6b3a76400006126df86846139be565b816126e657fe5b049050856001600160a01b03168d6001600160a01b031614156127845760408051632770a7eb60e21b8152306004820152602481018b905290516001600160a01b03881691639dc29fac91604480830192600092919082900301818387803b15801561275157600080fd5b505af1158015612765573d6000803e3d6000fd5b5050505061277d6002826139be90919063ffffffff16565b905061279a565b61279a8d86600061279587866136e7565b613bd5565b856001600160a01b03168c6001600160a01b0316141561283657856001600160a01b03166340c10f198c8c6040518363ffffffff1660e01b815260040180836001600160a01b0316815260200182815260200192505050600060405180830381600087803b15801561280b57600080fd5b505af115801561281f573d6000803e3d6000fd5b5050505061282f8d826000613d04565b5050612860565b61284a6001600160a01b038d168c8c613375565b6128608c8561285986856136e7565b6000613bd5565b8b6001600160a01b03168d6001600160a01b03168c6001600160a01b03167fcd3829a3813dc3cdd188fd3d01dcf3268c16be2fdd2dd21d0665418816e460628c8e604051808381526020018281526020019250505060405180910390a4505050505060ff8216151590506128ef576001600160a01b0382166000908152600a60205260409020805460ff191690555b5050949350505050565b600061290361364c565b6001600160a01b0316612914611f1b565b6001600160a01b03161461295d576040805162461bcd60e51b81526020600482018190526024820152600080516020614bd1833981519152604482015290519081900360640190fd5b61296983836002613f46565b9392505050565b61297861364c565b6001600160a01b0316612989611f1b565b6001600160a01b0316146129d2576040805162461bcd60e51b81526020600482018190526024820152600080516020614bd1833981519152604482015290519081900360640190fd5b6103e88161ffff1610612a1d576040805162461bcd60e51b815260206004820152600e60248201526d6665657320746f6f206c6172676560901b604482015290519081900360640190fd5b6006805461ffff909216600160a01b0261ffff60a01b19909216919091179055565b600080612a4e87876001613f46565b9150612a5c87868686611b1a565b90509550959350505050565b612a7061364c565b6001600160a01b0316612a81611f1b565b6001600160a01b031614612aca576040805162461bcd60e51b81526020600482018190526024820152600080516020614bd1833981519152604482015290519081900360640190fd5b6103e88161ffff1610612b17576040805162461bcd60e51b815260206004820152601060248201526f64657646656520746f6f206c6172676560801b604482015290519081900360640190fd5b6006805461ffff909216600160b01b0261ffff60b01b19909216919091179055565b6001600160a01b0384166000908152600a6020526040812054859060ff166001811415612ba5576040805162461bcd60e51b8152602060048201526015602482015274135bdb9bdcddd85c0e881413d3d3081313d0d2d151605a1b604482015290519081900360640190fd5b60ff8116612bd1576001600160a01b0382166000908152600a60205260409020805460ff191660011790555b6005546001600160a01b038881166000908152600a602052604090205491169060ff1660021415612c1657612c116001600160a01b038916333088613ad3565b612d34565b6000886001600160a01b03166370a08231306040518263ffffffff1660e01b815260040180826001600160a01b0316815260200191505060206040518083038186803b158015612c6557600080fd5b505afa158015612c79573d6000803e3d6000fd5b505050506040513d6020811015612c8f57600080fd5b50519050612ca86001600160a01b038a16333089613ad3565b6000896001600160a01b03166370a08231306040518263ffffffff1660e01b815260040180826001600160a01b0316815260200191505060206040518083038186803b158015612cf757600080fd5b505afa158015612d0b573d6000803e3d6000fd5b505050506040513d6020811015612d2157600080fd5b50519050612d2f8183613b2d565b965050505b60065460009062030d4090612d55908890600160a01b900461ffff166139be565b81612d5c57fe5b0490506000806000612d6f8c8c8b6113d5565b909a50919450925090506000670de0b6b3a7640000612d8e85876139be565b81612d9557fe5b049050856001600160a01b03168d6001600160a01b03161415612e335760408051632770a7eb60e21b8152306004820152602481018c905290516001600160a01b03881691639dc29fac91604480830192600092919082900301818387803b158015612e0057600080fd5b505af1158015612e14573d6000803e3d6000fd5b50505050612e2c6002826139be90919063ffffffff16565b9050612e44565b612e448d85600061279586866136e7565b856001600160a01b03168c6001600160a01b03161415612ed257856001600160a01b03166340c10f198c8b6040518363ffffffff1660e01b815260040180836001600160a01b0316815260200182815260200192505050600060405180830381600087803b158015612eb557600080fd5b505af1158015612ec9573d6000803e3d6000fd5b50505050612ef5565b612ee66001600160a01b038d168c8b613375565b612ef58c8461285985856136e7565b8b6001600160a01b03168d6001600160a01b03168c6001600160a01b03167fcd3829a3813dc3cdd188fd3d01dcf3268c16be2fdd2dd21d0665418816e460628d8d604051808381526020018281526020019250505060405180910390a4505050505060ff8216151590506128ef57506001600160a01b03166000908152600a60205260409020805460ff19169055949350505050565b6001600160a01b03918216600090815260026020908152604080832093909416825291909152205460ff1690565b6001600160a01b038416612ffe5760405162461bcd60e51b8152600401808060200182810382526025815260200180614ae26025913960400191505060405180910390fd5b61300661364c565b6001600160a01b0316856001600160a01b0316148061302c575061302c8561118a61364c565b6130675760405162461bcd60e51b8152600401808060200182810382526029815260200180614a996029913960400191505060405180910390fd5b600061307161364c565b9050613091818787613082886141d7565b61308b886141d7565b876113cd565b6130d8836040518060600160405280602a8152602001614b5c602a913960008781526001602090815260408083206001600160a01b038d1684529091529020549190613650565b60008581526001602090815260408083206001600160a01b038b8116855292528083209390935587168152205461310f90846136e7565b60008581526001602090815260408083206001600160a01b03808b168086529184529382902094909455805188815291820187905280518a8416938616926000805160206149c083398151915292908290030190a46113cd81878787878761421b565b61317a61364c565b6001600160a01b031661318b611f1b565b6001600160a01b0316146131d4576040805162461bcd60e51b81526020600482018190526024820152600080516020614bd1833981519152604482015290519081900360640190fd5b6001600160a01b0381166132195760405162461bcd60e51b8152600401808060200182810382526026815260200180614a2f6026913960400191505060405180910390fd5b6004546040516001600160a01b038084169216907f8be0079c531659141344cd1fd0a4f28419497f9722a3daafe3b4186f6b6457e090600090a3600480546001600160a01b0319166001600160a01b0392909216919091179055565b61327d61364c565b6001600160a01b031661328e611f1b565b6001600160a01b0316146132d7576040805162461bcd60e51b81526020600482018190526024820152600080516020614bd1833981519152604482015290519081900360640190fd5b600680546001600160a01b0319166001600160a01b0392909216919091179055565b60008381526007602052604090205482821180156133175750600083115b1561336f5760065483830390600090620186a09061334c90848703906116cc90600160b01b900461ffff166122d088886139be565b8161335357fe5b60065491900491506113cd906001600160a01b03168783613b8a565b50505050565b604080516001600160a01b038416602482015260448082018490528251808303909101815260649091019091526020810180516001600160e01b031663a9059cbb60e01b1790526133c790849061438c565b505050565b6000828152600760205260409020546133e59082613b2d565b6000838152600760205260409020556133c783838361443d565b6001600160a01b0383166000908152600a6020526040812054819081908190879060ff166001811415613471576040805162461bcd60e51b8152602060048201526015602482015274135bdb9bdcddd85c0e881413d3d3081313d0d2d151605a1b604482015290519081900360640190fd5b60ff811661349d576001600160a01b0382166000908152600a60205260409020805460ff191660011790555b6001600160a01b038916600090815260096020526040902060040154600160701b90046001600160701b03166134d48a8a8a613d04565b604080516370a0823160e01b815230600482015290519297509095506000916001600160a01b038d16916370a08231916024808301926020929190829003018186803b15801561352357600080fd5b505afa158015613537573d6000803e3d6000fd5b505050506040513d602081101561354d57600080fd5b50519050670de0b6b3a764000061356483836139be565b8161356b57fe5b0496506001600160701b038111156135b5576040805162461bcd60e51b81526020600482015260086024820152674f564552464c4f5760c01b604482015290519081900360640190fd5b6001600160a01b038b16600090815260096020526040902060040180546001600160701b0319166001600160701b0383161790556135f78561241289896136e7565b6001600160a01b038c1660009081526009602052604090206001018190559750505060ff8116611700576001600160a01b0382166000908152600a60205260409020805460ff19169055505093509350935093565b3390565b600081848411156136df5760405162461bcd60e51b81526004018080602001828103825283818151815260200191508051906020019080838360005b838110156136a457818101518382015260200161368c565b50505050905090810190601f1680156136d15780820380516001836020036101000a031916815260200191505b509250505060405180910390fd5b505050900390565b600082820183811015612969576040805162461bcd60e51b815260206004820152601b60248201527a536166654d6174683a206164646974696f6e206f766572666c6f7760281b604482015290519081900360640190fd5b613751846001600160a01b031661455e565b156113cd57836001600160a01b031663bc197c8187878686866040518663ffffffff1660e01b815260040180866001600160a01b03168152602001856001600160a01b03168152602001806020018060200180602001848103845287818151815260200191508051906020019060200280838360005b838110156137df5781810151838201526020016137c7565b50505050905001848103835286818151815260200191508051906020019060200280838360005b8381101561381e578181015183820152602001613806565b50505050905001848103825285818151815260200191508051906020019080838360005b8381101561385a578181015183820152602001613842565b50505050905090810190601f1680156138875780820380516001836020036101000a031916815260200191505b5098505050505050505050602060405180830381600087803b1580156138ac57600080fd5b505af19250505080156138d157506040513d60208110156138cc57600080fd5b505160015b613966576138dd6148bf565b806138e8575061392f565b60405162461bcd60e51b81526020600482018181528351602484015283518493919283926044019190850190808383600083156136a457818101518382015260200161368c565b60405162461bcd60e51b81526004018080602001828103825260348152602001806149646034913960400191505060405180910390fd5b6001600160e01b0319811663bc197c8160e01b146139b55760405162461bcd60e51b81526004018080602001828103825260288152602001806149986028913960400191505060405180910390fd5b50505050505050565b6000826139cd57506000610f34565b828202828482816139da57fe5b04146129695760405162461bcd60e51b8152600401808060200182810382526021815260200180614b866021913960400191505060405180910390fd5b600080826001811115613a2657fe5b1415613a4f57613a3684846136e7565b613a4086866139be565b81613a4757fe5b0490506110cf565b613a66613a5c8585613b2d565b6116cc87876139be565b95945050505050565b6000808211613ac2576040805162461bcd60e51b815260206004820152601a602482015279536166654d6174683a206469766973696f6e206279207a65726f60301b604482015290519081900360640190fd5b818381613acb57fe5b049392505050565b604080516001600160a01b0380861660248301528416604482015260648082018490528251808303909101815260849091019091526020810180516001600160e01b03166323b872dd60e01b17905261336f90859061438c565b600082821115613b84576040805162461bcd60e51b815260206004820152601e60248201527f536166654d6174683a207375627472616374696f6e206f766572666c6f770000604482015290519081900360640190fd5b50900390565b600082815260076020526040902054613ba390826136e7565b60076000848152602001908152602001600020819055506133c783838360405180602001604052806000815250614564565b6000846001600160a01b03166370a08231306040518263ffffffff1660e01b815260040180826001600160a01b0316815260200191505060206040518083038186803b158015613c2457600080fd5b505afa158015613c38573d6000803e3d6000fd5b505050506040513d6020811015613c4e57600080fd5b505190506001600160701b038411801590613c7057506001600160701b038111155b613cac576040805162461bcd60e51b81526020600482015260086024820152674f564552464c4f5760c01b604482015290519081900360640190fd5b6001600160a01b038516600090815260096020526040902060040180546001600160701b03868116600160701b02600160701b600160e01b03199185166001600160701b031990931692909217161790556139b58584845b60008082841115613d1c579190920391600091613d24565b600093909203915b6001600160a01b038516600090815260096020526040902060038101546002909101546001600160701b03600160701b8304811692169060ff600160a01b909104168515613e2857613d7783838861465a565b90955093506001600160701b038511801590613d9a57506001600160701b038411155b613dd6576040805162461bcd60e51b81526020600482015260086024820152674f564552464c4f5760c01b604482015290519081900360640190fd5b6001600160a01b038816600090815260096020526040902060030180546001600160701b038681166001600160701b0319918916600160701b02600160701b600160e01b031990931692909217161790555b8615613eea57613e3983838961469e565b90955093506001600160701b038511801590613e5c57506001600160701b038411155b613e98576040805162461bcd60e51b81526020600482015260086024820152674f564552464c4f5760c01b604482015290519081900360640190fd5b6001600160a01b038816600090815260096020526040902060030180546001600160701b038681166001600160701b0319918916600160701b02600160701b600160e01b031990931692909217161790555b6001816002811115613ef857fe5b1415613f3b578315613f3b5760405162461bcd60e51b815260040180806020018281038252602a815260200180614ba7602a913960400191505060405180910390fd5b505050935093915050565b6000600d54600114613f92576040805162461bcd60e51b815260206004820152601060248201526f135bdb9bdcddd85c0e881313d0d2d15160821b604482015290519081900360640190fd5b6000600d8190556001600160a01b0385168152600b602052604090205460ff1615613ffd576040805162461bcd60e51b81526020600482015260166024820152754d6f6e6f737761703a20546f6b656e2045786973747360501b604482015290519081900360640190fd5b6005546001600160a01b0385811691161415614060576040805162461bcd60e51b815260206004820152601f60248201527f4d6f6e6f737761703a207655534420706f6f6c206e6f7420616c6c6f77656400604482015290519081900360640190fd5b600c54905060405180610100016040528082815260200160008152602001856001600160a01b0316815260200183600281111561409957fe5b815260006020808301829052604080840183905260608085018490526001600160701b0389166080909501949094526001600160a01b038981168452600983529281902085518155918501516001830155840151600280830180546001600160a01b031916929094169190911780845593850151919391929160ff60a01b191690600160a01b90849081111561412b57fe5b0217905550608082015160038201805460a08501516001600160701b03908116600160701b908102600160701b600160e01b03199583166001600160701b03199485161786161790935560c08601516004909501805460e09097015182169093029416941693909317161790556141a38160016136e7565b600c556001600160a01b039093166000908152600b60205260409020805460ff19166001908117909155600d555090919050565b60408051600180825281830190925260609182919060208083019080368337019050509050828160008151811061420a57fe5b602090810291909101015292915050565b61422d846001600160a01b031661455e565b156113cd57836001600160a01b031663f23a6e6187878686866040518663ffffffff1660e01b815260040180866001600160a01b03168152602001856001600160a01b0316815260200184815260200183815260200180602001828103825283818151815260200191508051906020019080838360005b838110156142bc5781810151838201526020016142a4565b50505050905090810190601f1680156142e95780820380516001836020036101000a031916815260200191505b509650505050505050602060405180830381600087803b15801561430c57600080fd5b505af192505050801561433157506040513d602081101561432c57600080fd5b505160015b61433d576138dd6148bf565b6001600160e01b0319811663f23a6e6160e01b146139b55760405162461bcd60e51b81526004018080602001828103825260288152602001806149986028913960400191505060405180910390fd5b60606143e1826040518060400160405280602081526020017f5361666545524332303a206c6f772d6c6576656c2063616c6c206661696c6564815250856001600160a01b03166146e89092919063ffffffff16565b8051909150156133c75780806020019051602081101561440057600080fd5b50516133c75760405162461bcd60e51b815260040180806020018281038252602a815260200180614c3d602a913960400191505060405180910390fd5b6001600160a01b0383166144825760405162461bcd60e51b8152600401808060200182810382526023815260200180614b396023913960400191505060405180910390fd5b600061448c61364c565b90506144bc8185600061449e876141d7565b6144a7876141d7565b604051806020016040528060008152506113cd565b61450382604051806060016040528060248152602001614a556024913960008681526001602090815260408083206001600160a01b038b1684529091529020549190613650565b60008481526001602090815260408083206001600160a01b03808a16808652918452828520959095558151888152928301879052815193949093908616926000805160206149c083398151915292908290030190a450505050565b3b151590565b6001600160a01b0384166145a95760405162461bcd60e51b8152600401808060200182810382526021815260200180614cb86021913960400191505060405180910390fd5b60006145b361364c565b90506145c581600087613082886141d7565b60008481526001602090815260408083206001600160a01b03891684529091529020546145f290846136e7565b60008581526001602090815260408083206001600160a01b03808b16808652918452828520959095558151898152928301889052815190948616926000805160206149c083398151915292908290030190a46146538160008787878761421b565b5050505050565b60008084156146855784831115614678575060009050838203614680565b505080830360005b614696565b6000915061469384846136e7565b90505b935093915050565b60008083156146d257838311156146c5575060006146be858585036136e7565b9150614680565b5060009050818303614696565b6146dc85846136e7565b95600095509350505050565b60606110cf8484600085856146fc8561455e565b61474d576040805162461bcd60e51b815260206004820152601d60248201527f416464726573733a2063616c6c20746f206e6f6e2d636f6e7472616374000000604482015290519081900360640190fd5b60006060866001600160a01b031685876040518082805190602001908083835b6020831061478c5780518252601f19909201916020918201910161476d565b6001836020036101000a03801982511681845116808217855250505050505090500191505060006040518083038185875af1925050503d80600081146147ee576040519150601f19603f3d011682016040523d82523d6000602084013e6147f3565b606091505b509150915061480382828661480e565b979650505050505050565b6060831561481d575081612969565b82511561482d5782518084602001fd5b60405162461bcd60e51b81526020600482018181528451602484015284518593919283926044019190850190808383600083156136a457818101518382015260200161368c565b60408051610100810182526000808252602082018190529181018290529060608201908152600060208201819052604082018190526060820181905260809091015290565b60e01c90565b600060443d10156148cf57611f28565b600481823e6308c379a06148e382516148b9565b146148ed57611f28565b6040513d600319016004823e80513d6001600160401b03816024840111818411171561491c5750505050611f28565b828401925082519150808211156149365750505050611f28565b503d8301602082840101111561494e57505050611f28565b601f01601f191681016020016040529150509056fe455243313135353a207472616e7366657220746f206e6f6e2045524331313535526563656976657220696d706c656d656e746572455243313135353a204552433131353552656365697665722072656a656374656420746f6b656e73c3d58168c5ae7397731d063d5bbf3d657854427343f4c083240f7aacaa2d0f624d6f6e6f737761703a20494e53554646494349454e545f4f55545055545f414d4f554e54455243313135353a2062616c616e636520717565727920666f7220746865207a65726f20616464726573734f776e61626c653a206e6577206f776e657220697320746865207a65726f2061646472657373455243313135353a206275726e20616d6f756e7420657863656564732062616c616e63654d6f6e6f737761703a20546f6b656e204e6f7420466f756e6400000000000000455243313135353a2063616c6c6572206973206e6f74206f776e6572206e6f7220617070726f7665644d6f6e6f737761703a20506f6f6c20556e6c6973746564000000000000000000455243313135353a207472616e7366657220746f20746865207a65726f2061646472657373455243313135353a207472616e736665722063616c6c6572206973206e6f74206f776e6572206e6f7220617070726f766564455243313135353a206275726e2066726f6d20746865207a65726f2061646472657373455243313135353a20696e73756666696369656e742062616c616e636520666f72207472616e73666572536166654d6174683a206d756c7469706c69636174696f6e206f766572666c6f774d6f6e6f737761703a20756e6f6666696369616c20706f6f6c2063616e6e6f74206265617220646562744f776e61626c653a2063616c6c6572206973206e6f7420746865206f776e65724d6f6e6f737761703a20494e53554646494349454e545f494e5055545f414d4f554e54455243313135353a2073657474696e6720617070726f76616c2073746174757320666f722073656c665361666545524332303a204552433230206f7065726174696f6e20646964206e6f742073756363656564455243313135353a206163636f756e747320616e6420696473206c656e677468206d69736d61746368455243313135353a2069647320616e6420616d6f756e7473206c656e677468206d69736d61746368455243313135353a206d696e7420746f20746865207a65726f20616464726573734d6f6e6f737761703a204c65737320746f6b656e20616d6f756e74207468616e2064657369726564a264697066735822122031def63ec9913da980602e1c2418a18939320e76bbf2ccb471c31ac3b070724864736f6c634300060c0033",
  "linkReferences": {},
  "deployedLinkReferences": {}
}